{
    "address": "0x9fE46736679d2D9a65F0992F2272dE9f3c7fa6e0",
    "abi": [
        {
            "inputs": [
                {
                    "components": [
                        {
                            "components": [
                                {
                                    "internalType": "string",
                                    "name": "name",
                                    "type": "string"
                                },
                                {
                                    "internalType": "string",
                                    "name": "dateOfBirth",
                                    "type": "string"
                                },
                                {
                                    "internalType": "string",
                                    "name": "gender",
                                    "type": "string"
                                },
                                {
                                    "internalType": "string",
                                    "name": "homeAddress",
                                    "type": "string"
                                },
                                {
                                    "internalType": "string",
                                    "name": "phoneNumber",
                                    "type": "string"
                                },
                                {
                                    "internalType": "string",
                                    "name": "pronouns",
                                    "type": "string"
                                },
                                {
                                    "internalType": "string",
                                    "name": "email",
                                    "type": "string"
                                },
                                {
                                    "internalType": "string",
                                    "name": "occupation",
                                    "type": "string"
                                },
                                {
                                    "internalType": "address payable",
                                    "name": "policyHolderWalletAddress",
                                    "type": "address"
                                }
                            ],
                            "internalType": "struct SharedData.HumanDetails",
                            "name": "policyHolder",
                            "type": "tuple"
                        },
                        {
                            "internalType": "uint128",
                            "name": "policyTenure",
                            "type": "uint128"
                        },
                        {
                            "internalType": "uint128",
                            "name": "gracePeriod",
                            "type": "uint128"
                        },
                        {
                            "internalType": "uint128",
                            "name": "timeBeforeCommencement",
                            "type": "uint128"
                        },
                        {
                            "internalType": "uint256",
                            "name": "timeInterval",
                            "type": "uint256"
                        },
                        {
                            "internalType": "uint256",
                            "name": "premiumToBePaid",
                            "type": "uint256"
                        },
                        {
                            "internalType": "uint256",
                            "name": "totalCoverageByPolicy",
                            "type": "uint256"
                        },
                        {
                            "internalType": "bool",
                            "name": "hasClaimed",
                            "type": "bool"
                        },
                        {
                            "internalType": "bool",
                            "name": "isPolicyActive",
                            "type": "bool"
                        },
                        {
                            "internalType": "bool",
                            "name": "isClaimable",
                            "type": "bool"
                        },
                        {
                            "internalType": "bool",
                            "name": "isTerminated",
                            "type": "bool"
                        },
                        {
                            "internalType": "bool",
                            "name": "hasFundedForCurrentInterval",
                            "type": "bool"
                        },
                        {
                            "components": [
                                {
                                    "internalType": "uint128",
                                    "name": "revivalPeriod",
                                    "type": "uint128"
                                },
                                {
                                    "internalType": "uint256",
                                    "name": "revivalAmount",
                                    "type": "uint256"
                                }
                            ],
                            "internalType": "struct SharedData.RevivalRule",
                            "name": "revivalRule",
                            "type": "tuple"
                        },
                        {
                            "internalType": "string",
                            "name": "policyDetails",
                            "type": "string"
                        },
                        {
                            "internalType": "enum SharedData.PolicyType",
                            "name": "policyType",
                            "type": "uint8"
                        },
                        {
                            "internalType": "address payable",
                            "name": "policyManagerAddress",
                            "type": "address"
                        }
                    ],
                    "internalType": "struct SharedData.Policy",
                    "name": "policy",
                    "type": "tuple"
                }
            ],
            "stateMutability": "nonpayable",
            "type": "constructor"
        },
        {
            "inputs": [],
            "name": "OnlyOwnerAllowed",
            "type": "error"
        },
        {
            "inputs": [],
            "name": "OnlySimulatedBackend",
            "type": "error"
        },
        {
            "inputs": [],
            "name": "PolicyActive",
            "type": "error"
        },
        {
            "inputs": [],
            "name": "PolicyAlreadyClaimed",
            "type": "error"
        },
        {
            "inputs": [],
            "name": "PolicyNotActive",
            "type": "error"
        },
        {
            "inputs": [],
            "name": "PolicyNotClaimable",
            "type": "error"
        },
        {
            "inputs": [],
            "name": "PolicyNotFunded",
            "type": "error"
        },
        {
            "inputs": [],
            "name": "PolicyNotInGracePeriod",
            "type": "error"
        },
        {
            "inputs": [],
            "name": "PolicyNotMatured",
            "type": "error"
        },
        {
            "inputs": [],
            "name": "PolicyNotRevivable",
            "type": "error"
        },
        {
            "inputs": [],
            "name": "PolicyTerminated",
            "type": "error"
        },
        {
            "inputs": [],
            "name": "PremiumAmountNotCorrect",
            "type": "error"
        },
        {
            "inputs": [],
            "name": "RevivalAmountNotCorrect",
            "type": "error"
        },
        {
            "anonymous": false,
            "inputs": [
                {
                    "indexed": true,
                    "internalType": "bytes32",
                    "name": "id",
                    "type": "bytes32"
                }
            ],
            "name": "ChainlinkCancelled",
            "type": "event"
        },
        {
            "anonymous": false,
            "inputs": [
                {
                    "indexed": true,
                    "internalType": "bytes32",
                    "name": "id",
                    "type": "bytes32"
                }
            ],
            "name": "ChainlinkFulfilled",
            "type": "event"
        },
        {
            "anonymous": false,
            "inputs": [
                {
                    "indexed": true,
                    "internalType": "bytes32",
                    "name": "id",
                    "type": "bytes32"
                }
            ],
            "name": "ChainlinkRequested",
            "type": "event"
        },
        {
            "inputs": [
                {
                    "internalType": "bytes",
                    "name": "checkData",
                    "type": "bytes"
                }
            ],
            "name": "checkUpkeep",
            "outputs": [
                {
                    "internalType": "bool",
                    "name": "upkeepNeeded",
                    "type": "bool"
                },
                {
                    "internalType": "bytes",
                    "name": "performData",
                    "type": "bytes"
                }
            ],
            "stateMutability": "view",
            "type": "function"
        },
        {
            "inputs": [],
            "name": "getGracePeriod",
            "outputs": [
                {
                    "internalType": "uint128",
                    "name": "gracePeriod",
                    "type": "uint128"
                }
            ],
            "stateMutability": "view",
            "type": "function"
        },
        {
            "inputs": [],
            "name": "getHasClaimed",
            "outputs": [
                {
                    "internalType": "bool",
                    "name": "hasClaimed",
                    "type": "bool"
                }
            ],
            "stateMutability": "view",
            "type": "function"
        },
        {
            "inputs": [],
            "name": "getIsClaimable",
            "outputs": [
                {
                    "internalType": "bool",
                    "name": "isClaimable",
                    "type": "bool"
                }
            ],
            "stateMutability": "view",
            "type": "function"
        },
        {
            "inputs": [],
            "name": "getIsPolicyActive",
            "outputs": [
                {
                    "internalType": "bool",
                    "name": "isPolicyActive",
                    "type": "bool"
                }
            ],
            "stateMutability": "view",
            "type": "function"
        },
        {
            "inputs": [],
            "name": "getIsTerminated",
            "outputs": [
                {
                    "internalType": "bool",
                    "name": "isTerminated",
                    "type": "bool"
                }
            ],
            "stateMutability": "view",
            "type": "function"
        },
        {
            "inputs": [],
            "name": "getPolicyDetails",
            "outputs": [
                {
                    "internalType": "string",
                    "name": "policyDetails",
                    "type": "string"
                }
            ],
            "stateMutability": "view",
            "type": "function"
        },
        {
            "inputs": [],
            "name": "getPolicyHolderDetails",
            "outputs": [
                {
                    "components": [
                        {
                            "internalType": "string",
                            "name": "name",
                            "type": "string"
                        },
                        {
                            "internalType": "string",
                            "name": "dateOfBirth",
                            "type": "string"
                        },
                        {
                            "internalType": "string",
                            "name": "gender",
                            "type": "string"
                        },
                        {
                            "internalType": "string",
                            "name": "homeAddress",
                            "type": "string"
                        },
                        {
                            "internalType": "string",
                            "name": "phoneNumber",
                            "type": "string"
                        },
                        {
                            "internalType": "string",
                            "name": "pronouns",
                            "type": "string"
                        },
                        {
                            "internalType": "string",
                            "name": "email",
                            "type": "string"
                        },
                        {
                            "internalType": "string",
                            "name": "occupation",
                            "type": "string"
                        },
                        {
                            "internalType": "address payable",
                            "name": "policyHolderWalletAddress",
                            "type": "address"
                        }
                    ],
                    "internalType": "struct SharedData.HumanDetails",
                    "name": "policyHolderDetails",
                    "type": "tuple"
                }
            ],
            "stateMutability": "view",
            "type": "function"
        },
        {
            "inputs": [],
            "name": "getPolicyHolderWalletAddress",
            "outputs": [
                {
                    "internalType": "address payable",
                    "name": "policyHolderWalletAddress",
                    "type": "address"
                }
            ],
            "stateMutability": "view",
            "type": "function"
        },
        {
            "inputs": [],
            "name": "getPolicyTenure",
            "outputs": [
                {
                    "internalType": "uint128",
                    "name": "policyTenure",
                    "type": "uint128"
                }
            ],
            "stateMutability": "view",
            "type": "function"
        },
        {
            "inputs": [],
            "name": "getPolicyType",
            "outputs": [
                {
                    "internalType": "enum SharedData.PolicyType",
                    "name": "policyType",
                    "type": "uint8"
                }
            ],
            "stateMutability": "view",
            "type": "function"
        },
        {
            "inputs": [],
            "name": "getPremiumToBePaid",
            "outputs": [
                {
                    "internalType": "uint256",
                    "name": "premiumToBePaid",
                    "type": "uint256"
                }
            ],
            "stateMutability": "view",
            "type": "function"
        },
        {
            "inputs": [],
            "name": "getRevivalRule",
            "outputs": [
                {
                    "components": [
                        {
                            "internalType": "uint128",
                            "name": "revivalPeriod",
                            "type": "uint128"
                        },
                        {
                            "internalType": "uint256",
                            "name": "revivalAmount",
                            "type": "uint256"
                        }
                    ],
                    "internalType": "struct SharedData.RevivalRule",
                    "name": "revivalRule",
                    "type": "tuple"
                }
            ],
            "stateMutability": "view",
            "type": "function"
        },
        {
            "inputs": [],
            "name": "getTimeBeforeCommencement",
            "outputs": [
                {
                    "internalType": "uint128",
                    "name": "time",
                    "type": "uint128"
                }
            ],
            "stateMutability": "view",
            "type": "function"
        },
        {
            "inputs": [],
            "name": "getTotalCoverageByPolicy",
            "outputs": [
                {
                    "internalType": "uint256",
                    "name": "coverage",
                    "type": "uint256"
                }
            ],
            "stateMutability": "view",
            "type": "function"
        },
        {
            "inputs": [],
            "name": "makeClaim",
            "outputs": [
                {
                    "internalType": "bool",
                    "name": "claimed",
                    "type": "bool"
                }
            ],
            "stateMutability": "nonpayable",
            "type": "function"
        },
        {
            "inputs": [
                {
                    "internalType": "bytes",
                    "name": "performData",
                    "type": "bytes"
                }
            ],
            "name": "performUpkeep",
            "outputs": [],
            "stateMutability": "nonpayable",
            "type": "function"
        },
        {
            "inputs": [],
            "name": "revivePolicy",
            "outputs": [],
            "stateMutability": "payable",
            "type": "function"
        },
        {
            "inputs": [
                {
                    "internalType": "bool",
                    "name": "isClaimable",
                    "type": "bool"
                }
            ],
            "name": "setClaimable",
            "outputs": [],
            "stateMutability": "nonpayable",
            "type": "function"
        },
        {
            "inputs": [
                {
                    "internalType": "bool",
                    "name": "hasClaimed",
                    "type": "bool"
                }
            ],
            "name": "setClaimed",
            "outputs": [],
            "stateMutability": "nonpayable",
            "type": "function"
        },
        {
            "inputs": [
                {
                    "internalType": "bool",
                    "name": "hasFundedForCurrentInterval",
                    "type": "bool"
                }
            ],
            "name": "sethasFundedForCurrentInterval",
            "outputs": [],
            "stateMutability": "nonpayable",
            "type": "function"
        },
        {
            "inputs": [
                {
                    "internalType": "bool",
                    "name": "isPolicyActive",
                    "type": "bool"
                }
            ],
            "name": "setPolicyActive",
            "outputs": [],
            "stateMutability": "nonpayable",
            "type": "function"
        },
        {
            "inputs": [
                {
                    "internalType": "bool",
                    "name": "isTerminate",
                    "type": "bool"
                }
            ],
            "name": "setTermination",
            "outputs": [],
            "stateMutability": "nonpayable",
            "type": "function"
        },
        {
            "inputs": [],
            "name": "terminatePolicy",
            "outputs": [],
            "stateMutability": "nonpayable",
            "type": "function"
        },
        {
            "stateMutability": "payable",
            "type": "receive"
        }
    ],
    "transactionHash": "0xf0c2c81458bfb6d1a536e0646783644f56581294a2f3a49de1f75325615e8654",
    "args": [
        {
            "policyHolder": {
                "name": "_policyHolder",
                "dateOfBirth": "1/1/1",
                "gender": "homosexual dragon",
                "homeAddress": "dragon raja land",
                "phoneNumber": "123456789",
                "email": "homodragon@phobo.com",
                "occupation": "homodragonkiller",
                "pronouns": "mighty/almighty",
                "policyHolderWalletAddress": "0x5FbDB2315678afecb367f032d93F642f64180aa3"
            },
            "policyTenure": 5000,
            "timeInterval": 30,
            "gracePeriod": 15,
            "timeBeforeCommencement": 60,
            "premiumToBePaid": "1000000000000000000",
            "totalCoverageByPolicy": "1000000000000000000000",
            "hasClaimed": false,
            "isPolicyActive": true,
            "isClaimable": false,
            "isTerminated": false,
            "hasFundedForCurrentInterval": false,
            "revivalRule": {
                "revivalPeriod": 15,
                "revivalAmount": "5000000000000000000"
            },
            "policyDetails": "This is a Dragon Contract",
            "policyType": 0,
            "policyManagerAddress": "0xe7f1725E7734CE288F8367e1Bb143E90bb3F0512"
        }
    ],
    "numDeployments": 1,
    "solcInputHash": "d8df2ede9f462cef9ce3d12ce03270ef",
    "bytecode": "0x608060405260016004553480156200001657600080fd5b5060405162001fe438038062001fe48339810160408190526200003991620005fa565b8051805182916006918290819062000052908262000822565b506020820151600182019062000069908262000822565b506040820151600282019062000080908262000822565b506060820151600382019062000097908262000822565b5060808201516004820190620000ae908262000822565b5060a08201516005820190620000c5908262000822565b5060c08201516006820190620000dc908262000822565b5060e08201516007820190620000f3908262000822565b506101009182015160089190910180546001600160a01b0319166001600160a01b0390921691909117905560208381015160408501516001600160801b03918216600160801b918316919091021760098501556060850151600a850180546001600160801b03199081169284169290921790556080860151600b86015560a0860151600c86015560c0860151600d86015560e0860151600e86018054888701516101208a01516101408b01516101608c015161ffff1990941695151561ff001916959095179115159098021763ffff00001916620100009715159790970263ff0000001916969096176301000000921515929092029190911760ff60201b191664010000000095151595909502949094179093556101808501518051600f86018054909516921691909117909255015160108201556101a082015160118201906200023f908262000822565b506101c082015160128201805460ff191660018381811115620002665762000266620008ee565b02179055506101e09190910151601290910180546001600160a01b0390921661010002610100600160a81b03199092169190911790555062000904565b634e487b7160e01b600052604160045260246000fd5b60405161012081016001600160401b0381118282101715620002df57620002df620002a3565b60405290565b60405161020081016001600160401b0381118282101715620002df57620002df620002a3565b604051601f8201601f191681016001600160401b0381118282101715620003365762000336620002a3565b604052919050565b600082601f8301126200035057600080fd5b81516001600160401b038111156200036c576200036c620002a3565b602062000382601f8301601f191682016200030b565b82815285828487010111156200039757600080fd5b60005b83811015620003b75785810183015182820184015282016200039a565b506000928101909101919091529392505050565b80516001600160a01b0381168114620003e357600080fd5b919050565b60006101208284031215620003fc57600080fd5b62000406620002b9565b82519091506001600160401b03808211156200042157600080fd5b6200042f858386016200033e565b835260208401519150808211156200044657600080fd5b62000454858386016200033e565b602084015260408401519150808211156200046e57600080fd5b6200047c858386016200033e565b604084015260608401519150808211156200049657600080fd5b620004a4858386016200033e565b60608401526080840151915080821115620004be57600080fd5b620004cc858386016200033e565b608084015260a0840151915080821115620004e657600080fd5b620004f4858386016200033e565b60a084015260c08401519150808211156200050e57600080fd5b6200051c858386016200033e565b60c084015260e08401519150808211156200053657600080fd5b5062000545848285016200033e565b60e0830152506101006200055b818401620003cb565b9082015292915050565b80516001600160801b0381168114620003e357600080fd5b80518015158114620003e357600080fd5b600060408284031215620005a157600080fd5b604080519081016001600160401b0381118282101715620005c657620005c6620002a3565b604052905080620005d78362000565565b8152602083015160208201525092915050565b805160028110620003e357600080fd5b6000602082840312156200060d57600080fd5b81516001600160401b03808211156200062557600080fd5b9083019061022082860312156200063b57600080fd5b62000645620002e5565b8251828111156200065557600080fd5b6200066387828601620003e8565b825250620006746020840162000565565b6020820152620006876040840162000565565b60408201526200069a6060840162000565565b60608201526080830151608082015260a083015160a082015260c083015160c0820152620006cb60e084016200057d565b60e0820152610100620006e08185016200057d565b90820152610120620006f48482016200057d565b90820152610140620007088482016200057d565b908201526101606200071c8482016200057d565b9082015261018062000731878583016200058e565b908201526101c083810151838111156200074a57600080fd5b62000758888287016200033e565b6101a0840152506101e0925062000771838501620005ea565b90820152620007846102008401620003cb565b91810191909152949350505050565b600181811c90821680620007a857607f821691505b602082108103620007c957634e487b7160e01b600052602260045260246000fd5b50919050565b601f8211156200081d57600081815260208120601f850160051c81016020861015620007f85750805b601f850160051c820191505b81811015620008195782815560010162000804565b5050505b505050565b81516001600160401b038111156200083e576200083e620002a3565b62000856816200084f845462000793565b84620007cf565b602080601f8311600181146200088e5760008415620008755750858301515b600019600386901b1c1916600185901b17855562000819565b600085815260208120601f198616915b82811015620008bf578886015182559484019460019091019084016200089e565b5085821015620008de5787850151600019600388901b60f8161c191681555b5050505050600190811b01905550565b634e487b7160e01b600052602160045260246000fd5b6116d080620009146000396000f3fe60806040526004361061018e5760003560e01c80636e04ff0d116100d6578063b0141ed41161007f578063dbd1838811610059578063dbd18388146105dd578063ec21858f14610602578063f5aa02001461062a57600080fd5b8063b0141ed41461058e578063cc9ba6fa146105a6578063d48d6229146105c857600080fd5b80639507b878116100b05780639507b878146104fd57806395dcc90a1461051c578063a60496501461057057600080fd5b80636e04ff0d1461049157806372ef3151146104bf5780639471ca5c146104dd57600080fd5b8063378c93ad116101385780634f7d3829116101125780634f7d38291461044957806352e9c64c1461046957806362ba912a1461048957600080fd5b8063378c93ad146103e05780633db96d5f146104005780634585e33b1461042957600080fd5b80631c0bab14116101695780631c0bab1414610389578063248f0f97146103ab5780632b140f4f146103c057600080fd5b806285ce021461030d57806301b01c861461033857806312704a421461035757600080fd5b36610308576014546301000000900460ff166101bd5760405163c60d361f60e01b815260040160405180910390fd5b601454610100900460ff1661028757600f546015546101ef916001600160801b03600160801b90910481169116611393565b6001600160801b03166019544261020691906113ba565b111561022557604051631932f4cb60e21b815260040160405180910390fd5b61271061023b670de0b6b3a764000060016113d3565b61024591906113ea565b6016546102539034906113ba565b111561027257604051631b44afc760e31b815260040160405180910390fd5b426019556014805461ff001916610100179055005b61271061029d670de0b6b3a764000060016113d3565b6102a791906113ea565b6012546102b59034906113ba565b11156102ed576040517f7684b8c400000000000000000000000000000000000000000000000000000000815260040160405180910390fd5b426019556014805464ff000000001916640100000000179055005b600080fd5b34801561031957600080fd5b5061032261063f565b60405161032f9190611452565b60405180910390f35b34801561034457600080fd5b506012545b60405190815260200161032f565b34801561036357600080fd5b506010546001600160801b03165b6040516001600160801b03909116815260200161032f565b34801561039557600080fd5b506103a96103a4366004611567565b610b4e565b005b3480156103b757600080fd5b50601354610349565b3480156103cc57600080fd5b5060185460ff1660405161032f9190611590565b3480156103ec57600080fd5b506103a96103fb366004611567565b610bbf565b34801561040c57600080fd5b50601454610100900460ff165b604051901515815260200161032f565b34801561043557600080fd5b506103a96104443660046115b8565b610c2e565b34801561045557600080fd5b506103a9610464366004611567565b610cc8565b34801561047557600080fd5b506103a9610484366004611567565b610d2e565b6103a9610d9b565b34801561049d57600080fd5b506104b16104ac3660046115b8565b610f38565b60405161032f92919061162a565b3480156104cb57600080fd5b50600f546001600160801b0316610371565b3480156104e957600080fd5b506103a96104f8366004611567565b611065565b34801561050957600080fd5b506014546301000000900460ff16610419565b34801561052857600080fd5b506040805180820182526000808252602091820152815180830183526015546001600160801b031680825260165491830191825283519081529051918101919091520161032f565b34801561057c57600080fd5b5060145462010000900460ff16610419565b34801561059a57600080fd5b5060145460ff16610419565b3480156105b257600080fd5b506105bb6110d8565b60405161032f919061164d565b3480156105d457600080fd5b506103a961116d565b3480156105e957600080fd5b50600f54600160801b90046001600160801b0316610371565b34801561060e57600080fd5b50600e546040516001600160a01b03909116815260200161032f565b34801561063657600080fd5b50610419611241565b610697604051806101200160405280606081526020016060815260200160608152602001606081526020016060815260200160608152602001606081526020016060815260200160006001600160a01b031681525090565b60408051610120810190915260068054829082906106b490611660565b80601f01602080910402602001604051908101604052809291908181526020018280546106e090611660565b801561072d5780601f106107025761010080835404028352916020019161072d565b820191906000526020600020905b81548152906001019060200180831161071057829003601f168201915b5050505050815260200160018201805461074690611660565b80601f016020809104026020016040519081016040528092919081815260200182805461077290611660565b80156107bf5780601f10610794576101008083540402835291602001916107bf565b820191906000526020600020905b8154815290600101906020018083116107a257829003601f168201915b505050505081526020016002820180546107d890611660565b80601f016020809104026020016040519081016040528092919081815260200182805461080490611660565b80156108515780601f1061082657610100808354040283529160200191610851565b820191906000526020600020905b81548152906001019060200180831161083457829003601f168201915b5050505050815260200160038201805461086a90611660565b80601f016020809104026020016040519081016040528092919081815260200182805461089690611660565b80156108e35780601f106108b8576101008083540402835291602001916108e3565b820191906000526020600020905b8154815290600101906020018083116108c657829003601f168201915b505050505081526020016004820180546108fc90611660565b80601f016020809104026020016040519081016040528092919081815260200182805461092890611660565b80156109755780601f1061094a57610100808354040283529160200191610975565b820191906000526020600020905b81548152906001019060200180831161095857829003601f168201915b5050505050815260200160058201805461098e90611660565b80601f01602080910402602001604051908101604052809291908181526020018280546109ba90611660565b8015610a075780601f106109dc57610100808354040283529160200191610a07565b820191906000526020600020905b8154815290600101906020018083116109ea57829003601f168201915b50505050508152602001600682018054610a2090611660565b80601f0160208091040260200160405190810160405280929190818152602001828054610a4c90611660565b8015610a995780601f10610a6e57610100808354040283529160200191610a99565b820191906000526020600020905b815481529060010190602001808311610a7c57829003601f168201915b50505050508152602001600782018054610ab290611660565b80601f0160208091040260200160405190810160405280929190818152602001828054610ade90611660565b8015610b2b5780601f10610b0057610100808354040283529160200191610b2b565b820191906000526020600020905b815481529060010190602001808311610b0e57829003601f168201915b5050509183525050600891909101546001600160a01b0316602090910152919050565b600e546001600160a01b031633141580610b78575060185461010090046001600160a01b03163314155b80610b835750333014155b15610ba157604051630e2f7eff60e31b815260040160405180910390fd5b6014805491151563010000000263ff00000019909216919091179055565b600e546001600160a01b031633141580610be9575060185461010090046001600160a01b03163314155b80610bf45750333014155b15610c1257604051630e2f7eff60e31b815260040160405180910390fd5b60148054911515620100000262ff000019909216919091179055565b6014805464ff0000000019169055600f54601954600160801b9091046001600160801b031690610c5e90426113ba565b1115610c70576014805461ff00191690555b601554600f54610c93916001600160801b0390811691600160801b900416611393565b6001600160801b031660195442610caa91906113ba565b1115610cc4576014805463ff000000191663010000001790555b5050565b600e546001600160a01b031633141580610cf2575060185461010090046001600160a01b03163314155b80610cfd5750333014155b15610d1b57604051630e2f7eff60e31b815260040160405180910390fd5b6014805460ff1916911515919091179055565b600e546001600160a01b031633141580610d58575060185461010090046001600160a01b03163314155b80610d635750333014155b15610d8157604051630e2f7eff60e31b815260040160405180910390fd5b601480549115156101000261ff0019909216919091179055565b600e546001600160a01b031633141580610dc5575060185461010090046001600160a01b03163314155b80610dd05750333014155b15610dee57604051630e2f7eff60e31b815260040160405180910390fd5b6014546301000000900460ff16610e185760405163c60d361f60e01b815260040160405180910390fd5b601454610100900460ff16610e59576040517f8d8d689b00000000000000000000000000000000000000000000000000000000815260040160405180910390fd5b60145460ff1615610e7d57604051631a4c0efb60e21b815260040160405180910390fd5b600f54601554610ea0916001600160801b03600160801b90910481169116611393565b6001600160801b031660195442610eb791906113ba565b1115610ed657604051631932f4cb60e21b815260040160405180910390fd5b612710610eec670de0b6b3a764000060016113d3565b610ef691906113ea565b601654610f049034906113ba565b1015610f2357604051631b44afc760e31b815260040160405180910390fd5b426019556014805461ff001916610100179055565b6014546000906060906301000000900460ff1615610f8a57505060408051808201909152601481527f506f6c696379206973207465726d696e6174656400000000000000000000000060208201526000905b601454610100900460ff1661101357601554600f54610fbc916001600160801b0390811691600160801b900416611393565b6001600160801b031660195442610fd391906113ba565b111561101357505060408051808201909152601681527f5265766976616c20706572696f64206973206f7665720000000000000000000060208201526000905b60115460195461102390426113ba565b1191506040518060400160405280601081526020017f55706b656570206973206e65656465640000000000000000000000000000000081525090509250929050565b600e546001600160a01b03163314158061108f575060185461010090046001600160a01b03163314155b8061109a5750333014155b156110b857604051630e2f7eff60e31b815260040160405180910390fd5b601480549115156401000000000264ff0000000019909216919091179055565b6060600660110180546110ea90611660565b80601f016020809104026020016040519081016040528092919081815260200182805461111690611660565b80156111635780601f1061113857610100808354040283529160200191611163565b820191906000526020600020905b81548152906001019060200180831161114657829003601f168201915b5050505050905090565b600e546001600160a01b031633141580611197575060185461010090046001600160a01b03163314155b806111a25750333014155b156111c057604051630e2f7eff60e31b815260040160405180910390fd5b6014546301000000900460ff16156111eb5760405163c60d361f60e01b815260040160405180910390fd5b6014805463ff000000191663010000001790556018546040516001600160a01b0361010090920491909116904780156108fc02916000818181858888f1935050505015801561123e573d6000803e3d6000fd5b50565b600e546000906001600160a01b03163314158061126e575060185461010090046001600160a01b03163314155b806112795750333014155b1561129757604051630e2f7eff60e31b815260040160405180910390fd5b6014546301000000900460ff166112c15760405163c60d361f60e01b815260040160405180910390fd5b601454610100900460ff1615611303576040517f8966b51f00000000000000000000000000000000000000000000000000000000815260040160405180910390fd5b60145462010000900460ff1615611346576040517fc117907200000000000000000000000000000000000000000000000000000000815260040160405180910390fd5b60145460ff1661136957604051631a4c0efb60e21b815260040160405180910390fd5b506014805460ff1916600190811790915590565b634e487b7160e01b600052601160045260246000fd5b6001600160801b038181168382160190808211156113b3576113b361137d565b5092915050565b818103818111156113cd576113cd61137d565b92915050565b80820281158282048414176113cd576113cd61137d565b60008261140757634e487b7160e01b600052601260045260246000fd5b500490565b6000815180845260005b8181101561143257602081850181015186830182015201611416565b506000602082860101526020601f19601f83011685010191505092915050565b602081526000825161012080602085015261147161014085018361140c565b91506020850151601f198086850301604087015261148f848361140c565b935060408701519150808685030160608701526114ac848361140c565b935060608701519150808685030160808701526114c9848361140c565b935060808701519150808685030160a08701526114e6848361140c565b935060a08701519150808685030160c0870152611503848361140c565b935060c08701519150808685030160e0870152611520848361140c565b935060e0870151915061010081878603018188015261153f858461140c565b9450808801519250505061155d828601826001600160a01b03169052565b5090949350505050565b60006020828403121561157957600080fd5b8135801515811461158957600080fd5b9392505050565b60208101600283106115b257634e487b7160e01b600052602160045260246000fd5b91905290565b600080602083850312156115cb57600080fd5b823567ffffffffffffffff808211156115e357600080fd5b818501915085601f8301126115f757600080fd5b81358181111561160657600080fd5b86602082850101111561161857600080fd5b60209290920196919550909350505050565b8215158152604060208201526000611645604083018461140c565b949350505050565b602081526000611589602083018461140c565b600181811c9082168061167457607f821691505b60208210810361169457634e487b7160e01b600052602260045260246000fd5b5091905056fea26469706673582212209d01b6045207f7f902b209c9dd2681a1d61581a7a20c7d5780841aa8a23e054f64736f6c63430008120033",
    "devdoc": {
        "kind": "dev",
        "methods": {
            "checkUpkeep(bytes)": {
                "details": "To ensure that it is never called, you may want to add the cannotExecute modifier from KeeperBase to your implementation of this method.",
                "params": {
                    "checkData": "specified in the upkeep registration so it is always the same for a registered upkeep. This can easily be broken down into specific arguments using `abi.decode`, so multiple upkeeps can be registered on the same contract and easily differentiated by the contract."
                },
                "returns": {
                    "performData": "bytes that the keeper should call performUpkeep with, if upkeep is needed. If you would like to encode data to decode later, try `abi.encode`.",
                    "upkeepNeeded": "boolean to indicate whether the keeper should call performUpkeep or not."
                }
            },
            "performUpkeep(bytes)": {
                "details": "The input to this method should not be trusted, and the caller of the method should not even be restricted to any single registry. Anyone should be able call it, and the input should be validated, there is no guarantee that the data passed in is the performData returned from checkUpkeep. This could happen due to malicious keepers, racing keepers, or simply a state change while the performUpkeep transaction is waiting for confirmation. Always validate the data passed in.",
                "params": {
                    "performData": "is the data which was passed back from the checkData simulation. If it is encoded, it can easily be decoded into other types by calling `abi.decode`. This data should not be trusted, and should be validated against the contract's current state."
                }
            }
        },
        "version": 1
    },
    "userdoc": {
        "kind": "user",
        "methods": {
            "checkUpkeep(bytes)": {
                "notice": "method that is simulated by the keepers to see if any work actually needs to be performed. This method does does not actually need to be executable, and since it is only ever simulated it can consume lots of gas."
            },
            "performUpkeep(bytes)": {
                "notice": "method that is actually executed by the keepers, via the registry. The data returned by the checkUpkeep simulation will be passed into this method to actually be executed."
            }
        },
        "version": 1
    },
    "storageLayout": {
        "storage": [
            {
                "astId": 358,
                "contract": "contracts/BaseInsurancePolicy.sol:BaseInsurancePolicy",
                "label": "s_ens",
                "offset": 0,
                "slot": "0",
                "type": "t_contract(ENSInterface)1032"
            },
            {
                "astId": 360,
                "contract": "contracts/BaseInsurancePolicy.sol:BaseInsurancePolicy",
                "label": "s_ensNode",
                "offset": 0,
                "slot": "1",
                "type": "t_bytes32"
            },
            {
                "astId": 363,
                "contract": "contracts/BaseInsurancePolicy.sol:BaseInsurancePolicy",
                "label": "s_link",
                "offset": 0,
                "slot": "2",
                "type": "t_contract(LinkTokenInterface)1127"
            },
            {
                "astId": 366,
                "contract": "contracts/BaseInsurancePolicy.sol:BaseInsurancePolicy",
                "label": "s_oracle",
                "offset": 0,
                "slot": "3",
                "type": "t_contract(OperatorInterface)1207"
            },
            {
                "astId": 369,
                "contract": "contracts/BaseInsurancePolicy.sol:BaseInsurancePolicy",
                "label": "s_requestCount",
                "offset": 0,
                "slot": "4",
                "type": "t_uint256"
            },
            {
                "astId": 373,
                "contract": "contracts/BaseInsurancePolicy.sol:BaseInsurancePolicy",
                "label": "s_pendingRequests",
                "offset": 0,
                "slot": "5",
                "type": "t_mapping(t_bytes32,t_address)"
            },
            {
                "astId": 2245,
                "contract": "contracts/BaseInsurancePolicy.sol:BaseInsurancePolicy",
                "label": "s_policy",
                "offset": 0,
                "slot": "6",
                "type": "t_struct(Policy)3403_storage"
            },
            {
                "astId": 2247,
                "contract": "contracts/BaseInsurancePolicy.sol:BaseInsurancePolicy",
                "label": "s_lastPaymentTimestamp",
                "offset": 0,
                "slot": "25",
                "type": "t_uint256"
            },
            {
                "astId": 2249,
                "contract": "contracts/BaseInsurancePolicy.sol:BaseInsurancePolicy",
                "label": "s_startTimestamp",
                "offset": 0,
                "slot": "26",
                "type": "t_uint256"
            }
        ],
        "types": {
            "t_address": {
                "encoding": "inplace",
                "label": "address",
                "numberOfBytes": "20"
            },
            "t_address_payable": {
                "encoding": "inplace",
                "label": "address payable",
                "numberOfBytes": "20"
            },
            "t_bool": {
                "encoding": "inplace",
                "label": "bool",
                "numberOfBytes": "1"
            },
            "t_bytes32": {
                "encoding": "inplace",
                "label": "bytes32",
                "numberOfBytes": "32"
            },
            "t_contract(ENSInterface)1032": {
                "encoding": "inplace",
                "label": "contract ENSInterface",
                "numberOfBytes": "20"
            },
            "t_contract(LinkTokenInterface)1127": {
                "encoding": "inplace",
                "label": "contract LinkTokenInterface",
                "numberOfBytes": "20"
            },
            "t_contract(OperatorInterface)1207": {
                "encoding": "inplace",
                "label": "contract OperatorInterface",
                "numberOfBytes": "20"
            },
            "t_enum(PolicyType)3406": {
                "encoding": "inplace",
                "label": "enum SharedData.PolicyType",
                "numberOfBytes": "1"
            },
            "t_mapping(t_bytes32,t_address)": {
                "encoding": "mapping",
                "key": "t_bytes32",
                "label": "mapping(bytes32 => address)",
                "numberOfBytes": "32",
                "value": "t_address"
            },
            "t_string_storage": {
                "encoding": "bytes",
                "label": "string",
                "numberOfBytes": "32"
            },
            "t_struct(HumanDetails)3362_storage": {
                "encoding": "inplace",
                "label": "struct SharedData.HumanDetails",
                "members": [
                    {
                        "astId": 3345,
                        "contract": "contracts/BaseInsurancePolicy.sol:BaseInsurancePolicy",
                        "label": "name",
                        "offset": 0,
                        "slot": "0",
                        "type": "t_string_storage"
                    },
                    {
                        "astId": 3347,
                        "contract": "contracts/BaseInsurancePolicy.sol:BaseInsurancePolicy",
                        "label": "dateOfBirth",
                        "offset": 0,
                        "slot": "1",
                        "type": "t_string_storage"
                    },
                    {
                        "astId": 3349,
                        "contract": "contracts/BaseInsurancePolicy.sol:BaseInsurancePolicy",
                        "label": "gender",
                        "offset": 0,
                        "slot": "2",
                        "type": "t_string_storage"
                    },
                    {
                        "astId": 3351,
                        "contract": "contracts/BaseInsurancePolicy.sol:BaseInsurancePolicy",
                        "label": "homeAddress",
                        "offset": 0,
                        "slot": "3",
                        "type": "t_string_storage"
                    },
                    {
                        "astId": 3353,
                        "contract": "contracts/BaseInsurancePolicy.sol:BaseInsurancePolicy",
                        "label": "phoneNumber",
                        "offset": 0,
                        "slot": "4",
                        "type": "t_string_storage"
                    },
                    {
                        "astId": 3355,
                        "contract": "contracts/BaseInsurancePolicy.sol:BaseInsurancePolicy",
                        "label": "pronouns",
                        "offset": 0,
                        "slot": "5",
                        "type": "t_string_storage"
                    },
                    {
                        "astId": 3357,
                        "contract": "contracts/BaseInsurancePolicy.sol:BaseInsurancePolicy",
                        "label": "email",
                        "offset": 0,
                        "slot": "6",
                        "type": "t_string_storage"
                    },
                    {
                        "astId": 3359,
                        "contract": "contracts/BaseInsurancePolicy.sol:BaseInsurancePolicy",
                        "label": "occupation",
                        "offset": 0,
                        "slot": "7",
                        "type": "t_string_storage"
                    },
                    {
                        "astId": 3361,
                        "contract": "contracts/BaseInsurancePolicy.sol:BaseInsurancePolicy",
                        "label": "policyHolderWalletAddress",
                        "offset": 0,
                        "slot": "8",
                        "type": "t_address_payable"
                    }
                ],
                "numberOfBytes": "288"
            },
            "t_struct(Policy)3403_storage": {
                "encoding": "inplace",
                "label": "struct SharedData.Policy",
                "members": [
                    {
                        "astId": 3370,
                        "contract": "contracts/BaseInsurancePolicy.sol:BaseInsurancePolicy",
                        "label": "policyHolder",
                        "offset": 0,
                        "slot": "0",
                        "type": "t_struct(HumanDetails)3362_storage"
                    },
                    {
                        "astId": 3372,
                        "contract": "contracts/BaseInsurancePolicy.sol:BaseInsurancePolicy",
                        "label": "policyTenure",
                        "offset": 0,
                        "slot": "9",
                        "type": "t_uint128"
                    },
                    {
                        "astId": 3374,
                        "contract": "contracts/BaseInsurancePolicy.sol:BaseInsurancePolicy",
                        "label": "gracePeriod",
                        "offset": 16,
                        "slot": "9",
                        "type": "t_uint128"
                    },
                    {
                        "astId": 3376,
                        "contract": "contracts/BaseInsurancePolicy.sol:BaseInsurancePolicy",
                        "label": "timeBeforeCommencement",
                        "offset": 0,
                        "slot": "10",
                        "type": "t_uint128"
                    },
                    {
                        "astId": 3378,
                        "contract": "contracts/BaseInsurancePolicy.sol:BaseInsurancePolicy",
                        "label": "timeInterval",
                        "offset": 0,
                        "slot": "11",
                        "type": "t_uint256"
                    },
                    {
                        "astId": 3380,
                        "contract": "contracts/BaseInsurancePolicy.sol:BaseInsurancePolicy",
                        "label": "premiumToBePaid",
                        "offset": 0,
                        "slot": "12",
                        "type": "t_uint256"
                    },
                    {
                        "astId": 3382,
                        "contract": "contracts/BaseInsurancePolicy.sol:BaseInsurancePolicy",
                        "label": "totalCoverageByPolicy",
                        "offset": 0,
                        "slot": "13",
                        "type": "t_uint256"
                    },
                    {
                        "astId": 3384,
                        "contract": "contracts/BaseInsurancePolicy.sol:BaseInsurancePolicy",
                        "label": "hasClaimed",
                        "offset": 0,
                        "slot": "14",
                        "type": "t_bool"
                    },
                    {
                        "astId": 3386,
                        "contract": "contracts/BaseInsurancePolicy.sol:BaseInsurancePolicy",
                        "label": "isPolicyActive",
                        "offset": 1,
                        "slot": "14",
                        "type": "t_bool"
                    },
                    {
                        "astId": 3388,
                        "contract": "contracts/BaseInsurancePolicy.sol:BaseInsurancePolicy",
                        "label": "isClaimable",
                        "offset": 2,
                        "slot": "14",
                        "type": "t_bool"
                    },
                    {
                        "astId": 3390,
                        "contract": "contracts/BaseInsurancePolicy.sol:BaseInsurancePolicy",
                        "label": "isTerminated",
                        "offset": 3,
                        "slot": "14",
                        "type": "t_bool"
                    },
                    {
                        "astId": 3392,
                        "contract": "contracts/BaseInsurancePolicy.sol:BaseInsurancePolicy",
                        "label": "hasFundedForCurrentInterval",
                        "offset": 4,
                        "slot": "14",
                        "type": "t_bool"
                    },
                    {
                        "astId": 3395,
                        "contract": "contracts/BaseInsurancePolicy.sol:BaseInsurancePolicy",
                        "label": "revivalRule",
                        "offset": 0,
                        "slot": "15",
                        "type": "t_struct(RevivalRule)3367_storage"
                    },
                    {
                        "astId": 3397,
                        "contract": "contracts/BaseInsurancePolicy.sol:BaseInsurancePolicy",
                        "label": "policyDetails",
                        "offset": 0,
                        "slot": "17",
                        "type": "t_string_storage"
                    },
                    {
                        "astId": 3400,
                        "contract": "contracts/BaseInsurancePolicy.sol:BaseInsurancePolicy",
                        "label": "policyType",
                        "offset": 0,
                        "slot": "18",
                        "type": "t_enum(PolicyType)3406"
                    },
                    {
                        "astId": 3402,
                        "contract": "contracts/BaseInsurancePolicy.sol:BaseInsurancePolicy",
                        "label": "policyManagerAddress",
                        "offset": 1,
                        "slot": "18",
                        "type": "t_address_payable"
                    }
                ],
                "numberOfBytes": "608"
            },
            "t_struct(RevivalRule)3367_storage": {
                "encoding": "inplace",
                "label": "struct SharedData.RevivalRule",
                "members": [
                    {
                        "astId": 3364,
                        "contract": "contracts/BaseInsurancePolicy.sol:BaseInsurancePolicy",
                        "label": "revivalPeriod",
                        "offset": 0,
                        "slot": "0",
                        "type": "t_uint128"
                    },
                    {
                        "astId": 3366,
                        "contract": "contracts/BaseInsurancePolicy.sol:BaseInsurancePolicy",
                        "label": "revivalAmount",
                        "offset": 0,
                        "slot": "1",
                        "type": "t_uint256"
                    }
                ],
                "numberOfBytes": "64"
            },
            "t_uint128": {
                "encoding": "inplace",
                "label": "uint128",
                "numberOfBytes": "16"
            },
            "t_uint256": {
                "encoding": "inplace",
                "label": "uint256",
                "numberOfBytes": "32"
            }
        }
    }
}