{
  "address": "0xCf7Ed3AccA5a467e9e704C703E8D87F634fB0Fc9",
  "abi": [
    {
      "inputs": [
        {
          "components": [
            {
              "components": [
                {
                  "internalType": "string",
                  "name": "name",
                  "type": "string"
                },
                {
                  "internalType": "string",
                  "name": "dateOfBirth",
                  "type": "string"
                },
                {
                  "internalType": "string",
                  "name": "gender",
                  "type": "string"
                },
                {
                  "internalType": "string",
                  "name": "homeAddress",
                  "type": "string"
                },
                {
                  "internalType": "string",
                  "name": "phoneNumber",
                  "type": "string"
                },
                {
                  "internalType": "string",
                  "name": "pronouns",
                  "type": "string"
                },
                {
                  "internalType": "string",
                  "name": "email",
                  "type": "string"
                },
                {
                  "internalType": "string",
                  "name": "occupation",
                  "type": "string"
                },
                {
                  "internalType": "address payable",
                  "name": "policyHolderWalletAddress",
                  "type": "address"
                }
              ],
              "internalType": "struct SharedData.HumanDetails",
              "name": "policyHolder",
              "type": "tuple"
            },
            {
              "internalType": "uint128",
              "name": "policyTenure",
              "type": "uint128"
            },
            {
              "internalType": "uint128",
              "name": "gracePeriod",
              "type": "uint128"
            },
            {
              "internalType": "uint128",
              "name": "timeBeforeCommencement",
              "type": "uint128"
            },
            {
              "internalType": "uint256",
              "name": "timeInterval",
              "type": "uint256"
            },
            {
              "internalType": "uint256",
              "name": "premiumToBePaid",
              "type": "uint256"
            },
            {
              "internalType": "uint256",
              "name": "totalCoverageByPolicy",
              "type": "uint256"
            },
            {
              "internalType": "bool",
              "name": "hasClaimed",
              "type": "bool"
            },
            {
              "internalType": "bool",
              "name": "isPolicyActive",
              "type": "bool"
            },
            {
              "internalType": "bool",
              "name": "isClaimable",
              "type": "bool"
            },
            {
              "internalType": "bool",
              "name": "isTerminated",
              "type": "bool"
            },
            {
              "internalType": "bool",
              "name": "hasFundedForCurrentMonth",
              "type": "bool"
            },
            {
              "components": [
                {
                  "internalType": "uint128",
                  "name": "revivalPeriod",
                  "type": "uint128"
                },
                {
                  "internalType": "uint256",
                  "name": "revivalAmount",
                  "type": "uint256"
                }
              ],
              "internalType": "struct SharedData.RevivalRule",
              "name": "revivalRule",
              "type": "tuple"
            },
            {
              "internalType": "string",
              "name": "policyDetails",
              "type": "string"
            },
            {
              "internalType": "enum SharedData.PolicyType",
              "name": "policyType",
              "type": "uint8"
            },
            {
              "internalType": "address payable",
              "name": "policyManagerContractAddress",
              "type": "address"
            }
          ],
          "internalType": "struct SharedData.Policy",
          "name": "policy",
          "type": "tuple"
        },
        {
          "components": [
            {
              "internalType": "uint64",
              "name": "copaymentPercentage",
              "type": "uint64"
            }
          ],
          "internalType": "struct SharedData.HealthPolicyParams",
          "name": "healthPolicyParams",
          "type": "tuple"
        }
      ],
      "stateMutability": "nonpayable",
      "type": "constructor"
    },
    {
      "inputs": [],
      "name": "AmountExceeded",
      "type": "error"
    },
    {
      "inputs": [],
      "name": "FundingError",
      "type": "error"
    },
    {
      "inputs": [],
      "name": "IncorrectAmount",
      "type": "error"
    },
    {
      "inputs": [],
      "name": "InvalidContractAddress",
      "type": "error"
    },
    {
      "inputs": [],
      "name": "OnlyOwnerAllowed",
      "type": "error"
    },
    {
      "inputs": [],
      "name": "OnlySimulatedBackend",
      "type": "error"
    },
    {
      "inputs": [],
      "name": "PolicyActive",
      "type": "error"
    },
    {
      "inputs": [],
      "name": "PolicyAlreadyClaimed",
      "type": "error"
    },
    {
      "inputs": [],
      "name": "PolicyNotActive",
      "type": "error"
    },
    {
      "inputs": [],
      "name": "PolicyNotClaimable",
      "type": "error"
    },
    {
      "inputs": [],
      "name": "PolicyNotFunded",
      "type": "error"
    },
    {
      "inputs": [],
      "name": "PolicyNotInGracePeriod",
      "type": "error"
    },
    {
      "inputs": [],
      "name": "PolicyNotMatured",
      "type": "error"
    },
    {
      "inputs": [],
      "name": "PolicyNotRevivable",
      "type": "error"
    },
    {
      "inputs": [],
      "name": "PolicyTerminated",
      "type": "error"
    },
    {
      "inputs": [],
      "name": "PremiumAmountNotCorrect",
      "type": "error"
    },
    {
      "inputs": [],
      "name": "RevivalAmountNotCorrect",
      "type": "error"
    },
    {
      "anonymous": false,
      "inputs": [
        {
          "indexed": true,
          "internalType": "bytes32",
          "name": "id",
          "type": "bytes32"
        }
      ],
      "name": "ChainlinkCancelled",
      "type": "event"
    },
    {
      "anonymous": false,
      "inputs": [
        {
          "indexed": true,
          "internalType": "bytes32",
          "name": "id",
          "type": "bytes32"
        }
      ],
      "name": "ChainlinkFulfilled",
      "type": "event"
    },
    {
      "anonymous": false,
      "inputs": [
        {
          "indexed": true,
          "internalType": "bytes32",
          "name": "id",
          "type": "bytes32"
        }
      ],
      "name": "ChainlinkRequested",
      "type": "event"
    },
    {
      "inputs": [
        {
          "internalType": "bytes",
          "name": "checkData",
          "type": "bytes"
        }
      ],
      "name": "checkUpkeep",
      "outputs": [
        {
          "internalType": "bool",
          "name": "upkeepNeeded",
          "type": "bool"
        },
        {
          "internalType": "bytes",
          "name": "performData",
          "type": "bytes"
        }
      ],
      "stateMutability": "view",
      "type": "function"
    },
    {
      "inputs": [],
      "name": "getCopaymentPercentage",
      "outputs": [
        {
          "internalType": "uint256",
          "name": "copaymentPercentage",
          "type": "uint256"
        }
      ],
      "stateMutability": "view",
      "type": "function"
    },
    {
      "inputs": [],
      "name": "getGracePeriod",
      "outputs": [
        {
          "internalType": "uint128",
          "name": "gracePeriod",
          "type": "uint128"
        }
      ],
      "stateMutability": "view",
      "type": "function"
    },
    {
      "inputs": [],
      "name": "getHasClaimed",
      "outputs": [
        {
          "internalType": "bool",
          "name": "hasClaimed",
          "type": "bool"
        }
      ],
      "stateMutability": "view",
      "type": "function"
    },
    {
      "inputs": [],
      "name": "getIsClaimable",
      "outputs": [
        {
          "internalType": "bool",
          "name": "isClaimable",
          "type": "bool"
        }
      ],
      "stateMutability": "view",
      "type": "function"
    },
    {
      "inputs": [],
      "name": "getIsPolicyActive",
      "outputs": [
        {
          "internalType": "bool",
          "name": "isPolicyActive",
          "type": "bool"
        }
      ],
      "stateMutability": "view",
      "type": "function"
    },
    {
      "inputs": [],
      "name": "getIsTerminated",
      "outputs": [
        {
          "internalType": "bool",
          "name": "isTerminated",
          "type": "bool"
        }
      ],
      "stateMutability": "view",
      "type": "function"
    },
    {
      "inputs": [],
      "name": "getPolicyDetails",
      "outputs": [
        {
          "internalType": "string",
          "name": "policyDetails",
          "type": "string"
        }
      ],
      "stateMutability": "view",
      "type": "function"
    },
    {
      "inputs": [],
      "name": "getPolicyHolderDetails",
      "outputs": [
        {
          "components": [
            {
              "internalType": "string",
              "name": "name",
              "type": "string"
            },
            {
              "internalType": "string",
              "name": "dateOfBirth",
              "type": "string"
            },
            {
              "internalType": "string",
              "name": "gender",
              "type": "string"
            },
            {
              "internalType": "string",
              "name": "homeAddress",
              "type": "string"
            },
            {
              "internalType": "string",
              "name": "phoneNumber",
              "type": "string"
            },
            {
              "internalType": "string",
              "name": "pronouns",
              "type": "string"
            },
            {
              "internalType": "string",
              "name": "email",
              "type": "string"
            },
            {
              "internalType": "string",
              "name": "occupation",
              "type": "string"
            },
            {
              "internalType": "address payable",
              "name": "policyHolderWalletAddress",
              "type": "address"
            }
          ],
          "internalType": "struct SharedData.HumanDetails",
          "name": "policyHolderDetails",
          "type": "tuple"
        }
      ],
      "stateMutability": "view",
      "type": "function"
    },
    {
      "inputs": [],
      "name": "getPolicyHolderWalletAddress",
      "outputs": [
        {
          "internalType": "address payable",
          "name": "policyHolderWalletAddress",
          "type": "address"
        }
      ],
      "stateMutability": "view",
      "type": "function"
    },
    {
      "inputs": [],
      "name": "getPolicyTenure",
      "outputs": [
        {
          "internalType": "uint128",
          "name": "policyTenure",
          "type": "uint128"
        }
      ],
      "stateMutability": "view",
      "type": "function"
    },
    {
      "inputs": [],
      "name": "getPolicyType",
      "outputs": [
        {
          "internalType": "enum SharedData.PolicyType",
          "name": "policyType",
          "type": "uint8"
        }
      ],
      "stateMutability": "view",
      "type": "function"
    },
    {
      "inputs": [],
      "name": "getPremiumToBePaid",
      "outputs": [
        {
          "internalType": "uint256",
          "name": "premiumToBePaid",
          "type": "uint256"
        }
      ],
      "stateMutability": "view",
      "type": "function"
    },
    {
      "inputs": [],
      "name": "getRevivalRule",
      "outputs": [
        {
          "components": [
            {
              "internalType": "uint128",
              "name": "revivalPeriod",
              "type": "uint128"
            },
            {
              "internalType": "uint256",
              "name": "revivalAmount",
              "type": "uint256"
            }
          ],
          "internalType": "struct SharedData.RevivalRule",
          "name": "revivalRule",
          "type": "tuple"
        }
      ],
      "stateMutability": "view",
      "type": "function"
    },
    {
      "inputs": [],
      "name": "getTimeBeforeCommencement",
      "outputs": [
        {
          "internalType": "uint128",
          "name": "time",
          "type": "uint128"
        }
      ],
      "stateMutability": "view",
      "type": "function"
    },
    {
      "inputs": [],
      "name": "getTotalCoverageByPolicy",
      "outputs": [
        {
          "internalType": "uint256",
          "name": "coverage",
          "type": "uint256"
        }
      ],
      "stateMutability": "view",
      "type": "function"
    },
    {
      "inputs": [],
      "name": "makeClaim",
      "outputs": [
        {
          "internalType": "bool",
          "name": "claimed",
          "type": "bool"
        }
      ],
      "stateMutability": "nonpayable",
      "type": "function"
    },
    {
      "inputs": [
        {
          "internalType": "bytes",
          "name": "performData",
          "type": "bytes"
        }
      ],
      "name": "performUpkeep",
      "outputs": [],
      "stateMutability": "nonpayable",
      "type": "function"
    },
    {
      "inputs": [],
      "name": "revivePolicy",
      "outputs": [],
      "stateMutability": "payable",
      "type": "function"
    },
    {
      "inputs": [
        {
          "internalType": "bool",
          "name": "isClaimable",
          "type": "bool"
        }
      ],
      "name": "setClaimable",
      "outputs": [],
      "stateMutability": "nonpayable",
      "type": "function"
    },
    {
      "inputs": [
        {
          "internalType": "bool",
          "name": "hasClaimed",
          "type": "bool"
        }
      ],
      "name": "setClaimed",
      "outputs": [],
      "stateMutability": "nonpayable",
      "type": "function"
    },
    {
      "inputs": [
        {
          "internalType": "bool",
          "name": "hasFundedForCurrentMonth",
          "type": "bool"
        }
      ],
      "name": "setHasFundedForCurrentMonth",
      "outputs": [],
      "stateMutability": "nonpayable",
      "type": "function"
    },
    {
      "inputs": [
        {
          "internalType": "bool",
          "name": "isPolicyActive",
          "type": "bool"
        }
      ],
      "name": "setPolicyActive",
      "outputs": [],
      "stateMutability": "nonpayable",
      "type": "function"
    },
    {
      "inputs": [
        {
          "internalType": "bool",
          "name": "isTerminate",
          "type": "bool"
        }
      ],
      "name": "setTermination",
      "outputs": [],
      "stateMutability": "nonpayable",
      "type": "function"
    },
    {
      "inputs": [
        {
          "internalType": "uint256",
          "name": "amount",
          "type": "uint256"
        }
      ],
      "name": "withdraw",
      "outputs": [],
      "stateMutability": "payable",
      "type": "function"
    },
    {
      "stateMutability": "payable",
      "type": "receive"
    }
  ],
  "transactionHash": "0x21ae4f35db3ba61932758423a97e5291887afcc5d0ba9e3f54b95000c0df63a2",
  "args": [
    {
      "policyHolder": {
        "name": "_policyHolder",
        "dateOfBirth": "1/1/1",
        "gender": "homosexual dragon",
        "homeAddress": "dragon raja land",
        "phoneNumber": "123456789",
        "email": "homodragon@phobo.com",
        "occupation": "homodragonkiller",
        "pronouns": "mighty/almighty",
        "policyHolderWalletAddress": "0x5FbDB2315678afecb367f032d93F642f64180aa3"
      },
      "policyTenure": 5000,
      "gracePeriod": 15,
      "timeInterval": 30,
      "timeBeforeCommencement": 60,
      "premiumToBePaid": "1000000000000000000",
      "totalCoverageByPolicy": "1000000000000000000000",
      "hasClaimed": false,
      "isPolicyActive": true,
      "isClaimable": false,
      "isTerminated": false,
      "hasFundedForCurrentMonth": false,
      "revivalRule": {
        "revivalPeriod": 15,
        "revivalAmount": "5000000000000000000"
      },
      "policyDetails": "This is a Dragon Contract",
      "policyType": 1,
      "policyManagerContractAddress": "0xe7f1725E7734CE288F8367e1Bb143E90bb3F0512"
    },
    {
      "copaymentPercentage": 69
    }
  ],
  "numDeployments": 1,
  "solcInputHash": "d2f183894369186c0f54a21e8b9ac313",
  "bytecode": "0x608060405260016004553480156200001657600080fd5b506040516200208f3803806200208f83398101604081905262000039916200067b565b81518051839182916006919082908190620000559082620008b7565b50602082015160018201906200006c9082620008b7565b5060408201516002820190620000839082620008b7565b50606082015160038201906200009a9082620008b7565b5060808201516004820190620000b19082620008b7565b5060a08201516005820190620000c89082620008b7565b5060c08201516006820190620000df9082620008b7565b5060e08201516007820190620000f69082620008b7565b506101009182015160089190910180546001600160a01b0319166001600160a01b0390921691909117905560208381015160408501516001600160801b03918216600160801b918316919091021760098501556060850151600a850180546001600160801b03199081169284169290921790556080860151600b86015560a0860151600c86015560c0860151600d86015560e0860151600e86018054888701516101208a01516101408b01516101608c015161ffff1990941695151561ff001916959095179115159098021763ffff00001916620100009715159790970263ff0000001916969096176301000000921515929092029190911760ff60201b191664010000000095151595909502949094179093556101808501518051600f86018054909516921691909117909255015160108201556101a08201516011820190620002429082620008b7565b506101c082015160128201805460ff19166001838181111562000269576200026962000983565b02179055506101e0919091015160129091018054610100600160a81b0319166101006001600160a01b03909316929092029190911790555051601b80546001600160401b0319166001600160401b039092169190911790555062000999565b634e487b7160e01b600052604160045260246000fd5b60405161012081016001600160401b0381118282101715620003045762000304620002c8565b60405290565b60405161020081016001600160401b0381118282101715620003045762000304620002c8565b604051601f8201601f191681016001600160401b03811182821017156200035b576200035b620002c8565b604052919050565b600082601f8301126200037557600080fd5b81516001600160401b03811115620003915762000391620002c8565b6020620003a7601f8301601f1916820162000330565b8281528582848701011115620003bc57600080fd5b60005b83811015620003dc578581018301518282018401528201620003bf565b506000928101909101919091529392505050565b80516001600160a01b03811681146200040857600080fd5b919050565b600061012082840312156200042157600080fd5b6200042b620002de565b82519091506001600160401b03808211156200044657600080fd5b620004548583860162000363565b835260208401519150808211156200046b57600080fd5b620004798583860162000363565b602084015260408401519150808211156200049357600080fd5b620004a18583860162000363565b60408401526060840151915080821115620004bb57600080fd5b620004c98583860162000363565b60608401526080840151915080821115620004e357600080fd5b620004f18583860162000363565b608084015260a08401519150808211156200050b57600080fd5b620005198583860162000363565b60a084015260c08401519150808211156200053357600080fd5b620005418583860162000363565b60c084015260e08401519150808211156200055b57600080fd5b506200056a8482850162000363565b60e08301525061010062000580818401620003f0565b9082015292915050565b80516001600160801b03811681146200040857600080fd5b805180151581146200040857600080fd5b600060408284031215620005c657600080fd5b604080519081016001600160401b0381118282101715620005eb57620005eb620002c8565b604052905080620005fc836200058a565b8152602083015160208201525092915050565b8051600281106200040857600080fd5b6000602082840312156200063257600080fd5b604051602081016001600160401b038082118383101715620006585762000658620002c8565b816040528293508451915080821682146200067257600080fd5b50905292915050565b600080604083850312156200068f57600080fd5b82516001600160401b0380821115620006a757600080fd5b908401906102208287031215620006bd57600080fd5b620006c76200030a565b825182811115620006d757600080fd5b620006e5888286016200040d565b825250620006f6602084016200058a565b602082015262000709604084016200058a565b60408201526200071c606084016200058a565b60608201526080830151608082015260a083015160a082015260c083015160c08201526200074d60e08401620005a2565b60e082015261010062000762818501620005a2565b9082015261012062000776848201620005a2565b908201526101406200078a848201620005a2565b908201526101606200079e848201620005a2565b90820152610180620007b388858301620005b3565b908201526101c08381015183811115620007cc57600080fd5b620007da8982870162000363565b6101a0840152506101e09250620007f38385016200060f565b90820152620008066102008401620003f0565b828201528094505050506200081f84602085016200061f565b90509250929050565b600181811c908216806200083d57607f821691505b6020821081036200085e57634e487b7160e01b600052602260045260246000fd5b50919050565b601f821115620008b257600081815260208120601f850160051c810160208610156200088d5750805b601f850160051c820191505b81811015620008ae5782815560010162000899565b5050505b505050565b81516001600160401b03811115620008d357620008d3620002c8565b620008eb81620008e4845462000828565b8462000864565b602080601f8311600181146200092357600084156200090a5750858301515b600019600386901b1c1916600185901b178555620008ae565b600085815260208120601f198616915b82811015620009545788860151825594840194600190910190840162000933565b5085821015620009735787850151600019600388901b60f8161c191681555b5050505050600190811b01905550565b634e487b7160e01b600052602160045260246000fd5b6116e680620009a96000396000f3fe6080604052600436106101995760003560e01c806362ba912a116100e157806395dcc90a1161008a578063cc9ba6fa11610064578063cc9ba6fa146105e3578063dbd1838814610605578063ec21858f1461062a578063f5aa02001461065257600080fd5b806395dcc90a14610559578063a6049650146105ad578063b0141ed4146105cb57600080fd5b806372ef3151116100bb57806372ef3151146104fc5780639471ca5c1461051a5780639507b8781461053a57600080fd5b806362ba912a146104a757806363a6bcbb146104af5780636e04ff0d146104ce57600080fd5b80632e1a7d4d116101435780634585e33b1161011d5780634585e33b146104475780634f7d38291461046757806352e9c64c1461048757600080fd5b80632e1a7d4d146103eb578063378c93ad146103fe5780633db96d5f1461041e57600080fd5b80631c0bab14116101745780631c0bab1414610394578063248f0f97146103b65780632b140f4f146103cb57600080fd5b806285ce021461031857806301b01c861461034357806312704a421461036257600080fd5b36610313576014546301000000900460ff166101c85760405163c60d361f60e01b815260040160405180910390fd5b601454610100900460ff1661029257600f546015546101fa916001600160801b03600160801b9091048116911661136f565b6001600160801b0316601954426102119190611396565b111561023057604051631932f4cb60e21b815260040160405180910390fd5b612710610246670de0b6b3a764000060016113af565b61025091906113c6565b60165461025e903490611396565b111561027d57604051631b44afc760e31b815260040160405180910390fd5b426019556014805461ff001916610100179055005b6127106102a8670de0b6b3a764000060016113af565b6102b291906113c6565b6012546102c0903490611396565b11156102f8576040517f7684b8c400000000000000000000000000000000000000000000000000000000815260040160405180910390fd5b426019556014805464ff000000001916640100000000179055005b600080fd5b34801561032457600080fd5b5061032d610667565b60405161033a919061142e565b60405180910390f35b34801561034f57600080fd5b506012545b60405190815260200161033a565b34801561036e57600080fd5b506010546001600160801b03165b6040516001600160801b03909116815260200161033a565b3480156103a057600080fd5b506103b46103af366004611543565b610b76565b005b3480156103c257600080fd5b50601354610354565b3480156103d757600080fd5b5060185460ff1660405161033a919061156c565b6103b46103f9366004611594565b610be7565b34801561040a57600080fd5b506103b4610419366004611543565b610c89565b34801561042a57600080fd5b50601454610100900460ff165b604051901515815260200161033a565b34801561045357600080fd5b506103b46104623660046115ad565b610cf8565b34801561047357600080fd5b506103b4610482366004611543565b610d91565b34801561049357600080fd5b506103b46104a2366004611543565b610df7565b6103b4610e64565b3480156104bb57600080fd5b50601b5467ffffffffffffffff16610354565b3480156104da57600080fd5b506104ee6104e93660046115ad565b611001565b60405161033a92919061161f565b34801561050857600080fd5b50600f546001600160801b031661037c565b34801561052657600080fd5b506103b4610535366004611543565b61112e565b34801561054657600080fd5b506014546301000000900460ff16610437565b34801561056557600080fd5b506040805180820182526000808252602091820152815180830183526015546001600160801b031680825260165491830191825283519081529051918101919091520161033a565b3480156105b957600080fd5b5060145462010000900460ff16610437565b3480156105d757600080fd5b5060145460ff16610437565b3480156105ef57600080fd5b506105f86111a1565b60405161033a9190611642565b34801561061157600080fd5b50600f54600160801b90046001600160801b031661037c565b34801561063657600080fd5b50600e546040516001600160a01b03909116815260200161033a565b34801561065e57600080fd5b50610437611236565b6106bf604051806101200160405280606081526020016060815260200160608152602001606081526020016060815260200160608152602001606081526020016060815260200160006001600160a01b031681525090565b60408051610120810190915260068054829082906106dc90611655565b80601f016020809104026020016040519081016040528092919081815260200182805461070890611655565b80156107555780601f1061072a57610100808354040283529160200191610755565b820191906000526020600020905b81548152906001019060200180831161073857829003601f168201915b5050505050815260200160018201805461076e90611655565b80601f016020809104026020016040519081016040528092919081815260200182805461079a90611655565b80156107e75780601f106107bc576101008083540402835291602001916107e7565b820191906000526020600020905b8154815290600101906020018083116107ca57829003601f168201915b5050505050815260200160028201805461080090611655565b80601f016020809104026020016040519081016040528092919081815260200182805461082c90611655565b80156108795780601f1061084e57610100808354040283529160200191610879565b820191906000526020600020905b81548152906001019060200180831161085c57829003601f168201915b5050505050815260200160038201805461089290611655565b80601f01602080910402602001604051908101604052809291908181526020018280546108be90611655565b801561090b5780601f106108e05761010080835404028352916020019161090b565b820191906000526020600020905b8154815290600101906020018083116108ee57829003601f168201915b5050505050815260200160048201805461092490611655565b80601f016020809104026020016040519081016040528092919081815260200182805461095090611655565b801561099d5780601f106109725761010080835404028352916020019161099d565b820191906000526020600020905b81548152906001019060200180831161098057829003601f168201915b505050505081526020016005820180546109b690611655565b80601f01602080910402602001604051908101604052809291908181526020018280546109e290611655565b8015610a2f5780601f10610a0457610100808354040283529160200191610a2f565b820191906000526020600020905b815481529060010190602001808311610a1257829003601f168201915b50505050508152602001600682018054610a4890611655565b80601f0160208091040260200160405190810160405280929190818152602001828054610a7490611655565b8015610ac15780601f10610a9657610100808354040283529160200191610ac1565b820191906000526020600020905b815481529060010190602001808311610aa457829003601f168201915b50505050508152602001600782018054610ada90611655565b80601f0160208091040260200160405190810160405280929190818152602001828054610b0690611655565b8015610b535780601f10610b2857610100808354040283529160200191610b53565b820191906000526020600020905b815481529060010190602001808311610b3657829003601f168201915b5050509183525050600891909101546001600160a01b0316602090910152919050565b600e546001600160a01b031633141580610ba0575060185461010090046001600160a01b03163314155b80610bab5750333014155b15610bc957604051630e2f7eff60e31b815260040160405180910390fd5b6014805491151563010000000263ff00000019909216919091179055565b60145462010000900460ff16610c105760405163608bc83960e11b815260040160405180910390fd5b601b54600090610c2b9067ffffffffffffffff16606461168f565b610c3f9067ffffffffffffffff16836113af565b600e546040519192506001600160a01b0316906108fc8315029083906000818181858888f19350505050158015610c7a573d6000803e3d6000fd5b50610c85600161112e565b5050565b600e546001600160a01b031633141580610cb3575060185461010090046001600160a01b03163314155b80610cbe5750333014155b15610cdc57604051630e2f7eff60e31b815260040160405180910390fd5b60148054911515620100000262ff000019909216919091179055565b6014805464ff0000000019169055600f54601954600160801b9091046001600160801b031690610d289042611396565b1115610d3a576014805461ff00191690555b601554600f54610d5d916001600160801b0390811691600160801b90041661136f565b6001600160801b031660195442610d749190611396565b1115610c85576014805463ff000000191663010000001790555050565b600e546001600160a01b031633141580610dbb575060185461010090046001600160a01b03163314155b80610dc65750333014155b15610de457604051630e2f7eff60e31b815260040160405180910390fd5b6014805460ff1916911515919091179055565b600e546001600160a01b031633141580610e21575060185461010090046001600160a01b03163314155b80610e2c5750333014155b15610e4a57604051630e2f7eff60e31b815260040160405180910390fd5b601480549115156101000261ff0019909216919091179055565b600e546001600160a01b031633141580610e8e575060185461010090046001600160a01b03163314155b80610e995750333014155b15610eb757604051630e2f7eff60e31b815260040160405180910390fd5b6014546301000000900460ff16610ee15760405163c60d361f60e01b815260040160405180910390fd5b601454610100900460ff16610f22576040517f8d8d689b00000000000000000000000000000000000000000000000000000000815260040160405180910390fd5b60145460ff1615610f4657604051631a4c0efb60e21b815260040160405180910390fd5b600f54601554610f69916001600160801b03600160801b9091048116911661136f565b6001600160801b031660195442610f809190611396565b1115610f9f57604051631932f4cb60e21b815260040160405180910390fd5b612710610fb5670de0b6b3a764000060016113af565b610fbf91906113c6565b601654610fcd903490611396565b1015610fec57604051631b44afc760e31b815260040160405180910390fd5b426019556014805461ff001916610100179055565b6014546000906060906301000000900460ff161561105357505060408051808201909152601481527f506f6c696379206973207465726d696e6174656400000000000000000000000060208201526000905b601454610100900460ff166110dc57601554600f54611085916001600160801b0390811691600160801b90041661136f565b6001600160801b03166019544261109c9190611396565b11156110dc57505060408051808201909152601681527f5265766976616c20706572696f64206973206f7665720000000000000000000060208201526000905b6011546019546110ec9042611396565b1191506040518060400160405280601081526020017f55706b656570206973206e65656465640000000000000000000000000000000081525090509250929050565b600e546001600160a01b031633141580611158575060185461010090046001600160a01b03163314155b806111635750333014155b1561118157604051630e2f7eff60e31b815260040160405180910390fd5b601480549115156401000000000264ff0000000019909216919091179055565b6060600660110180546111b390611655565b80601f01602080910402602001604051908101604052809291908181526020018280546111df90611655565b801561122c5780601f106112015761010080835404028352916020019161122c565b820191906000526020600020905b81548152906001019060200180831161120f57829003601f168201915b5050505050905090565b600e546000906001600160a01b031633141580611263575060185461010090046001600160a01b03163314155b8061126e5750333014155b1561128c57604051630e2f7eff60e31b815260040160405180910390fd5b6014546301000000900460ff166112b65760405163c60d361f60e01b815260040160405180910390fd5b601454610100900460ff16156112f8576040517f8966b51f00000000000000000000000000000000000000000000000000000000815260040160405180910390fd5b60145462010000900460ff16156113225760405163608bc83960e11b815260040160405180910390fd5b60145460ff1661134557604051631a4c0efb60e21b815260040160405180910390fd5b506014805460ff1916600190811790915590565b634e487b7160e01b600052601160045260246000fd5b6001600160801b0381811683821601908082111561138f5761138f611359565b5092915050565b818103818111156113a9576113a9611359565b92915050565b80820281158282048414176113a9576113a9611359565b6000826113e357634e487b7160e01b600052601260045260246000fd5b500490565b6000815180845260005b8181101561140e576020818501810151868301820152016113f2565b506000602082860101526020601f19601f83011685010191505092915050565b602081526000825161012080602085015261144d6101408501836113e8565b91506020850151601f198086850301604087015261146b84836113e8565b9350604087015191508086850301606087015261148884836113e8565b935060608701519150808685030160808701526114a584836113e8565b935060808701519150808685030160a08701526114c284836113e8565b935060a08701519150808685030160c08701526114df84836113e8565b935060c08701519150808685030160e08701526114fc84836113e8565b935060e0870151915061010081878603018188015261151b85846113e8565b94508088015192505050611539828601826001600160a01b03169052565b5090949350505050565b60006020828403121561155557600080fd5b8135801515811461156557600080fd5b9392505050565b602081016002831061158e57634e487b7160e01b600052602160045260246000fd5b91905290565b6000602082840312156115a657600080fd5b5035919050565b600080602083850312156115c057600080fd5b823567ffffffffffffffff808211156115d857600080fd5b818501915085601f8301126115ec57600080fd5b8135818111156115fb57600080fd5b86602082850101111561160d57600080fd5b60209290920196919550909350505050565b821515815260406020820152600061163a60408301846113e8565b949350505050565b60208152600061156560208301846113e8565b600181811c9082168061166957607f821691505b60208210810361168957634e487b7160e01b600052602260045260246000fd5b50919050565b67ffffffffffffffff82811682821603908082111561138f5761138f61135956fea2646970667358221220c26b25e8dc00d1895f8c66ed98431005b13f51e0f8ac93164dc20f817401ef4564736f6c63430008120033",
  "devdoc": {
    "details": "LifeInsurancePolicy is a contract for managing a life insurance policy",
    "kind": "dev",
    "methods": {
      "checkUpkeep(bytes)": {
        "details": "To ensure that it is never called, you may want to add the cannotExecute modifier from KeeperBase to your implementation of this method.",
        "params": {
          "checkData": "specified in the upkeep registration so it is always the same for a registered upkeep. This can easily be broken down into specific arguments using `abi.decode`, so multiple upkeeps can be registered on the same contract and easily differentiated by the contract."
        },
        "returns": {
          "performData": "bytes that the keeper should call performUpkeep with, if upkeep is needed. If you would like to encode data to decode later, try `abi.encode`.",
          "upkeepNeeded": "boolean to indicate whether the keeper should call performUpkeep or not."
        }
      },
      "performUpkeep(bytes)": {
        "details": "The input to this method should not be trusted, and the caller of the method should not even be restricted to any single registry. Anyone should be able call it, and the input should be validated, there is no guarantee that the data passed in is the performData returned from checkUpkeep. This could happen due to malicious keepers, racing keepers, or simply a state change while the performUpkeep transaction is waiting for confirmation. Always validate the data passed in.",
        "params": {
          "performData": "is the data which was passed back from the checkData simulation. If it is encoded, it can easily be decoded into other types by calling `abi.decode`. This data should not be trusted, and should be validated against the contract's current state."
        }
      }
    },
    "title": "LifeInsurancePolicy",
    "version": 1
  },
  "userdoc": {
    "kind": "user",
    "methods": {
      "checkUpkeep(bytes)": {
        "notice": "method that is simulated by the keepers to see if any work actually needs to be performed. This method does does not actually need to be executable, and since it is only ever simulated it can consume lots of gas."
      },
      "performUpkeep(bytes)": {
        "notice": "method that is actually executed by the keepers, via the registry. The data returned by the checkUpkeep simulation will be passed into this method to actually be executed."
      }
    },
    "version": 1
  },
  "storageLayout": {
    "storage": [
      {
        "astId": 358,
        "contract": "contracts/HealthInsurancePolicy.sol:HealthInsurancePolicy",
        "label": "s_ens",
        "offset": 0,
        "slot": "0",
        "type": "t_contract(ENSInterface)1193"
      },
      {
        "astId": 360,
        "contract": "contracts/HealthInsurancePolicy.sol:HealthInsurancePolicy",
        "label": "s_ensNode",
        "offset": 0,
        "slot": "1",
        "type": "t_bytes32"
      },
      {
        "astId": 363,
        "contract": "contracts/HealthInsurancePolicy.sol:HealthInsurancePolicy",
        "label": "s_link",
        "offset": 0,
        "slot": "2",
        "type": "t_contract(LinkTokenInterface)1288"
      },
      {
        "astId": 366,
        "contract": "contracts/HealthInsurancePolicy.sol:HealthInsurancePolicy",
        "label": "s_oracle",
        "offset": 0,
        "slot": "3",
        "type": "t_contract(OperatorInterface)1368"
      },
      {
        "astId": 369,
        "contract": "contracts/HealthInsurancePolicy.sol:HealthInsurancePolicy",
        "label": "s_requestCount",
        "offset": 0,
        "slot": "4",
        "type": "t_uint256"
      },
      {
        "astId": 373,
        "contract": "contracts/HealthInsurancePolicy.sol:HealthInsurancePolicy",
        "label": "s_pendingRequests",
        "offset": 0,
        "slot": "5",
        "type": "t_mapping(t_bytes32,t_address)"
      },
      {
        "astId": 3571,
        "contract": "contracts/HealthInsurancePolicy.sol:HealthInsurancePolicy",
        "label": "s_policy",
        "offset": 0,
        "slot": "6",
        "type": "t_struct(Policy)4619_storage"
      },
      {
        "astId": 3573,
        "contract": "contracts/HealthInsurancePolicy.sol:HealthInsurancePolicy",
        "label": "s_lastPaymentTimestamp",
        "offset": 0,
        "slot": "25",
        "type": "t_uint256"
      },
      {
        "astId": 3575,
        "contract": "contracts/HealthInsurancePolicy.sol:HealthInsurancePolicy",
        "label": "s_startTimestamp",
        "offset": 0,
        "slot": "26",
        "type": "t_uint256"
      },
      {
        "astId": 4180,
        "contract": "contracts/HealthInsurancePolicy.sol:HealthInsurancePolicy",
        "label": "s_healthPolicyParams",
        "offset": 0,
        "slot": "27",
        "type": "t_struct(HealthPolicyParams)4636_storage"
      }
    ],
    "types": {
      "t_address": {
        "encoding": "inplace",
        "label": "address",
        "numberOfBytes": "20"
      },
      "t_address_payable": {
        "encoding": "inplace",
        "label": "address payable",
        "numberOfBytes": "20"
      },
      "t_bool": {
        "encoding": "inplace",
        "label": "bool",
        "numberOfBytes": "1"
      },
      "t_bytes32": {
        "encoding": "inplace",
        "label": "bytes32",
        "numberOfBytes": "32"
      },
      "t_contract(ENSInterface)1193": {
        "encoding": "inplace",
        "label": "contract ENSInterface",
        "numberOfBytes": "20"
      },
      "t_contract(LinkTokenInterface)1288": {
        "encoding": "inplace",
        "label": "contract LinkTokenInterface",
        "numberOfBytes": "20"
      },
      "t_contract(OperatorInterface)1368": {
        "encoding": "inplace",
        "label": "contract OperatorInterface",
        "numberOfBytes": "20"
      },
      "t_enum(PolicyType)4622": {
        "encoding": "inplace",
        "label": "enum SharedData.PolicyType",
        "numberOfBytes": "1"
      },
      "t_mapping(t_bytes32,t_address)": {
        "encoding": "mapping",
        "key": "t_bytes32",
        "label": "mapping(bytes32 => address)",
        "numberOfBytes": "32",
        "value": "t_address"
      },
      "t_string_storage": {
        "encoding": "bytes",
        "label": "string",
        "numberOfBytes": "32"
      },
      "t_struct(HealthPolicyParams)4636_storage": {
        "encoding": "inplace",
        "label": "struct SharedData.HealthPolicyParams",
        "members": [
          {
            "astId": 4635,
            "contract": "contracts/HealthInsurancePolicy.sol:HealthInsurancePolicy",
            "label": "copaymentPercentage",
            "offset": 0,
            "slot": "0",
            "type": "t_uint64"
          }
        ],
        "numberOfBytes": "32"
      },
      "t_struct(HumanDetails)4578_storage": {
        "encoding": "inplace",
        "label": "struct SharedData.HumanDetails",
        "members": [
          {
            "astId": 4561,
            "contract": "contracts/HealthInsurancePolicy.sol:HealthInsurancePolicy",
            "label": "name",
            "offset": 0,
            "slot": "0",
            "type": "t_string_storage"
          },
          {
            "astId": 4563,
            "contract": "contracts/HealthInsurancePolicy.sol:HealthInsurancePolicy",
            "label": "dateOfBirth",
            "offset": 0,
            "slot": "1",
            "type": "t_string_storage"
          },
          {
            "astId": 4565,
            "contract": "contracts/HealthInsurancePolicy.sol:HealthInsurancePolicy",
            "label": "gender",
            "offset": 0,
            "slot": "2",
            "type": "t_string_storage"
          },
          {
            "astId": 4567,
            "contract": "contracts/HealthInsurancePolicy.sol:HealthInsurancePolicy",
            "label": "homeAddress",
            "offset": 0,
            "slot": "3",
            "type": "t_string_storage"
          },
          {
            "astId": 4569,
            "contract": "contracts/HealthInsurancePolicy.sol:HealthInsurancePolicy",
            "label": "phoneNumber",
            "offset": 0,
            "slot": "4",
            "type": "t_string_storage"
          },
          {
            "astId": 4571,
            "contract": "contracts/HealthInsurancePolicy.sol:HealthInsurancePolicy",
            "label": "pronouns",
            "offset": 0,
            "slot": "5",
            "type": "t_string_storage"
          },
          {
            "astId": 4573,
            "contract": "contracts/HealthInsurancePolicy.sol:HealthInsurancePolicy",
            "label": "email",
            "offset": 0,
            "slot": "6",
            "type": "t_string_storage"
          },
          {
            "astId": 4575,
            "contract": "contracts/HealthInsurancePolicy.sol:HealthInsurancePolicy",
            "label": "occupation",
            "offset": 0,
            "slot": "7",
            "type": "t_string_storage"
          },
          {
            "astId": 4577,
            "contract": "contracts/HealthInsurancePolicy.sol:HealthInsurancePolicy",
            "label": "policyHolderWalletAddress",
            "offset": 0,
            "slot": "8",
            "type": "t_address_payable"
          }
        ],
        "numberOfBytes": "288"
      },
      "t_struct(Policy)4619_storage": {
        "encoding": "inplace",
        "label": "struct SharedData.Policy",
        "members": [
          {
            "astId": 4586,
            "contract": "contracts/HealthInsurancePolicy.sol:HealthInsurancePolicy",
            "label": "policyHolder",
            "offset": 0,
            "slot": "0",
            "type": "t_struct(HumanDetails)4578_storage"
          },
          {
            "astId": 4588,
            "contract": "contracts/HealthInsurancePolicy.sol:HealthInsurancePolicy",
            "label": "policyTenure",
            "offset": 0,
            "slot": "9",
            "type": "t_uint128"
          },
          {
            "astId": 4590,
            "contract": "contracts/HealthInsurancePolicy.sol:HealthInsurancePolicy",
            "label": "gracePeriod",
            "offset": 16,
            "slot": "9",
            "type": "t_uint128"
          },
          {
            "astId": 4592,
            "contract": "contracts/HealthInsurancePolicy.sol:HealthInsurancePolicy",
            "label": "timeBeforeCommencement",
            "offset": 0,
            "slot": "10",
            "type": "t_uint128"
          },
          {
            "astId": 4594,
            "contract": "contracts/HealthInsurancePolicy.sol:HealthInsurancePolicy",
            "label": "timeInterval",
            "offset": 0,
            "slot": "11",
            "type": "t_uint256"
          },
          {
            "astId": 4596,
            "contract": "contracts/HealthInsurancePolicy.sol:HealthInsurancePolicy",
            "label": "premiumToBePaid",
            "offset": 0,
            "slot": "12",
            "type": "t_uint256"
          },
          {
            "astId": 4598,
            "contract": "contracts/HealthInsurancePolicy.sol:HealthInsurancePolicy",
            "label": "totalCoverageByPolicy",
            "offset": 0,
            "slot": "13",
            "type": "t_uint256"
          },
          {
            "astId": 4600,
            "contract": "contracts/HealthInsurancePolicy.sol:HealthInsurancePolicy",
            "label": "hasClaimed",
            "offset": 0,
            "slot": "14",
            "type": "t_bool"
          },
          {
            "astId": 4602,
            "contract": "contracts/HealthInsurancePolicy.sol:HealthInsurancePolicy",
            "label": "isPolicyActive",
            "offset": 1,
            "slot": "14",
            "type": "t_bool"
          },
          {
            "astId": 4604,
            "contract": "contracts/HealthInsurancePolicy.sol:HealthInsurancePolicy",
            "label": "isClaimable",
            "offset": 2,
            "slot": "14",
            "type": "t_bool"
          },
          {
            "astId": 4606,
            "contract": "contracts/HealthInsurancePolicy.sol:HealthInsurancePolicy",
            "label": "isTerminated",
            "offset": 3,
            "slot": "14",
            "type": "t_bool"
          },
          {
            "astId": 4608,
            "contract": "contracts/HealthInsurancePolicy.sol:HealthInsurancePolicy",
            "label": "hasFundedForCurrentMonth",
            "offset": 4,
            "slot": "14",
            "type": "t_bool"
          },
          {
            "astId": 4611,
            "contract": "contracts/HealthInsurancePolicy.sol:HealthInsurancePolicy",
            "label": "revivalRule",
            "offset": 0,
            "slot": "15",
            "type": "t_struct(RevivalRule)4583_storage"
          },
          {
            "astId": 4613,
            "contract": "contracts/HealthInsurancePolicy.sol:HealthInsurancePolicy",
            "label": "policyDetails",
            "offset": 0,
            "slot": "17",
            "type": "t_string_storage"
          },
          {
            "astId": 4616,
            "contract": "contracts/HealthInsurancePolicy.sol:HealthInsurancePolicy",
            "label": "policyType",
            "offset": 0,
            "slot": "18",
            "type": "t_enum(PolicyType)4622"
          },
          {
            "astId": 4618,
            "contract": "contracts/HealthInsurancePolicy.sol:HealthInsurancePolicy",
            "label": "policyManagerContractAddress",
            "offset": 1,
            "slot": "18",
            "type": "t_address_payable"
          }
        ],
        "numberOfBytes": "608"
      },
      "t_struct(RevivalRule)4583_storage": {
        "encoding": "inplace",
        "label": "struct SharedData.RevivalRule",
        "members": [
          {
            "astId": 4580,
            "contract": "contracts/HealthInsurancePolicy.sol:HealthInsurancePolicy",
            "label": "revivalPeriod",
            "offset": 0,
            "slot": "0",
            "type": "t_uint128"
          },
          {
            "astId": 4582,
            "contract": "contracts/HealthInsurancePolicy.sol:HealthInsurancePolicy",
            "label": "revivalAmount",
            "offset": 0,
            "slot": "1",
            "type": "t_uint256"
          }
        ],
        "numberOfBytes": "64"
      },
      "t_uint128": {
        "encoding": "inplace",
        "label": "uint128",
        "numberOfBytes": "16"
      },
      "t_uint256": {
        "encoding": "inplace",
        "label": "uint256",
        "numberOfBytes": "32"
      },
      "t_uint64": {
        "encoding": "inplace",
        "label": "uint64",
        "numberOfBytes": "8"
      }
    }
  }
}