{
  "address": "0xDc64a140Aa3E981100a9becA4E685f962f0cF6C9",
  "abi": [
    {
      "inputs": [
        {
          "components": [
            {
              "components": [
                {
                  "internalType": "string",
                  "name": "name",
                  "type": "string"
                },
                {
                  "internalType": "string",
                  "name": "dateOfBirth",
                  "type": "string"
                },
                {
                  "internalType": "string",
                  "name": "gender",
                  "type": "string"
                },
                {
                  "internalType": "string",
                  "name": "homeAddress",
                  "type": "string"
                },
                {
                  "internalType": "string",
                  "name": "phoneNumber",
                  "type": "string"
                },
                {
                  "internalType": "string",
                  "name": "pronouns",
                  "type": "string"
                },
                {
                  "internalType": "string",
                  "name": "email",
                  "type": "string"
                },
                {
                  "internalType": "string",
                  "name": "occupation",
                  "type": "string"
                },
                {
                  "internalType": "address payable",
                  "name": "policyHolderWalletAddress",
                  "type": "address"
                }
              ],
              "internalType": "struct SharedData.HumanDetails",
              "name": "policyHolder",
              "type": "tuple"
            },
            {
              "internalType": "uint128",
              "name": "policyTenure",
              "type": "uint128"
            },
            {
              "internalType": "uint128",
              "name": "gracePeriod",
              "type": "uint128"
            },
            {
              "internalType": "uint128",
              "name": "timeBeforeCommencement",
              "type": "uint128"
            },
            {
              "internalType": "uint256",
              "name": "timeInterval",
              "type": "uint256"
            },
            {
              "internalType": "uint256",
              "name": "premiumToBePaid",
              "type": "uint256"
            },
            {
              "internalType": "uint256",
              "name": "totalCoverageByPolicy",
              "type": "uint256"
            },
            {
              "internalType": "bool",
              "name": "hasClaimed",
              "type": "bool"
            },
            {
              "internalType": "bool",
              "name": "isPolicyActive",
              "type": "bool"
            },
            {
              "internalType": "bool",
              "name": "isClaimable",
              "type": "bool"
            },
            {
              "internalType": "bool",
              "name": "isTerminated",
              "type": "bool"
            },
            {
              "internalType": "bool",
              "name": "hasFundedForCurrentMonth",
              "type": "bool"
            },
            {
              "components": [
                {
                  "internalType": "uint128",
                  "name": "revivalPeriod",
                  "type": "uint128"
                },
                {
                  "internalType": "uint256",
                  "name": "revivalAmount",
                  "type": "uint256"
                }
              ],
              "internalType": "struct SharedData.RevivalRule",
              "name": "revivalRule",
              "type": "tuple"
            },
            {
              "internalType": "string",
              "name": "policyDetails",
              "type": "string"
            },
            {
              "internalType": "enum SharedData.PolicyType",
              "name": "policyType",
              "type": "uint8"
            },
            {
              "internalType": "address payable",
              "name": "policyManagerContractAddress",
              "type": "address"
            }
          ],
          "internalType": "struct SharedData.Policy",
          "name": "policy",
          "type": "tuple"
        },
        {
          "components": [
            {
              "components": [
                {
                  "components": [
                    {
                      "internalType": "string",
                      "name": "name",
                      "type": "string"
                    },
                    {
                      "internalType": "string",
                      "name": "dateOfBirth",
                      "type": "string"
                    },
                    {
                      "internalType": "string",
                      "name": "gender",
                      "type": "string"
                    },
                    {
                      "internalType": "string",
                      "name": "homeAddress",
                      "type": "string"
                    },
                    {
                      "internalType": "string",
                      "name": "phoneNumber",
                      "type": "string"
                    },
                    {
                      "internalType": "string",
                      "name": "pronouns",
                      "type": "string"
                    },
                    {
                      "internalType": "string",
                      "name": "email",
                      "type": "string"
                    },
                    {
                      "internalType": "string",
                      "name": "occupation",
                      "type": "string"
                    },
                    {
                      "internalType": "address payable",
                      "name": "policyHolderWalletAddress",
                      "type": "address"
                    }
                  ],
                  "internalType": "struct SharedData.HumanDetails",
                  "name": "nomineeDetails",
                  "type": "tuple"
                },
                {
                  "internalType": "uint128",
                  "name": "nomineeShare",
                  "type": "uint128"
                }
              ],
              "internalType": "struct SharedData.Nominee[]",
              "name": "nominees",
              "type": "tuple[]"
            }
          ],
          "internalType": "struct SharedData.LifePolicyParams",
          "name": "lifePolicyParams",
          "type": "tuple"
        }
      ],
      "stateMutability": "nonpayable",
      "type": "constructor"
    },
    {
      "inputs": [],
      "name": "OnlyOwnerAllowed",
      "type": "error"
    },
    {
      "inputs": [],
      "name": "OnlySimulatedBackend",
      "type": "error"
    },
    {
      "inputs": [],
      "name": "PolicyActive",
      "type": "error"
    },
    {
      "inputs": [],
      "name": "PolicyAlreadyClaimed",
      "type": "error"
    },
    {
      "inputs": [],
      "name": "PolicyNotActive",
      "type": "error"
    },
    {
      "inputs": [],
      "name": "PolicyNotClaimable",
      "type": "error"
    },
    {
      "inputs": [],
      "name": "PolicyNotFunded",
      "type": "error"
    },
    {
      "inputs": [],
      "name": "PolicyNotInGracePeriod",
      "type": "error"
    },
    {
      "inputs": [],
      "name": "PolicyNotMatured",
      "type": "error"
    },
    {
      "inputs": [],
      "name": "PolicyNotRevivable",
      "type": "error"
    },
    {
      "inputs": [],
      "name": "PolicyTerminated",
      "type": "error"
    },
    {
      "inputs": [],
      "name": "PremiumAmountNotCorrect",
      "type": "error"
    },
    {
      "inputs": [],
      "name": "RevivalAmountNotCorrect",
      "type": "error"
    },
    {
      "inputs": [],
      "name": "WithdrawingError",
      "type": "error"
    },
    {
      "anonymous": false,
      "inputs": [
        {
          "indexed": true,
          "internalType": "bytes32",
          "name": "id",
          "type": "bytes32"
        }
      ],
      "name": "ChainlinkCancelled",
      "type": "event"
    },
    {
      "anonymous": false,
      "inputs": [
        {
          "indexed": true,
          "internalType": "bytes32",
          "name": "id",
          "type": "bytes32"
        }
      ],
      "name": "ChainlinkFulfilled",
      "type": "event"
    },
    {
      "anonymous": false,
      "inputs": [
        {
          "indexed": true,
          "internalType": "bytes32",
          "name": "id",
          "type": "bytes32"
        }
      ],
      "name": "ChainlinkRequested",
      "type": "event"
    },
    {
      "inputs": [
        {
          "internalType": "bytes",
          "name": "checkData",
          "type": "bytes"
        }
      ],
      "name": "checkUpkeep",
      "outputs": [
        {
          "internalType": "bool",
          "name": "upkeepNeeded",
          "type": "bool"
        },
        {
          "internalType": "bytes",
          "name": "performData",
          "type": "bytes"
        }
      ],
      "stateMutability": "view",
      "type": "function"
    },
    {
      "inputs": [],
      "name": "getGracePeriod",
      "outputs": [
        {
          "internalType": "uint128",
          "name": "gracePeriod",
          "type": "uint128"
        }
      ],
      "stateMutability": "view",
      "type": "function"
    },
    {
      "inputs": [],
      "name": "getHasClaimed",
      "outputs": [
        {
          "internalType": "bool",
          "name": "hasClaimed",
          "type": "bool"
        }
      ],
      "stateMutability": "view",
      "type": "function"
    },
    {
      "inputs": [],
      "name": "getIsClaimable",
      "outputs": [
        {
          "internalType": "bool",
          "name": "isClaimable",
          "type": "bool"
        }
      ],
      "stateMutability": "view",
      "type": "function"
    },
    {
      "inputs": [],
      "name": "getIsPolicyActive",
      "outputs": [
        {
          "internalType": "bool",
          "name": "isPolicyActive",
          "type": "bool"
        }
      ],
      "stateMutability": "view",
      "type": "function"
    },
    {
      "inputs": [],
      "name": "getIsTerminated",
      "outputs": [
        {
          "internalType": "bool",
          "name": "isTerminated",
          "type": "bool"
        }
      ],
      "stateMutability": "view",
      "type": "function"
    },
    {
      "inputs": [
        {
          "internalType": "uint128",
          "name": "index",
          "type": "uint128"
        }
      ],
      "name": "getNominee",
      "outputs": [
        {
          "components": [
            {
              "components": [
                {
                  "internalType": "string",
                  "name": "name",
                  "type": "string"
                },
                {
                  "internalType": "string",
                  "name": "dateOfBirth",
                  "type": "string"
                },
                {
                  "internalType": "string",
                  "name": "gender",
                  "type": "string"
                },
                {
                  "internalType": "string",
                  "name": "homeAddress",
                  "type": "string"
                },
                {
                  "internalType": "string",
                  "name": "phoneNumber",
                  "type": "string"
                },
                {
                  "internalType": "string",
                  "name": "pronouns",
                  "type": "string"
                },
                {
                  "internalType": "string",
                  "name": "email",
                  "type": "string"
                },
                {
                  "internalType": "string",
                  "name": "occupation",
                  "type": "string"
                },
                {
                  "internalType": "address payable",
                  "name": "policyHolderWalletAddress",
                  "type": "address"
                }
              ],
              "internalType": "struct SharedData.HumanDetails",
              "name": "nomineeDetails",
              "type": "tuple"
            },
            {
              "internalType": "uint128",
              "name": "nomineeShare",
              "type": "uint128"
            }
          ],
          "internalType": "struct SharedData.Nominee",
          "name": "nominee",
          "type": "tuple"
        }
      ],
      "stateMutability": "view",
      "type": "function"
    },
    {
      "inputs": [],
      "name": "getNominees",
      "outputs": [
        {
          "components": [
            {
              "components": [
                {
                  "internalType": "string",
                  "name": "name",
                  "type": "string"
                },
                {
                  "internalType": "string",
                  "name": "dateOfBirth",
                  "type": "string"
                },
                {
                  "internalType": "string",
                  "name": "gender",
                  "type": "string"
                },
                {
                  "internalType": "string",
                  "name": "homeAddress",
                  "type": "string"
                },
                {
                  "internalType": "string",
                  "name": "phoneNumber",
                  "type": "string"
                },
                {
                  "internalType": "string",
                  "name": "pronouns",
                  "type": "string"
                },
                {
                  "internalType": "string",
                  "name": "email",
                  "type": "string"
                },
                {
                  "internalType": "string",
                  "name": "occupation",
                  "type": "string"
                },
                {
                  "internalType": "address payable",
                  "name": "policyHolderWalletAddress",
                  "type": "address"
                }
              ],
              "internalType": "struct SharedData.HumanDetails",
              "name": "nomineeDetails",
              "type": "tuple"
            },
            {
              "internalType": "uint128",
              "name": "nomineeShare",
              "type": "uint128"
            }
          ],
          "internalType": "struct SharedData.Nominee[]",
          "name": "nominees",
          "type": "tuple[]"
        }
      ],
      "stateMutability": "view",
      "type": "function"
    },
    {
      "inputs": [],
      "name": "getPolicyDetails",
      "outputs": [
        {
          "internalType": "string",
          "name": "policyDetails",
          "type": "string"
        }
      ],
      "stateMutability": "view",
      "type": "function"
    },
    {
      "inputs": [],
      "name": "getPolicyHolderDetails",
      "outputs": [
        {
          "components": [
            {
              "internalType": "string",
              "name": "name",
              "type": "string"
            },
            {
              "internalType": "string",
              "name": "dateOfBirth",
              "type": "string"
            },
            {
              "internalType": "string",
              "name": "gender",
              "type": "string"
            },
            {
              "internalType": "string",
              "name": "homeAddress",
              "type": "string"
            },
            {
              "internalType": "string",
              "name": "phoneNumber",
              "type": "string"
            },
            {
              "internalType": "string",
              "name": "pronouns",
              "type": "string"
            },
            {
              "internalType": "string",
              "name": "email",
              "type": "string"
            },
            {
              "internalType": "string",
              "name": "occupation",
              "type": "string"
            },
            {
              "internalType": "address payable",
              "name": "policyHolderWalletAddress",
              "type": "address"
            }
          ],
          "internalType": "struct SharedData.HumanDetails",
          "name": "policyHolderDetails",
          "type": "tuple"
        }
      ],
      "stateMutability": "view",
      "type": "function"
    },
    {
      "inputs": [],
      "name": "getPolicyHolderWalletAddress",
      "outputs": [
        {
          "internalType": "address payable",
          "name": "policyHolderWalletAddress",
          "type": "address"
        }
      ],
      "stateMutability": "view",
      "type": "function"
    },
    {
      "inputs": [],
      "name": "getPolicyTenure",
      "outputs": [
        {
          "internalType": "uint128",
          "name": "policyTenure",
          "type": "uint128"
        }
      ],
      "stateMutability": "view",
      "type": "function"
    },
    {
      "inputs": [],
      "name": "getPolicyType",
      "outputs": [
        {
          "internalType": "enum SharedData.PolicyType",
          "name": "policyType",
          "type": "uint8"
        }
      ],
      "stateMutability": "view",
      "type": "function"
    },
    {
      "inputs": [],
      "name": "getPremiumToBePaid",
      "outputs": [
        {
          "internalType": "uint256",
          "name": "premiumToBePaid",
          "type": "uint256"
        }
      ],
      "stateMutability": "view",
      "type": "function"
    },
    {
      "inputs": [],
      "name": "getRevivalRule",
      "outputs": [
        {
          "components": [
            {
              "internalType": "uint128",
              "name": "revivalPeriod",
              "type": "uint128"
            },
            {
              "internalType": "uint256",
              "name": "revivalAmount",
              "type": "uint256"
            }
          ],
          "internalType": "struct SharedData.RevivalRule",
          "name": "revivalRule",
          "type": "tuple"
        }
      ],
      "stateMutability": "view",
      "type": "function"
    },
    {
      "inputs": [],
      "name": "getTimeBeforeCommencement",
      "outputs": [
        {
          "internalType": "uint128",
          "name": "time",
          "type": "uint128"
        }
      ],
      "stateMutability": "view",
      "type": "function"
    },
    {
      "inputs": [],
      "name": "getTotalCoverageByPolicy",
      "outputs": [
        {
          "internalType": "uint256",
          "name": "coverage",
          "type": "uint256"
        }
      ],
      "stateMutability": "view",
      "type": "function"
    },
    {
      "inputs": [],
      "name": "makeClaim",
      "outputs": [
        {
          "internalType": "bool",
          "name": "claimed",
          "type": "bool"
        }
      ],
      "stateMutability": "nonpayable",
      "type": "function"
    },
    {
      "inputs": [
        {
          "internalType": "bytes",
          "name": "performData",
          "type": "bytes"
        }
      ],
      "name": "performUpkeep",
      "outputs": [],
      "stateMutability": "nonpayable",
      "type": "function"
    },
    {
      "inputs": [],
      "name": "revivePolicy",
      "outputs": [],
      "stateMutability": "payable",
      "type": "function"
    },
    {
      "inputs": [
        {
          "internalType": "bool",
          "name": "isClaimable",
          "type": "bool"
        }
      ],
      "name": "setClaimable",
      "outputs": [],
      "stateMutability": "nonpayable",
      "type": "function"
    },
    {
      "inputs": [
        {
          "internalType": "bool",
          "name": "hasClaimed",
          "type": "bool"
        }
      ],
      "name": "setClaimed",
      "outputs": [],
      "stateMutability": "nonpayable",
      "type": "function"
    },
    {
      "inputs": [
        {
          "internalType": "bool",
          "name": "hasFundedForCurrentMonth",
          "type": "bool"
        }
      ],
      "name": "setHasFundedForCurrentMonth",
      "outputs": [],
      "stateMutability": "nonpayable",
      "type": "function"
    },
    {
      "inputs": [
        {
          "internalType": "bool",
          "name": "isPolicyActive",
          "type": "bool"
        }
      ],
      "name": "setPolicyActive",
      "outputs": [],
      "stateMutability": "nonpayable",
      "type": "function"
    },
    {
      "inputs": [
        {
          "internalType": "bool",
          "name": "isTerminate",
          "type": "bool"
        }
      ],
      "name": "setTermination",
      "outputs": [],
      "stateMutability": "nonpayable",
      "type": "function"
    },
    {
      "inputs": [],
      "name": "withdraw",
      "outputs": [],
      "stateMutability": "payable",
      "type": "function"
    },
    {
      "stateMutability": "payable",
      "type": "receive"
    }
  ],
  "transactionHash": "0xfa47b99b607f12ae0b746c7756c7b7576bb47979d730c5d4be2b379c7cf1444b",
  "args": [
    {
      "policyHolder": {
        "name": "_policyHolder",
        "dateOfBirth": "1/1/1",
        "gender": "homosexual dragon",
        "homeAddress": "dragon raja land",
        "phoneNumber": "123456789",
        "email": "homodragon@phobo.com",
        "occupation": "homodragonkiller",
        "pronouns": "mighty/almighty",
        "policyHolderWalletAddress": "0x5FbDB2315678afecb367f032d93F642f64180aa3"
      },
      "policyTenure": 5000,
      "gracePeriod": 15,
      "timeBeforeCommencement": 60,
      "premiumToBePaid": "1000000000000000000",
      "totalCoverageByPolicy": "1000000000000000000000",
      "hasClaimed": false,
      "isPolicyActive": true,
      "isClaimable": false,
      "isTerminated": false,
      "timeInterval": 30,
      "hasFundedForCurrentMonth": false,
      "revivalRule": {
        "revivalPeriod": 15,
        "revivalAmount": "5000000000000000000"
      },
      "policyDetails": "This is a Dragon Contract",
      "policyType": 0,
      "policyManagerContractAddress": "0xe7f1725E7734CE288F8367e1Bb143E90bb3F0512"
    },
    {
      "nominees": [
        {
          "nomineeDetails": {
            "name": "_policyNominee",
            "dateOfBirth": "1/2/1",
            "gender": "homosexual dragoness",
            "homeAddress": "dragon raja land",
            "phoneNumber": "003456789",
            "email": "homodragoness@phobo.com",
            "occupation": "homodragonesskiller",
            "pronouns": "mightyNoona/almightyNoona",
            "policyHolderWalletAddress": "0x5FbDB2315678afecb367f032d93F642f64180aa3"
          },
          "nomineeShare": 25
        },
        {
          "nomineeDetails": {
            "name": "_policyNominee",
            "dateOfBirth": "1/2/1",
            "gender": "asexual dragoness",
            "homeAddress": "dragon raja land",
            "phoneNumber": "003456789",
            "email": "asexualdragon@homophobic.com",
            "occupation": "heterodragonkiller",
            "pronouns": "mightyOopa/almightyOopa",
            "policyHolderWalletAddress": "0x5FbDB2315678afecb367f032d93F642f64180aa3"
          },
          "nomineeShare": 75
        }
      ]
    }
  ],
  "numDeployments": 1,
  "solcInputHash": "d2f183894369186c0f54a21e8b9ac313",
  "bytecode": "0x608060405260016004553480156200001657600080fd5b5060405162002e9938038062002e998339810160408190526200003991620008c1565b8151805183918291600691908290819062000055908262000b0f565b50602082015160018201906200006c908262000b0f565b506040820151600282019062000083908262000b0f565b50606082015160038201906200009a908262000b0f565b5060808201516004820190620000b1908262000b0f565b5060a08201516005820190620000c8908262000b0f565b5060c08201516006820190620000df908262000b0f565b5060e08201516007820190620000f6908262000b0f565b506101009182015160089190910180546001600160a01b0319166001600160a01b0390921691909117905560208381015160408501516001600160801b03918216600160801b918316919091021760098501556060850151600a850180546001600160801b03199081169284169290921790556080860151600b86015560a0860151600c86015560c0860151600d86015560e0860151600e86018054888701516101208a01516101408b01516101608c015161ffff1990941695151561ff001916959095179115159098021763ffff00001916620100009715159790970263ff0000001916969096176301000000921515929092029190911760ff60201b191664010000000095151595909502949094179093556101808501518051600f86018054909516921691909117909255015160108201556101a0820151601182019062000242908262000b0f565b506101c082015160128201805460ff19166001838181111562000269576200026962000bdb565b02179055506101e09190910151601290910180546001600160a01b0390921661010002610100600160a81b03199092169190911790555060005b8151518110156200040d5781518051601b919083908110620002c957620002c962000bf1565b602090810291909101810151825460018101845560009384529190922082518051600a909302909101918290819062000303908262000b0f565b50602082015160018201906200031a908262000b0f565b506040820151600282019062000331908262000b0f565b506060820151600382019062000348908262000b0f565b50608082015160048201906200035f908262000b0f565b5060a0820151600582019062000376908262000b0f565b5060c082015160068201906200038d908262000b0f565b5060e08201516007820190620003a4908262000b0f565b506101009190910151600890910180546001600160a01b0319166001600160a01b0390921691909117905560209190910151600990910180546001600160801b0319166001600160801b0390921691909117905580620004048162000c07565b915050620002a3565b50505062000c2f565b634e487b7160e01b600052604160045260246000fd5b60405161012081016001600160401b038111828210171562000452576200045262000416565b60405290565b604080519081016001600160401b038111828210171562000452576200045262000416565b604051602081016001600160401b038111828210171562000452576200045262000416565b60405161020081016001600160401b038111828210171562000452576200045262000416565b604051601f8201601f191681016001600160401b0381118282101715620004f357620004f362000416565b604052919050565b600082601f8301126200050d57600080fd5b81516001600160401b0381111562000529576200052962000416565b60206200053f601f8301601f19168201620004c8565b82815285828487010111156200055457600080fd5b60005b838110156200057457858101830151828201840152820162000557565b506000928101909101919091529392505050565b80516001600160a01b0381168114620005a057600080fd5b919050565b60006101208284031215620005b957600080fd5b620005c36200042c565b82519091506001600160401b0380821115620005de57600080fd5b620005ec85838601620004fb565b835260208401519150808211156200060357600080fd5b6200061185838601620004fb565b602084015260408401519150808211156200062b57600080fd5b6200063985838601620004fb565b604084015260608401519150808211156200065357600080fd5b6200066185838601620004fb565b606084015260808401519150808211156200067b57600080fd5b6200068985838601620004fb565b608084015260a0840151915080821115620006a357600080fd5b620006b185838601620004fb565b60a084015260c0840151915080821115620006cb57600080fd5b620006d985838601620004fb565b60c084015260e0840151915080821115620006f357600080fd5b506200070284828501620004fb565b60e0830152506101006200071881840162000588565b9082015292915050565b80516001600160801b0381168114620005a057600080fd5b80518015158114620005a057600080fd5b6000604082840312156200075e57600080fd5b6200076862000458565b9050620007758262000722565b81526020820151602082015292915050565b805160028110620005a057600080fd5b60006020808385031215620007ab57600080fd5b620007b56200047d565b83519092506001600160401b0380821115620007d057600080fd5b818501915085601f830112620007e557600080fd5b815181811115620007fa57620007fa62000416565b8060051b6200080b858201620004c8565b91825283810185019185810190898411156200082657600080fd5b86860192505b83831015620008b257825185811115620008465760008081fd5b86016040818c03601f19018113156200085f5760008081fd5b6200086962000458565b89830151888111156200087c5760008081fd5b6200088c8e8c83870101620005a5565b8252506200089c82840162000722565b818b01528452505091860191908601906200082c565b87525094979650505050505050565b60008060408385031215620008d557600080fd5b82516001600160401b0380821115620008ed57600080fd5b9084019061022082870312156200090357600080fd5b6200090d620004a2565b8251828111156200091d57600080fd5b6200092b88828601620005a5565b8252506200093c6020840162000722565b60208201526200094f6040840162000722565b6040820152620009626060840162000722565b60608201526080830151608082015260a083015160a082015260c083015160c08201526200099360e084016200073a565b60e0820152610100620009a88185016200073a565b90820152610120620009bc8482016200073a565b90820152610140620009d08482016200073a565b90820152610160620009e48482016200073a565b90820152610180620009f9888583016200074b565b908201526101c0838101518381111562000a1257600080fd5b62000a2089828701620004fb565b6101a0840152506101e062000a3781860162000787565b8284015262000a4a610200860162000588565b9083015250602086015190945091508082111562000a6757600080fd5b5062000a768582860162000797565b9150509250929050565b600181811c9082168062000a9557607f821691505b60208210810362000ab657634e487b7160e01b600052602260045260246000fd5b50919050565b601f82111562000b0a57600081815260208120601f850160051c8101602086101562000ae55750805b601f850160051c820191505b8181101562000b065782815560010162000af1565b5050505b505050565b81516001600160401b0381111562000b2b5762000b2b62000416565b62000b438162000b3c845462000a80565b8462000abc565b602080601f83116001811462000b7b576000841562000b625750858301515b600019600386901b1c1916600185901b17855562000b06565b600085815260208120601f198616915b8281101562000bac5788860151825594840194600190910190840162000b8b565b508582101562000bcb5787850151600019600388901b60f8161c191681555b5050505050600190811b01905550565b634e487b7160e01b600052602160045260246000fd5b634e487b7160e01b600052603260045260246000fd5b60006001820162000c2857634e487b7160e01b600052601160045260246000fd5b5060010190565b61225a8062000c3f6000396000f3fe6080604052600436106101a45760003560e01c806362ba912a116100e15780639636f67c1161008a578063cc9ba6fa11610064578063cc9ba6fa14610613578063dbd1838814610635578063ec21858f1461065a578063f5aa02001461068257600080fd5b80639636f67c146105bb578063a6049650146105dd578063b0141ed4146105fb57600080fd5b80639471ca5c116100bb5780639471ca5c146105285780639507b8781461054857806395dcc90a1461056757600080fd5b806362ba912a146104d45780636e04ff0d146104dc57806372ef31511461050a57600080fd5b80632b140f4f1161014e5780633db96d5f116101285780633db96d5f1461044b5780634585e33b146104745780634f7d38291461049457806352e9c64c146104b457600080fd5b80632b140f4f14610403578063378c93ad146104235780633ccfd60b1461044357600080fd5b80631c0bab141161017f5780631c0bab141461039f578063248f0f97146103c157806324f1c53e146103d657600080fd5b806285ce021461032357806301b01c861461034e57806312704a421461036d57600080fd5b3661031e576014546301000000900460ff166101d35760405163c60d361f60e01b815260040160405180910390fd5b601454610100900460ff1661029d57600f54601554610205916001600160801b03600160801b90910481169116611e45565b6001600160801b03166019544261021c9190611e6c565b111561023b57604051631932f4cb60e21b815260040160405180910390fd5b612710610251670de0b6b3a76400006001611e85565b61025b9190611e9c565b601654610269903490611e6c565b111561028857604051631b44afc760e31b815260040160405180910390fd5b426019556014805461ff001916610100179055005b6127106102b3670de0b6b3a76400006001611e85565b6102bd9190611e9c565b6012546102cb903490611e6c565b1115610303576040517f7684b8c400000000000000000000000000000000000000000000000000000000815260040160405180910390fd5b426019556014805464ff000000001916640100000000179055005b600080fd5b34801561032f57600080fd5b50610338610697565b6040516103459190611ff8565b60405180910390f35b34801561035a57600080fd5b506012545b604051908152602001610345565b34801561037957600080fd5b506010546001600160801b03165b6040516001600160801b039091168152602001610345565b3480156103ab57600080fd5b506103bf6103ba366004612012565b610ba6565b005b3480156103cd57600080fd5b5060135461035f565b3480156103e257600080fd5b506103f66103f1366004612034565b610c17565b604051610345919061208f565b34801561040f57600080fd5b5060185460ff1660405161034591906120a2565b34801561042f57600080fd5b506103bf61043e366004612012565b611127565b6103bf611196565b34801561045757600080fd5b50601454610100900460ff165b6040519015158152602001610345565b34801561048057600080fd5b506103bf61048f3660046120ca565b611235565b3480156104a057600080fd5b506103bf6104af366004612012565b6112cf565b3480156104c057600080fd5b506103bf6104cf366004612012565b611335565b6103bf6113a2565b3480156104e857600080fd5b506104fc6104f73660046120ca565b61153f565b60405161034592919061213c565b34801561051657600080fd5b50600f546001600160801b0316610387565b34801561053457600080fd5b506103bf610543366004612012565b61166c565b34801561055457600080fd5b506014546301000000900460ff16610464565b34801561057357600080fd5b506040805180820182526000808252602091820152815180830183526015546001600160801b0316808252601654918301918252835190815290519181019190915201610345565b3480156105c757600080fd5b506105d06116df565b604051610345919061215f565b3480156105e957600080fd5b5060145462010000900460ff16610464565b34801561060757600080fd5b5060145460ff16610464565b34801561061f57600080fd5b50610628611c07565b60405161034591906121c1565b34801561064157600080fd5b50600f54600160801b90046001600160801b0316610387565b34801561066657600080fd5b50600e546040516001600160a01b039091168152602001610345565b34801561068e57600080fd5b50610464611c9c565b6106ef604051806101200160405280606081526020016060815260200160608152602001606081526020016060815260200160608152602001606081526020016060815260200160006001600160a01b031681525090565b604080516101208101909152600680548290829061070c906121d4565b80601f0160208091040260200160405190810160405280929190818152602001828054610738906121d4565b80156107855780601f1061075a57610100808354040283529160200191610785565b820191906000526020600020905b81548152906001019060200180831161076857829003601f168201915b5050505050815260200160018201805461079e906121d4565b80601f01602080910402602001604051908101604052809291908181526020018280546107ca906121d4565b80156108175780601f106107ec57610100808354040283529160200191610817565b820191906000526020600020905b8154815290600101906020018083116107fa57829003601f168201915b50505050508152602001600282018054610830906121d4565b80601f016020809104026020016040519081016040528092919081815260200182805461085c906121d4565b80156108a95780601f1061087e576101008083540402835291602001916108a9565b820191906000526020600020905b81548152906001019060200180831161088c57829003601f168201915b505050505081526020016003820180546108c2906121d4565b80601f01602080910402602001604051908101604052809291908181526020018280546108ee906121d4565b801561093b5780601f106109105761010080835404028352916020019161093b565b820191906000526020600020905b81548152906001019060200180831161091e57829003601f168201915b50505050508152602001600482018054610954906121d4565b80601f0160208091040260200160405190810160405280929190818152602001828054610980906121d4565b80156109cd5780601f106109a2576101008083540402835291602001916109cd565b820191906000526020600020905b8154815290600101906020018083116109b057829003601f168201915b505050505081526020016005820180546109e6906121d4565b80601f0160208091040260200160405190810160405280929190818152602001828054610a12906121d4565b8015610a5f5780601f10610a3457610100808354040283529160200191610a5f565b820191906000526020600020905b815481529060010190602001808311610a4257829003601f168201915b50505050508152602001600682018054610a78906121d4565b80601f0160208091040260200160405190810160405280929190818152602001828054610aa4906121d4565b8015610af15780601f10610ac657610100808354040283529160200191610af1565b820191906000526020600020905b815481529060010190602001808311610ad457829003601f168201915b50505050508152602001600782018054610b0a906121d4565b80601f0160208091040260200160405190810160405280929190818152602001828054610b36906121d4565b8015610b835780601f10610b5857610100808354040283529160200191610b83565b820191906000526020600020905b815481529060010190602001808311610b6657829003601f168201915b5050509183525050600891909101546001600160a01b0316602090910152919050565b600e546001600160a01b031633141580610bd0575060185461010090046001600160a01b03163314155b80610bdb5750333014155b15610bf957604051630e2f7eff60e31b815260040160405180910390fd5b6014805491151563010000000263ff00000019909216919091179055565b610c1f611dbf565b601b80546001600160801b038416908110610c3c57610c3c61220e565b90600052602060002090600a02016040518060400160405290816000820160405180610120016040529081600082018054610c76906121d4565b80601f0160208091040260200160405190810160405280929190818152602001828054610ca2906121d4565b8015610cef5780601f10610cc457610100808354040283529160200191610cef565b820191906000526020600020905b815481529060010190602001808311610cd257829003601f168201915b50505050508152602001600182018054610d08906121d4565b80601f0160208091040260200160405190810160405280929190818152602001828054610d34906121d4565b8015610d815780601f10610d5657610100808354040283529160200191610d81565b820191906000526020600020905b815481529060010190602001808311610d6457829003601f168201915b50505050508152602001600282018054610d9a906121d4565b80601f0160208091040260200160405190810160405280929190818152602001828054610dc6906121d4565b8015610e135780601f10610de857610100808354040283529160200191610e13565b820191906000526020600020905b815481529060010190602001808311610df657829003601f168201915b50505050508152602001600382018054610e2c906121d4565b80601f0160208091040260200160405190810160405280929190818152602001828054610e58906121d4565b8015610ea55780601f10610e7a57610100808354040283529160200191610ea5565b820191906000526020600020905b815481529060010190602001808311610e8857829003601f168201915b50505050508152602001600482018054610ebe906121d4565b80601f0160208091040260200160405190810160405280929190818152602001828054610eea906121d4565b8015610f375780601f10610f0c57610100808354040283529160200191610f37565b820191906000526020600020905b815481529060010190602001808311610f1a57829003601f168201915b50505050508152602001600582018054610f50906121d4565b80601f0160208091040260200160405190810160405280929190818152602001828054610f7c906121d4565b8015610fc95780601f10610f9e57610100808354040283529160200191610fc9565b820191906000526020600020905b815481529060010190602001808311610fac57829003601f168201915b50505050508152602001600682018054610fe2906121d4565b80601f016020809104026020016040519081016040528092919081815260200182805461100e906121d4565b801561105b5780601f106110305761010080835404028352916020019161105b565b820191906000526020600020905b81548152906001019060200180831161103e57829003601f168201915b50505050508152602001600782018054611074906121d4565b80601f01602080910402602001604051908101604052809291908181526020018280546110a0906121d4565b80156110ed5780601f106110c2576101008083540402835291602001916110ed565b820191906000526020600020905b8154815290600101906020018083116110d057829003601f168201915b5050509183525050600891909101546001600160a01b0316602091820152908252600992909201546001600160801b031691015292915050565b600e546001600160a01b031633141580611151575060185461010090046001600160a01b03163314155b8061115c5750333014155b1561117a57604051630e2f7eff60e31b815260040160405180910390fd5b60148054911515620100000262ff000019909216919091179055565b6014546301000000900460ff16156111c15760405163c60d361f60e01b815260040160405180910390fd5b60145462010000900460ff166111ea5760405163608bc83960e11b815260040160405180910390fd5b601354600e546040516001600160a01b039091169082156108fc029083906000818181858888f19350505050158015611227573d6000803e3d6000fd5b506112326001610ba6565b50565b6014805464ff0000000019169055600f54601954600160801b9091046001600160801b0316906112659042611e6c565b1115611277576014805461ff00191690555b601554600f5461129a916001600160801b0390811691600160801b900416611e45565b6001600160801b0316601954426112b19190611e6c565b11156112cb576014805463ff000000191663010000001790555b5050565b600e546001600160a01b0316331415806112f9575060185461010090046001600160a01b03163314155b806113045750333014155b1561132257604051630e2f7eff60e31b815260040160405180910390fd5b6014805460ff1916911515919091179055565b600e546001600160a01b03163314158061135f575060185461010090046001600160a01b03163314155b8061136a5750333014155b1561138857604051630e2f7eff60e31b815260040160405180910390fd5b601480549115156101000261ff0019909216919091179055565b600e546001600160a01b0316331415806113cc575060185461010090046001600160a01b03163314155b806113d75750333014155b156113f557604051630e2f7eff60e31b815260040160405180910390fd5b6014546301000000900460ff1661141f5760405163c60d361f60e01b815260040160405180910390fd5b601454610100900460ff16611460576040517f8d8d689b00000000000000000000000000000000000000000000000000000000815260040160405180910390fd5b60145460ff161561148457604051631a4c0efb60e21b815260040160405180910390fd5b600f546015546114a7916001600160801b03600160801b90910481169116611e45565b6001600160801b0316601954426114be9190611e6c565b11156114dd57604051631932f4cb60e21b815260040160405180910390fd5b6127106114f3670de0b6b3a76400006001611e85565b6114fd9190611e9c565b60165461150b903490611e6c565b101561152a57604051631b44afc760e31b815260040160405180910390fd5b426019556014805461ff001916610100179055565b6014546000906060906301000000900460ff161561159157505060408051808201909152601481527f506f6c696379206973207465726d696e6174656400000000000000000000000060208201526000905b601454610100900460ff1661161a57601554600f546115c3916001600160801b0390811691600160801b900416611e45565b6001600160801b0316601954426115da9190611e6c565b111561161a57505060408051808201909152601681527f5265766976616c20706572696f64206973206f7665720000000000000000000060208201526000905b60115460195461162a9042611e6c565b1191506040518060400160405280601081526020017f55706b656570206973206e65656465640000000000000000000000000000000081525090509250929050565b600e546001600160a01b031633141580611696575060185461010090046001600160a01b03163314155b806116a15750333014155b156116bf57604051630e2f7eff60e31b815260040160405180910390fd5b601480549115156401000000000264ff0000000019909216919091179055565b6060601b600001805480602002602001604051908101604052809291908181526020016000905b82821015611bfe576000848152602090206040805161016081018252600a850290920180549091839190820190839082908290611742906121d4565b80601f016020809104026020016040519081016040528092919081815260200182805461176e906121d4565b80156117bb5780601f10611790576101008083540402835291602001916117bb565b820191906000526020600020905b81548152906001019060200180831161179e57829003601f168201915b505050505081526020016001820180546117d4906121d4565b80601f0160208091040260200160405190810160405280929190818152602001828054611800906121d4565b801561184d5780601f106118225761010080835404028352916020019161184d565b820191906000526020600020905b81548152906001019060200180831161183057829003601f168201915b50505050508152602001600282018054611866906121d4565b80601f0160208091040260200160405190810160405280929190818152602001828054611892906121d4565b80156118df5780601f106118b4576101008083540402835291602001916118df565b820191906000526020600020905b8154815290600101906020018083116118c257829003601f168201915b505050505081526020016003820180546118f8906121d4565b80601f0160208091040260200160405190810160405280929190818152602001828054611924906121d4565b80156119715780601f1061194657610100808354040283529160200191611971565b820191906000526020600020905b81548152906001019060200180831161195457829003601f168201915b5050505050815260200160048201805461198a906121d4565b80601f01602080910402602001604051908101604052809291908181526020018280546119b6906121d4565b8015611a035780601f106119d857610100808354040283529160200191611a03565b820191906000526020600020905b8154815290600101906020018083116119e657829003601f168201915b50505050508152602001600582018054611a1c906121d4565b80601f0160208091040260200160405190810160405280929190818152602001828054611a48906121d4565b8015611a955780601f10611a6a57610100808354040283529160200191611a95565b820191906000526020600020905b815481529060010190602001808311611a7857829003601f168201915b50505050508152602001600682018054611aae906121d4565b80601f0160208091040260200160405190810160405280929190818152602001828054611ada906121d4565b8015611b275780601f10611afc57610100808354040283529160200191611b27565b820191906000526020600020905b815481529060010190602001808311611b0a57829003601f168201915b50505050508152602001600782018054611b40906121d4565b80601f0160208091040260200160405190810160405280929190818152602001828054611b6c906121d4565b8015611bb95780601f10611b8e57610100808354040283529160200191611bb9565b820191906000526020600020905b815481529060010190602001808311611b9c57829003601f168201915b5050509183525050600891909101546001600160a01b0316602091820152908252600992909201546001600160801b0316908201529082526001929092019101611706565b50505050905090565b606060066011018054611c19906121d4565b80601f0160208091040260200160405190810160405280929190818152602001828054611c45906121d4565b8015611c925780601f10611c6757610100808354040283529160200191611c92565b820191906000526020600020905b815481529060010190602001808311611c7557829003601f168201915b5050505050905090565b600e546000906001600160a01b031633141580611cc9575060185461010090046001600160a01b03163314155b80611cd45750333014155b15611cf257604051630e2f7eff60e31b815260040160405180910390fd5b6014546301000000900460ff16611d1c5760405163c60d361f60e01b815260040160405180910390fd5b601454610100900460ff1615611d5e576040517f8966b51f00000000000000000000000000000000000000000000000000000000815260040160405180910390fd5b60145462010000900460ff1615611d885760405163608bc83960e11b815260040160405180910390fd5b60145460ff16611dab57604051631a4c0efb60e21b815260040160405180910390fd5b506014805460ff1916600190811790915590565b6040518060400160405280611e22604051806101200160405280606081526020016060815260200160608152602001606081526020016060815260200160608152602001606081526020016060815260200160006001600160a01b031681525090565b8152600060209091015290565b634e487b7160e01b600052601160045260246000fd5b6001600160801b03818116838216019080821115611e6557611e65611e2f565b5092915050565b81810381811115611e7f57611e7f611e2f565b92915050565b8082028115828204841417611e7f57611e7f611e2f565b600082611eb957634e487b7160e01b600052601260045260246000fd5b500490565b6000815180845260005b81811015611ee457602081850181015186830182015201611ec8565b506000602082860101526020601f19601f83011685010191505092915050565b60006101208251818552611f1a82860182611ebe565b91505060208301518482036020860152611f348282611ebe565b91505060408301518482036040860152611f4e8282611ebe565b91505060608301518482036060860152611f688282611ebe565b91505060808301518482036080860152611f828282611ebe565b91505060a083015184820360a0860152611f9c8282611ebe565b91505060c083015184820360c0860152611fb68282611ebe565b91505060e083015184820360e0860152611fd08282611ebe565b91505061010080840151611fee828701826001600160a01b03169052565b5090949350505050565b60208152600061200b6020830184611f04565b9392505050565b60006020828403121561202457600080fd5b8135801515811461200b57600080fd5b60006020828403121561204657600080fd5b81356001600160801b038116811461200b57600080fd5b60008151604084526120726040850182611f04565b6020938401516001600160801b0316949093019390935250919050565b60208152600061200b602083018461205d565b60208101600283106120c457634e487b7160e01b600052602160045260246000fd5b91905290565b600080602083850312156120dd57600080fd5b823567ffffffffffffffff808211156120f557600080fd5b818501915085601f83011261210957600080fd5b81358181111561211857600080fd5b86602082850101111561212a57600080fd5b60209290920196919550909350505050565b82151581526040602082015260006121576040830184611ebe565b949350505050565b6000602080830181845280855180835260408601915060408160051b870101925083870160005b828110156121b457603f198886030184526121a285835161205d565b94509285019290850190600101612186565b5092979650505050505050565b60208152600061200b6020830184611ebe565b600181811c908216806121e857607f821691505b60208210810361220857634e487b7160e01b600052602260045260246000fd5b50919050565b634e487b7160e01b600052603260045260246000fdfea2646970667358221220677cab706d87eef86c9f2140f54b303c1b0c5f0edef0aa88af9e425e8cfa490664736f6c63430008120033",
  "devdoc": {
    "details": "LifeInsurancePolicy is a contract for managing a life insurance policy",
    "kind": "dev",
    "methods": {
      "checkUpkeep(bytes)": {
        "details": "To ensure that it is never called, you may want to add the cannotExecute modifier from KeeperBase to your implementation of this method.",
        "params": {
          "checkData": "specified in the upkeep registration so it is always the same for a registered upkeep. This can easily be broken down into specific arguments using `abi.decode`, so multiple upkeeps can be registered on the same contract and easily differentiated by the contract."
        },
        "returns": {
          "performData": "bytes that the keeper should call performUpkeep with, if upkeep is needed. If you would like to encode data to decode later, try `abi.encode`.",
          "upkeepNeeded": "boolean to indicate whether the keeper should call performUpkeep or not."
        }
      },
      "performUpkeep(bytes)": {
        "details": "The input to this method should not be trusted, and the caller of the method should not even be restricted to any single registry. Anyone should be able call it, and the input should be validated, there is no guarantee that the data passed in is the performData returned from checkUpkeep. This could happen due to malicious keepers, racing keepers, or simply a state change while the performUpkeep transaction is waiting for confirmation. Always validate the data passed in.",
        "params": {
          "performData": "is the data which was passed back from the checkData simulation. If it is encoded, it can easily be decoded into other types by calling `abi.decode`. This data should not be trusted, and should be validated against the contract's current state."
        }
      }
    },
    "title": "LifeInsurancePolicy",
    "version": 1
  },
  "userdoc": {
    "kind": "user",
    "methods": {
      "checkUpkeep(bytes)": {
        "notice": "method that is simulated by the keepers to see if any work actually needs to be performed. This method does does not actually need to be executable, and since it is only ever simulated it can consume lots of gas."
      },
      "performUpkeep(bytes)": {
        "notice": "method that is actually executed by the keepers, via the registry. The data returned by the checkUpkeep simulation will be passed into this method to actually be executed."
      }
    },
    "version": 1
  },
  "storageLayout": {
    "storage": [
      {
        "astId": 358,
        "contract": "contracts/LifeInsurancePolicy.sol:LifeInsurancePolicy",
        "label": "s_ens",
        "offset": 0,
        "slot": "0",
        "type": "t_contract(ENSInterface)1193"
      },
      {
        "astId": 360,
        "contract": "contracts/LifeInsurancePolicy.sol:LifeInsurancePolicy",
        "label": "s_ensNode",
        "offset": 0,
        "slot": "1",
        "type": "t_bytes32"
      },
      {
        "astId": 363,
        "contract": "contracts/LifeInsurancePolicy.sol:LifeInsurancePolicy",
        "label": "s_link",
        "offset": 0,
        "slot": "2",
        "type": "t_contract(LinkTokenInterface)1288"
      },
      {
        "astId": 366,
        "contract": "contracts/LifeInsurancePolicy.sol:LifeInsurancePolicy",
        "label": "s_oracle",
        "offset": 0,
        "slot": "3",
        "type": "t_contract(OperatorInterface)1368"
      },
      {
        "astId": 369,
        "contract": "contracts/LifeInsurancePolicy.sol:LifeInsurancePolicy",
        "label": "s_requestCount",
        "offset": 0,
        "slot": "4",
        "type": "t_uint256"
      },
      {
        "astId": 373,
        "contract": "contracts/LifeInsurancePolicy.sol:LifeInsurancePolicy",
        "label": "s_pendingRequests",
        "offset": 0,
        "slot": "5",
        "type": "t_mapping(t_bytes32,t_address)"
      },
      {
        "astId": 3571,
        "contract": "contracts/LifeInsurancePolicy.sol:LifeInsurancePolicy",
        "label": "s_policy",
        "offset": 0,
        "slot": "6",
        "type": "t_struct(Policy)4619_storage"
      },
      {
        "astId": 3573,
        "contract": "contracts/LifeInsurancePolicy.sol:LifeInsurancePolicy",
        "label": "s_lastPaymentTimestamp",
        "offset": 0,
        "slot": "25",
        "type": "t_uint256"
      },
      {
        "astId": 3575,
        "contract": "contracts/LifeInsurancePolicy.sol:LifeInsurancePolicy",
        "label": "s_startTimestamp",
        "offset": 0,
        "slot": "26",
        "type": "t_uint256"
      },
      {
        "astId": 4264,
        "contract": "contracts/LifeInsurancePolicy.sol:LifeInsurancePolicy",
        "label": "s_lifePolicyParams",
        "offset": 0,
        "slot": "27",
        "type": "t_struct(LifePolicyParams)4633_storage"
      }
    ],
    "types": {
      "t_address": {
        "encoding": "inplace",
        "label": "address",
        "numberOfBytes": "20"
      },
      "t_address_payable": {
        "encoding": "inplace",
        "label": "address payable",
        "numberOfBytes": "20"
      },
      "t_array(t_struct(Nominee)4628_storage)dyn_storage": {
        "base": "t_struct(Nominee)4628_storage",
        "encoding": "dynamic_array",
        "label": "struct SharedData.Nominee[]",
        "numberOfBytes": "32"
      },
      "t_bool": {
        "encoding": "inplace",
        "label": "bool",
        "numberOfBytes": "1"
      },
      "t_bytes32": {
        "encoding": "inplace",
        "label": "bytes32",
        "numberOfBytes": "32"
      },
      "t_contract(ENSInterface)1193": {
        "encoding": "inplace",
        "label": "contract ENSInterface",
        "numberOfBytes": "20"
      },
      "t_contract(LinkTokenInterface)1288": {
        "encoding": "inplace",
        "label": "contract LinkTokenInterface",
        "numberOfBytes": "20"
      },
      "t_contract(OperatorInterface)1368": {
        "encoding": "inplace",
        "label": "contract OperatorInterface",
        "numberOfBytes": "20"
      },
      "t_enum(PolicyType)4622": {
        "encoding": "inplace",
        "label": "enum SharedData.PolicyType",
        "numberOfBytes": "1"
      },
      "t_mapping(t_bytes32,t_address)": {
        "encoding": "mapping",
        "key": "t_bytes32",
        "label": "mapping(bytes32 => address)",
        "numberOfBytes": "32",
        "value": "t_address"
      },
      "t_string_storage": {
        "encoding": "bytes",
        "label": "string",
        "numberOfBytes": "32"
      },
      "t_struct(HumanDetails)4578_storage": {
        "encoding": "inplace",
        "label": "struct SharedData.HumanDetails",
        "members": [
          {
            "astId": 4561,
            "contract": "contracts/LifeInsurancePolicy.sol:LifeInsurancePolicy",
            "label": "name",
            "offset": 0,
            "slot": "0",
            "type": "t_string_storage"
          },
          {
            "astId": 4563,
            "contract": "contracts/LifeInsurancePolicy.sol:LifeInsurancePolicy",
            "label": "dateOfBirth",
            "offset": 0,
            "slot": "1",
            "type": "t_string_storage"
          },
          {
            "astId": 4565,
            "contract": "contracts/LifeInsurancePolicy.sol:LifeInsurancePolicy",
            "label": "gender",
            "offset": 0,
            "slot": "2",
            "type": "t_string_storage"
          },
          {
            "astId": 4567,
            "contract": "contracts/LifeInsurancePolicy.sol:LifeInsurancePolicy",
            "label": "homeAddress",
            "offset": 0,
            "slot": "3",
            "type": "t_string_storage"
          },
          {
            "astId": 4569,
            "contract": "contracts/LifeInsurancePolicy.sol:LifeInsurancePolicy",
            "label": "phoneNumber",
            "offset": 0,
            "slot": "4",
            "type": "t_string_storage"
          },
          {
            "astId": 4571,
            "contract": "contracts/LifeInsurancePolicy.sol:LifeInsurancePolicy",
            "label": "pronouns",
            "offset": 0,
            "slot": "5",
            "type": "t_string_storage"
          },
          {
            "astId": 4573,
            "contract": "contracts/LifeInsurancePolicy.sol:LifeInsurancePolicy",
            "label": "email",
            "offset": 0,
            "slot": "6",
            "type": "t_string_storage"
          },
          {
            "astId": 4575,
            "contract": "contracts/LifeInsurancePolicy.sol:LifeInsurancePolicy",
            "label": "occupation",
            "offset": 0,
            "slot": "7",
            "type": "t_string_storage"
          },
          {
            "astId": 4577,
            "contract": "contracts/LifeInsurancePolicy.sol:LifeInsurancePolicy",
            "label": "policyHolderWalletAddress",
            "offset": 0,
            "slot": "8",
            "type": "t_address_payable"
          }
        ],
        "numberOfBytes": "288"
      },
      "t_struct(LifePolicyParams)4633_storage": {
        "encoding": "inplace",
        "label": "struct SharedData.LifePolicyParams",
        "members": [
          {
            "astId": 4632,
            "contract": "contracts/LifeInsurancePolicy.sol:LifeInsurancePolicy",
            "label": "nominees",
            "offset": 0,
            "slot": "0",
            "type": "t_array(t_struct(Nominee)4628_storage)dyn_storage"
          }
        ],
        "numberOfBytes": "32"
      },
      "t_struct(Nominee)4628_storage": {
        "encoding": "inplace",
        "label": "struct SharedData.Nominee",
        "members": [
          {
            "astId": 4625,
            "contract": "contracts/LifeInsurancePolicy.sol:LifeInsurancePolicy",
            "label": "nomineeDetails",
            "offset": 0,
            "slot": "0",
            "type": "t_struct(HumanDetails)4578_storage"
          },
          {
            "astId": 4627,
            "contract": "contracts/LifeInsurancePolicy.sol:LifeInsurancePolicy",
            "label": "nomineeShare",
            "offset": 0,
            "slot": "9",
            "type": "t_uint128"
          }
        ],
        "numberOfBytes": "320"
      },
      "t_struct(Policy)4619_storage": {
        "encoding": "inplace",
        "label": "struct SharedData.Policy",
        "members": [
          {
            "astId": 4586,
            "contract": "contracts/LifeInsurancePolicy.sol:LifeInsurancePolicy",
            "label": "policyHolder",
            "offset": 0,
            "slot": "0",
            "type": "t_struct(HumanDetails)4578_storage"
          },
          {
            "astId": 4588,
            "contract": "contracts/LifeInsurancePolicy.sol:LifeInsurancePolicy",
            "label": "policyTenure",
            "offset": 0,
            "slot": "9",
            "type": "t_uint128"
          },
          {
            "astId": 4590,
            "contract": "contracts/LifeInsurancePolicy.sol:LifeInsurancePolicy",
            "label": "gracePeriod",
            "offset": 16,
            "slot": "9",
            "type": "t_uint128"
          },
          {
            "astId": 4592,
            "contract": "contracts/LifeInsurancePolicy.sol:LifeInsurancePolicy",
            "label": "timeBeforeCommencement",
            "offset": 0,
            "slot": "10",
            "type": "t_uint128"
          },
          {
            "astId": 4594,
            "contract": "contracts/LifeInsurancePolicy.sol:LifeInsurancePolicy",
            "label": "timeInterval",
            "offset": 0,
            "slot": "11",
            "type": "t_uint256"
          },
          {
            "astId": 4596,
            "contract": "contracts/LifeInsurancePolicy.sol:LifeInsurancePolicy",
            "label": "premiumToBePaid",
            "offset": 0,
            "slot": "12",
            "type": "t_uint256"
          },
          {
            "astId": 4598,
            "contract": "contracts/LifeInsurancePolicy.sol:LifeInsurancePolicy",
            "label": "totalCoverageByPolicy",
            "offset": 0,
            "slot": "13",
            "type": "t_uint256"
          },
          {
            "astId": 4600,
            "contract": "contracts/LifeInsurancePolicy.sol:LifeInsurancePolicy",
            "label": "hasClaimed",
            "offset": 0,
            "slot": "14",
            "type": "t_bool"
          },
          {
            "astId": 4602,
            "contract": "contracts/LifeInsurancePolicy.sol:LifeInsurancePolicy",
            "label": "isPolicyActive",
            "offset": 1,
            "slot": "14",
            "type": "t_bool"
          },
          {
            "astId": 4604,
            "contract": "contracts/LifeInsurancePolicy.sol:LifeInsurancePolicy",
            "label": "isClaimable",
            "offset": 2,
            "slot": "14",
            "type": "t_bool"
          },
          {
            "astId": 4606,
            "contract": "contracts/LifeInsurancePolicy.sol:LifeInsurancePolicy",
            "label": "isTerminated",
            "offset": 3,
            "slot": "14",
            "type": "t_bool"
          },
          {
            "astId": 4608,
            "contract": "contracts/LifeInsurancePolicy.sol:LifeInsurancePolicy",
            "label": "hasFundedForCurrentMonth",
            "offset": 4,
            "slot": "14",
            "type": "t_bool"
          },
          {
            "astId": 4611,
            "contract": "contracts/LifeInsurancePolicy.sol:LifeInsurancePolicy",
            "label": "revivalRule",
            "offset": 0,
            "slot": "15",
            "type": "t_struct(RevivalRule)4583_storage"
          },
          {
            "astId": 4613,
            "contract": "contracts/LifeInsurancePolicy.sol:LifeInsurancePolicy",
            "label": "policyDetails",
            "offset": 0,
            "slot": "17",
            "type": "t_string_storage"
          },
          {
            "astId": 4616,
            "contract": "contracts/LifeInsurancePolicy.sol:LifeInsurancePolicy",
            "label": "policyType",
            "offset": 0,
            "slot": "18",
            "type": "t_enum(PolicyType)4622"
          },
          {
            "astId": 4618,
            "contract": "contracts/LifeInsurancePolicy.sol:LifeInsurancePolicy",
            "label": "policyManagerContractAddress",
            "offset": 1,
            "slot": "18",
            "type": "t_address_payable"
          }
        ],
        "numberOfBytes": "608"
      },
      "t_struct(RevivalRule)4583_storage": {
        "encoding": "inplace",
        "label": "struct SharedData.RevivalRule",
        "members": [
          {
            "astId": 4580,
            "contract": "contracts/LifeInsurancePolicy.sol:LifeInsurancePolicy",
            "label": "revivalPeriod",
            "offset": 0,
            "slot": "0",
            "type": "t_uint128"
          },
          {
            "astId": 4582,
            "contract": "contracts/LifeInsurancePolicy.sol:LifeInsurancePolicy",
            "label": "revivalAmount",
            "offset": 0,
            "slot": "1",
            "type": "t_uint256"
          }
        ],
        "numberOfBytes": "64"
      },
      "t_uint128": {
        "encoding": "inplace",
        "label": "uint128",
        "numberOfBytes": "16"
      },
      "t_uint256": {
        "encoding": "inplace",
        "label": "uint256",
        "numberOfBytes": "32"
      }
    }
  }
}