{
  "address": "0xDc64a140Aa3E981100a9becA4E685f962f0cF6C9",
  "abi": [
    {
      "inputs": [
        {
          "components": [
            {
              "components": [
                {
                  "internalType": "string",
                  "name": "name",
                  "type": "string"
                },
                {
                  "internalType": "string",
                  "name": "dateOfBirth",
                  "type": "string"
                },
                {
                  "internalType": "string",
                  "name": "gender",
                  "type": "string"
                },
                {
                  "internalType": "string",
                  "name": "homeAddress",
                  "type": "string"
                },
                {
                  "internalType": "string",
                  "name": "phoneNumber",
                  "type": "string"
                },
                {
                  "internalType": "string",
                  "name": "pronouns",
                  "type": "string"
                },
                {
                  "internalType": "string",
                  "name": "email",
                  "type": "string"
                },
                {
                  "internalType": "string",
                  "name": "occupation",
                  "type": "string"
                },
                {
                  "internalType": "address payable",
                  "name": "policyHolderWalletAddress",
                  "type": "address"
                }
              ],
              "internalType": "struct SharedData.HumanDetails",
              "name": "policyHolder",
              "type": "tuple"
            },
            {
              "internalType": "uint128",
              "name": "policyTenure",
              "type": "uint128"
            },
            {
              "internalType": "uint128",
              "name": "gracePeriod",
              "type": "uint128"
            },
            {
              "internalType": "uint128",
              "name": "timeBeforeCommencement",
              "type": "uint128"
            },
            {
              "internalType": "uint256",
              "name": "timeInterval",
              "type": "uint256"
            },
            {
              "internalType": "uint256",
              "name": "premiumToBePaid",
              "type": "uint256"
            },
            {
              "internalType": "uint256",
              "name": "totalCoverageByPolicy",
              "type": "uint256"
            },
            {
              "internalType": "bool",
              "name": "hasClaimed",
              "type": "bool"
            },
            {
              "internalType": "bool",
              "name": "isPolicyActive",
              "type": "bool"
            },
            {
              "internalType": "bool",
              "name": "isClaimable",
              "type": "bool"
            },
            {
              "internalType": "bool",
              "name": "isTerminated",
              "type": "bool"
            },
            {
              "internalType": "bool",
              "name": "hasFundedForCurrentMonth",
              "type": "bool"
            },
            {
              "components": [
                {
                  "internalType": "uint128",
                  "name": "revivalPeriod",
                  "type": "uint128"
                },
                {
                  "internalType": "uint256",
                  "name": "revivalAmount",
                  "type": "uint256"
                }
              ],
              "internalType": "struct SharedData.RevivalRule",
              "name": "revivalRule",
              "type": "tuple"
            },
            {
              "internalType": "string",
              "name": "policyDetails",
              "type": "string"
            },
            {
              "internalType": "enum SharedData.PolicyType",
              "name": "policyType",
              "type": "uint8"
            },
            {
              "internalType": "address payable",
              "name": "policyManagerContractAddress",
              "type": "address"
            }
          ],
          "internalType": "struct SharedData.Policy",
          "name": "policy",
          "type": "tuple"
        },
        {
          "components": [
            {
              "components": [
                {
                  "components": [
                    {
                      "internalType": "string",
                      "name": "name",
                      "type": "string"
                    },
                    {
                      "internalType": "string",
                      "name": "dateOfBirth",
                      "type": "string"
                    },
                    {
                      "internalType": "string",
                      "name": "gender",
                      "type": "string"
                    },
                    {
                      "internalType": "string",
                      "name": "homeAddress",
                      "type": "string"
                    },
                    {
                      "internalType": "string",
                      "name": "phoneNumber",
                      "type": "string"
                    },
                    {
                      "internalType": "string",
                      "name": "pronouns",
                      "type": "string"
                    },
                    {
                      "internalType": "string",
                      "name": "email",
                      "type": "string"
                    },
                    {
                      "internalType": "string",
                      "name": "occupation",
                      "type": "string"
                    },
                    {
                      "internalType": "address payable",
                      "name": "policyHolderWalletAddress",
                      "type": "address"
                    }
                  ],
                  "internalType": "struct SharedData.HumanDetails",
                  "name": "nomineeDetails",
                  "type": "tuple"
                },
                {
                  "internalType": "uint128",
                  "name": "nomineeShare",
                  "type": "uint128"
                }
              ],
              "internalType": "struct SharedData.Nominee[]",
              "name": "nominees",
              "type": "tuple[]"
            }
          ],
          "internalType": "struct SharedData.LifePolicyParams",
          "name": "lifePolicyParams",
          "type": "tuple"
        }
      ],
      "stateMutability": "nonpayable",
      "type": "constructor"
    },
    {
      "inputs": [],
      "name": "OnlyOwnerAllowed",
      "type": "error"
    },
    {
      "inputs": [],
      "name": "OnlySimulatedBackend",
      "type": "error"
    },
    {
      "inputs": [],
      "name": "PolicyActive",
      "type": "error"
    },
    {
      "inputs": [],
      "name": "PolicyAlreadyClaimed",
      "type": "error"
    },
    {
      "inputs": [],
      "name": "PolicyNomineeNotFound",
      "type": "error"
    },
    {
      "inputs": [],
      "name": "PolicyNotActive",
      "type": "error"
    },
    {
      "inputs": [],
      "name": "PolicyNotClaimable",
      "type": "error"
    },
    {
      "inputs": [],
      "name": "PolicyNotFunded",
      "type": "error"
    },
    {
      "inputs": [],
      "name": "PolicyNotInGracePeriod",
      "type": "error"
    },
    {
      "inputs": [],
      "name": "PolicyNotMatured",
      "type": "error"
    },
    {
      "inputs": [],
      "name": "PolicyNotRevivable",
      "type": "error"
    },
    {
      "inputs": [],
      "name": "PolicyTerminated",
      "type": "error"
    },
    {
      "inputs": [],
      "name": "PremiumAmountNotCorrect",
      "type": "error"
    },
    {
      "inputs": [],
      "name": "RevivalAmountNotCorrect",
      "type": "error"
    },
    {
      "inputs": [],
      "name": "WithdrawingError",
      "type": "error"
    },
    {
      "anonymous": false,
      "inputs": [
        {
          "indexed": true,
          "internalType": "bytes32",
          "name": "id",
          "type": "bytes32"
        }
      ],
      "name": "ChainlinkCancelled",
      "type": "event"
    },
    {
      "anonymous": false,
      "inputs": [
        {
          "indexed": true,
          "internalType": "bytes32",
          "name": "id",
          "type": "bytes32"
        }
      ],
      "name": "ChainlinkFulfilled",
      "type": "event"
    },
    {
      "anonymous": false,
      "inputs": [
        {
          "indexed": true,
          "internalType": "bytes32",
          "name": "id",
          "type": "bytes32"
        }
      ],
      "name": "ChainlinkRequested",
      "type": "event"
    },
    {
      "inputs": [
        {
          "internalType": "bytes",
          "name": "checkData",
          "type": "bytes"
        }
      ],
      "name": "checkUpkeep",
      "outputs": [
        {
          "internalType": "bool",
          "name": "upkeepNeeded",
          "type": "bool"
        },
        {
          "internalType": "bytes",
          "name": "performData",
          "type": "bytes"
        }
      ],
      "stateMutability": "view",
      "type": "function"
    },
    {
      "inputs": [],
      "name": "getGracePeriod",
      "outputs": [
        {
          "internalType": "uint128",
          "name": "gracePeriod",
          "type": "uint128"
        }
      ],
      "stateMutability": "view",
      "type": "function"
    },
    {
      "inputs": [],
      "name": "getHasClaimed",
      "outputs": [
        {
          "internalType": "bool",
          "name": "hasClaimed",
          "type": "bool"
        }
      ],
      "stateMutability": "view",
      "type": "function"
    },
    {
      "inputs": [],
      "name": "getIsClaimable",
      "outputs": [
        {
          "internalType": "bool",
          "name": "isClaimable",
          "type": "bool"
        }
      ],
      "stateMutability": "view",
      "type": "function"
    },
    {
      "inputs": [],
      "name": "getIsPolicyActive",
      "outputs": [
        {
          "internalType": "bool",
          "name": "isPolicyActive",
          "type": "bool"
        }
      ],
      "stateMutability": "view",
      "type": "function"
    },
    {
      "inputs": [],
      "name": "getIsTerminated",
      "outputs": [
        {
          "internalType": "bool",
          "name": "isTerminated",
          "type": "bool"
        }
      ],
      "stateMutability": "view",
      "type": "function"
    },
    {
      "inputs": [
        {
          "internalType": "uint128",
          "name": "index",
          "type": "uint128"
        }
      ],
      "name": "getNominee",
      "outputs": [
        {
          "components": [
            {
              "components": [
                {
                  "internalType": "string",
                  "name": "name",
                  "type": "string"
                },
                {
                  "internalType": "string",
                  "name": "dateOfBirth",
                  "type": "string"
                },
                {
                  "internalType": "string",
                  "name": "gender",
                  "type": "string"
                },
                {
                  "internalType": "string",
                  "name": "homeAddress",
                  "type": "string"
                },
                {
                  "internalType": "string",
                  "name": "phoneNumber",
                  "type": "string"
                },
                {
                  "internalType": "string",
                  "name": "pronouns",
                  "type": "string"
                },
                {
                  "internalType": "string",
                  "name": "email",
                  "type": "string"
                },
                {
                  "internalType": "string",
                  "name": "occupation",
                  "type": "string"
                },
                {
                  "internalType": "address payable",
                  "name": "policyHolderWalletAddress",
                  "type": "address"
                }
              ],
              "internalType": "struct SharedData.HumanDetails",
              "name": "nomineeDetails",
              "type": "tuple"
            },
            {
              "internalType": "uint128",
              "name": "nomineeShare",
              "type": "uint128"
            }
          ],
          "internalType": "struct SharedData.Nominee",
          "name": "nominee",
          "type": "tuple"
        }
      ],
      "stateMutability": "view",
      "type": "function"
    },
    {
      "inputs": [],
      "name": "getNominees",
      "outputs": [
        {
          "components": [
            {
              "components": [
                {
                  "internalType": "string",
                  "name": "name",
                  "type": "string"
                },
                {
                  "internalType": "string",
                  "name": "dateOfBirth",
                  "type": "string"
                },
                {
                  "internalType": "string",
                  "name": "gender",
                  "type": "string"
                },
                {
                  "internalType": "string",
                  "name": "homeAddress",
                  "type": "string"
                },
                {
                  "internalType": "string",
                  "name": "phoneNumber",
                  "type": "string"
                },
                {
                  "internalType": "string",
                  "name": "pronouns",
                  "type": "string"
                },
                {
                  "internalType": "string",
                  "name": "email",
                  "type": "string"
                },
                {
                  "internalType": "string",
                  "name": "occupation",
                  "type": "string"
                },
                {
                  "internalType": "address payable",
                  "name": "policyHolderWalletAddress",
                  "type": "address"
                }
              ],
              "internalType": "struct SharedData.HumanDetails",
              "name": "nomineeDetails",
              "type": "tuple"
            },
            {
              "internalType": "uint128",
              "name": "nomineeShare",
              "type": "uint128"
            }
          ],
          "internalType": "struct SharedData.Nominee[]",
          "name": "nominees",
          "type": "tuple[]"
        }
      ],
      "stateMutability": "view",
      "type": "function"
    },
    {
      "inputs": [],
      "name": "getPolicyDetails",
      "outputs": [
        {
          "internalType": "string",
          "name": "policyDetails",
          "type": "string"
        }
      ],
      "stateMutability": "view",
      "type": "function"
    },
    {
      "inputs": [],
      "name": "getPolicyHolderDetails",
      "outputs": [
        {
          "components": [
            {
              "internalType": "string",
              "name": "name",
              "type": "string"
            },
            {
              "internalType": "string",
              "name": "dateOfBirth",
              "type": "string"
            },
            {
              "internalType": "string",
              "name": "gender",
              "type": "string"
            },
            {
              "internalType": "string",
              "name": "homeAddress",
              "type": "string"
            },
            {
              "internalType": "string",
              "name": "phoneNumber",
              "type": "string"
            },
            {
              "internalType": "string",
              "name": "pronouns",
              "type": "string"
            },
            {
              "internalType": "string",
              "name": "email",
              "type": "string"
            },
            {
              "internalType": "string",
              "name": "occupation",
              "type": "string"
            },
            {
              "internalType": "address payable",
              "name": "policyHolderWalletAddress",
              "type": "address"
            }
          ],
          "internalType": "struct SharedData.HumanDetails",
          "name": "policyHolderDetails",
          "type": "tuple"
        }
      ],
      "stateMutability": "view",
      "type": "function"
    },
    {
      "inputs": [],
      "name": "getPolicyHolderWalletAddress",
      "outputs": [
        {
          "internalType": "address payable",
          "name": "policyHolderWalletAddress",
          "type": "address"
        }
      ],
      "stateMutability": "view",
      "type": "function"
    },
    {
      "inputs": [],
      "name": "getPolicyTenure",
      "outputs": [
        {
          "internalType": "uint128",
          "name": "policyTenure",
          "type": "uint128"
        }
      ],
      "stateMutability": "view",
      "type": "function"
    },
    {
      "inputs": [],
      "name": "getPolicyType",
      "outputs": [
        {
          "internalType": "enum SharedData.PolicyType",
          "name": "policyType",
          "type": "uint8"
        }
      ],
      "stateMutability": "view",
      "type": "function"
    },
    {
      "inputs": [],
      "name": "getPremiumToBePaid",
      "outputs": [
        {
          "internalType": "uint256",
          "name": "premiumToBePaid",
          "type": "uint256"
        }
      ],
      "stateMutability": "view",
      "type": "function"
    },
    {
      "inputs": [],
      "name": "getRevivalRule",
      "outputs": [
        {
          "components": [
            {
              "internalType": "uint128",
              "name": "revivalPeriod",
              "type": "uint128"
            },
            {
              "internalType": "uint256",
              "name": "revivalAmount",
              "type": "uint256"
            }
          ],
          "internalType": "struct SharedData.RevivalRule",
          "name": "revivalRule",
          "type": "tuple"
        }
      ],
      "stateMutability": "view",
      "type": "function"
    },
    {
      "inputs": [],
      "name": "getTimeBeforeCommencement",
      "outputs": [
        {
          "internalType": "uint128",
          "name": "time",
          "type": "uint128"
        }
      ],
      "stateMutability": "view",
      "type": "function"
    },
    {
      "inputs": [],
      "name": "getTotalCoverageByPolicy",
      "outputs": [
        {
          "internalType": "uint256",
          "name": "coverage",
          "type": "uint256"
        }
      ],
      "stateMutability": "view",
      "type": "function"
    },
    {
      "inputs": [],
      "name": "makeClaim",
      "outputs": [
        {
          "internalType": "bool",
          "name": "claimed",
          "type": "bool"
        }
      ],
      "stateMutability": "nonpayable",
      "type": "function"
    },
    {
      "inputs": [
        {
          "internalType": "bytes",
          "name": "performData",
          "type": "bytes"
        }
      ],
      "name": "performUpkeep",
      "outputs": [],
      "stateMutability": "nonpayable",
      "type": "function"
    },
    {
      "inputs": [],
      "name": "revivePolicy",
      "outputs": [],
      "stateMutability": "payable",
      "type": "function"
    },
    {
      "inputs": [
        {
          "internalType": "bool",
          "name": "isClaimable",
          "type": "bool"
        }
      ],
      "name": "setClaimable",
      "outputs": [],
      "stateMutability": "nonpayable",
      "type": "function"
    },
    {
      "inputs": [
        {
          "internalType": "bool",
          "name": "hasClaimed",
          "type": "bool"
        }
      ],
      "name": "setClaimed",
      "outputs": [],
      "stateMutability": "nonpayable",
      "type": "function"
    },
    {
      "inputs": [
        {
          "internalType": "bool",
          "name": "hasFundedForCurrentMonth",
          "type": "bool"
        }
      ],
      "name": "setHasFundedForCurrentMonth",
      "outputs": [],
      "stateMutability": "nonpayable",
      "type": "function"
    },
    {
      "inputs": [
        {
          "internalType": "bool",
          "name": "isPolicyActive",
          "type": "bool"
        }
      ],
      "name": "setPolicyActive",
      "outputs": [],
      "stateMutability": "nonpayable",
      "type": "function"
    },
    {
      "inputs": [
        {
          "internalType": "bool",
          "name": "isTerminate",
          "type": "bool"
        }
      ],
      "name": "setTermination",
      "outputs": [],
      "stateMutability": "nonpayable",
      "type": "function"
    },
    {
      "inputs": [],
      "name": "terminatePolicy",
      "outputs": [],
      "stateMutability": "nonpayable",
      "type": "function"
    },
    {
      "inputs": [],
      "name": "withdraw",
      "outputs": [],
      "stateMutability": "payable",
      "type": "function"
    },
    {
      "stateMutability": "payable",
      "type": "receive"
    }
  ],
  "transactionHash": "0x0e3740631766ae914fb593860d65fde455f4929f283733286fca0a69ac5e82f2",
  "args": [
    {
      "policyHolder": {
        "name": "_policyHolder",
        "dateOfBirth": "1/1/1",
        "gender": "homosexual dragon",
        "homeAddress": "dragon raja land",
        "phoneNumber": "123456789",
        "email": "homodragon@phobo.com",
        "occupation": "homodragonkiller",
        "pronouns": "mighty/almighty",
        "policyHolderWalletAddress": "0x5FbDB2315678afecb367f032d93F642f64180aa3"
      },
      "policyTenure": 5000,
      "gracePeriod": 15,
      "timeBeforeCommencement": 60,
      "premiumToBePaid": "1000000000000000000",
      "totalCoverageByPolicy": "1000000000000000000000",
      "hasClaimed": false,
      "isPolicyActive": true,
      "isClaimable": false,
      "isTerminated": false,
      "timeInterval": 30,
      "hasFundedForCurrentMonth": false,
      "revivalRule": {
        "revivalPeriod": 15,
        "revivalAmount": "5000000000000000000"
      },
      "policyDetails": "This is a Dragon Contract",
      "policyType": 0,
      "policyManagerContractAddress": "0xe7f1725E7734CE288F8367e1Bb143E90bb3F0512"
    },
    {
      "nominees": [
        {
          "nomineeDetails": {
            "name": "_policyNominee",
            "dateOfBirth": "1/2/1",
            "gender": "homosexual dragoness",
            "homeAddress": "dragon raja land",
            "phoneNumber": "003456789",
            "email": "homodragoness@phobo.com",
            "occupation": "homodragonesskiller",
            "pronouns": "mightyNoona/almightyNoona",
            "policyHolderWalletAddress": "0x5FbDB2315678afecb367f032d93F642f64180aa3"
          },
          "nomineeShare": 25
        },
        {
          "nomineeDetails": {
            "name": "_policyNominee",
            "dateOfBirth": "1/2/1",
            "gender": "asexual dragoness",
            "homeAddress": "dragon raja land",
            "phoneNumber": "003456789",
            "email": "asexualdragon@homophobic.com",
            "occupation": "heterodragonkiller",
            "pronouns": "mightyOopa/almightyOopa",
            "policyHolderWalletAddress": "0x5FbDB2315678afecb367f032d93F642f64180aa3"
          },
          "nomineeShare": 75
        }
      ]
    }
  ],
  "numDeployments": 1,
  "solcInputHash": "d8df2ede9f462cef9ce3d12ce03270ef",
  "bytecode": "0x608060405260016004553480156200001657600080fd5b50604051620030cc380380620030cc8339810160408190526200003991620008c1565b8151805183918291600691908290819062000055908262000b0f565b50602082015160018201906200006c908262000b0f565b506040820151600282019062000083908262000b0f565b50606082015160038201906200009a908262000b0f565b5060808201516004820190620000b1908262000b0f565b5060a08201516005820190620000c8908262000b0f565b5060c08201516006820190620000df908262000b0f565b5060e08201516007820190620000f6908262000b0f565b506101009182015160089190910180546001600160a01b0319166001600160a01b0390921691909117905560208381015160408501516001600160801b03918216600160801b918316919091021760098501556060850151600a850180546001600160801b03199081169284169290921790556080860151600b86015560a0860151600c86015560c0860151600d86015560e0860151600e86018054888701516101208a01516101408b01516101608c015161ffff1990941695151561ff001916959095179115159098021763ffff00001916620100009715159790970263ff0000001916969096176301000000921515929092029190911760ff60201b191664010000000095151595909502949094179093556101808501518051600f86018054909516921691909117909255015160108201556101a0820151601182019062000242908262000b0f565b506101c082015160128201805460ff19166001838181111562000269576200026962000bdb565b02179055506101e09190910151601290910180546001600160a01b0390921661010002610100600160a81b03199092169190911790555060005b8151518110156200040d5781518051601b919083908110620002c957620002c962000bf1565b602090810291909101810151825460018101845560009384529190922082518051600a909302909101918290819062000303908262000b0f565b50602082015160018201906200031a908262000b0f565b506040820151600282019062000331908262000b0f565b506060820151600382019062000348908262000b0f565b50608082015160048201906200035f908262000b0f565b5060a0820151600582019062000376908262000b0f565b5060c082015160068201906200038d908262000b0f565b5060e08201516007820190620003a4908262000b0f565b506101009190910151600890910180546001600160a01b0319166001600160a01b0390921691909117905560209190910151600990910180546001600160801b0319166001600160801b0390921691909117905580620004048162000c07565b915050620002a3565b50505062000c2f565b634e487b7160e01b600052604160045260246000fd5b60405161012081016001600160401b038111828210171562000452576200045262000416565b60405290565b604080519081016001600160401b038111828210171562000452576200045262000416565b604051602081016001600160401b038111828210171562000452576200045262000416565b60405161020081016001600160401b038111828210171562000452576200045262000416565b604051601f8201601f191681016001600160401b0381118282101715620004f357620004f362000416565b604052919050565b600082601f8301126200050d57600080fd5b81516001600160401b0381111562000529576200052962000416565b60206200053f601f8301601f19168201620004c8565b82815285828487010111156200055457600080fd5b60005b838110156200057457858101830151828201840152820162000557565b506000928101909101919091529392505050565b80516001600160a01b0381168114620005a057600080fd5b919050565b60006101208284031215620005b957600080fd5b620005c36200042c565b82519091506001600160401b0380821115620005de57600080fd5b620005ec85838601620004fb565b835260208401519150808211156200060357600080fd5b6200061185838601620004fb565b602084015260408401519150808211156200062b57600080fd5b6200063985838601620004fb565b604084015260608401519150808211156200065357600080fd5b6200066185838601620004fb565b606084015260808401519150808211156200067b57600080fd5b6200068985838601620004fb565b608084015260a0840151915080821115620006a357600080fd5b620006b185838601620004fb565b60a084015260c0840151915080821115620006cb57600080fd5b620006d985838601620004fb565b60c084015260e0840151915080821115620006f357600080fd5b506200070284828501620004fb565b60e0830152506101006200071881840162000588565b9082015292915050565b80516001600160801b0381168114620005a057600080fd5b80518015158114620005a057600080fd5b6000604082840312156200075e57600080fd5b6200076862000458565b9050620007758262000722565b81526020820151602082015292915050565b805160028110620005a057600080fd5b60006020808385031215620007ab57600080fd5b620007b56200047d565b83519092506001600160401b0380821115620007d057600080fd5b818501915085601f830112620007e557600080fd5b815181811115620007fa57620007fa62000416565b8060051b6200080b858201620004c8565b91825283810185019185810190898411156200082657600080fd5b86860192505b83831015620008b257825185811115620008465760008081fd5b86016040818c03601f19018113156200085f5760008081fd5b6200086962000458565b89830151888111156200087c5760008081fd5b6200088c8e8c83870101620005a5565b8252506200089c82840162000722565b818b01528452505091860191908601906200082c565b87525094979650505050505050565b60008060408385031215620008d557600080fd5b82516001600160401b0380821115620008ed57600080fd5b9084019061022082870312156200090357600080fd5b6200090d620004a2565b8251828111156200091d57600080fd5b6200092b88828601620005a5565b8252506200093c6020840162000722565b60208201526200094f6040840162000722565b6040820152620009626060840162000722565b60608201526080830151608082015260a083015160a082015260c083015160c08201526200099360e084016200073a565b60e0820152610100620009a88185016200073a565b90820152610120620009bc8482016200073a565b90820152610140620009d08482016200073a565b90820152610160620009e48482016200073a565b90820152610180620009f9888583016200074b565b908201526101c0838101518381111562000a1257600080fd5b62000a2089828701620004fb565b6101a0840152506101e062000a3781860162000787565b8284015262000a4a610200860162000588565b9083015250602086015190945091508082111562000a6757600080fd5b5062000a768582860162000797565b9150509250929050565b600181811c9082168062000a9557607f821691505b60208210810362000ab657634e487b7160e01b600052602260045260246000fd5b50919050565b601f82111562000b0a57600081815260208120601f850160051c8101602086101562000ae55750805b601f850160051c820191505b8181101562000b065782815560010162000af1565b5050505b505050565b81516001600160401b0381111562000b2b5762000b2b62000416565b62000b438162000b3c845462000a80565b8462000abc565b602080601f83116001811462000b7b576000841562000b625750858301515b600019600386901b1c1916600185901b17855562000b06565b600085815260208120601f198616915b8281101562000bac5788860151825594840194600190910190840162000b8b565b508582101562000bcb5787850151600019600388901b60f8161c191681555b5050505050600190811b01905550565b634e487b7160e01b600052602160045260246000fd5b634e487b7160e01b600052603260045260246000fd5b60006001820162000c2857634e487b7160e01b600052601160045260246000fd5b5060010190565b61248d8062000c3f6000396000f3fe6080604052600436106101af5760003560e01c806362ba912a116100ec578063a60496501161008a578063d48d622911610064578063d48d622914610640578063dbd1838814610655578063ec21858f1461067a578063f5aa0200146106a257600080fd5b8063a6049650146105e8578063b0141ed414610606578063cc9ba6fa1461061e57600080fd5b80639471ca5c116100c65780639471ca5c146105335780639507b8781461055357806395dcc90a146105725780639636f67c146105c657600080fd5b806362ba912a146104df5780636e04ff0d146104e757806372ef31511461051557600080fd5b80632b140f4f116101595780633db96d5f116101335780633db96d5f146104565780634585e33b1461047f5780634f7d38291461049f57806352e9c64c146104bf57600080fd5b80632b140f4f1461040e578063378c93ad1461042e5780633ccfd60b1461044e57600080fd5b80631c0bab141161018a5780631c0bab14146103aa578063248f0f97146103cc57806324f1c53e146103e157600080fd5b806285ce021461032e57806301b01c861461035957806312704a421461037857600080fd5b36610329576014546301000000900460ff166101de5760405163c60d361f60e01b815260040160405180910390fd5b601454610100900460ff166102a857600f54601554610210916001600160801b03600160801b9091048116911661205f565b6001600160801b0316601954426102279190612086565b111561024657604051631932f4cb60e21b815260040160405180910390fd5b61271061025c670de0b6b3a7640000600161209f565b61026691906120b6565b601654610274903490612086565b111561029357604051631b44afc760e31b815260040160405180910390fd5b426019556014805461ff001916610100179055005b6127106102be670de0b6b3a7640000600161209f565b6102c891906120b6565b6012546102d6903490612086565b111561030e576040517f7684b8c400000000000000000000000000000000000000000000000000000000815260040160405180910390fd5b426019556014805464ff000000001916640100000000179055005b600080fd5b34801561033a57600080fd5b506103436106b7565b6040516103509190612212565b60405180910390f35b34801561036557600080fd5b506012545b604051908152602001610350565b34801561038457600080fd5b506010546001600160801b03165b6040516001600160801b039091168152602001610350565b3480156103b657600080fd5b506103ca6103c536600461222c565b610bc6565b005b3480156103d857600080fd5b5060135461036a565b3480156103ed57600080fd5b506104016103fc36600461224e565b610c37565b60405161035091906122a9565b34801561041a57600080fd5b5060185460ff1660405161035091906122bc565b34801561043a57600080fd5b506103ca61044936600461222c565b611147565b6103ca6111b6565b34801561046257600080fd5b50601454610100900460ff165b6040519015158152602001610350565b34801561048b57600080fd5b506103ca61049a3660046122e4565b61137c565b3480156104ab57600080fd5b506103ca6104ba36600461222c565b611415565b3480156104cb57600080fd5b506103ca6104da36600461222c565b61147b565b6103ca6114e8565b3480156104f357600080fd5b506105076105023660046122e4565b611685565b604051610350929190612356565b34801561052157600080fd5b50600f546001600160801b0316610392565b34801561053f57600080fd5b506103ca61054e36600461222c565b6117b2565b34801561055f57600080fd5b506014546301000000900460ff1661046f565b34801561057e57600080fd5b506040805180820182526000808252602091820152815180830183526015546001600160801b0316808252601654918301918252835190815290519181019190915201610350565b3480156105d257600080fd5b506105db611825565b6040516103509190612379565b3480156105f457600080fd5b5060145462010000900460ff1661046f565b34801561061257600080fd5b5060145460ff1661046f565b34801561062a57600080fd5b50610633611d4d565b60405161035091906123db565b34801561064c57600080fd5b506103ca611de2565b34801561066157600080fd5b50600f54600160801b90046001600160801b0316610392565b34801561068657600080fd5b50600e546040516001600160a01b039091168152602001610350565b3480156106ae57600080fd5b5061046f611eb6565b61070f604051806101200160405280606081526020016060815260200160608152602001606081526020016060815260200160608152602001606081526020016060815260200160006001600160a01b031681525090565b604080516101208101909152600680548290829061072c906123ee565b80601f0160208091040260200160405190810160405280929190818152602001828054610758906123ee565b80156107a55780601f1061077a576101008083540402835291602001916107a5565b820191906000526020600020905b81548152906001019060200180831161078857829003601f168201915b505050505081526020016001820180546107be906123ee565b80601f01602080910402602001604051908101604052809291908181526020018280546107ea906123ee565b80156108375780601f1061080c57610100808354040283529160200191610837565b820191906000526020600020905b81548152906001019060200180831161081a57829003601f168201915b50505050508152602001600282018054610850906123ee565b80601f016020809104026020016040519081016040528092919081815260200182805461087c906123ee565b80156108c95780601f1061089e576101008083540402835291602001916108c9565b820191906000526020600020905b8154815290600101906020018083116108ac57829003601f168201915b505050505081526020016003820180546108e2906123ee565b80601f016020809104026020016040519081016040528092919081815260200182805461090e906123ee565b801561095b5780601f106109305761010080835404028352916020019161095b565b820191906000526020600020905b81548152906001019060200180831161093e57829003601f168201915b50505050508152602001600482018054610974906123ee565b80601f01602080910402602001604051908101604052809291908181526020018280546109a0906123ee565b80156109ed5780601f106109c2576101008083540402835291602001916109ed565b820191906000526020600020905b8154815290600101906020018083116109d057829003601f168201915b50505050508152602001600582018054610a06906123ee565b80601f0160208091040260200160405190810160405280929190818152602001828054610a32906123ee565b8015610a7f5780601f10610a5457610100808354040283529160200191610a7f565b820191906000526020600020905b815481529060010190602001808311610a6257829003601f168201915b50505050508152602001600682018054610a98906123ee565b80601f0160208091040260200160405190810160405280929190818152602001828054610ac4906123ee565b8015610b115780601f10610ae657610100808354040283529160200191610b11565b820191906000526020600020905b815481529060010190602001808311610af457829003601f168201915b50505050508152602001600782018054610b2a906123ee565b80601f0160208091040260200160405190810160405280929190818152602001828054610b56906123ee565b8015610ba35780601f10610b7857610100808354040283529160200191610ba3565b820191906000526020600020905b815481529060010190602001808311610b8657829003601f168201915b5050509183525050600891909101546001600160a01b0316602090910152919050565b600e546001600160a01b031633141580610bf0575060185461010090046001600160a01b03163314155b80610bfb5750333014155b15610c1957604051630e2f7eff60e31b815260040160405180910390fd5b6014805491151563010000000263ff00000019909216919091179055565b610c3f611fd9565b601b80546001600160801b038416908110610c5c57610c5c612428565b90600052602060002090600a02016040518060400160405290816000820160405180610120016040529081600082018054610c96906123ee565b80601f0160208091040260200160405190810160405280929190818152602001828054610cc2906123ee565b8015610d0f5780601f10610ce457610100808354040283529160200191610d0f565b820191906000526020600020905b815481529060010190602001808311610cf257829003601f168201915b50505050508152602001600182018054610d28906123ee565b80601f0160208091040260200160405190810160405280929190818152602001828054610d54906123ee565b8015610da15780601f10610d7657610100808354040283529160200191610da1565b820191906000526020600020905b815481529060010190602001808311610d8457829003601f168201915b50505050508152602001600282018054610dba906123ee565b80601f0160208091040260200160405190810160405280929190818152602001828054610de6906123ee565b8015610e335780601f10610e0857610100808354040283529160200191610e33565b820191906000526020600020905b815481529060010190602001808311610e1657829003601f168201915b50505050508152602001600382018054610e4c906123ee565b80601f0160208091040260200160405190810160405280929190818152602001828054610e78906123ee565b8015610ec55780601f10610e9a57610100808354040283529160200191610ec5565b820191906000526020600020905b815481529060010190602001808311610ea857829003601f168201915b50505050508152602001600482018054610ede906123ee565b80601f0160208091040260200160405190810160405280929190818152602001828054610f0a906123ee565b8015610f575780601f10610f2c57610100808354040283529160200191610f57565b820191906000526020600020905b815481529060010190602001808311610f3a57829003601f168201915b50505050508152602001600582018054610f70906123ee565b80601f0160208091040260200160405190810160405280929190818152602001828054610f9c906123ee565b8015610fe95780601f10610fbe57610100808354040283529160200191610fe9565b820191906000526020600020905b815481529060010190602001808311610fcc57829003601f168201915b50505050508152602001600682018054611002906123ee565b80601f016020809104026020016040519081016040528092919081815260200182805461102e906123ee565b801561107b5780601f106110505761010080835404028352916020019161107b565b820191906000526020600020905b81548152906001019060200180831161105e57829003601f168201915b50505050508152602001600782018054611094906123ee565b80601f01602080910402602001604051908101604052809291908181526020018280546110c0906123ee565b801561110d5780601f106110e25761010080835404028352916020019161110d565b820191906000526020600020905b8154815290600101906020018083116110f057829003601f168201915b5050509183525050600891909101546001600160a01b0316602091820152908252600992909201546001600160801b031691015292915050565b600e546001600160a01b031633141580611171575060185461010090046001600160a01b03163314155b8061117c5750333014155b1561119a57604051630e2f7eff60e31b815260040160405180910390fd5b60148054911515620100000262ff000019909216919091179055565b6014546301000000900460ff16156111e15760405163c60d361f60e01b815260040160405180910390fd5b6000805b601b5481101561124157601b80548290811061120357611203612428565b600091825260209091206008600a9092020101546001600160a01b0316330361122f5760019150611241565b806112398161243e565b9150506111e5565b5080611279576040517f0473f6c100000000000000000000000000000000000000000000000000000000815260040160405180910390fd5b60145462010000900460ff166112a25760405163608bc83960e11b815260040160405180910390fd5b60135460005b601b5481101561136d57601b8054829081106112c6576112c6612428565b600091825260209091206008600a909202010154601b80546001600160a01b03909216916108fc916064918590811061130157611301612428565b600091825260209091206009600a909202010154611328906001600160801b03168661209f565b61133291906120b6565b6040518115909202916000818181858888f1935050505015801561135a573d6000803e3d6000fd5b50806113658161243e565b9150506112a8565b506113786001610bc6565b5050565b6014805464ff0000000019169055600f54601954600160801b9091046001600160801b0316906113ac9042612086565b11156113be576014805461ff00191690555b601554600f546113e1916001600160801b0390811691600160801b90041661205f565b6001600160801b0316601954426113f89190612086565b1115611378576014805463ff000000191663010000001790555050565b600e546001600160a01b03163314158061143f575060185461010090046001600160a01b03163314155b8061144a5750333014155b1561146857604051630e2f7eff60e31b815260040160405180910390fd5b6014805460ff1916911515919091179055565b600e546001600160a01b0316331415806114a5575060185461010090046001600160a01b03163314155b806114b05750333014155b156114ce57604051630e2f7eff60e31b815260040160405180910390fd5b601480549115156101000261ff0019909216919091179055565b600e546001600160a01b031633141580611512575060185461010090046001600160a01b03163314155b8061151d5750333014155b1561153b57604051630e2f7eff60e31b815260040160405180910390fd5b6014546301000000900460ff166115655760405163c60d361f60e01b815260040160405180910390fd5b601454610100900460ff166115a6576040517f8d8d689b00000000000000000000000000000000000000000000000000000000815260040160405180910390fd5b60145460ff16156115ca57604051631a4c0efb60e21b815260040160405180910390fd5b600f546015546115ed916001600160801b03600160801b9091048116911661205f565b6001600160801b0316601954426116049190612086565b111561162357604051631932f4cb60e21b815260040160405180910390fd5b612710611639670de0b6b3a7640000600161209f565b61164391906120b6565b601654611651903490612086565b101561167057604051631b44afc760e31b815260040160405180910390fd5b426019556014805461ff001916610100179055565b6014546000906060906301000000900460ff16156116d757505060408051808201909152601481527f506f6c696379206973207465726d696e6174656400000000000000000000000060208201526000905b601454610100900460ff1661176057601554600f54611709916001600160801b0390811691600160801b90041661205f565b6001600160801b0316601954426117209190612086565b111561176057505060408051808201909152601681527f5265766976616c20706572696f64206973206f7665720000000000000000000060208201526000905b6011546019546117709042612086565b1191506040518060400160405280601081526020017f55706b656570206973206e65656465640000000000000000000000000000000081525090509250929050565b600e546001600160a01b0316331415806117dc575060185461010090046001600160a01b03163314155b806117e75750333014155b1561180557604051630e2f7eff60e31b815260040160405180910390fd5b601480549115156401000000000264ff0000000019909216919091179055565b6060601b600001805480602002602001604051908101604052809291908181526020016000905b82821015611d44576000848152602090206040805161016081018252600a850290920180549091839190820190839082908290611888906123ee565b80601f01602080910402602001604051908101604052809291908181526020018280546118b4906123ee565b80156119015780601f106118d657610100808354040283529160200191611901565b820191906000526020600020905b8154815290600101906020018083116118e457829003601f168201915b5050505050815260200160018201805461191a906123ee565b80601f0160208091040260200160405190810160405280929190818152602001828054611946906123ee565b80156119935780601f1061196857610100808354040283529160200191611993565b820191906000526020600020905b81548152906001019060200180831161197657829003601f168201915b505050505081526020016002820180546119ac906123ee565b80601f01602080910402602001604051908101604052809291908181526020018280546119d8906123ee565b8015611a255780601f106119fa57610100808354040283529160200191611a25565b820191906000526020600020905b815481529060010190602001808311611a0857829003601f168201915b50505050508152602001600382018054611a3e906123ee565b80601f0160208091040260200160405190810160405280929190818152602001828054611a6a906123ee565b8015611ab75780601f10611a8c57610100808354040283529160200191611ab7565b820191906000526020600020905b815481529060010190602001808311611a9a57829003601f168201915b50505050508152602001600482018054611ad0906123ee565b80601f0160208091040260200160405190810160405280929190818152602001828054611afc906123ee565b8015611b495780601f10611b1e57610100808354040283529160200191611b49565b820191906000526020600020905b815481529060010190602001808311611b2c57829003601f168201915b50505050508152602001600582018054611b62906123ee565b80601f0160208091040260200160405190810160405280929190818152602001828054611b8e906123ee565b8015611bdb5780601f10611bb057610100808354040283529160200191611bdb565b820191906000526020600020905b815481529060010190602001808311611bbe57829003601f168201915b50505050508152602001600682018054611bf4906123ee565b80601f0160208091040260200160405190810160405280929190818152602001828054611c20906123ee565b8015611c6d5780601f10611c4257610100808354040283529160200191611c6d565b820191906000526020600020905b815481529060010190602001808311611c5057829003601f168201915b50505050508152602001600782018054611c86906123ee565b80601f0160208091040260200160405190810160405280929190818152602001828054611cb2906123ee565b8015611cff5780601f10611cd457610100808354040283529160200191611cff565b820191906000526020600020905b815481529060010190602001808311611ce257829003601f168201915b5050509183525050600891909101546001600160a01b0316602091820152908252600992909201546001600160801b031690820152908252600192909201910161184c565b50505050905090565b606060066011018054611d5f906123ee565b80601f0160208091040260200160405190810160405280929190818152602001828054611d8b906123ee565b8015611dd85780601f10611dad57610100808354040283529160200191611dd8565b820191906000526020600020905b815481529060010190602001808311611dbb57829003601f168201915b5050505050905090565b600e546001600160a01b031633141580611e0c575060185461010090046001600160a01b03163314155b80611e175750333014155b15611e3557604051630e2f7eff60e31b815260040160405180910390fd5b6014546301000000900460ff1615611e605760405163c60d361f60e01b815260040160405180910390fd5b6014805463ff000000191663010000001790556018546040516001600160a01b0361010090920491909116904780156108fc02916000818181858888f19350505050158015611eb3573d6000803e3d6000fd5b50565b600e546000906001600160a01b031633141580611ee3575060185461010090046001600160a01b03163314155b80611eee5750333014155b15611f0c57604051630e2f7eff60e31b815260040160405180910390fd5b6014546301000000900460ff16611f365760405163c60d361f60e01b815260040160405180910390fd5b601454610100900460ff1615611f78576040517f8966b51f00000000000000000000000000000000000000000000000000000000815260040160405180910390fd5b60145462010000900460ff1615611fa25760405163608bc83960e11b815260040160405180910390fd5b60145460ff16611fc557604051631a4c0efb60e21b815260040160405180910390fd5b506014805460ff1916600190811790915590565b604051806040016040528061203c604051806101200160405280606081526020016060815260200160608152602001606081526020016060815260200160608152602001606081526020016060815260200160006001600160a01b031681525090565b8152600060209091015290565b634e487b7160e01b600052601160045260246000fd5b6001600160801b0381811683821601908082111561207f5761207f612049565b5092915050565b8181038181111561209957612099612049565b92915050565b808202811582820484141761209957612099612049565b6000826120d357634e487b7160e01b600052601260045260246000fd5b500490565b6000815180845260005b818110156120fe576020818501810151868301820152016120e2565b506000602082860101526020601f19601f83011685010191505092915050565b60006101208251818552612134828601826120d8565b9150506020830151848203602086015261214e82826120d8565b9150506040830151848203604086015261216882826120d8565b9150506060830151848203606086015261218282826120d8565b9150506080830151848203608086015261219c82826120d8565b91505060a083015184820360a08601526121b682826120d8565b91505060c083015184820360c08601526121d082826120d8565b91505060e083015184820360e08601526121ea82826120d8565b91505061010080840151612208828701826001600160a01b03169052565b5090949350505050565b602081526000612225602083018461211e565b9392505050565b60006020828403121561223e57600080fd5b8135801515811461222557600080fd5b60006020828403121561226057600080fd5b81356001600160801b038116811461222557600080fd5b600081516040845261228c604085018261211e565b6020938401516001600160801b0316949093019390935250919050565b6020815260006122256020830184612277565b60208101600283106122de57634e487b7160e01b600052602160045260246000fd5b91905290565b600080602083850312156122f757600080fd5b823567ffffffffffffffff8082111561230f57600080fd5b818501915085601f83011261232357600080fd5b81358181111561233257600080fd5b86602082850101111561234457600080fd5b60209290920196919550909350505050565b821515815260406020820152600061237160408301846120d8565b949350505050565b6000602080830181845280855180835260408601915060408160051b870101925083870160005b828110156123ce57603f198886030184526123bc858351612277565b945092850192908501906001016123a0565b5092979650505050505050565b60208152600061222560208301846120d8565b600181811c9082168061240257607f821691505b60208210810361242257634e487b7160e01b600052602260045260246000fd5b50919050565b634e487b7160e01b600052603260045260246000fd5b60006001820161245057612450612049565b506001019056fea26469706673582212202d1e54115a71158ea230967a219f60b992bd6f1da9eb609a9e91c3e97e7ec82d64736f6c63430008120033",
  "devdoc": {
    "details": "LifeInsurancePolicy is a contract for managing a life insurance policy",
    "kind": "dev",
    "methods": {
      "checkUpkeep(bytes)": {
        "details": "To ensure that it is never called, you may want to add the cannotExecute modifier from KeeperBase to your implementation of this method.",
        "params": {
          "checkData": "specified in the upkeep registration so it is always the same for a registered upkeep. This can easily be broken down into specific arguments using `abi.decode`, so multiple upkeeps can be registered on the same contract and easily differentiated by the contract."
        },
        "returns": {
          "performData": "bytes that the keeper should call performUpkeep with, if upkeep is needed. If you would like to encode data to decode later, try `abi.encode`.",
          "upkeepNeeded": "boolean to indicate whether the keeper should call performUpkeep or not."
        }
      },
      "performUpkeep(bytes)": {
        "details": "The input to this method should not be trusted, and the caller of the method should not even be restricted to any single registry. Anyone should be able call it, and the input should be validated, there is no guarantee that the data passed in is the performData returned from checkUpkeep. This could happen due to malicious keepers, racing keepers, or simply a state change while the performUpkeep transaction is waiting for confirmation. Always validate the data passed in.",
        "params": {
          "performData": "is the data which was passed back from the checkData simulation. If it is encoded, it can easily be decoded into other types by calling `abi.decode`. This data should not be trusted, and should be validated against the contract's current state."
        }
      }
    },
    "title": "LifeInsurancePolicy",
    "version": 1
  },
  "userdoc": {
    "kind": "user",
    "methods": {
      "checkUpkeep(bytes)": {
        "notice": "method that is simulated by the keepers to see if any work actually needs to be performed. This method does does not actually need to be executable, and since it is only ever simulated it can consume lots of gas."
      },
      "performUpkeep(bytes)": {
        "notice": "method that is actually executed by the keepers, via the registry. The data returned by the checkUpkeep simulation will be passed into this method to actually be executed."
      }
    },
    "version": 1
  },
  "storageLayout": {
    "storage": [
      {
        "astId": 358,
        "contract": "contracts/LifeInsurancePolicy.sol:LifeInsurancePolicy",
        "label": "s_ens",
        "offset": 0,
        "slot": "0",
        "type": "t_contract(ENSInterface)1032"
      },
      {
        "astId": 360,
        "contract": "contracts/LifeInsurancePolicy.sol:LifeInsurancePolicy",
        "label": "s_ensNode",
        "offset": 0,
        "slot": "1",
        "type": "t_bytes32"
      },
      {
        "astId": 363,
        "contract": "contracts/LifeInsurancePolicy.sol:LifeInsurancePolicy",
        "label": "s_link",
        "offset": 0,
        "slot": "2",
        "type": "t_contract(LinkTokenInterface)1127"
      },
      {
        "astId": 366,
        "contract": "contracts/LifeInsurancePolicy.sol:LifeInsurancePolicy",
        "label": "s_oracle",
        "offset": 0,
        "slot": "3",
        "type": "t_contract(OperatorInterface)1207"
      },
      {
        "astId": 369,
        "contract": "contracts/LifeInsurancePolicy.sol:LifeInsurancePolicy",
        "label": "s_requestCount",
        "offset": 0,
        "slot": "4",
        "type": "t_uint256"
      },
      {
        "astId": 373,
        "contract": "contracts/LifeInsurancePolicy.sol:LifeInsurancePolicy",
        "label": "s_pendingRequests",
        "offset": 0,
        "slot": "5",
        "type": "t_mapping(t_bytes32,t_address)"
      },
      {
        "astId": 2245,
        "contract": "contracts/LifeInsurancePolicy.sol:LifeInsurancePolicy",
        "label": "s_policy",
        "offset": 0,
        "slot": "6",
        "type": "t_struct(Policy)3403_storage"
      },
      {
        "astId": 2247,
        "contract": "contracts/LifeInsurancePolicy.sol:LifeInsurancePolicy",
        "label": "s_lastPaymentTimestamp",
        "offset": 0,
        "slot": "25",
        "type": "t_uint256"
      },
      {
        "astId": 2249,
        "contract": "contracts/LifeInsurancePolicy.sol:LifeInsurancePolicy",
        "label": "s_startTimestamp",
        "offset": 0,
        "slot": "26",
        "type": "t_uint256"
      },
      {
        "astId": 2970,
        "contract": "contracts/LifeInsurancePolicy.sol:LifeInsurancePolicy",
        "label": "s_lifePolicyParams",
        "offset": 0,
        "slot": "27",
        "type": "t_struct(LifePolicyParams)3417_storage"
      }
    ],
    "types": {
      "t_address": {
        "encoding": "inplace",
        "label": "address",
        "numberOfBytes": "20"
      },
      "t_address_payable": {
        "encoding": "inplace",
        "label": "address payable",
        "numberOfBytes": "20"
      },
      "t_array(t_struct(Nominee)3412_storage)dyn_storage": {
        "base": "t_struct(Nominee)3412_storage",
        "encoding": "dynamic_array",
        "label": "struct SharedData.Nominee[]",
        "numberOfBytes": "32"
      },
      "t_bool": {
        "encoding": "inplace",
        "label": "bool",
        "numberOfBytes": "1"
      },
      "t_bytes32": {
        "encoding": "inplace",
        "label": "bytes32",
        "numberOfBytes": "32"
      },
      "t_contract(ENSInterface)1032": {
        "encoding": "inplace",
        "label": "contract ENSInterface",
        "numberOfBytes": "20"
      },
      "t_contract(LinkTokenInterface)1127": {
        "encoding": "inplace",
        "label": "contract LinkTokenInterface",
        "numberOfBytes": "20"
      },
      "t_contract(OperatorInterface)1207": {
        "encoding": "inplace",
        "label": "contract OperatorInterface",
        "numberOfBytes": "20"
      },
      "t_enum(PolicyType)3406": {
        "encoding": "inplace",
        "label": "enum SharedData.PolicyType",
        "numberOfBytes": "1"
      },
      "t_mapping(t_bytes32,t_address)": {
        "encoding": "mapping",
        "key": "t_bytes32",
        "label": "mapping(bytes32 => address)",
        "numberOfBytes": "32",
        "value": "t_address"
      },
      "t_string_storage": {
        "encoding": "bytes",
        "label": "string",
        "numberOfBytes": "32"
      },
      "t_struct(HumanDetails)3362_storage": {
        "encoding": "inplace",
        "label": "struct SharedData.HumanDetails",
        "members": [
          {
            "astId": 3345,
            "contract": "contracts/LifeInsurancePolicy.sol:LifeInsurancePolicy",
            "label": "name",
            "offset": 0,
            "slot": "0",
            "type": "t_string_storage"
          },
          {
            "astId": 3347,
            "contract": "contracts/LifeInsurancePolicy.sol:LifeInsurancePolicy",
            "label": "dateOfBirth",
            "offset": 0,
            "slot": "1",
            "type": "t_string_storage"
          },
          {
            "astId": 3349,
            "contract": "contracts/LifeInsurancePolicy.sol:LifeInsurancePolicy",
            "label": "gender",
            "offset": 0,
            "slot": "2",
            "type": "t_string_storage"
          },
          {
            "astId": 3351,
            "contract": "contracts/LifeInsurancePolicy.sol:LifeInsurancePolicy",
            "label": "homeAddress",
            "offset": 0,
            "slot": "3",
            "type": "t_string_storage"
          },
          {
            "astId": 3353,
            "contract": "contracts/LifeInsurancePolicy.sol:LifeInsurancePolicy",
            "label": "phoneNumber",
            "offset": 0,
            "slot": "4",
            "type": "t_string_storage"
          },
          {
            "astId": 3355,
            "contract": "contracts/LifeInsurancePolicy.sol:LifeInsurancePolicy",
            "label": "pronouns",
            "offset": 0,
            "slot": "5",
            "type": "t_string_storage"
          },
          {
            "astId": 3357,
            "contract": "contracts/LifeInsurancePolicy.sol:LifeInsurancePolicy",
            "label": "email",
            "offset": 0,
            "slot": "6",
            "type": "t_string_storage"
          },
          {
            "astId": 3359,
            "contract": "contracts/LifeInsurancePolicy.sol:LifeInsurancePolicy",
            "label": "occupation",
            "offset": 0,
            "slot": "7",
            "type": "t_string_storage"
          },
          {
            "astId": 3361,
            "contract": "contracts/LifeInsurancePolicy.sol:LifeInsurancePolicy",
            "label": "policyHolderWalletAddress",
            "offset": 0,
            "slot": "8",
            "type": "t_address_payable"
          }
        ],
        "numberOfBytes": "288"
      },
      "t_struct(LifePolicyParams)3417_storage": {
        "encoding": "inplace",
        "label": "struct SharedData.LifePolicyParams",
        "members": [
          {
            "astId": 3416,
            "contract": "contracts/LifeInsurancePolicy.sol:LifeInsurancePolicy",
            "label": "nominees",
            "offset": 0,
            "slot": "0",
            "type": "t_array(t_struct(Nominee)3412_storage)dyn_storage"
          }
        ],
        "numberOfBytes": "32"
      },
      "t_struct(Nominee)3412_storage": {
        "encoding": "inplace",
        "label": "struct SharedData.Nominee",
        "members": [
          {
            "astId": 3409,
            "contract": "contracts/LifeInsurancePolicy.sol:LifeInsurancePolicy",
            "label": "nomineeDetails",
            "offset": 0,
            "slot": "0",
            "type": "t_struct(HumanDetails)3362_storage"
          },
          {
            "astId": 3411,
            "contract": "contracts/LifeInsurancePolicy.sol:LifeInsurancePolicy",
            "label": "nomineeShare",
            "offset": 0,
            "slot": "9",
            "type": "t_uint128"
          }
        ],
        "numberOfBytes": "320"
      },
      "t_struct(Policy)3403_storage": {
        "encoding": "inplace",
        "label": "struct SharedData.Policy",
        "members": [
          {
            "astId": 3370,
            "contract": "contracts/LifeInsurancePolicy.sol:LifeInsurancePolicy",
            "label": "policyHolder",
            "offset": 0,
            "slot": "0",
            "type": "t_struct(HumanDetails)3362_storage"
          },
          {
            "astId": 3372,
            "contract": "contracts/LifeInsurancePolicy.sol:LifeInsurancePolicy",
            "label": "policyTenure",
            "offset": 0,
            "slot": "9",
            "type": "t_uint128"
          },
          {
            "astId": 3374,
            "contract": "contracts/LifeInsurancePolicy.sol:LifeInsurancePolicy",
            "label": "gracePeriod",
            "offset": 16,
            "slot": "9",
            "type": "t_uint128"
          },
          {
            "astId": 3376,
            "contract": "contracts/LifeInsurancePolicy.sol:LifeInsurancePolicy",
            "label": "timeBeforeCommencement",
            "offset": 0,
            "slot": "10",
            "type": "t_uint128"
          },
          {
            "astId": 3378,
            "contract": "contracts/LifeInsurancePolicy.sol:LifeInsurancePolicy",
            "label": "timeInterval",
            "offset": 0,
            "slot": "11",
            "type": "t_uint256"
          },
          {
            "astId": 3380,
            "contract": "contracts/LifeInsurancePolicy.sol:LifeInsurancePolicy",
            "label": "premiumToBePaid",
            "offset": 0,
            "slot": "12",
            "type": "t_uint256"
          },
          {
            "astId": 3382,
            "contract": "contracts/LifeInsurancePolicy.sol:LifeInsurancePolicy",
            "label": "totalCoverageByPolicy",
            "offset": 0,
            "slot": "13",
            "type": "t_uint256"
          },
          {
            "astId": 3384,
            "contract": "contracts/LifeInsurancePolicy.sol:LifeInsurancePolicy",
            "label": "hasClaimed",
            "offset": 0,
            "slot": "14",
            "type": "t_bool"
          },
          {
            "astId": 3386,
            "contract": "contracts/LifeInsurancePolicy.sol:LifeInsurancePolicy",
            "label": "isPolicyActive",
            "offset": 1,
            "slot": "14",
            "type": "t_bool"
          },
          {
            "astId": 3388,
            "contract": "contracts/LifeInsurancePolicy.sol:LifeInsurancePolicy",
            "label": "isClaimable",
            "offset": 2,
            "slot": "14",
            "type": "t_bool"
          },
          {
            "astId": 3390,
            "contract": "contracts/LifeInsurancePolicy.sol:LifeInsurancePolicy",
            "label": "isTerminated",
            "offset": 3,
            "slot": "14",
            "type": "t_bool"
          },
          {
            "astId": 3392,
            "contract": "contracts/LifeInsurancePolicy.sol:LifeInsurancePolicy",
            "label": "hasFundedForCurrentMonth",
            "offset": 4,
            "slot": "14",
            "type": "t_bool"
          },
          {
            "astId": 3395,
            "contract": "contracts/LifeInsurancePolicy.sol:LifeInsurancePolicy",
            "label": "revivalRule",
            "offset": 0,
            "slot": "15",
            "type": "t_struct(RevivalRule)3367_storage"
          },
          {
            "astId": 3397,
            "contract": "contracts/LifeInsurancePolicy.sol:LifeInsurancePolicy",
            "label": "policyDetails",
            "offset": 0,
            "slot": "17",
            "type": "t_string_storage"
          },
          {
            "astId": 3400,
            "contract": "contracts/LifeInsurancePolicy.sol:LifeInsurancePolicy",
            "label": "policyType",
            "offset": 0,
            "slot": "18",
            "type": "t_enum(PolicyType)3406"
          },
          {
            "astId": 3402,
            "contract": "contracts/LifeInsurancePolicy.sol:LifeInsurancePolicy",
            "label": "policyManagerContractAddress",
            "offset": 1,
            "slot": "18",
            "type": "t_address_payable"
          }
        ],
        "numberOfBytes": "608"
      },
      "t_struct(RevivalRule)3367_storage": {
        "encoding": "inplace",
        "label": "struct SharedData.RevivalRule",
        "members": [
          {
            "astId": 3364,
            "contract": "contracts/LifeInsurancePolicy.sol:LifeInsurancePolicy",
            "label": "revivalPeriod",
            "offset": 0,
            "slot": "0",
            "type": "t_uint128"
          },
          {
            "astId": 3366,
            "contract": "contracts/LifeInsurancePolicy.sol:LifeInsurancePolicy",
            "label": "revivalAmount",
            "offset": 0,
            "slot": "1",
            "type": "t_uint256"
          }
        ],
        "numberOfBytes": "64"
      },
      "t_uint128": {
        "encoding": "inplace",
        "label": "uint128",
        "numberOfBytes": "16"
      },
      "t_uint256": {
        "encoding": "inplace",
        "label": "uint256",
        "numberOfBytes": "32"
      }
    }
  }
}