{
    "address": "0x5FC8d32690cc91D4c39d9d3abcBD16989F875707",
    "abi": [
        {
            "inputs": [],
            "stateMutability": "nonpayable",
            "type": "constructor"
        },
        {
            "anonymous": false,
            "inputs": [
                {
                    "indexed": true,
                    "internalType": "address",
                    "name": "policyAddress",
                    "type": "address"
                },
                {
                    "indexed": true,
                    "internalType": "address",
                    "name": "policyHolderAddress",
                    "type": "address"
                },
                {
                    "indexed": true,
                    "internalType": "enum SharedData.PolicyType",
                    "name": "policyType",
                    "type": "uint8"
                }
            ],
            "name": "PolicyCreated",
            "type": "event"
        },
        {
            "inputs": [
                {
                    "components": [
                        {
                            "components": [
                                {
                                    "internalType": "string",
                                    "name": "name",
                                    "type": "string"
                                },
                                {
                                    "internalType": "string",
                                    "name": "dateOfBirth",
                                    "type": "string"
                                },
                                {
                                    "internalType": "string",
                                    "name": "gender",
                                    "type": "string"
                                },
                                {
                                    "internalType": "string",
                                    "name": "homeAddress",
                                    "type": "string"
                                },
                                {
                                    "internalType": "string",
                                    "name": "phoneNumber",
                                    "type": "string"
                                },
                                {
                                    "internalType": "string",
                                    "name": "pronouns",
                                    "type": "string"
                                },
                                {
                                    "internalType": "string",
                                    "name": "email",
                                    "type": "string"
                                },
                                {
                                    "internalType": "string",
                                    "name": "occupation",
                                    "type": "string"
                                },
                                {
                                    "internalType": "address payable",
                                    "name": "policyHolderWalletAddress",
                                    "type": "address"
                                }
                            ],
                            "internalType": "struct SharedData.HumanDetails",
                            "name": "policyHolder",
                            "type": "tuple"
                        },
                        {
                            "internalType": "uint128",
                            "name": "policyTenure",
                            "type": "uint128"
                        },
                        {
                            "internalType": "uint128",
                            "name": "gracePeriod",
                            "type": "uint128"
                        },
                        {
                            "internalType": "uint128",
                            "name": "timeBeforeCommencement",
                            "type": "uint128"
                        },
                        {
                            "internalType": "uint256",
                            "name": "timeInterval",
                            "type": "uint256"
                        },
                        {
                            "internalType": "uint256",
                            "name": "premiumToBePaid",
                            "type": "uint256"
                        },
                        {
                            "internalType": "uint256",
                            "name": "totalCoverageByPolicy",
                            "type": "uint256"
                        },
                        {
                            "internalType": "bool",
                            "name": "hasClaimed",
                            "type": "bool"
                        },
                        {
                            "internalType": "bool",
                            "name": "isPolicyActive",
                            "type": "bool"
                        },
                        {
                            "internalType": "bool",
                            "name": "isClaimable",
                            "type": "bool"
                        },
                        {
                            "internalType": "bool",
                            "name": "isTerminated",
                            "type": "bool"
                        },
                        {
                            "internalType": "bool",
                            "name": "hasFundedForCurrentInterval",
                            "type": "bool"
                        },
                        {
                            "components": [
                                {
                                    "internalType": "uint128",
                                    "name": "revivalPeriod",
                                    "type": "uint128"
                                },
                                {
                                    "internalType": "uint256",
                                    "name": "revivalAmount",
                                    "type": "uint256"
                                }
                            ],
                            "internalType": "struct SharedData.RevivalRule",
                            "name": "revivalRule",
                            "type": "tuple"
                        },
                        {
                            "internalType": "string",
                            "name": "policyDetails",
                            "type": "string"
                        },
                        {
                            "internalType": "enum SharedData.PolicyType",
                            "name": "policyType",
                            "type": "uint8"
                        },
                        {
                            "internalType": "address payable",
                            "name": "policyManagerAddress",
                            "type": "address"
                        }
                    ],
                    "internalType": "struct SharedData.Policy",
                    "name": "policy",
                    "type": "tuple"
                },
                {
                    "components": [
                        {
                            "internalType": "uint64",
                            "name": "copaymentPercentage",
                            "type": "uint64"
                        }
                    ],
                    "internalType": "struct SharedData.HealthPolicyParams",
                    "name": "healthPolicyParams",
                    "type": "tuple"
                }
            ],
            "name": "deployHealthPolicy",
            "outputs": [
                {
                    "internalType": "address",
                    "name": "policyAddress",
                    "type": "address"
                }
            ],
            "stateMutability": "nonpayable",
            "type": "function"
        },
        {
            "inputs": [
                {
                    "components": [
                        {
                            "components": [
                                {
                                    "internalType": "string",
                                    "name": "name",
                                    "type": "string"
                                },
                                {
                                    "internalType": "string",
                                    "name": "dateOfBirth",
                                    "type": "string"
                                },
                                {
                                    "internalType": "string",
                                    "name": "gender",
                                    "type": "string"
                                },
                                {
                                    "internalType": "string",
                                    "name": "homeAddress",
                                    "type": "string"
                                },
                                {
                                    "internalType": "string",
                                    "name": "phoneNumber",
                                    "type": "string"
                                },
                                {
                                    "internalType": "string",
                                    "name": "pronouns",
                                    "type": "string"
                                },
                                {
                                    "internalType": "string",
                                    "name": "email",
                                    "type": "string"
                                },
                                {
                                    "internalType": "string",
                                    "name": "occupation",
                                    "type": "string"
                                },
                                {
                                    "internalType": "address payable",
                                    "name": "policyHolderWalletAddress",
                                    "type": "address"
                                }
                            ],
                            "internalType": "struct SharedData.HumanDetails",
                            "name": "policyHolder",
                            "type": "tuple"
                        },
                        {
                            "internalType": "uint128",
                            "name": "policyTenure",
                            "type": "uint128"
                        },
                        {
                            "internalType": "uint128",
                            "name": "gracePeriod",
                            "type": "uint128"
                        },
                        {
                            "internalType": "uint128",
                            "name": "timeBeforeCommencement",
                            "type": "uint128"
                        },
                        {
                            "internalType": "uint256",
                            "name": "timeInterval",
                            "type": "uint256"
                        },
                        {
                            "internalType": "uint256",
                            "name": "premiumToBePaid",
                            "type": "uint256"
                        },
                        {
                            "internalType": "uint256",
                            "name": "totalCoverageByPolicy",
                            "type": "uint256"
                        },
                        {
                            "internalType": "bool",
                            "name": "hasClaimed",
                            "type": "bool"
                        },
                        {
                            "internalType": "bool",
                            "name": "isPolicyActive",
                            "type": "bool"
                        },
                        {
                            "internalType": "bool",
                            "name": "isClaimable",
                            "type": "bool"
                        },
                        {
                            "internalType": "bool",
                            "name": "isTerminated",
                            "type": "bool"
                        },
                        {
                            "internalType": "bool",
                            "name": "hasFundedForCurrentInterval",
                            "type": "bool"
                        },
                        {
                            "components": [
                                {
                                    "internalType": "uint128",
                                    "name": "revivalPeriod",
                                    "type": "uint128"
                                },
                                {
                                    "internalType": "uint256",
                                    "name": "revivalAmount",
                                    "type": "uint256"
                                }
                            ],
                            "internalType": "struct SharedData.RevivalRule",
                            "name": "revivalRule",
                            "type": "tuple"
                        },
                        {
                            "internalType": "string",
                            "name": "policyDetails",
                            "type": "string"
                        },
                        {
                            "internalType": "enum SharedData.PolicyType",
                            "name": "policyType",
                            "type": "uint8"
                        },
                        {
                            "internalType": "address payable",
                            "name": "policyManagerAddress",
                            "type": "address"
                        }
                    ],
                    "internalType": "struct SharedData.Policy",
                    "name": "policy",
                    "type": "tuple"
                },
                {
                    "components": [
                        {
                            "components": [
                                {
                                    "components": [
                                        {
                                            "internalType": "string",
                                            "name": "name",
                                            "type": "string"
                                        },
                                        {
                                            "internalType": "string",
                                            "name": "dateOfBirth",
                                            "type": "string"
                                        },
                                        {
                                            "internalType": "string",
                                            "name": "gender",
                                            "type": "string"
                                        },
                                        {
                                            "internalType": "string",
                                            "name": "homeAddress",
                                            "type": "string"
                                        },
                                        {
                                            "internalType": "string",
                                            "name": "phoneNumber",
                                            "type": "string"
                                        },
                                        {
                                            "internalType": "string",
                                            "name": "pronouns",
                                            "type": "string"
                                        },
                                        {
                                            "internalType": "string",
                                            "name": "email",
                                            "type": "string"
                                        },
                                        {
                                            "internalType": "string",
                                            "name": "occupation",
                                            "type": "string"
                                        },
                                        {
                                            "internalType": "address payable",
                                            "name": "policyHolderWalletAddress",
                                            "type": "address"
                                        }
                                    ],
                                    "internalType": "struct SharedData.HumanDetails",
                                    "name": "nomineeDetails",
                                    "type": "tuple"
                                },
                                {
                                    "internalType": "uint128",
                                    "name": "nomineeShare",
                                    "type": "uint128"
                                }
                            ],
                            "internalType": "struct SharedData.Nominee[]",
                            "name": "nominees",
                            "type": "tuple[]"
                        }
                    ],
                    "internalType": "struct SharedData.LifePolicyParams",
                    "name": "lifePolicyParams",
                    "type": "tuple"
                }
            ],
            "name": "deployLifePolicy",
            "outputs": [
                {
                    "internalType": "address",
                    "name": "policyAddress",
                    "type": "address"
                }
            ],
            "stateMutability": "nonpayable",
            "type": "function"
        }
    ],
    "transactionHash": "0x89663e3e69f26613ddb597aa8df6d8530c5d454a12dc992a978c08bc18a2c75d",
    "args": [],
    "numDeployments": 1,
    "solcInputHash": "0f26cd6512e2c25d132063889cf6d292",
    "bytecode": "0x608060405234801561001057600080fd5b50615ead806100206000396000f3fe60806040523480156200001157600080fd5b50600436106200003a5760003560e01c806398f60226146200003f578063d240cb0a1462000072575b600080fd5b620000566200005036600462000677565b62000089565b6040516001600160a01b03909116815260200160405180910390f35b6200005662000083366004620006f8565b62000118565b600080600084846040516200009e9062000165565b620000ab92919062000b50565b604051809103906000f080158015620000c8573d6000803e3d6000fd5b50915081905060015b855161010001516040516001600160a01b03918216918516907fc63fd39026d1166b06ee260d4c63717da6e72d467b59c7e34262f26d6885000090600090a4509392505050565b600080600084846040516200012d9062000173565b6200013a92919062000b7f565b604051809103906000f08015801562000157573d6000803e3d6000fd5b5091508190506000620000d1565b6121838062000c2983390190565b6130cc8062002dac83390190565b634e487b7160e01b600052604160045260246000fd5b604051610120810167ffffffffffffffff81118282101715620001be57620001be62000181565b60405290565b6040805190810167ffffffffffffffff81118282101715620001be57620001be62000181565b604051610200810167ffffffffffffffff81118282101715620001be57620001be62000181565b6040516020810167ffffffffffffffff81118282101715620001be57620001be62000181565b604051601f8201601f1916810167ffffffffffffffff8111828210171562000263576200026362000181565b604052919050565b600082601f8301126200027d57600080fd5b813567ffffffffffffffff8111156200029a576200029a62000181565b620002af601f8201601f191660200162000237565b818152846020838601011115620002c557600080fd5b816020850160208301376000918101602001919091529392505050565b80356001600160a01b0381168114620002fa57600080fd5b919050565b600061012082840312156200031357600080fd5b6200031d62000197565b9050813567ffffffffffffffff808211156200033857600080fd5b62000346858386016200026b565b835260208401359150808211156200035d57600080fd5b6200036b858386016200026b565b602084015260408401359150808211156200038557600080fd5b62000393858386016200026b565b60408401526060840135915080821115620003ad57600080fd5b620003bb858386016200026b565b60608401526080840135915080821115620003d557600080fd5b620003e3858386016200026b565b608084015260a0840135915080821115620003fd57600080fd5b6200040b858386016200026b565b60a084015260c08401359150808211156200042557600080fd5b62000433858386016200026b565b60c084015260e08401359150808211156200044d57600080fd5b506200045c848285016200026b565b60e08301525061010062000472818401620002e2565b9082015292915050565b80356fffffffffffffffffffffffffffffffff81168114620002fa57600080fd5b80358015158114620002fa57600080fd5b600060408284031215620004c157600080fd5b620004cb620001c4565b9050620004d8826200047c565b81526020820135602082015292915050565b803560028110620002fa57600080fd5b600061022082840312156200050e57600080fd5b62000518620001ea565b9050813567ffffffffffffffff808211156200053357600080fd5b6200054185838601620002ff565b835262000551602085016200047c565b602084015262000564604085016200047c565b604084015262000577606085016200047c565b60608401526080840135608084015260a084013560a084015260c084013560c0840152620005a860e085016200049d565b60e08401526101009150620005bf8285016200049d565b828401526101209150620005d58285016200049d565b828401526101409150620005eb8285016200049d565b828401526101609150620006018285016200049d565b8284015261018091506200061885838601620004ae565b828401526101c0915081840135818111156200063357600080fd5b62000641868287016200026b565b6101a085015250506101e062000659818501620004ea565b828401526200066c6102008501620002e2565b908301525092915050565b60008082840360408112156200068c57600080fd5b833567ffffffffffffffff80821115620006a557600080fd5b620006b387838801620004fa565b94506020601f1984011215620006c857600080fd5b620006d262000211565b9250602086013591508082168214620006ea57600080fd5b508152919491935090915050565b600080604083850312156200070c57600080fd5b823567ffffffffffffffff808211156200072557600080fd5b6200073386838701620004fa565b93506020915081850135818111156200074b57600080fd5b85018087038313156200075d57600080fd5b6200076762000211565b8135838111156200077757600080fd5b80830192505087601f8301126200078d57600080fd5b813583811115620007a257620007a262000181565b8060051b620007b386820162000237565b918252838101860191868101908b841115620007ce57600080fd5b87860192505b838310156200085957823587811115620007ee5760008081fd5b86016040818e03601f19011215620008065760008081fd5b62000810620001c4565b8982013589811115620008235760008081fd5b620008338f8c83860101620002ff565b82525062000844604083016200047c565b818b01528352509187019190870190620007d4565b8452509699919850909650505050505050565b6000815180845260005b81811015620008945760208185018101518683018201520162000876565b506000602082860101526020601f19601f83011685010191505092915050565b60006101208251818552620008cc828601826200086c565b91505060208301518482036020860152620008e882826200086c565b915050604083015184820360408601526200090482826200086c565b915050606083015184820360608601526200092082826200086c565b915050608083015184820360808601526200093c82826200086c565b91505060a083015184820360a08601526200095882826200086c565b91505060c083015184820360c08601526200097482826200086c565b91505060e083015184820360e08601526200099082826200086c565b91505061010080840151620009af828701826001600160a01b03169052565b5090949350505050565b60028110620009d857634e487b7160e01b600052602160045260246000fd5b9052565b60006102208251818552620009f482860182620008b4565b915050602083015162000a1b60208601826fffffffffffffffffffffffffffffffff169052565b50604083015162000a4060408601826fffffffffffffffffffffffffffffffff169052565b50606083015162000a6560608601826fffffffffffffffffffffffffffffffff169052565b506080830151608085015260a083015160a085015260c083015160c085015260e083015162000a9860e086018215159052565b50610100838101511515908501526101208084015115159085015261014080840151151590850152610160808401511515908501526101808084015180516fffffffffffffffffffffffffffffffff1691860191909152602001516101a0808601919091528301518482036101c08087019190915262000b1983836200086c565b9250808501519150506101e062000b3381870183620009b9565b8401516001600160a01b0381166102008701529050509392505050565b60408152600062000b656040830185620009dc565b905067ffffffffffffffff83511660208301529392505050565b6000604080835262000b9481840186620009dc565b83810360208581019190915285518183528051838301819052600581901b84018501918301908585019060005b8181101562000c1857868503603f190183528351805189875262000be88a880182620008b4565b918801516fffffffffffffffffffffffffffffffff16968801969096529450928501929185019160010162000bc1565b50929a995050505050505050505056fe608060405260016004553480156200001657600080fd5b50604051620021833803806200218383398101604081905262000039916200067b565b81518051839182916006919082908190620000559082620008b7565b50602082015160018201906200006c9082620008b7565b5060408201516002820190620000839082620008b7565b50606082015160038201906200009a9082620008b7565b5060808201516004820190620000b19082620008b7565b5060a08201516005820190620000c89082620008b7565b5060c08201516006820190620000df9082620008b7565b5060e08201516007820190620000f69082620008b7565b506101009182015160089190910180546001600160a01b0319166001600160a01b0390921691909117905560208381015160408501516001600160801b03918216600160801b918316919091021760098501556060850151600a850180546001600160801b03199081169284169290921790556080860151600b86015560a0860151600c86015560c0860151600d86015560e0860151600e86018054888701516101208a01516101408b01516101608c015161ffff1990941695151561ff001916959095179115159098021763ffff00001916620100009715159790970263ff0000001916969096176301000000921515929092029190911760ff60201b191664010000000095151595909502949094179093556101808501518051600f86018054909516921691909117909255015160108201556101a08201516011820190620002429082620008b7565b506101c082015160128201805460ff19166001838181111562000269576200026962000983565b02179055506101e0919091015160129091018054610100600160a81b0319166101006001600160a01b03909316929092029190911790555051601b80546001600160401b0319166001600160401b039092169190911790555062000999565b634e487b7160e01b600052604160045260246000fd5b60405161012081016001600160401b0381118282101715620003045762000304620002c8565b60405290565b60405161020081016001600160401b0381118282101715620003045762000304620002c8565b604051601f8201601f191681016001600160401b03811182821017156200035b576200035b620002c8565b604052919050565b600082601f8301126200037557600080fd5b81516001600160401b03811115620003915762000391620002c8565b6020620003a7601f8301601f1916820162000330565b8281528582848701011115620003bc57600080fd5b60005b83811015620003dc578581018301518282018401528201620003bf565b506000928101909101919091529392505050565b80516001600160a01b03811681146200040857600080fd5b919050565b600061012082840312156200042157600080fd5b6200042b620002de565b82519091506001600160401b03808211156200044657600080fd5b620004548583860162000363565b835260208401519150808211156200046b57600080fd5b620004798583860162000363565b602084015260408401519150808211156200049357600080fd5b620004a18583860162000363565b60408401526060840151915080821115620004bb57600080fd5b620004c98583860162000363565b60608401526080840151915080821115620004e357600080fd5b620004f18583860162000363565b608084015260a08401519150808211156200050b57600080fd5b620005198583860162000363565b60a084015260c08401519150808211156200053357600080fd5b620005418583860162000363565b60c084015260e08401519150808211156200055b57600080fd5b506200056a8482850162000363565b60e08301525061010062000580818401620003f0565b9082015292915050565b80516001600160801b03811681146200040857600080fd5b805180151581146200040857600080fd5b600060408284031215620005c657600080fd5b604080519081016001600160401b0381118282101715620005eb57620005eb620002c8565b604052905080620005fc836200058a565b8152602083015160208201525092915050565b8051600281106200040857600080fd5b6000602082840312156200063257600080fd5b604051602081016001600160401b038082118383101715620006585762000658620002c8565b816040528293508451915080821682146200067257600080fd5b50905292915050565b600080604083850312156200068f57600080fd5b82516001600160401b0380821115620006a757600080fd5b908401906102208287031215620006bd57600080fd5b620006c76200030a565b825182811115620006d757600080fd5b620006e5888286016200040d565b825250620006f6602084016200058a565b602082015262000709604084016200058a565b60408201526200071c606084016200058a565b60608201526080830151608082015260a083015160a082015260c083015160c08201526200074d60e08401620005a2565b60e082015261010062000762818501620005a2565b9082015261012062000776848201620005a2565b908201526101406200078a848201620005a2565b908201526101606200079e848201620005a2565b90820152610180620007b388858301620005b3565b908201526101c08381015183811115620007cc57600080fd5b620007da8982870162000363565b6101a0840152506101e09250620007f38385016200060f565b90820152620008066102008401620003f0565b828201528094505050506200081f84602085016200061f565b90509250929050565b600181811c908216806200083d57607f821691505b6020821081036200085e57634e487b7160e01b600052602260045260246000fd5b50919050565b601f821115620008b257600081815260208120601f850160051c810160208610156200088d5750805b601f850160051c820191505b81811015620008ae5782815560010162000899565b5050505b505050565b81516001600160401b03811115620008d357620008d3620002c8565b620008eb81620008e4845462000828565b8462000864565b602080601f8311600181146200092357600084156200090a5750858301515b600019600386901b1c1916600185901b178555620008ae565b600085815260208120601f198616915b82811015620009545788860151825594840194600190910190840162000933565b5085821015620009735787850151600019600388901b60f8161c191681555b5050505050600190811b01905550565b634e487b7160e01b600052602160045260246000fd5b6117da80620009a96000396000f3fe6080604052600436106101a45760003560e01c806363a6bcbb116100e1578063a60496501161008a578063d48d622911610064578063d48d622914610610578063dbd1838814610625578063ec21858f1461064a578063f5aa02001461067257600080fd5b8063a6049650146105b8578063b0141ed4146105d6578063cc9ba6fa146105ee57600080fd5b80639471ca5c116100bb5780639471ca5c146105255780639507b8781461054557806395dcc90a1461056457600080fd5b806363a6bcbb146104ba5780636e04ff0d146104d957806372ef31511461050757600080fd5b80632e1a7d4d1161014e5780634585e33b116101285780634585e33b146104525780634f7d38291461047257806352e9c64c1461049257806362ba912a146104b257600080fd5b80632e1a7d4d146103f6578063378c93ad146104095780633db96d5f1461042957600080fd5b80631c0bab141161017f5780631c0bab141461039f578063248f0f97146103c15780632b140f4f146103d657600080fd5b806285ce021461032357806301b01c861461034e57806312704a421461036d57600080fd5b3661031e576014546301000000900460ff166101d35760405163c60d361f60e01b815260040160405180910390fd5b601454610100900460ff1661029d57600f54601554610205916001600160801b03600160801b90910481169116611463565b6001600160801b03166019544261021c919061148a565b111561023b57604051631932f4cb60e21b815260040160405180910390fd5b612710610251670de0b6b3a764000060016114a3565b61025b91906114ba565b60165461026990349061148a565b111561028857604051631b44afc760e31b815260040160405180910390fd5b426019556014805461ff001916610100179055005b6127106102b3670de0b6b3a764000060016114a3565b6102bd91906114ba565b6012546102cb90349061148a565b1115610303576040517f7684b8c400000000000000000000000000000000000000000000000000000000815260040160405180910390fd5b426019556014805464ff000000001916640100000000179055005b600080fd5b34801561032f57600080fd5b50610338610687565b6040516103459190611522565b60405180910390f35b34801561035a57600080fd5b506012545b604051908152602001610345565b34801561037957600080fd5b506010546001600160801b03165b6040516001600160801b039091168152602001610345565b3480156103ab57600080fd5b506103bf6103ba366004611637565b610b96565b005b3480156103cd57600080fd5b5060135461035f565b3480156103e257600080fd5b5060185460ff166040516103459190611660565b6103bf610404366004611688565b610c07565b34801561041557600080fd5b506103bf610424366004611637565b610ca9565b34801561043557600080fd5b50601454610100900460ff165b6040519015158152602001610345565b34801561045e57600080fd5b506103bf61046d3660046116a1565b610d18565b34801561047e57600080fd5b506103bf61048d366004611637565b610db1565b34801561049e57600080fd5b506103bf6104ad366004611637565b610e17565b6103bf610e84565b3480156104c657600080fd5b50601b5467ffffffffffffffff1661035f565b3480156104e557600080fd5b506104f96104f43660046116a1565b611021565b604051610345929190611713565b34801561051357600080fd5b50600f546001600160801b0316610387565b34801561053157600080fd5b506103bf610540366004611637565b61114e565b34801561055157600080fd5b506014546301000000900460ff16610442565b34801561057057600080fd5b506040805180820182526000808252602091820152815180830183526015546001600160801b0316808252601654918301918252835190815290519181019190915201610345565b3480156105c457600080fd5b5060145462010000900460ff16610442565b3480156105e257600080fd5b5060145460ff16610442565b3480156105fa57600080fd5b506106036111c1565b6040516103459190611736565b34801561061c57600080fd5b506103bf611256565b34801561063157600080fd5b50600f54600160801b90046001600160801b0316610387565b34801561065657600080fd5b50600e546040516001600160a01b039091168152602001610345565b34801561067e57600080fd5b5061044261132a565b6106df604051806101200160405280606081526020016060815260200160608152602001606081526020016060815260200160608152602001606081526020016060815260200160006001600160a01b031681525090565b60408051610120810190915260068054829082906106fc90611749565b80601f016020809104026020016040519081016040528092919081815260200182805461072890611749565b80156107755780601f1061074a57610100808354040283529160200191610775565b820191906000526020600020905b81548152906001019060200180831161075857829003601f168201915b5050505050815260200160018201805461078e90611749565b80601f01602080910402602001604051908101604052809291908181526020018280546107ba90611749565b80156108075780601f106107dc57610100808354040283529160200191610807565b820191906000526020600020905b8154815290600101906020018083116107ea57829003601f168201915b5050505050815260200160028201805461082090611749565b80601f016020809104026020016040519081016040528092919081815260200182805461084c90611749565b80156108995780601f1061086e57610100808354040283529160200191610899565b820191906000526020600020905b81548152906001019060200180831161087c57829003601f168201915b505050505081526020016003820180546108b290611749565b80601f01602080910402602001604051908101604052809291908181526020018280546108de90611749565b801561092b5780601f106109005761010080835404028352916020019161092b565b820191906000526020600020905b81548152906001019060200180831161090e57829003601f168201915b5050505050815260200160048201805461094490611749565b80601f016020809104026020016040519081016040528092919081815260200182805461097090611749565b80156109bd5780601f10610992576101008083540402835291602001916109bd565b820191906000526020600020905b8154815290600101906020018083116109a057829003601f168201915b505050505081526020016005820180546109d690611749565b80601f0160208091040260200160405190810160405280929190818152602001828054610a0290611749565b8015610a4f5780601f10610a2457610100808354040283529160200191610a4f565b820191906000526020600020905b815481529060010190602001808311610a3257829003601f168201915b50505050508152602001600682018054610a6890611749565b80601f0160208091040260200160405190810160405280929190818152602001828054610a9490611749565b8015610ae15780601f10610ab657610100808354040283529160200191610ae1565b820191906000526020600020905b815481529060010190602001808311610ac457829003601f168201915b50505050508152602001600782018054610afa90611749565b80601f0160208091040260200160405190810160405280929190818152602001828054610b2690611749565b8015610b735780601f10610b4857610100808354040283529160200191610b73565b820191906000526020600020905b815481529060010190602001808311610b5657829003601f168201915b5050509183525050600891909101546001600160a01b0316602090910152919050565b600e546001600160a01b031633141580610bc0575060185461010090046001600160a01b03163314155b80610bcb5750333014155b15610be957604051630e2f7eff60e31b815260040160405180910390fd5b6014805491151563010000000263ff00000019909216919091179055565b60145462010000900460ff16610c305760405163608bc83960e11b815260040160405180910390fd5b601b54600090610c4b9067ffffffffffffffff166064611783565b610c5f9067ffffffffffffffff16836114a3565b600e546040519192506001600160a01b0316906108fc8315029083906000818181858888f19350505050158015610c9a573d6000803e3d6000fd5b50610ca5600161114e565b5050565b600e546001600160a01b031633141580610cd3575060185461010090046001600160a01b03163314155b80610cde5750333014155b15610cfc57604051630e2f7eff60e31b815260040160405180910390fd5b60148054911515620100000262ff000019909216919091179055565b6014805464ff0000000019169055600f54601954600160801b9091046001600160801b031690610d48904261148a565b1115610d5a576014805461ff00191690555b601554600f54610d7d916001600160801b0390811691600160801b900416611463565b6001600160801b031660195442610d94919061148a565b1115610ca5576014805463ff000000191663010000001790555050565b600e546001600160a01b031633141580610ddb575060185461010090046001600160a01b03163314155b80610de65750333014155b15610e0457604051630e2f7eff60e31b815260040160405180910390fd5b6014805460ff1916911515919091179055565b600e546001600160a01b031633141580610e41575060185461010090046001600160a01b03163314155b80610e4c5750333014155b15610e6a57604051630e2f7eff60e31b815260040160405180910390fd5b601480549115156101000261ff0019909216919091179055565b600e546001600160a01b031633141580610eae575060185461010090046001600160a01b03163314155b80610eb95750333014155b15610ed757604051630e2f7eff60e31b815260040160405180910390fd5b6014546301000000900460ff16610f015760405163c60d361f60e01b815260040160405180910390fd5b601454610100900460ff16610f42576040517f8d8d689b00000000000000000000000000000000000000000000000000000000815260040160405180910390fd5b60145460ff1615610f6657604051631a4c0efb60e21b815260040160405180910390fd5b600f54601554610f89916001600160801b03600160801b90910481169116611463565b6001600160801b031660195442610fa0919061148a565b1115610fbf57604051631932f4cb60e21b815260040160405180910390fd5b612710610fd5670de0b6b3a764000060016114a3565b610fdf91906114ba565b601654610fed90349061148a565b101561100c57604051631b44afc760e31b815260040160405180910390fd5b426019556014805461ff001916610100179055565b6014546000906060906301000000900460ff161561107357505060408051808201909152601481527f506f6c696379206973207465726d696e6174656400000000000000000000000060208201526000905b601454610100900460ff166110fc57601554600f546110a5916001600160801b0390811691600160801b900416611463565b6001600160801b0316601954426110bc919061148a565b11156110fc57505060408051808201909152601681527f5265766976616c20706572696f64206973206f7665720000000000000000000060208201526000905b60115460195461110c904261148a565b1191506040518060400160405280601081526020017f55706b656570206973206e65656465640000000000000000000000000000000081525090509250929050565b600e546001600160a01b031633141580611178575060185461010090046001600160a01b03163314155b806111835750333014155b156111a157604051630e2f7eff60e31b815260040160405180910390fd5b601480549115156401000000000264ff0000000019909216919091179055565b6060600660110180546111d390611749565b80601f01602080910402602001604051908101604052809291908181526020018280546111ff90611749565b801561124c5780601f106112215761010080835404028352916020019161124c565b820191906000526020600020905b81548152906001019060200180831161122f57829003601f168201915b5050505050905090565b600e546001600160a01b031633141580611280575060185461010090046001600160a01b03163314155b8061128b5750333014155b156112a957604051630e2f7eff60e31b815260040160405180910390fd5b6014546301000000900460ff16156112d45760405163c60d361f60e01b815260040160405180910390fd5b6014805463ff000000191663010000001790556018546040516001600160a01b0361010090920491909116904780156108fc02916000818181858888f19350505050158015611327573d6000803e3d6000fd5b50565b600e546000906001600160a01b031633141580611357575060185461010090046001600160a01b03163314155b806113625750333014155b1561138057604051630e2f7eff60e31b815260040160405180910390fd5b6014546301000000900460ff166113aa5760405163c60d361f60e01b815260040160405180910390fd5b601454610100900460ff16156113ec576040517f8966b51f00000000000000000000000000000000000000000000000000000000815260040160405180910390fd5b60145462010000900460ff16156114165760405163608bc83960e11b815260040160405180910390fd5b60145460ff1661143957604051631a4c0efb60e21b815260040160405180910390fd5b506014805460ff1916600190811790915590565b634e487b7160e01b600052601160045260246000fd5b6001600160801b038181168382160190808211156114835761148361144d565b5092915050565b8181038181111561149d5761149d61144d565b92915050565b808202811582820484141761149d5761149d61144d565b6000826114d757634e487b7160e01b600052601260045260246000fd5b500490565b6000815180845260005b81811015611502576020818501810151868301820152016114e6565b506000602082860101526020601f19601f83011685010191505092915050565b60208152600082516101208060208501526115416101408501836114dc565b91506020850151601f198086850301604087015261155f84836114dc565b9350604087015191508086850301606087015261157c84836114dc565b9350606087015191508086850301608087015261159984836114dc565b935060808701519150808685030160a08701526115b684836114dc565b935060a08701519150808685030160c08701526115d384836114dc565b935060c08701519150808685030160e08701526115f084836114dc565b935060e0870151915061010081878603018188015261160f85846114dc565b9450808801519250505061162d828601826001600160a01b03169052565b5090949350505050565b60006020828403121561164957600080fd5b8135801515811461165957600080fd5b9392505050565b602081016002831061168257634e487b7160e01b600052602160045260246000fd5b91905290565b60006020828403121561169a57600080fd5b5035919050565b600080602083850312156116b457600080fd5b823567ffffffffffffffff808211156116cc57600080fd5b818501915085601f8301126116e057600080fd5b8135818111156116ef57600080fd5b86602082850101111561170157600080fd5b60209290920196919550909350505050565b821515815260406020820152600061172e60408301846114dc565b949350505050565b60208152600061165960208301846114dc565b600181811c9082168061175d57607f821691505b60208210810361177d57634e487b7160e01b600052602260045260246000fd5b50919050565b67ffffffffffffffff8281168282160390808211156114835761148361144d56fea2646970667358221220c8e5939eba366d030be16f62b245af3e824e35776a2e4fe2219f7cd575fb128064736f6c63430008120033608060405260016004553480156200001657600080fd5b50604051620030cc380380620030cc8339810160408190526200003991620008c1565b8151805183918291600691908290819062000055908262000b0f565b50602082015160018201906200006c908262000b0f565b506040820151600282019062000083908262000b0f565b50606082015160038201906200009a908262000b0f565b5060808201516004820190620000b1908262000b0f565b5060a08201516005820190620000c8908262000b0f565b5060c08201516006820190620000df908262000b0f565b5060e08201516007820190620000f6908262000b0f565b506101009182015160089190910180546001600160a01b0319166001600160a01b0390921691909117905560208381015160408501516001600160801b03918216600160801b918316919091021760098501556060850151600a850180546001600160801b03199081169284169290921790556080860151600b86015560a0860151600c86015560c0860151600d86015560e0860151600e86018054888701516101208a01516101408b01516101608c015161ffff1990941695151561ff001916959095179115159098021763ffff00001916620100009715159790970263ff0000001916969096176301000000921515929092029190911760ff60201b191664010000000095151595909502949094179093556101808501518051600f86018054909516921691909117909255015160108201556101a0820151601182019062000242908262000b0f565b506101c082015160128201805460ff19166001838181111562000269576200026962000bdb565b02179055506101e09190910151601290910180546001600160a01b0390921661010002610100600160a81b03199092169190911790555060005b8151518110156200040d5781518051601b919083908110620002c957620002c962000bf1565b602090810291909101810151825460018101845560009384529190922082518051600a909302909101918290819062000303908262000b0f565b50602082015160018201906200031a908262000b0f565b506040820151600282019062000331908262000b0f565b506060820151600382019062000348908262000b0f565b50608082015160048201906200035f908262000b0f565b5060a0820151600582019062000376908262000b0f565b5060c082015160068201906200038d908262000b0f565b5060e08201516007820190620003a4908262000b0f565b506101009190910151600890910180546001600160a01b0319166001600160a01b0390921691909117905560209190910151600990910180546001600160801b0319166001600160801b0390921691909117905580620004048162000c07565b915050620002a3565b50505062000c2f565b634e487b7160e01b600052604160045260246000fd5b60405161012081016001600160401b038111828210171562000452576200045262000416565b60405290565b604080519081016001600160401b038111828210171562000452576200045262000416565b604051602081016001600160401b038111828210171562000452576200045262000416565b60405161020081016001600160401b038111828210171562000452576200045262000416565b604051601f8201601f191681016001600160401b0381118282101715620004f357620004f362000416565b604052919050565b600082601f8301126200050d57600080fd5b81516001600160401b0381111562000529576200052962000416565b60206200053f601f8301601f19168201620004c8565b82815285828487010111156200055457600080fd5b60005b838110156200057457858101830151828201840152820162000557565b506000928101909101919091529392505050565b80516001600160a01b0381168114620005a057600080fd5b919050565b60006101208284031215620005b957600080fd5b620005c36200042c565b82519091506001600160401b0380821115620005de57600080fd5b620005ec85838601620004fb565b835260208401519150808211156200060357600080fd5b6200061185838601620004fb565b602084015260408401519150808211156200062b57600080fd5b6200063985838601620004fb565b604084015260608401519150808211156200065357600080fd5b6200066185838601620004fb565b606084015260808401519150808211156200067b57600080fd5b6200068985838601620004fb565b608084015260a0840151915080821115620006a357600080fd5b620006b185838601620004fb565b60a084015260c0840151915080821115620006cb57600080fd5b620006d985838601620004fb565b60c084015260e0840151915080821115620006f357600080fd5b506200070284828501620004fb565b60e0830152506101006200071881840162000588565b9082015292915050565b80516001600160801b0381168114620005a057600080fd5b80518015158114620005a057600080fd5b6000604082840312156200075e57600080fd5b6200076862000458565b9050620007758262000722565b81526020820151602082015292915050565b805160028110620005a057600080fd5b60006020808385031215620007ab57600080fd5b620007b56200047d565b83519092506001600160401b0380821115620007d057600080fd5b818501915085601f830112620007e557600080fd5b815181811115620007fa57620007fa62000416565b8060051b6200080b858201620004c8565b91825283810185019185810190898411156200082657600080fd5b86860192505b83831015620008b257825185811115620008465760008081fd5b86016040818c03601f19018113156200085f5760008081fd5b6200086962000458565b89830151888111156200087c5760008081fd5b6200088c8e8c83870101620005a5565b8252506200089c82840162000722565b818b01528452505091860191908601906200082c565b87525094979650505050505050565b60008060408385031215620008d557600080fd5b82516001600160401b0380821115620008ed57600080fd5b9084019061022082870312156200090357600080fd5b6200090d620004a2565b8251828111156200091d57600080fd5b6200092b88828601620005a5565b8252506200093c6020840162000722565b60208201526200094f6040840162000722565b6040820152620009626060840162000722565b60608201526080830151608082015260a083015160a082015260c083015160c08201526200099360e084016200073a565b60e0820152610100620009a88185016200073a565b90820152610120620009bc8482016200073a565b90820152610140620009d08482016200073a565b90820152610160620009e48482016200073a565b90820152610180620009f9888583016200074b565b908201526101c0838101518381111562000a1257600080fd5b62000a2089828701620004fb565b6101a0840152506101e062000a3781860162000787565b8284015262000a4a610200860162000588565b9083015250602086015190945091508082111562000a6757600080fd5b5062000a768582860162000797565b9150509250929050565b600181811c9082168062000a9557607f821691505b60208210810362000ab657634e487b7160e01b600052602260045260246000fd5b50919050565b601f82111562000b0a57600081815260208120601f850160051c8101602086101562000ae55750805b601f850160051c820191505b8181101562000b065782815560010162000af1565b5050505b505050565b81516001600160401b0381111562000b2b5762000b2b62000416565b62000b438162000b3c845462000a80565b8462000abc565b602080601f83116001811462000b7b576000841562000b625750858301515b600019600386901b1c1916600185901b17855562000b06565b600085815260208120601f198616915b8281101562000bac5788860151825594840194600190910190840162000b8b565b508582101562000bcb5787850151600019600388901b60f8161c191681555b5050505050600190811b01905550565b634e487b7160e01b600052602160045260246000fd5b634e487b7160e01b600052603260045260246000fd5b60006001820162000c2857634e487b7160e01b600052601160045260246000fd5b5060010190565b61248d8062000c3f6000396000f3fe6080604052600436106101af5760003560e01c806362ba912a116100ec578063a60496501161008a578063d48d622911610064578063d48d622914610640578063dbd1838814610655578063ec21858f1461067a578063f5aa0200146106a257600080fd5b8063a6049650146105e8578063b0141ed414610606578063cc9ba6fa1461061e57600080fd5b80639471ca5c116100c65780639471ca5c146105335780639507b8781461055357806395dcc90a146105725780639636f67c146105c657600080fd5b806362ba912a146104df5780636e04ff0d146104e757806372ef31511461051557600080fd5b80632b140f4f116101595780633db96d5f116101335780633db96d5f146104565780634585e33b1461047f5780634f7d38291461049f57806352e9c64c146104bf57600080fd5b80632b140f4f1461040e578063378c93ad1461042e5780633ccfd60b1461044e57600080fd5b80631c0bab141161018a5780631c0bab14146103aa578063248f0f97146103cc57806324f1c53e146103e157600080fd5b806285ce021461032e57806301b01c861461035957806312704a421461037857600080fd5b36610329576014546301000000900460ff166101de5760405163c60d361f60e01b815260040160405180910390fd5b601454610100900460ff166102a857600f54601554610210916001600160801b03600160801b9091048116911661205f565b6001600160801b0316601954426102279190612086565b111561024657604051631932f4cb60e21b815260040160405180910390fd5b61271061025c670de0b6b3a7640000600161209f565b61026691906120b6565b601654610274903490612086565b111561029357604051631b44afc760e31b815260040160405180910390fd5b426019556014805461ff001916610100179055005b6127106102be670de0b6b3a7640000600161209f565b6102c891906120b6565b6012546102d6903490612086565b111561030e576040517f7684b8c400000000000000000000000000000000000000000000000000000000815260040160405180910390fd5b426019556014805464ff000000001916640100000000179055005b600080fd5b34801561033a57600080fd5b506103436106b7565b6040516103509190612212565b60405180910390f35b34801561036557600080fd5b506012545b604051908152602001610350565b34801561038457600080fd5b506010546001600160801b03165b6040516001600160801b039091168152602001610350565b3480156103b657600080fd5b506103ca6103c536600461222c565b610bc6565b005b3480156103d857600080fd5b5060135461036a565b3480156103ed57600080fd5b506104016103fc36600461224e565b610c37565b60405161035091906122a9565b34801561041a57600080fd5b5060185460ff1660405161035091906122bc565b34801561043a57600080fd5b506103ca61044936600461222c565b611147565b6103ca6111b6565b34801561046257600080fd5b50601454610100900460ff165b6040519015158152602001610350565b34801561048b57600080fd5b506103ca61049a3660046122e4565b61137c565b3480156104ab57600080fd5b506103ca6104ba36600461222c565b611415565b3480156104cb57600080fd5b506103ca6104da36600461222c565b61147b565b6103ca6114e8565b3480156104f357600080fd5b506105076105023660046122e4565b611685565b604051610350929190612356565b34801561052157600080fd5b50600f546001600160801b0316610392565b34801561053f57600080fd5b506103ca61054e36600461222c565b6117b2565b34801561055f57600080fd5b506014546301000000900460ff1661046f565b34801561057e57600080fd5b506040805180820182526000808252602091820152815180830183526015546001600160801b0316808252601654918301918252835190815290519181019190915201610350565b3480156105d257600080fd5b506105db611825565b6040516103509190612379565b3480156105f457600080fd5b5060145462010000900460ff1661046f565b34801561061257600080fd5b5060145460ff1661046f565b34801561062a57600080fd5b50610633611d4d565b60405161035091906123db565b34801561064c57600080fd5b506103ca611de2565b34801561066157600080fd5b50600f54600160801b90046001600160801b0316610392565b34801561068657600080fd5b50600e546040516001600160a01b039091168152602001610350565b3480156106ae57600080fd5b5061046f611eb6565b61070f604051806101200160405280606081526020016060815260200160608152602001606081526020016060815260200160608152602001606081526020016060815260200160006001600160a01b031681525090565b604080516101208101909152600680548290829061072c906123ee565b80601f0160208091040260200160405190810160405280929190818152602001828054610758906123ee565b80156107a55780601f1061077a576101008083540402835291602001916107a5565b820191906000526020600020905b81548152906001019060200180831161078857829003601f168201915b505050505081526020016001820180546107be906123ee565b80601f01602080910402602001604051908101604052809291908181526020018280546107ea906123ee565b80156108375780601f1061080c57610100808354040283529160200191610837565b820191906000526020600020905b81548152906001019060200180831161081a57829003601f168201915b50505050508152602001600282018054610850906123ee565b80601f016020809104026020016040519081016040528092919081815260200182805461087c906123ee565b80156108c95780601f1061089e576101008083540402835291602001916108c9565b820191906000526020600020905b8154815290600101906020018083116108ac57829003601f168201915b505050505081526020016003820180546108e2906123ee565b80601f016020809104026020016040519081016040528092919081815260200182805461090e906123ee565b801561095b5780601f106109305761010080835404028352916020019161095b565b820191906000526020600020905b81548152906001019060200180831161093e57829003601f168201915b50505050508152602001600482018054610974906123ee565b80601f01602080910402602001604051908101604052809291908181526020018280546109a0906123ee565b80156109ed5780601f106109c2576101008083540402835291602001916109ed565b820191906000526020600020905b8154815290600101906020018083116109d057829003601f168201915b50505050508152602001600582018054610a06906123ee565b80601f0160208091040260200160405190810160405280929190818152602001828054610a32906123ee565b8015610a7f5780601f10610a5457610100808354040283529160200191610a7f565b820191906000526020600020905b815481529060010190602001808311610a6257829003601f168201915b50505050508152602001600682018054610a98906123ee565b80601f0160208091040260200160405190810160405280929190818152602001828054610ac4906123ee565b8015610b115780601f10610ae657610100808354040283529160200191610b11565b820191906000526020600020905b815481529060010190602001808311610af457829003601f168201915b50505050508152602001600782018054610b2a906123ee565b80601f0160208091040260200160405190810160405280929190818152602001828054610b56906123ee565b8015610ba35780601f10610b7857610100808354040283529160200191610ba3565b820191906000526020600020905b815481529060010190602001808311610b8657829003601f168201915b5050509183525050600891909101546001600160a01b0316602090910152919050565b600e546001600160a01b031633141580610bf0575060185461010090046001600160a01b03163314155b80610bfb5750333014155b15610c1957604051630e2f7eff60e31b815260040160405180910390fd5b6014805491151563010000000263ff00000019909216919091179055565b610c3f611fd9565b601b80546001600160801b038416908110610c5c57610c5c612428565b90600052602060002090600a02016040518060400160405290816000820160405180610120016040529081600082018054610c96906123ee565b80601f0160208091040260200160405190810160405280929190818152602001828054610cc2906123ee565b8015610d0f5780601f10610ce457610100808354040283529160200191610d0f565b820191906000526020600020905b815481529060010190602001808311610cf257829003601f168201915b50505050508152602001600182018054610d28906123ee565b80601f0160208091040260200160405190810160405280929190818152602001828054610d54906123ee565b8015610da15780601f10610d7657610100808354040283529160200191610da1565b820191906000526020600020905b815481529060010190602001808311610d8457829003601f168201915b50505050508152602001600282018054610dba906123ee565b80601f0160208091040260200160405190810160405280929190818152602001828054610de6906123ee565b8015610e335780601f10610e0857610100808354040283529160200191610e33565b820191906000526020600020905b815481529060010190602001808311610e1657829003601f168201915b50505050508152602001600382018054610e4c906123ee565b80601f0160208091040260200160405190810160405280929190818152602001828054610e78906123ee565b8015610ec55780601f10610e9a57610100808354040283529160200191610ec5565b820191906000526020600020905b815481529060010190602001808311610ea857829003601f168201915b50505050508152602001600482018054610ede906123ee565b80601f0160208091040260200160405190810160405280929190818152602001828054610f0a906123ee565b8015610f575780601f10610f2c57610100808354040283529160200191610f57565b820191906000526020600020905b815481529060010190602001808311610f3a57829003601f168201915b50505050508152602001600582018054610f70906123ee565b80601f0160208091040260200160405190810160405280929190818152602001828054610f9c906123ee565b8015610fe95780601f10610fbe57610100808354040283529160200191610fe9565b820191906000526020600020905b815481529060010190602001808311610fcc57829003601f168201915b50505050508152602001600682018054611002906123ee565b80601f016020809104026020016040519081016040528092919081815260200182805461102e906123ee565b801561107b5780601f106110505761010080835404028352916020019161107b565b820191906000526020600020905b81548152906001019060200180831161105e57829003601f168201915b50505050508152602001600782018054611094906123ee565b80601f01602080910402602001604051908101604052809291908181526020018280546110c0906123ee565b801561110d5780601f106110e25761010080835404028352916020019161110d565b820191906000526020600020905b8154815290600101906020018083116110f057829003601f168201915b5050509183525050600891909101546001600160a01b0316602091820152908252600992909201546001600160801b031691015292915050565b600e546001600160a01b031633141580611171575060185461010090046001600160a01b03163314155b8061117c5750333014155b1561119a57604051630e2f7eff60e31b815260040160405180910390fd5b60148054911515620100000262ff000019909216919091179055565b6014546301000000900460ff16156111e15760405163c60d361f60e01b815260040160405180910390fd5b6000805b601b5481101561124157601b80548290811061120357611203612428565b600091825260209091206008600a9092020101546001600160a01b0316330361122f5760019150611241565b806112398161243e565b9150506111e5565b5080611279576040517f0473f6c100000000000000000000000000000000000000000000000000000000815260040160405180910390fd5b60145462010000900460ff166112a25760405163608bc83960e11b815260040160405180910390fd5b60135460005b601b5481101561136d57601b8054829081106112c6576112c6612428565b600091825260209091206008600a909202010154601b80546001600160a01b03909216916108fc916064918590811061130157611301612428565b600091825260209091206009600a909202010154611328906001600160801b03168661209f565b61133291906120b6565b6040518115909202916000818181858888f1935050505015801561135a573d6000803e3d6000fd5b50806113658161243e565b9150506112a8565b506113786001610bc6565b5050565b6014805464ff0000000019169055600f54601954600160801b9091046001600160801b0316906113ac9042612086565b11156113be576014805461ff00191690555b601554600f546113e1916001600160801b0390811691600160801b90041661205f565b6001600160801b0316601954426113f89190612086565b1115611378576014805463ff000000191663010000001790555050565b600e546001600160a01b03163314158061143f575060185461010090046001600160a01b03163314155b8061144a5750333014155b1561146857604051630e2f7eff60e31b815260040160405180910390fd5b6014805460ff1916911515919091179055565b600e546001600160a01b0316331415806114a5575060185461010090046001600160a01b03163314155b806114b05750333014155b156114ce57604051630e2f7eff60e31b815260040160405180910390fd5b601480549115156101000261ff0019909216919091179055565b600e546001600160a01b031633141580611512575060185461010090046001600160a01b03163314155b8061151d5750333014155b1561153b57604051630e2f7eff60e31b815260040160405180910390fd5b6014546301000000900460ff166115655760405163c60d361f60e01b815260040160405180910390fd5b601454610100900460ff166115a6576040517f8d8d689b00000000000000000000000000000000000000000000000000000000815260040160405180910390fd5b60145460ff16156115ca57604051631a4c0efb60e21b815260040160405180910390fd5b600f546015546115ed916001600160801b03600160801b9091048116911661205f565b6001600160801b0316601954426116049190612086565b111561162357604051631932f4cb60e21b815260040160405180910390fd5b612710611639670de0b6b3a7640000600161209f565b61164391906120b6565b601654611651903490612086565b101561167057604051631b44afc760e31b815260040160405180910390fd5b426019556014805461ff001916610100179055565b6014546000906060906301000000900460ff16156116d757505060408051808201909152601481527f506f6c696379206973207465726d696e6174656400000000000000000000000060208201526000905b601454610100900460ff1661176057601554600f54611709916001600160801b0390811691600160801b90041661205f565b6001600160801b0316601954426117209190612086565b111561176057505060408051808201909152601681527f5265766976616c20706572696f64206973206f7665720000000000000000000060208201526000905b6011546019546117709042612086565b1191506040518060400160405280601081526020017f55706b656570206973206e65656465640000000000000000000000000000000081525090509250929050565b600e546001600160a01b0316331415806117dc575060185461010090046001600160a01b03163314155b806117e75750333014155b1561180557604051630e2f7eff60e31b815260040160405180910390fd5b601480549115156401000000000264ff0000000019909216919091179055565b6060601b600001805480602002602001604051908101604052809291908181526020016000905b82821015611d44576000848152602090206040805161016081018252600a850290920180549091839190820190839082908290611888906123ee565b80601f01602080910402602001604051908101604052809291908181526020018280546118b4906123ee565b80156119015780601f106118d657610100808354040283529160200191611901565b820191906000526020600020905b8154815290600101906020018083116118e457829003601f168201915b5050505050815260200160018201805461191a906123ee565b80601f0160208091040260200160405190810160405280929190818152602001828054611946906123ee565b80156119935780601f1061196857610100808354040283529160200191611993565b820191906000526020600020905b81548152906001019060200180831161197657829003601f168201915b505050505081526020016002820180546119ac906123ee565b80601f01602080910402602001604051908101604052809291908181526020018280546119d8906123ee565b8015611a255780601f106119fa57610100808354040283529160200191611a25565b820191906000526020600020905b815481529060010190602001808311611a0857829003601f168201915b50505050508152602001600382018054611a3e906123ee565b80601f0160208091040260200160405190810160405280929190818152602001828054611a6a906123ee565b8015611ab75780601f10611a8c57610100808354040283529160200191611ab7565b820191906000526020600020905b815481529060010190602001808311611a9a57829003601f168201915b50505050508152602001600482018054611ad0906123ee565b80601f0160208091040260200160405190810160405280929190818152602001828054611afc906123ee565b8015611b495780601f10611b1e57610100808354040283529160200191611b49565b820191906000526020600020905b815481529060010190602001808311611b2c57829003601f168201915b50505050508152602001600582018054611b62906123ee565b80601f0160208091040260200160405190810160405280929190818152602001828054611b8e906123ee565b8015611bdb5780601f10611bb057610100808354040283529160200191611bdb565b820191906000526020600020905b815481529060010190602001808311611bbe57829003601f168201915b50505050508152602001600682018054611bf4906123ee565b80601f0160208091040260200160405190810160405280929190818152602001828054611c20906123ee565b8015611c6d5780601f10611c4257610100808354040283529160200191611c6d565b820191906000526020600020905b815481529060010190602001808311611c5057829003601f168201915b50505050508152602001600782018054611c86906123ee565b80601f0160208091040260200160405190810160405280929190818152602001828054611cb2906123ee565b8015611cff5780601f10611cd457610100808354040283529160200191611cff565b820191906000526020600020905b815481529060010190602001808311611ce257829003601f168201915b5050509183525050600891909101546001600160a01b0316602091820152908252600992909201546001600160801b031690820152908252600192909201910161184c565b50505050905090565b606060066011018054611d5f906123ee565b80601f0160208091040260200160405190810160405280929190818152602001828054611d8b906123ee565b8015611dd85780601f10611dad57610100808354040283529160200191611dd8565b820191906000526020600020905b815481529060010190602001808311611dbb57829003601f168201915b5050505050905090565b600e546001600160a01b031633141580611e0c575060185461010090046001600160a01b03163314155b80611e175750333014155b15611e3557604051630e2f7eff60e31b815260040160405180910390fd5b6014546301000000900460ff1615611e605760405163c60d361f60e01b815260040160405180910390fd5b6014805463ff000000191663010000001790556018546040516001600160a01b0361010090920491909116904780156108fc02916000818181858888f19350505050158015611eb3573d6000803e3d6000fd5b50565b600e546000906001600160a01b031633141580611ee3575060185461010090046001600160a01b03163314155b80611eee5750333014155b15611f0c57604051630e2f7eff60e31b815260040160405180910390fd5b6014546301000000900460ff16611f365760405163c60d361f60e01b815260040160405180910390fd5b601454610100900460ff1615611f78576040517f8966b51f00000000000000000000000000000000000000000000000000000000815260040160405180910390fd5b60145462010000900460ff1615611fa25760405163608bc83960e11b815260040160405180910390fd5b60145460ff16611fc557604051631a4c0efb60e21b815260040160405180910390fd5b506014805460ff1916600190811790915590565b604051806040016040528061203c604051806101200160405280606081526020016060815260200160608152602001606081526020016060815260200160608152602001606081526020016060815260200160006001600160a01b031681525090565b8152600060209091015290565b634e487b7160e01b600052601160045260246000fd5b6001600160801b0381811683821601908082111561207f5761207f612049565b5092915050565b8181038181111561209957612099612049565b92915050565b808202811582820484141761209957612099612049565b6000826120d357634e487b7160e01b600052601260045260246000fd5b500490565b6000815180845260005b818110156120fe576020818501810151868301820152016120e2565b506000602082860101526020601f19601f83011685010191505092915050565b60006101208251818552612134828601826120d8565b9150506020830151848203602086015261214e82826120d8565b9150506040830151848203604086015261216882826120d8565b9150506060830151848203606086015261218282826120d8565b9150506080830151848203608086015261219c82826120d8565b91505060a083015184820360a08601526121b682826120d8565b91505060c083015184820360c08601526121d082826120d8565b91505060e083015184820360e08601526121ea82826120d8565b91505061010080840151612208828701826001600160a01b03169052565b5090949350505050565b602081526000612225602083018461211e565b9392505050565b60006020828403121561223e57600080fd5b8135801515811461222557600080fd5b60006020828403121561226057600080fd5b81356001600160801b038116811461222557600080fd5b600081516040845261228c604085018261211e565b6020938401516001600160801b0316949093019390935250919050565b6020815260006122256020830184612277565b60208101600283106122de57634e487b7160e01b600052602160045260246000fd5b91905290565b600080602083850312156122f757600080fd5b823567ffffffffffffffff8082111561230f57600080fd5b818501915085601f83011261232357600080fd5b81358181111561233257600080fd5b86602082850101111561234457600080fd5b60209290920196919550909350505050565b821515815260406020820152600061237160408301846120d8565b949350505050565b6000602080830181845280855180835260408601915060408160051b870101925083870160005b828110156123ce57603f198886030184526123bc858351612277565b945092850192908501906001016123a0565b5092979650505050505050565b60208152600061222560208301846120d8565b600181811c9082168061240257607f821691505b60208210810361242257634e487b7160e01b600052602260045260246000fd5b50919050565b634e487b7160e01b600052603260045260246000fd5b60006001820161245057612450612049565b506001019056fea26469706673582212202d1e54115a71158ea230967a219f60b992bd6f1da9eb609a9e91c3e97e7ec82d64736f6c63430008120033a26469706673582212206977dba3601cd722c0653322b21fbdd1b2824019f9465daf3383d5a34d3a5c5b64736f6c63430008120033",
    "devdoc": {
        "kind": "dev",
        "methods": {},
        "version": 1
    },
    "userdoc": {
        "kind": "user",
        "methods": {},
        "version": 1
    },
    "storageLayout": {
        "storage": [],
        "types": null
    }
}