{
  "address": "0x0165878A594ca255338adfa4d48449f69242Eb8F",
  "abi": [
    {
      "inputs": [],
      "stateMutability": "nonpayable",
      "type": "constructor"
    },
    {
      "inputs": [],
      "name": "ContractTerminatedOrCancelled",
      "type": "error"
    },
    {
      "inputs": [],
      "name": "FundingError",
      "type": "error"
    },
    {
      "inputs": [],
      "name": "IncorrectAmountSent",
      "type": "error"
    },
    {
      "inputs": [],
      "name": "InvalidContractAddress",
      "type": "error"
    },
    {
      "inputs": [
        {
          "internalType": "address payable",
          "name": "contractAddress",
          "type": "address"
        }
      ],
      "name": "fundContract",
      "outputs": [],
      "stateMutability": "payable",
      "type": "function"
    }
  ],
  "transactionHash": "0x608f66ec12706568bbff631c6847e2b6add4e416a8a6a4fa6febf1af57d9172a",
  "args": [],
  "numDeployments": 1,
  "solcInputHash": "d8df2ede9f462cef9ce3d12ce03270ef",
  "bytecode": "0x608060405234801561001057600080fd5b506103c5806100206000396000f3fe60806040526004361061001e5760003560e01c8063e2e16e7514610023575b600080fd5b610036610031366004610324565b610038565b005b6000819050806001600160a01b0316639507b8786040518163ffffffff1660e01b8152600401602060405180830381865afa15801561007b573d6000803e3d6000fd5b505050506040513d601f19601f8201168201806040525081019061009f9190610354565b15801561010b5750806001600160a01b0316633db96d5f6040518163ffffffff1660e01b8152600401602060405180830381865afa1580156100e5573d6000803e3d6000fd5b505050506040513d601f19601f820116820180604052508101906101099190610354565b155b15610142576040517f0caa679800000000000000000000000000000000000000000000000000000000815260040160405180910390fd5b6001600160a01b03821615610183576040517fa710429d00000000000000000000000000000000000000000000000000000000815260040160405180910390fd5b806001600160a01b03166301b01c866040518163ffffffff1660e01b8152600401602060405180830381865afa1580156101c1573d6000803e3d6000fd5b505050506040513d601f19601f820116820180604052508101906101e59190610376565b34111561021e576040517f19a6bd0f00000000000000000000000000000000000000000000000000000000815260040160405180910390fd5b6000826001600160a01b03163460405160006040518083038185875af1925050503d806000811461026b576040519150601f19603f3d011682016040523d82523d6000602084013e610270565b606091505b5050905080156102f2576040517f9471ca5c000000000000000000000000000000000000000000000000000000008152600160048201526001600160a01b03831690639471ca5c90602401600060405180830381600087803b1580156102d557600080fd5b505af11580156102e9573d6000803e3d6000fd5b50505050505050565b6040517f806ad92600000000000000000000000000000000000000000000000000000000815260040160405180910390fd5b60006020828403121561033657600080fd5b81356001600160a01b038116811461034d57600080fd5b9392505050565b60006020828403121561036657600080fd5b8151801515811461034d57600080fd5b60006020828403121561038857600080fd5b505191905056fea26469706673582212203814054a3f10f7e899dd8ddc67dd6f8366992e66c170ce1417e3bd70ae6f868f64736f6c63430008120033",
  "devdoc": {
    "kind": "dev",
    "methods": {},
    "version": 1
  },
  "userdoc": {
    "kind": "user",
    "methods": {},
    "version": 1
  },
  "storageLayout": {
    "storage": [],
    "types": null
  }
}