{
  "address": "0x859Df887F2c83f932557e0Ab016b9A2D21CF3Ba5",
  "abi": [
    {
      "inputs": [
        {
          "internalType": "address",
          "name": "_link",
          "type": "address"
        },
        {
          "internalType": "address payable",
          "name": "baseInsurancePolicy",
          "type": "address"
        }
      ],
      "stateMutability": "nonpayable",
      "type": "constructor"
    },
    {
      "anonymous": false,
      "inputs": [
        {
          "indexed": true,
          "internalType": "bytes32",
          "name": "id",
          "type": "bytes32"
        }
      ],
      "name": "ChainlinkCancelled",
      "type": "event"
    },
    {
      "anonymous": false,
      "inputs": [
        {
          "indexed": true,
          "internalType": "bytes32",
          "name": "id",
          "type": "bytes32"
        }
      ],
      "name": "ChainlinkFulfilled",
      "type": "event"
    },
    {
      "anonymous": false,
      "inputs": [
        {
          "indexed": true,
          "internalType": "bytes32",
          "name": "id",
          "type": "bytes32"
        }
      ],
      "name": "ChainlinkRequested",
      "type": "event"
    },
    {
      "anonymous": false,
      "inputs": [
        {
          "indexed": false,
          "internalType": "bytes32",
          "name": "requestId",
          "type": "bytes32"
        },
        {
          "indexed": false,
          "internalType": "uint256",
          "name": "volume",
          "type": "uint256"
        }
      ],
      "name": "ClaimValidationDataReceived",
      "type": "event"
    },
    {
      "anonymous": false,
      "inputs": [
        {
          "indexed": true,
          "internalType": "address",
          "name": "from",
          "type": "address"
        },
        {
          "indexed": true,
          "internalType": "address",
          "name": "to",
          "type": "address"
        }
      ],
      "name": "OwnershipTransferRequested",
      "type": "event"
    },
    {
      "anonymous": false,
      "inputs": [
        {
          "indexed": true,
          "internalType": "address",
          "name": "from",
          "type": "address"
        },
        {
          "indexed": true,
          "internalType": "address",
          "name": "to",
          "type": "address"
        }
      ],
      "name": "OwnershipTransferred",
      "type": "event"
    },
    {
      "anonymous": false,
      "inputs": [
        {
          "indexed": true,
          "internalType": "bool",
          "name": "isClaimable",
          "type": "bool"
        }
      ],
      "name": "PolicyClaimable",
      "type": "event"
    },
    {
      "anonymous": false,
      "inputs": [
        {
          "indexed": true,
          "internalType": "bool",
          "name": "isTerminated",
          "type": "bool"
        }
      ],
      "name": "PolicyTerminated",
      "type": "event"
    },
    {
      "inputs": [],
      "name": "acceptOwnership",
      "outputs": [],
      "stateMutability": "nonpayable",
      "type": "function"
    },
    {
      "inputs": [
        {
          "internalType": "bytes32",
          "name": "_requestId",
          "type": "bytes32"
        },
        {
          "internalType": "bool",
          "name": "_isClaimValid",
          "type": "bool"
        }
      ],
      "name": "fulfill",
      "outputs": [],
      "stateMutability": "nonpayable",
      "type": "function"
    },
    {
      "inputs": [],
      "name": "owner",
      "outputs": [
        {
          "internalType": "address",
          "name": "",
          "type": "address"
        }
      ],
      "stateMutability": "view",
      "type": "function"
    },
    {
      "inputs": [
        {
          "internalType": "string",
          "name": "url",
          "type": "string"
        },
        {
          "internalType": "string",
          "name": "path",
          "type": "string"
        },
        {
          "internalType": "string",
          "name": "jobId",
          "type": "string"
        },
        {
          "internalType": "address",
          "name": "oracle",
          "type": "address"
        }
      ],
      "name": "requestClaimValidationData",
      "outputs": [
        {
          "internalType": "bytes32",
          "name": "requestId",
          "type": "bytes32"
        }
      ],
      "stateMutability": "nonpayable",
      "type": "function"
    },
    {
      "inputs": [
        {
          "internalType": "address",
          "name": "to",
          "type": "address"
        }
      ],
      "name": "transferOwnership",
      "outputs": [],
      "stateMutability": "nonpayable",
      "type": "function"
    }
  ],
  "transactionHash": "0x0eec75068395c24623f49695cba558d33e5ed8a6ba3369300d842b4411acc905",
  "args": [
    "0x326C977E6efc84E512bB9C30f76E30c160eD06FB",
    "0x0BD5a713D719D50687d495a8eD4ffC44E9411054"
  ],
  "numDeployments": 1,
  "solcInputHash": "3584b67a1cf570ba31fe7065dc9ea234",
  "bytecode": "0x608060405260016004553480156200001657600080fd5b50604051620013dd380380620013dd83398101604081905262000039916200020b565b3380600081620000905760405162461bcd60e51b815260206004820152601860248201527f43616e6e6f7420736574206f776e657220746f207a65726f000000000000000060448201526064015b60405180910390fd5b600680546001600160a01b0319166001600160a01b0384811691909117909155811615620000c357620000c38162000124565b505050620000d782620001d060201b60201c565b600a620000ee670de0b6b3a764000060016200024a565b620000fa919062000276565b600955600880546001600160a01b0319166001600160a01b03929092169190911790555062000299565b336001600160a01b038216036200017e5760405162461bcd60e51b815260206004820152601760248201527f43616e6e6f74207472616e7366657220746f2073656c66000000000000000000604482015260640162000087565b600780546001600160a01b0319166001600160a01b03838116918217909255600654604051919216907fed8889f560326eb138920d842192f0eb3dd22b4f139c87a2c57538e05bae127890600090a350565b600280546001600160a01b0319166001600160a01b0392909216919091179055565b6001600160a01b03811681146200020857600080fd5b50565b600080604083850312156200021f57600080fd5b82516200022c81620001f2565b60208401519092506200023f81620001f2565b809150509250929050565b80820281158282048414176200027057634e487b7160e01b600052601160045260246000fd5b92915050565b6000826200029457634e487b7160e01b600052601260045260246000fd5b500490565b61113480620002a96000396000f3fe608060405234801561001057600080fd5b50600436106100575760003560e01c806379ba50971461005c5780638da5cb5b14610066578063f2fde38b14610086578063fd68990a14610099578063fea55e72146100ac575b600080fd5b6100646100cd565b005b6006546040516001600160a01b0390911681526020015b60405180910390f35b610064610094366004610ce6565b610180565b6100646100a7366004610d0f565b610194565b6100bf6100ba366004610de1565b61037b565b60405190815260200161007d565b6007546001600160a01b031633146101255760405162461bcd60e51b815260206004820152601660248201527526bab9ba10313290383937b837b9b2b21037bbb732b960511b60448201526064015b60405180910390fd5b600680546001600160a01b0319808216339081179093556007805490911690556040516001600160a01b03909116919082907f8be0079c531659141344cd1fd0a4f28419497f9722a3daafe3b4186f6b6457e090600090a350565b61018861044e565b610191816104a3565b50565b60008281526005602052604090205482906001600160a01b0316331461020d5760405162461bcd60e51b815260206004820152602860248201527f536f75726365206d75737420626520746865206f7261636c65206f6620746865604482015267081c995c5d595cdd60c21b606482015260840161011c565b60008181526005602052604080822080546001600160a01b03191690555182917f7cc135e0cebb02c3480ae5d74d377283180a2601f8f644edf7987b009316c63a91a2604051821515907f75e8bf679b456ab8b429f1b46a1144190f4116f342e601330e334d0eb41584c290600090a28115156001036102eb5760085460405163378c93ad60e01b815283151560048201526001600160a01b039091169063378c93ad90602401600060405180830381600087803b1580156102ce57600080fd5b505af11580156102e2573d6000803e3d6000fd5b50505050505050565b600854604051630702eac560e21b8152600160048201526001600160a01b0390911690631c0bab1490602401600060405180830381600087803b15801561033157600080fd5b505af1158015610345573d6000803e3d6000fd5b5050604051600192507f03461f95cafdfb74dbd93034abcaadefc6fe976cd6a56be192fb8e926b1b23d89150600090a25b505050565b600380546001600160a01b0319166001600160a01b0383161790556000806103b36103a585610547565b30637eb44c8560e11b610566565b60408051808201909152600381526219d95d60ea1b60208201529091506103dc9082908861058b565b6040805180820190915260048152630e0c2e8d60e31b60208201526104039082908761058b565b60408051808201909152600581526474696d657360d81b6020820152670de0b6b3a764000090610435908390836105a9565b610441826009546105c7565b925050505b949350505050565b6006546001600160a01b031633146104a15760405162461bcd60e51b815260206004820152601660248201527527b7363c9031b0b63630b1363290313c9037bbb732b960511b604482015260640161011c565b565b336001600160a01b038216036104f55760405162461bcd60e51b815260206004820152601760248201527621b0b73737ba103a3930b739b332b9103a379039b2b63360491b604482015260640161011c565b600780546001600160a01b0319166001600160a01b03838116918217909255600654604051919216907fed8889f560326eb138920d842192f0eb3dd22b4f139c87a2c57538e05bae127890600090a350565b80516000908290820361055d5750600092915050565b50506020015190565b61056e610c7b565b610576610c7b565b610582818686866105ea565b95945050505050565b608083015161059a9083610627565b60808301516103769082610627565b60808301516105b89083610627565b6080830151610376908261063e565b6003546000906105e1906001600160a01b031684846106a0565b90505b92915050565b6105f2610c7b565b6106028560800151610100610733565b50509183526001600160a01b031660208301526001600160e01b031916604082015290565b610634826003835161078b565b6103768282610898565b6001600160401b031981121561065c5761065882826108b2565b5050565b6001600160401b038113156106755761065882826108f4565b60008112610689576106588260008361078b565b61065882600161069b84600019610e8f565b61078b565b6004546000906106b1816001610eb6565b600455835160408086015160808701515191516000936320214ca360e11b936106e99386938493923092918a91600191602401610f0f565b60408051601f198184030181529190526020810180516001600160e01b03166001600160e01b031990931692909217909152905061072986838684610917565b9695505050505050565b61073b610cb0565b610746602083610f77565b1561076e57610756602083610f77565b610761906020610f99565b61076b9083610eb6565b91505b506020828101829052604080518085526000815290920101905290565b6017816001600160401b0316116107b5576107af8360e0600585901b168317610a70565b50505050565b60ff816001600160401b0316116107f1576107db836018611fe0600586901b1617610a70565b506107af836001600160401b0383166001610a88565b61ffff816001600160401b03161161082e57610818836019611fe0600586901b1617610a70565b506107af836001600160401b0383166002610a88565b63ffffffff816001600160401b03161161086d5761085783601a611fe0600586901b1617610a70565b506107af836001600160401b0383166004610a88565b61088283601b611fe0600586901b1617610a70565b506107af836001600160401b0383166008610a88565b6108a0610cb0565b6105e183846000015151848551610aa1565b6108bd8260c3610a70565b50610658826108ce83600019610e8f565b6040516020016108e091815260200190565b604051602081830303815290604052610b7e565b6108ff8260c2610a70565b5061065882826040516020016108e091815260200190565b6040516001600160601b03193060601b1660208201526034810184905260009060540160408051808303601f1901815282825280516020918201206000818152600590925291812080546001600160a01b0319166001600160a01b038a1617905590925082917fb5e6e01e79f91267dc17b4e6314d5d4d03593d2ceee0fbb452b750bd70ea5af99190a2600254604051630200057560e51b81526001600160a01b0390911690634000aea0906109d590889087908790600401610fac565b6020604051808303816000875af11580156109f4573d6000803e3d6000fd5b505050506040513d601f19601f82011682018060405250810190610a189190610fd3565b6104465760405162461bcd60e51b815260206004820152602360248201527f756e61626c6520746f207472616e73666572416e6443616c6c20746f206f7261604482015262636c6560e81b606482015260840161011c565b610a78610cb0565b6105e18384600001515184610b8b565b610a90610cb0565b610446848560000151518585610bd9565b610aa9610cb0565b8251821115610ab757600080fd5b6020850151610ac68386610eb6565b1115610af957610af985610ae987602001518786610ae49190610eb6565b610c4d565b610af4906002610ff7565b610c64565b600080865180518760208301019350808887011115610b185787860182525b505050602084015b60208410610b585780518252610b37602083610eb6565b9150610b44602082610eb6565b9050610b51602085610f99565b9350610b20565b51815160001960208690036101000a019081169019919091161790525083949350505050565b610634826002835161078b565b610b93610cb0565b83602001518310610bb357610bb38485602001516002610af49190610ff7565b8351805160208583010184815350808503610bcf576001810182525b5093949350505050565b610be1610cb0565b6020850151610bf08584610eb6565b1115610c0457610c0485610ae98685610eb6565b60006001610c14846101006110f2565b610c1e9190610f99565b9050855183868201018583198251161781525080518487011115610c425783860181525b509495945050505050565b600081831115610c5e5750816105e4565b50919050565b8151610c708383610733565b506107af8382610898565b6040805160a081018252600080825260208201819052918101829052606081019190915260808101610cab610cb0565b905290565b604051806040016040528060608152602001600081525090565b80356001600160a01b0381168114610ce157600080fd5b919050565b600060208284031215610cf857600080fd5b6105e182610cca565b801515811461019157600080fd5b60008060408385031215610d2257600080fd5b823591506020830135610d3481610d01565b809150509250929050565b634e487b7160e01b600052604160045260246000fd5b600082601f830112610d6657600080fd5b81356001600160401b0380821115610d8057610d80610d3f565b604051601f8301601f19908116603f01168101908282118183101715610da857610da8610d3f565b81604052838152866020858801011115610dc157600080fd5b836020870160208301376000602085830101528094505050505092915050565b60008060008060808587031215610df757600080fd5b84356001600160401b0380821115610e0e57600080fd5b610e1a88838901610d55565b95506020870135915080821115610e3057600080fd5b610e3c88838901610d55565b94506040870135915080821115610e5257600080fd5b50610e5f87828801610d55565b925050610e6e60608601610cca565b905092959194509250565b634e487b7160e01b600052601160045260246000fd5b8181036000831280158383131683831282161715610eaf57610eaf610e79565b5092915050565b808201808211156105e4576105e4610e79565b6000815180845260005b81811015610eef57602081850181015186830182015201610ed3565b506000602082860101526020601f19601f83011685010191505092915050565b6001600160a01b0389811682526020820189905260408201889052861660608201526001600160e01b03198516608082015260a0810184905260c0810183905261010060e08201819052600090610f6883820185610ec9565b9b9a5050505050505050505050565b600082610f9457634e487b7160e01b600052601260045260246000fd5b500690565b818103818111156105e4576105e4610e79565b60018060a01b03841681528260208201526060604082015260006105826060830184610ec9565b600060208284031215610fe557600080fd5b8151610ff081610d01565b9392505050565b80820281158282048414176105e4576105e4610e79565b600181815b8085111561104957816000190482111561102f5761102f610e79565b8085161561103c57918102915b93841c9390800290611013565b509250929050565b600082611060575060016105e4565b8161106d575060006105e4565b8160018114611083576002811461108d576110a9565b60019150506105e4565b60ff84111561109e5761109e610e79565b50506001821b6105e4565b5060208310610133831016604e8410600b84101617156110cc575081810a6105e4565b6110d6838361100e565b80600019048211156110ea576110ea610e79565b029392505050565b60006105e1838361105156fea2646970667358221220b847ab21fbf446071c668c0b1b0351f6970b229c92c6d00e41f3f09291cf3b6264736f6c63430008120033",
  "devdoc": {
    "kind": "dev",
    "methods": {
      "requestClaimValidationData(string,string,string,address)": {
        "details": "Chainlink Any API Implementation",
        "params": {
          "jobId": "the jobId of the Chainlink node depending on the type of data you want to get",
          "oracle": "the associated oracle address to the API that you want to use note  The requestVolumeData function can be used to call any API and get the response note The function can be overidden to adjust according to the needs,  for example if you want to get multiple variables data",
          "path": "the path to the field that you want to retrieve in the JSON body of the response",
          "url": "the url of the API"
        }
      }
    },
    "version": 1
  },
  "userdoc": {
    "events": {
      "ClaimValidationDataReceived(bytes32,uint256)": {
        "notice": "note Events related to BaseInsurancePolicy contract"
      }
    },
    "kind": "user",
    "methods": {
      "acceptOwnership()": {
        "notice": "Allows an ownership transfer to be completed by the recipient."
      },
      "fulfill(bytes32,bool)": {
        "notice": "Receive the response in the form of uint256"
      },
      "owner()": {
        "notice": "Get the current owner"
      },
      "transferOwnership(address)": {
        "notice": "Allows an owner to begin transferring ownership to a new address, pending."
      }
    },
    "version": 1
  },
  "storageLayout": {
    "storage": [
      {
        "astId": 358,
        "contract": "contracts/v08/strategies/api/APICall.sol:APICall",
        "label": "s_ens",
        "offset": 0,
        "slot": "0",
        "type": "t_contract(ENSInterface)1375"
      },
      {
        "astId": 360,
        "contract": "contracts/v08/strategies/api/APICall.sol:APICall",
        "label": "s_ensNode",
        "offset": 0,
        "slot": "1",
        "type": "t_bytes32"
      },
      {
        "astId": 363,
        "contract": "contracts/v08/strategies/api/APICall.sol:APICall",
        "label": "s_link",
        "offset": 0,
        "slot": "2",
        "type": "t_contract(LinkTokenInterface)1470"
      },
      {
        "astId": 366,
        "contract": "contracts/v08/strategies/api/APICall.sol:APICall",
        "label": "s_oracle",
        "offset": 0,
        "slot": "3",
        "type": "t_contract(OperatorInterface)1550"
      },
      {
        "astId": 369,
        "contract": "contracts/v08/strategies/api/APICall.sol:APICall",
        "label": "s_requestCount",
        "offset": 0,
        "slot": "4",
        "type": "t_uint256"
      },
      {
        "astId": 373,
        "contract": "contracts/v08/strategies/api/APICall.sol:APICall",
        "label": "s_pendingRequests",
        "offset": 0,
        "slot": "5",
        "type": "t_mapping(t_bytes32,t_address)"
      },
      {
        "astId": 928,
        "contract": "contracts/v08/strategies/api/APICall.sol:APICall",
        "label": "s_owner",
        "offset": 0,
        "slot": "6",
        "type": "t_address"
      },
      {
        "astId": 930,
        "contract": "contracts/v08/strategies/api/APICall.sol:APICall",
        "label": "s_pendingOwner",
        "offset": 0,
        "slot": "7",
        "type": "t_address"
      },
      {
        "astId": 18376,
        "contract": "contracts/v08/strategies/api/APICall.sol:APICall",
        "label": "baseInsurancePolicyContract",
        "offset": 0,
        "slot": "8",
        "type": "t_contract(BaseInsurancePolicy)17698"
      },
      {
        "astId": 18394,
        "contract": "contracts/v08/strategies/api/APICall.sol:APICall",
        "label": "fee",
        "offset": 0,
        "slot": "9",
        "type": "t_uint256"
      }
    ],
    "types": {
      "t_address": {
        "encoding": "inplace",
        "label": "address",
        "numberOfBytes": "20"
      },
      "t_bytes32": {
        "encoding": "inplace",
        "label": "bytes32",
        "numberOfBytes": "32"
      },
      "t_contract(BaseInsurancePolicy)17698": {
        "encoding": "inplace",
        "label": "contract BaseInsurancePolicy",
        "numberOfBytes": "20"
      },
      "t_contract(ENSInterface)1375": {
        "encoding": "inplace",
        "label": "contract ENSInterface",
        "numberOfBytes": "20"
      },
      "t_contract(LinkTokenInterface)1470": {
        "encoding": "inplace",
        "label": "contract LinkTokenInterface",
        "numberOfBytes": "20"
      },
      "t_contract(OperatorInterface)1550": {
        "encoding": "inplace",
        "label": "contract OperatorInterface",
        "numberOfBytes": "20"
      },
      "t_mapping(t_bytes32,t_address)": {
        "encoding": "mapping",
        "key": "t_bytes32",
        "label": "mapping(bytes32 => address)",
        "numberOfBytes": "32",
        "value": "t_address"
      },
      "t_uint256": {
        "encoding": "inplace",
        "label": "uint256",
        "numberOfBytes": "32"
      }
    }
  }
}