{
  "address": "0x7eA23D7A612f5B33954f517ffAb5d27fD4B03E43",
  "abi": [
    {
      "inputs": [
        {
          "internalType": "address",
          "name": "_link",
          "type": "address"
        },
        {
          "internalType": "address payable",
          "name": "baseInsurancePolicy",
          "type": "address"
        }
      ],
      "stateMutability": "nonpayable",
      "type": "constructor"
    },
    {
      "anonymous": false,
      "inputs": [
        {
          "indexed": true,
          "internalType": "bytes32",
          "name": "id",
          "type": "bytes32"
        }
      ],
      "name": "ChainlinkCancelled",
      "type": "event"
    },
    {
      "anonymous": false,
      "inputs": [
        {
          "indexed": true,
          "internalType": "bytes32",
          "name": "id",
          "type": "bytes32"
        }
      ],
      "name": "ChainlinkFulfilled",
      "type": "event"
    },
    {
      "anonymous": false,
      "inputs": [
        {
          "indexed": true,
          "internalType": "bytes32",
          "name": "id",
          "type": "bytes32"
        }
      ],
      "name": "ChainlinkRequested",
      "type": "event"
    },
    {
      "anonymous": false,
      "inputs": [
        {
          "indexed": false,
          "internalType": "bytes32",
          "name": "requestId",
          "type": "bytes32"
        },
        {
          "indexed": false,
          "internalType": "uint256",
          "name": "volume",
          "type": "uint256"
        }
      ],
      "name": "ClaimValidationDataReceived",
      "type": "event"
    },
    {
      "anonymous": false,
      "inputs": [
        {
          "indexed": true,
          "internalType": "address",
          "name": "from",
          "type": "address"
        },
        {
          "indexed": true,
          "internalType": "address",
          "name": "to",
          "type": "address"
        }
      ],
      "name": "OwnershipTransferRequested",
      "type": "event"
    },
    {
      "anonymous": false,
      "inputs": [
        {
          "indexed": true,
          "internalType": "address",
          "name": "from",
          "type": "address"
        },
        {
          "indexed": true,
          "internalType": "address",
          "name": "to",
          "type": "address"
        }
      ],
      "name": "OwnershipTransferred",
      "type": "event"
    },
    {
      "anonymous": false,
      "inputs": [
        {
          "indexed": true,
          "internalType": "bool",
          "name": "isClaimable",
          "type": "bool"
        }
      ],
      "name": "PolicyClaimable",
      "type": "event"
    },
    {
      "anonymous": false,
      "inputs": [
        {
          "indexed": true,
          "internalType": "bool",
          "name": "isTerminated",
          "type": "bool"
        }
      ],
      "name": "PolicyTerminated",
      "type": "event"
    },
    {
      "inputs": [],
      "name": "acceptOwnership",
      "outputs": [],
      "stateMutability": "nonpayable",
      "type": "function"
    },
    {
      "inputs": [
        {
          "internalType": "bytes32",
          "name": "_requestId",
          "type": "bytes32"
        },
        {
          "internalType": "bool",
          "name": "_isClaimValid",
          "type": "bool"
        }
      ],
      "name": "fulfill",
      "outputs": [],
      "stateMutability": "nonpayable",
      "type": "function"
    },
    {
      "inputs": [],
      "name": "owner",
      "outputs": [
        {
          "internalType": "address",
          "name": "",
          "type": "address"
        }
      ],
      "stateMutability": "view",
      "type": "function"
    },
    {
      "inputs": [
        {
          "internalType": "string",
          "name": "url",
          "type": "string"
        },
        {
          "internalType": "string",
          "name": "path",
          "type": "string"
        },
        {
          "internalType": "bytes32",
          "name": "jobId",
          "type": "bytes32"
        },
        {
          "internalType": "address",
          "name": "oracle",
          "type": "address"
        }
      ],
      "name": "requestClaimValidationData",
      "outputs": [
        {
          "internalType": "bytes32",
          "name": "requestId",
          "type": "bytes32"
        }
      ],
      "stateMutability": "nonpayable",
      "type": "function"
    },
    {
      "inputs": [
        {
          "internalType": "address",
          "name": "to",
          "type": "address"
        }
      ],
      "name": "transferOwnership",
      "outputs": [],
      "stateMutability": "nonpayable",
      "type": "function"
    }
  ],
  "transactionHash": "0x54a05a38236cff66ffb81b79bd6f7979e1129557a95928e21901c7984704b316",
  "args": [
    "0x326C977E6efc84E512bB9C30f76E30c160eD06FB",
    "0xE20837dE434B7CEC7A177B8671a0fDD4916f34a1"
  ],
  "numDeployments": 1,
  "solcInputHash": "e32e0ac775fee8e52cfa22590da47cbd",
  "bytecode": "0x608060405260016004553480156200001657600080fd5b506040516200139b3803806200139b83398101604081905262000039916200020b565b3380600081620000905760405162461bcd60e51b815260206004820152601860248201527f43616e6e6f7420736574206f776e657220746f207a65726f000000000000000060448201526064015b60405180910390fd5b600680546001600160a01b0319166001600160a01b0384811691909117909155811615620000c357620000c38162000124565b505050620000d782620001d060201b60201c565b600a620000ee670de0b6b3a764000060016200024a565b620000fa919062000276565b600955600880546001600160a01b0319166001600160a01b03929092169190911790555062000299565b336001600160a01b038216036200017e5760405162461bcd60e51b815260206004820152601760248201527f43616e6e6f74207472616e7366657220746f2073656c66000000000000000000604482015260640162000087565b600780546001600160a01b0319166001600160a01b03838116918217909255600654604051919216907fed8889f560326eb138920d842192f0eb3dd22b4f139c87a2c57538e05bae127890600090a350565b600280546001600160a01b0319166001600160a01b0392909216919091179055565b6001600160a01b03811681146200020857600080fd5b50565b600080604083850312156200021f57600080fd5b82516200022c81620001f2565b60208401519092506200023f81620001f2565b809150509250929050565b80820281158282048414176200027057634e487b7160e01b600052601160045260246000fd5b92915050565b6000826200029457634e487b7160e01b600052601260045260246000fd5b500490565b6110f280620002a96000396000f3fe608060405234801561001057600080fd5b50600436106100575760003560e01c806379ba50971461005c5780638da5cb5b14610066578063f2fde38b14610086578063f5a87b2d14610099578063fd68990a146100ba575b600080fd5b6100646100cd565b005b6006546040516001600160a01b0390911681526020015b60405180910390f35b610064610094366004610cbf565b610180565b6100ac6100a7366004610d7c565b610194565b60405190815260200161007d565b6100646100c8366004610e07565b61025f565b6007546001600160a01b031633146101255760405162461bcd60e51b815260206004820152601660248201527526bab9ba10313290383937b837b9b2b21037bbb732b960511b60448201526064015b60405180910390fd5b600680546001600160a01b0319808216339081179093556007805490911690556040516001600160a01b03909116919082907f8be0079c531659141344cd1fd0a4f28419497f9722a3daafe3b4186f6b6457e090600090a350565b610188610446565b6101918161049b565b50565b600380546001600160a01b0319166001600160a01b0383161790556000806101c48430637eb44c8560e11b61053f565b60408051808201909152600381526219d95d60ea1b60208201529091506101ed90829088610564565b6040805180820190915260048152630e0c2e8d60e31b602082015261021490829087610564565b60408051808201909152600581526474696d657360d81b6020820152670de0b6b3a76400009061024690839083610582565b610252826009546105a0565b925050505b949350505050565b60008281526005602052604090205482906001600160a01b031633146102d85760405162461bcd60e51b815260206004820152602860248201527f536f75726365206d75737420626520746865206f7261636c65206f6620746865604482015267081c995c5d595cdd60c21b606482015260840161011c565b60008181526005602052604080822080546001600160a01b03191690555182917f7cc135e0cebb02c3480ae5d74d377283180a2601f8f644edf7987b009316c63a91a2604051821515907f75e8bf679b456ab8b429f1b46a1144190f4116f342e601330e334d0eb41584c290600090a28115156001036103b65760085460405163378c93ad60e01b815283151560048201526001600160a01b039091169063378c93ad90602401600060405180830381600087803b15801561039957600080fd5b505af11580156103ad573d6000803e3d6000fd5b50505050505050565b600854604051630702eac560e21b8152600160048201526001600160a01b0390911690631c0bab1490602401600060405180830381600087803b1580156103fc57600080fd5b505af1158015610410573d6000803e3d6000fd5b5050604051600192507f03461f95cafdfb74dbd93034abcaadefc6fe976cd6a56be192fb8e926b1b23d89150600090a25b505050565b6006546001600160a01b031633146104995760405162461bcd60e51b815260206004820152601660248201527527b7363c9031b0b63630b1363290313c9037bbb732b960511b604482015260640161011c565b565b336001600160a01b038216036104ed5760405162461bcd60e51b815260206004820152601760248201527621b0b73737ba103a3930b739b332b9103a379039b2b63360491b604482015260640161011c565b600780546001600160a01b0319166001600160a01b03838116918217909255600654604051919216907fed8889f560326eb138920d842192f0eb3dd22b4f139c87a2c57538e05bae127890600090a350565b610547610c54565b61054f610c54565b61055b818686866105c3565b95945050505050565b60808301516105739083610600565b60808301516104419082610600565b60808301516105919083610600565b60808301516104419082610617565b6003546000906105ba906001600160a01b03168484610679565b90505b92915050565b6105cb610c54565b6105db856080015161010061070c565b50509183526001600160a01b031660208301526001600160e01b031916604082015290565b61060d8260038351610764565b6104418282610871565b6001600160401b031981121561063557610631828261088b565b5050565b6001600160401b0381131561064e5761063182826108cd565b600081126106625761063182600083610764565b61063182600161067484600019610e4d565b610764565b60045460009061068a816001610e74565b600455835160408086015160808701515191516000936320214ca360e11b936106c29386938493923092918a91600191602401610ecd565b60408051601f198184030181529190526020810180516001600160e01b03166001600160e01b0319909316929092179091529050610702868386846108f0565b9695505050505050565b610714610c89565b61071f602083610f35565b156107475761072f602083610f35565b61073a906020610f57565b6107449083610e74565b91505b506020828101829052604080518085526000815290920101905290565b6017816001600160401b03161161078e576107888360e0600585901b168317610a49565b50505050565b60ff816001600160401b0316116107ca576107b4836018611fe0600586901b1617610a49565b50610788836001600160401b0383166001610a61565b61ffff816001600160401b031611610807576107f1836019611fe0600586901b1617610a49565b50610788836001600160401b0383166002610a61565b63ffffffff816001600160401b0316116108465761083083601a611fe0600586901b1617610a49565b50610788836001600160401b0383166004610a61565b61085b83601b611fe0600586901b1617610a49565b50610788836001600160401b0383166008610a61565b610879610c89565b6105ba83846000015151848551610a7a565b6108968260c3610a49565b50610631826108a783600019610e4d565b6040516020016108b991815260200190565b604051602081830303815290604052610b57565b6108d88260c2610a49565b5061063182826040516020016108b991815260200190565b6040516001600160601b03193060601b1660208201526034810184905260009060540160408051808303601f1901815282825280516020918201206000818152600590925291812080546001600160a01b0319166001600160a01b038a1617905590925082917fb5e6e01e79f91267dc17b4e6314d5d4d03593d2ceee0fbb452b750bd70ea5af99190a2600254604051630200057560e51b81526001600160a01b0390911690634000aea0906109ae90889087908790600401610f6a565b6020604051808303816000875af11580156109cd573d6000803e3d6000fd5b505050506040513d601f19601f820116820180604052508101906109f19190610f91565b6102575760405162461bcd60e51b815260206004820152602360248201527f756e61626c6520746f207472616e73666572416e6443616c6c20746f206f7261604482015262636c6560e81b606482015260840161011c565b610a51610c89565b6105ba8384600001515184610b64565b610a69610c89565b610257848560000151518585610bb2565b610a82610c89565b8251821115610a9057600080fd5b6020850151610a9f8386610e74565b1115610ad257610ad285610ac287602001518786610abd9190610e74565b610c26565b610acd906002610fb5565b610c3d565b600080865180518760208301019350808887011115610af15787860182525b505050602084015b60208410610b315780518252610b10602083610e74565b9150610b1d602082610e74565b9050610b2a602085610f57565b9350610af9565b51815160001960208690036101000a019081169019919091161790525083949350505050565b61060d8260028351610764565b610b6c610c89565b83602001518310610b8c57610b8c8485602001516002610acd9190610fb5565b8351805160208583010184815350808503610ba8576001810182525b5093949350505050565b610bba610c89565b6020850151610bc98584610e74565b1115610bdd57610bdd85610ac28685610e74565b60006001610bed846101006110b0565b610bf79190610f57565b9050855183868201018583198251161781525080518487011115610c1b5783860181525b509495945050505050565b600081831115610c375750816105bd565b50919050565b8151610c49838361070c565b506107888382610871565b6040805160a081018252600080825260208201819052918101829052606081019190915260808101610c84610c89565b905290565b604051806040016040528060608152602001600081525090565b80356001600160a01b0381168114610cba57600080fd5b919050565b600060208284031215610cd157600080fd5b6105ba82610ca3565b634e487b7160e01b600052604160045260246000fd5b600082601f830112610d0157600080fd5b81356001600160401b0380821115610d1b57610d1b610cda565b604051601f8301601f19908116603f01168101908282118183101715610d4357610d43610cda565b81604052838152866020858801011115610d5c57600080fd5b836020870160208301376000602085830101528094505050505092915050565b60008060008060808587031215610d9257600080fd5b84356001600160401b0380821115610da957600080fd5b610db588838901610cf0565b95506020870135915080821115610dcb57600080fd5b50610dd887828801610cf0565b93505060408501359150610dee60608601610ca3565b905092959194509250565b801515811461019157600080fd5b60008060408385031215610e1a57600080fd5b823591506020830135610e2c81610df9565b809150509250929050565b634e487b7160e01b600052601160045260246000fd5b8181036000831280158383131683831282161715610e6d57610e6d610e37565b5092915050565b808201808211156105bd576105bd610e37565b6000815180845260005b81811015610ead57602081850181015186830182015201610e91565b506000602082860101526020601f19601f83011685010191505092915050565b6001600160a01b0389811682526020820189905260408201889052861660608201526001600160e01b03198516608082015260a0810184905260c0810183905261010060e08201819052600090610f2683820185610e87565b9b9a5050505050505050505050565b600082610f5257634e487b7160e01b600052601260045260246000fd5b500690565b818103818111156105bd576105bd610e37565b60018060a01b038416815282602082015260606040820152600061055b6060830184610e87565b600060208284031215610fa357600080fd5b8151610fae81610df9565b9392505050565b80820281158282048414176105bd576105bd610e37565b600181815b80851115611007578160001904821115610fed57610fed610e37565b80851615610ffa57918102915b93841c9390800290610fd1565b509250929050565b60008261101e575060016105bd565b8161102b575060006105bd565b8160018114611041576002811461104b57611067565b60019150506105bd565b60ff84111561105c5761105c610e37565b50506001821b6105bd565b5060208310610133831016604e8410600b841016171561108a575081810a6105bd565b6110948383610fcc565b80600019048211156110a8576110a8610e37565b029392505050565b60006105ba838361100f56fea2646970667358221220969c376670850a9bdbce52a33dd892b91b5d54685692409adc03de05c8674f6164736f6c63430008120033",
  "devdoc": {
    "kind": "dev",
    "methods": {
      "requestClaimValidationData(string,string,bytes32,address)": {
        "details": "Chainlink Any API Implementation",
        "params": {
          "jobId": "the jobId of the Chainlink node depending on the type of data you want to get",
          "oracle": "the associated oracle address to the API that you want to use",
          "path": "the path to the field that you want to retrieve in the JSON body of the response",
          "url": "the url of the API"
        }
      }
    },
    "version": 1
  },
  "userdoc": {
    "events": {
      "ClaimValidationDataReceived(bytes32,uint256)": {
        "notice": "Events related to BaseInsurancePolicy contract"
      }
    },
    "kind": "user",
    "methods": {
      "acceptOwnership()": {
        "notice": "Allows an ownership transfer to be completed by the recipient."
      },
      "fulfill(bytes32,bool)": {
        "notice": "Receive the response in the form of uint256"
      },
      "owner()": {
        "notice": "Get the current owner"
      },
      "requestClaimValidationData(string,string,bytes32,address)": {
        "notice": "The requestVolumeData function can be used to call any API and get the responseThe function can be overidden to adjust according to the needs,  for example if you want to get multiple variables data"
      },
      "transferOwnership(address)": {
        "notice": "Allows an owner to begin transferring ownership to a new address, pending."
      }
    },
    "version": 1
  },
  "storageLayout": {
    "storage": [
      {
        "astId": 358,
        "contract": "contracts/v08/strategies/api/APICall.sol:APICall",
        "label": "s_ens",
        "offset": 0,
        "slot": "0",
        "type": "t_contract(ENSInterface)1375"
      },
      {
        "astId": 360,
        "contract": "contracts/v08/strategies/api/APICall.sol:APICall",
        "label": "s_ensNode",
        "offset": 0,
        "slot": "1",
        "type": "t_bytes32"
      },
      {
        "astId": 363,
        "contract": "contracts/v08/strategies/api/APICall.sol:APICall",
        "label": "s_link",
        "offset": 0,
        "slot": "2",
        "type": "t_contract(LinkTokenInterface)1470"
      },
      {
        "astId": 366,
        "contract": "contracts/v08/strategies/api/APICall.sol:APICall",
        "label": "s_oracle",
        "offset": 0,
        "slot": "3",
        "type": "t_contract(OperatorInterface)1550"
      },
      {
        "astId": 369,
        "contract": "contracts/v08/strategies/api/APICall.sol:APICall",
        "label": "s_requestCount",
        "offset": 0,
        "slot": "4",
        "type": "t_uint256"
      },
      {
        "astId": 373,
        "contract": "contracts/v08/strategies/api/APICall.sol:APICall",
        "label": "s_pendingRequests",
        "offset": 0,
        "slot": "5",
        "type": "t_mapping(t_bytes32,t_address)"
      },
      {
        "astId": 928,
        "contract": "contracts/v08/strategies/api/APICall.sol:APICall",
        "label": "s_owner",
        "offset": 0,
        "slot": "6",
        "type": "t_address"
      },
      {
        "astId": 930,
        "contract": "contracts/v08/strategies/api/APICall.sol:APICall",
        "label": "s_pendingOwner",
        "offset": 0,
        "slot": "7",
        "type": "t_address"
      },
      {
        "astId": 18350,
        "contract": "contracts/v08/strategies/api/APICall.sol:APICall",
        "label": "baseInsurancePolicyContract",
        "offset": 0,
        "slot": "8",
        "type": "t_contract(BaseInsurancePolicy)17672"
      },
      {
        "astId": 18368,
        "contract": "contracts/v08/strategies/api/APICall.sol:APICall",
        "label": "fee",
        "offset": 0,
        "slot": "9",
        "type": "t_uint256"
      }
    ],
    "types": {
      "t_address": {
        "encoding": "inplace",
        "label": "address",
        "numberOfBytes": "20"
      },
      "t_bytes32": {
        "encoding": "inplace",
        "label": "bytes32",
        "numberOfBytes": "32"
      },
      "t_contract(BaseInsurancePolicy)17672": {
        "encoding": "inplace",
        "label": "contract BaseInsurancePolicy",
        "numberOfBytes": "20"
      },
      "t_contract(ENSInterface)1375": {
        "encoding": "inplace",
        "label": "contract ENSInterface",
        "numberOfBytes": "20"
      },
      "t_contract(LinkTokenInterface)1470": {
        "encoding": "inplace",
        "label": "contract LinkTokenInterface",
        "numberOfBytes": "20"
      },
      "t_contract(OperatorInterface)1550": {
        "encoding": "inplace",
        "label": "contract OperatorInterface",
        "numberOfBytes": "20"
      },
      "t_mapping(t_bytes32,t_address)": {
        "encoding": "mapping",
        "key": "t_bytes32",
        "label": "mapping(bytes32 => address)",
        "numberOfBytes": "32",
        "value": "t_address"
      },
      "t_uint256": {
        "encoding": "inplace",
        "label": "uint256",
        "numberOfBytes": "32"
      }
    }
  }
}