{
  "address": "0x0BD5a713D719D50687d495a8eD4ffC44E9411054",
  "abi": [
    {
      "inputs": [
        {
          "components": [
            {
              "components": [
                {
                  "internalType": "string",
                  "name": "name",
                  "type": "string"
                },
                {
                  "internalType": "string",
                  "name": "dateOfBirth",
                  "type": "string"
                },
                {
                  "internalType": "string",
                  "name": "gender",
                  "type": "string"
                },
                {
                  "internalType": "string",
                  "name": "homeAddress",
                  "type": "string"
                },
                {
                  "internalType": "string",
                  "name": "phoneNumber",
                  "type": "string"
                },
                {
                  "internalType": "string",
                  "name": "pronouns",
                  "type": "string"
                },
                {
                  "internalType": "string",
                  "name": "email",
                  "type": "string"
                },
                {
                  "internalType": "string",
                  "name": "occupation",
                  "type": "string"
                },
                {
                  "internalType": "address payable",
                  "name": "policyHolderWalletAddress",
                  "type": "address"
                }
              ],
              "internalType": "struct SharedData.HumanDetails",
              "name": "policyHolder",
              "type": "tuple"
            },
            {
              "internalType": "uint128",
              "name": "policyTenure",
              "type": "uint128"
            },
            {
              "internalType": "uint128",
              "name": "gracePeriod",
              "type": "uint128"
            },
            {
              "internalType": "uint128",
              "name": "timeBeforeCommencement",
              "type": "uint128"
            },
            {
              "internalType": "uint256",
              "name": "timeInterval",
              "type": "uint256"
            },
            {
              "internalType": "uint256",
              "name": "premiumToBePaid",
              "type": "uint256"
            },
            {
              "internalType": "uint256",
              "name": "totalCoverageByPolicy",
              "type": "uint256"
            },
            {
              "internalType": "bool",
              "name": "hasClaimed",
              "type": "bool"
            },
            {
              "internalType": "bool",
              "name": "isPolicyActive",
              "type": "bool"
            },
            {
              "internalType": "bool",
              "name": "isClaimable",
              "type": "bool"
            },
            {
              "internalType": "bool",
              "name": "isTerminated",
              "type": "bool"
            },
            {
              "internalType": "bool",
              "name": "hasFundedForCurrentInterval",
              "type": "bool"
            },
            {
              "components": [
                {
                  "internalType": "uint128",
                  "name": "revivalPeriod",
                  "type": "uint128"
                },
                {
                  "internalType": "uint256",
                  "name": "revivalAmount",
                  "type": "uint256"
                }
              ],
              "internalType": "struct SharedData.RevivalRule",
              "name": "revivalRule",
              "type": "tuple"
            },
            {
              "internalType": "string",
              "name": "policyDetails",
              "type": "string"
            },
            {
              "internalType": "enum SharedData.PolicyType",
              "name": "policyType",
              "type": "uint8"
            },
            {
              "internalType": "address payable",
              "name": "policyManagerAddress",
              "type": "address"
            },
            {
              "internalType": "address[]",
              "name": "admins",
              "type": "address[]"
            },
            {
              "internalType": "address[]",
              "name": "collaborators",
              "type": "address[]"
            }
          ],
          "internalType": "struct SharedData.Policy",
          "name": "policy",
          "type": "tuple"
        },
        {
          "components": [
            {
              "components": [
                {
                  "components": [
                    {
                      "internalType": "string",
                      "name": "name",
                      "type": "string"
                    },
                    {
                      "internalType": "string",
                      "name": "dateOfBirth",
                      "type": "string"
                    },
                    {
                      "internalType": "string",
                      "name": "gender",
                      "type": "string"
                    },
                    {
                      "internalType": "string",
                      "name": "homeAddress",
                      "type": "string"
                    },
                    {
                      "internalType": "string",
                      "name": "phoneNumber",
                      "type": "string"
                    },
                    {
                      "internalType": "string",
                      "name": "pronouns",
                      "type": "string"
                    },
                    {
                      "internalType": "string",
                      "name": "email",
                      "type": "string"
                    },
                    {
                      "internalType": "string",
                      "name": "occupation",
                      "type": "string"
                    },
                    {
                      "internalType": "address payable",
                      "name": "policyHolderWalletAddress",
                      "type": "address"
                    }
                  ],
                  "internalType": "struct SharedData.HumanDetails",
                  "name": "nomineeDetails",
                  "type": "tuple"
                },
                {
                  "internalType": "uint128",
                  "name": "nomineeShare",
                  "type": "uint128"
                }
              ],
              "internalType": "struct SharedData.Nominee[]",
              "name": "nominees",
              "type": "tuple[]"
            }
          ],
          "internalType": "struct SharedData.LifePolicyParams",
          "name": "lifePolicyParams",
          "type": "tuple"
        },
        {
          "internalType": "address",
          "name": "_link",
          "type": "address"
        },
        {
          "internalType": "address",
          "name": "priceFeed",
          "type": "address"
        }
      ],
      "stateMutability": "nonpayable",
      "type": "constructor"
    },
    {
      "inputs": [
        {
          "internalType": "uint256",
          "name": "contractBalance",
          "type": "uint256"
        },
        {
          "internalType": "uint256",
          "name": "amount",
          "type": "uint256"
        }
      ],
      "name": "InsufficientBalance",
      "type": "error"
    },
    {
      "inputs": [],
      "name": "NotAllowedToWithdraw",
      "type": "error"
    },
    {
      "inputs": [],
      "name": "OnlyAdminAllowed",
      "type": "error"
    },
    {
      "inputs": [],
      "name": "OnlyManagerAllowed",
      "type": "error"
    },
    {
      "inputs": [],
      "name": "OnlySimulatedBackend",
      "type": "error"
    },
    {
      "inputs": [],
      "name": "PolicyActive",
      "type": "error"
    },
    {
      "inputs": [],
      "name": "PolicyAlreadyClaimable",
      "type": "error"
    },
    {
      "inputs": [],
      "name": "PolicyAlreadyClaimed",
      "type": "error"
    },
    {
      "inputs": [],
      "name": "PolicyAlreadyFundedForCurrentInterval",
      "type": "error"
    },
    {
      "inputs": [],
      "name": "PolicyNomineeNotFound",
      "type": "error"
    },
    {
      "inputs": [],
      "name": "PolicyNotActive",
      "type": "error"
    },
    {
      "inputs": [],
      "name": "PolicyNotClaimable",
      "type": "error"
    },
    {
      "inputs": [],
      "name": "PolicyNotFunded",
      "type": "error"
    },
    {
      "inputs": [],
      "name": "PolicyNotInGracePeriod",
      "type": "error"
    },
    {
      "inputs": [],
      "name": "PolicyNotMatured",
      "type": "error"
    },
    {
      "inputs": [],
      "name": "PolicyNotRevivable",
      "type": "error"
    },
    {
      "inputs": [],
      "name": "PolicyTerminated",
      "type": "error"
    },
    {
      "inputs": [],
      "name": "PremiumAmountNotCorrect",
      "type": "error"
    },
    {
      "inputs": [],
      "name": "RevivalAmountNotCorrect",
      "type": "error"
    },
    {
      "inputs": [],
      "name": "WithdrawingError",
      "type": "error"
    },
    {
      "anonymous": false,
      "inputs": [
        {
          "indexed": true,
          "internalType": "bytes32",
          "name": "id",
          "type": "bytes32"
        }
      ],
      "name": "ChainlinkCancelled",
      "type": "event"
    },
    {
      "anonymous": false,
      "inputs": [
        {
          "indexed": true,
          "internalType": "bytes32",
          "name": "id",
          "type": "bytes32"
        }
      ],
      "name": "ChainlinkFulfilled",
      "type": "event"
    },
    {
      "anonymous": false,
      "inputs": [
        {
          "indexed": true,
          "internalType": "bytes32",
          "name": "id",
          "type": "bytes32"
        }
      ],
      "name": "ChainlinkRequested",
      "type": "event"
    },
    {
      "anonymous": false,
      "inputs": [
        {
          "indexed": true,
          "internalType": "address",
          "name": "from",
          "type": "address"
        },
        {
          "indexed": true,
          "internalType": "address",
          "name": "to",
          "type": "address"
        }
      ],
      "name": "OwnershipTransferRequested",
      "type": "event"
    },
    {
      "anonymous": false,
      "inputs": [
        {
          "indexed": true,
          "internalType": "address",
          "name": "from",
          "type": "address"
        },
        {
          "indexed": true,
          "internalType": "address",
          "name": "to",
          "type": "address"
        }
      ],
      "name": "OwnershipTransferred",
      "type": "event"
    },
    {
      "anonymous": false,
      "inputs": [
        {
          "indexed": true,
          "internalType": "address",
          "name": "policyAddress",
          "type": "address"
        },
        {
          "indexed": true,
          "internalType": "uint256",
          "name": "timestamp",
          "type": "uint256"
        },
        {
          "indexed": true,
          "internalType": "bool",
          "name": "claimed",
          "type": "bool"
        }
      ],
      "name": "PolicyClaimed",
      "type": "event"
    },
    {
      "anonymous": false,
      "inputs": [
        {
          "indexed": true,
          "internalType": "address",
          "name": "policyAddress",
          "type": "address"
        },
        {
          "indexed": true,
          "internalType": "uint256",
          "name": "timestamp",
          "type": "uint256"
        }
      ],
      "name": "PolicyFunded",
      "type": "event"
    },
    {
      "anonymous": false,
      "inputs": [
        {
          "indexed": true,
          "internalType": "address",
          "name": "policyAddress",
          "type": "address"
        },
        {
          "indexed": true,
          "internalType": "uint256",
          "name": "timestamp",
          "type": "uint256"
        }
      ],
      "name": "PolicyMatured",
      "type": "event"
    },
    {
      "anonymous": false,
      "inputs": [
        {
          "indexed": true,
          "internalType": "address",
          "name": "policyAddress",
          "type": "address"
        },
        {
          "indexed": true,
          "internalType": "uint256",
          "name": "timestamp",
          "type": "uint256"
        }
      ],
      "name": "PolicyRevived",
      "type": "event"
    },
    {
      "anonymous": false,
      "inputs": [
        {
          "indexed": true,
          "internalType": "address",
          "name": "policyAddress",
          "type": "address"
        },
        {
          "indexed": true,
          "internalType": "uint256",
          "name": "timestamp",
          "type": "uint256"
        },
        {
          "indexed": false,
          "internalType": "uint256",
          "name": "withdrawnAmount",
          "type": "uint256"
        }
      ],
      "name": "PolicyWithdraw",
      "type": "event"
    },
    {
      "anonymous": false,
      "inputs": [
        {
          "indexed": true,
          "internalType": "address",
          "name": "policyAddress",
          "type": "address"
        },
        {
          "indexed": true,
          "internalType": "uint256",
          "name": "timestamp",
          "type": "uint256"
        }
      ],
      "name": "TerminatePolicy",
      "type": "event"
    },
    {
      "inputs": [],
      "name": "acceptOwnership",
      "outputs": [],
      "stateMutability": "nonpayable",
      "type": "function"
    },
    {
      "inputs": [
        {
          "internalType": "bytes",
          "name": "checkData",
          "type": "bytes"
        }
      ],
      "name": "checkUpkeep",
      "outputs": [
        {
          "internalType": "bool",
          "name": "upkeepNeeded",
          "type": "bool"
        },
        {
          "internalType": "bytes",
          "name": "performData",
          "type": "bytes"
        }
      ],
      "stateMutability": "view",
      "type": "function"
    },
    {
      "inputs": [
        {
          "internalType": "bytes32",
          "name": "_requestId",
          "type": "bytes32"
        },
        {
          "internalType": "uint256",
          "name": "",
          "type": "uint256"
        }
      ],
      "name": "fulfill",
      "outputs": [],
      "stateMutability": "nonpayable",
      "type": "function"
    },
    {
      "inputs": [],
      "name": "fundContract",
      "outputs": [],
      "stateMutability": "payable",
      "type": "function"
    },
    {
      "inputs": [],
      "name": "getAdmins",
      "outputs": [
        {
          "internalType": "address[]",
          "name": "admins",
          "type": "address[]"
        }
      ],
      "stateMutability": "view",
      "type": "function"
    },
    {
      "inputs": [],
      "name": "getGracePeriod",
      "outputs": [
        {
          "internalType": "uint128",
          "name": "gracePeriod",
          "type": "uint128"
        }
      ],
      "stateMutability": "view",
      "type": "function"
    },
    {
      "inputs": [],
      "name": "getHasClaimed",
      "outputs": [
        {
          "internalType": "bool",
          "name": "hasClaimed",
          "type": "bool"
        }
      ],
      "stateMutability": "view",
      "type": "function"
    },
    {
      "inputs": [],
      "name": "getIsClaimable",
      "outputs": [
        {
          "internalType": "bool",
          "name": "isClaimable",
          "type": "bool"
        }
      ],
      "stateMutability": "view",
      "type": "function"
    },
    {
      "inputs": [],
      "name": "getIsPolicyActive",
      "outputs": [
        {
          "internalType": "bool",
          "name": "isPolicyActive",
          "type": "bool"
        }
      ],
      "stateMutability": "view",
      "type": "function"
    },
    {
      "inputs": [],
      "name": "getIsTerminated",
      "outputs": [
        {
          "internalType": "bool",
          "name": "isTerminated",
          "type": "bool"
        }
      ],
      "stateMutability": "view",
      "type": "function"
    },
    {
      "inputs": [],
      "name": "getLifePolicyParams",
      "outputs": [
        {
          "components": [
            {
              "components": [
                {
                  "components": [
                    {
                      "internalType": "string",
                      "name": "name",
                      "type": "string"
                    },
                    {
                      "internalType": "string",
                      "name": "dateOfBirth",
                      "type": "string"
                    },
                    {
                      "internalType": "string",
                      "name": "gender",
                      "type": "string"
                    },
                    {
                      "internalType": "string",
                      "name": "homeAddress",
                      "type": "string"
                    },
                    {
                      "internalType": "string",
                      "name": "phoneNumber",
                      "type": "string"
                    },
                    {
                      "internalType": "string",
                      "name": "pronouns",
                      "type": "string"
                    },
                    {
                      "internalType": "string",
                      "name": "email",
                      "type": "string"
                    },
                    {
                      "internalType": "string",
                      "name": "occupation",
                      "type": "string"
                    },
                    {
                      "internalType": "address payable",
                      "name": "policyHolderWalletAddress",
                      "type": "address"
                    }
                  ],
                  "internalType": "struct SharedData.HumanDetails",
                  "name": "nomineeDetails",
                  "type": "tuple"
                },
                {
                  "internalType": "uint128",
                  "name": "nomineeShare",
                  "type": "uint128"
                }
              ],
              "internalType": "struct SharedData.Nominee[]",
              "name": "nominees",
              "type": "tuple[]"
            }
          ],
          "internalType": "struct SharedData.LifePolicyParams",
          "name": "lifePolicyParams",
          "type": "tuple"
        }
      ],
      "stateMutability": "view",
      "type": "function"
    },
    {
      "inputs": [
        {
          "internalType": "uint128",
          "name": "index",
          "type": "uint128"
        }
      ],
      "name": "getNominee",
      "outputs": [
        {
          "components": [
            {
              "components": [
                {
                  "internalType": "string",
                  "name": "name",
                  "type": "string"
                },
                {
                  "internalType": "string",
                  "name": "dateOfBirth",
                  "type": "string"
                },
                {
                  "internalType": "string",
                  "name": "gender",
                  "type": "string"
                },
                {
                  "internalType": "string",
                  "name": "homeAddress",
                  "type": "string"
                },
                {
                  "internalType": "string",
                  "name": "phoneNumber",
                  "type": "string"
                },
                {
                  "internalType": "string",
                  "name": "pronouns",
                  "type": "string"
                },
                {
                  "internalType": "string",
                  "name": "email",
                  "type": "string"
                },
                {
                  "internalType": "string",
                  "name": "occupation",
                  "type": "string"
                },
                {
                  "internalType": "address payable",
                  "name": "policyHolderWalletAddress",
                  "type": "address"
                }
              ],
              "internalType": "struct SharedData.HumanDetails",
              "name": "nomineeDetails",
              "type": "tuple"
            },
            {
              "internalType": "uint128",
              "name": "nomineeShare",
              "type": "uint128"
            }
          ],
          "internalType": "struct SharedData.Nominee",
          "name": "nominee",
          "type": "tuple"
        }
      ],
      "stateMutability": "view",
      "type": "function"
    },
    {
      "inputs": [],
      "name": "getNominees",
      "outputs": [
        {
          "components": [
            {
              "components": [
                {
                  "internalType": "string",
                  "name": "name",
                  "type": "string"
                },
                {
                  "internalType": "string",
                  "name": "dateOfBirth",
                  "type": "string"
                },
                {
                  "internalType": "string",
                  "name": "gender",
                  "type": "string"
                },
                {
                  "internalType": "string",
                  "name": "homeAddress",
                  "type": "string"
                },
                {
                  "internalType": "string",
                  "name": "phoneNumber",
                  "type": "string"
                },
                {
                  "internalType": "string",
                  "name": "pronouns",
                  "type": "string"
                },
                {
                  "internalType": "string",
                  "name": "email",
                  "type": "string"
                },
                {
                  "internalType": "string",
                  "name": "occupation",
                  "type": "string"
                },
                {
                  "internalType": "address payable",
                  "name": "policyHolderWalletAddress",
                  "type": "address"
                }
              ],
              "internalType": "struct SharedData.HumanDetails",
              "name": "nomineeDetails",
              "type": "tuple"
            },
            {
              "internalType": "uint128",
              "name": "nomineeShare",
              "type": "uint128"
            }
          ],
          "internalType": "struct SharedData.Nominee[]",
          "name": "nominees",
          "type": "tuple[]"
        }
      ],
      "stateMutability": "view",
      "type": "function"
    },
    {
      "inputs": [],
      "name": "getPolicyDetails",
      "outputs": [
        {
          "internalType": "string",
          "name": "policyDetails",
          "type": "string"
        }
      ],
      "stateMutability": "view",
      "type": "function"
    },
    {
      "inputs": [],
      "name": "getPolicyHolderDetails",
      "outputs": [
        {
          "components": [
            {
              "internalType": "string",
              "name": "name",
              "type": "string"
            },
            {
              "internalType": "string",
              "name": "dateOfBirth",
              "type": "string"
            },
            {
              "internalType": "string",
              "name": "gender",
              "type": "string"
            },
            {
              "internalType": "string",
              "name": "homeAddress",
              "type": "string"
            },
            {
              "internalType": "string",
              "name": "phoneNumber",
              "type": "string"
            },
            {
              "internalType": "string",
              "name": "pronouns",
              "type": "string"
            },
            {
              "internalType": "string",
              "name": "email",
              "type": "string"
            },
            {
              "internalType": "string",
              "name": "occupation",
              "type": "string"
            },
            {
              "internalType": "address payable",
              "name": "policyHolderWalletAddress",
              "type": "address"
            }
          ],
          "internalType": "struct SharedData.HumanDetails",
          "name": "policyHolderDetails",
          "type": "tuple"
        }
      ],
      "stateMutability": "view",
      "type": "function"
    },
    {
      "inputs": [],
      "name": "getPolicyHolderWalletAddress",
      "outputs": [
        {
          "internalType": "address payable",
          "name": "policyHolderWalletAddress",
          "type": "address"
        }
      ],
      "stateMutability": "view",
      "type": "function"
    },
    {
      "inputs": [],
      "name": "getPolicyTenure",
      "outputs": [
        {
          "internalType": "uint128",
          "name": "policyTenure",
          "type": "uint128"
        }
      ],
      "stateMutability": "view",
      "type": "function"
    },
    {
      "inputs": [],
      "name": "getPolicyType",
      "outputs": [
        {
          "internalType": "enum SharedData.PolicyType",
          "name": "policyType",
          "type": "uint8"
        }
      ],
      "stateMutability": "view",
      "type": "function"
    },
    {
      "inputs": [],
      "name": "getPremiumToBePaid",
      "outputs": [
        {
          "internalType": "uint256",
          "name": "premiumToBePaid",
          "type": "uint256"
        }
      ],
      "stateMutability": "view",
      "type": "function"
    },
    {
      "inputs": [],
      "name": "getPremiuminUSD",
      "outputs": [
        {
          "internalType": "uint256",
          "name": "convertedAmount",
          "type": "uint256"
        }
      ],
      "stateMutability": "view",
      "type": "function"
    },
    {
      "inputs": [],
      "name": "getRevivalRule",
      "outputs": [
        {
          "components": [
            {
              "internalType": "uint128",
              "name": "revivalPeriod",
              "type": "uint128"
            },
            {
              "internalType": "uint256",
              "name": "revivalAmount",
              "type": "uint256"
            }
          ],
          "internalType": "struct SharedData.RevivalRule",
          "name": "revivalRule",
          "type": "tuple"
        }
      ],
      "stateMutability": "view",
      "type": "function"
    },
    {
      "inputs": [],
      "name": "getTimeBeforeCommencement",
      "outputs": [
        {
          "internalType": "uint128",
          "name": "time",
          "type": "uint128"
        }
      ],
      "stateMutability": "view",
      "type": "function"
    },
    {
      "inputs": [],
      "name": "getTotalCoverageByPolicy",
      "outputs": [
        {
          "internalType": "uint256",
          "name": "coverage",
          "type": "uint256"
        }
      ],
      "stateMutability": "view",
      "type": "function"
    },
    {
      "inputs": [],
      "name": "gethasFundedForCurrentInterval",
      "outputs": [
        {
          "internalType": "bool",
          "name": "hasFundedForCurrentInterval",
          "type": "bool"
        }
      ],
      "stateMutability": "view",
      "type": "function"
    },
    {
      "inputs": [],
      "name": "makeClaim",
      "outputs": [
        {
          "internalType": "bool",
          "name": "claimed",
          "type": "bool"
        }
      ],
      "stateMutability": "nonpayable",
      "type": "function"
    },
    {
      "inputs": [],
      "name": "owner",
      "outputs": [
        {
          "internalType": "address",
          "name": "",
          "type": "address"
        }
      ],
      "stateMutability": "view",
      "type": "function"
    },
    {
      "inputs": [],
      "name": "payPremium",
      "outputs": [],
      "stateMutability": "payable",
      "type": "function"
    },
    {
      "inputs": [
        {
          "internalType": "bytes",
          "name": "performData",
          "type": "bytes"
        }
      ],
      "name": "performUpkeep",
      "outputs": [],
      "stateMutability": "nonpayable",
      "type": "function"
    },
    {
      "inputs": [
        {
          "internalType": "string",
          "name": "url",
          "type": "string"
        },
        {
          "internalType": "string",
          "name": "path",
          "type": "string"
        },
        {
          "internalType": "string",
          "name": "jobId",
          "type": "string"
        },
        {
          "internalType": "address",
          "name": "oracle",
          "type": "address"
        }
      ],
      "name": "requestVolumeData",
      "outputs": [
        {
          "internalType": "bytes32",
          "name": "requestId",
          "type": "bytes32"
        }
      ],
      "stateMutability": "nonpayable",
      "type": "function"
    },
    {
      "inputs": [],
      "name": "revivePolicy",
      "outputs": [],
      "stateMutability": "payable",
      "type": "function"
    },
    {
      "inputs": [
        {
          "internalType": "bool",
          "name": "isClaimable",
          "type": "bool"
        }
      ],
      "name": "setClaimable",
      "outputs": [],
      "stateMutability": "nonpayable",
      "type": "function"
    },
    {
      "inputs": [
        {
          "internalType": "bool",
          "name": "hasClaimed",
          "type": "bool"
        }
      ],
      "name": "setClaimed",
      "outputs": [],
      "stateMutability": "nonpayable",
      "type": "function"
    },
    {
      "inputs": [
        {
          "internalType": "bool",
          "name": "isPolicyActive",
          "type": "bool"
        }
      ],
      "name": "setPolicyActive",
      "outputs": [],
      "stateMutability": "nonpayable",
      "type": "function"
    },
    {
      "inputs": [
        {
          "internalType": "bool",
          "name": "isTerminated",
          "type": "bool"
        }
      ],
      "name": "setTermination",
      "outputs": [],
      "stateMutability": "nonpayable",
      "type": "function"
    },
    {
      "inputs": [
        {
          "internalType": "bool",
          "name": "hasFundedForCurrentInterval",
          "type": "bool"
        }
      ],
      "name": "sethasFundedForCurrentInterval",
      "outputs": [],
      "stateMutability": "nonpayable",
      "type": "function"
    },
    {
      "inputs": [],
      "name": "terminatePolicy",
      "outputs": [],
      "stateMutability": "nonpayable",
      "type": "function"
    },
    {
      "inputs": [
        {
          "internalType": "address",
          "name": "to",
          "type": "address"
        }
      ],
      "name": "transferOwnership",
      "outputs": [],
      "stateMutability": "nonpayable",
      "type": "function"
    },
    {
      "inputs": [],
      "name": "withdraw",
      "outputs": [],
      "stateMutability": "payable",
      "type": "function"
    },
    {
      "stateMutability": "payable",
      "type": "receive"
    }
  ],
  "transactionHash": "0x6b0cec48d119df2c95f5db383d74191703469e41d15f98acf60837cdfdb4a4e2",
  "args": [
    {
      "policyHolder": {
        "name": "Aamroh",
        "dateOfBirth": "12/12/1912",
        "gender": "Male",
        "homeAddress": "dragon land",
        "phoneNumber": "123456789",
        "email": "dragon@drago.com",
        "occupation": "dragonkiller",
        "pronouns": "mighty/almighty",
        "policyHolderWalletAddress": "0x5FbDB2315678afecb367f032d93F642f64180aa3"
      },
      "policyTenure": 120000,
      "timeInterval": 600,
      "gracePeriod": 300,
      "timeBeforeCommencement": 120,
      "premiumToBePaid": "1000000000000000000",
      "totalCoverageByPolicy": "1000000000000000000000",
      "hasClaimed": false,
      "isPolicyActive": true,
      "isClaimable": false,
      "isTerminated": false,
      "hasFundedForCurrentInterval": false,
      "revivalRule": {
        "revivalPeriod": 400,
        "revivalAmount": "5000000000000000000"
      },
      "policyDetails": "This is a Dragon Contract",
      "policyType": 0,
      "policyManagerAddress": "0xe7f1725E7734CE288F8367e1Bb143E90bb3F0512",
      "admins": [
        "0xe2C47351C3175BcA8aE755A0E33826B7D300A137",
        "0x3F03b608472F698B0FfC16E3723C12274f560320",
        "0xe6B3e361c5C129B27210EE4Ccc71f7E8e3F4b63B",
        "0xF2A1790753821528E7958Bdcb196Ab12949F93A7"
      ],
      "collaborators": []
    },
    {
      "nominees": [
        {
          "nomineeDetails": {
            "name": "Kuntal",
            "dateOfBirth": "13/12/1912",
            "gender": "Male",
            "homeAddress": "dragon raja land",
            "phoneNumber": "003456789",
            "email": "squirrelsaver@gmail.com",
            "occupation": "squirrelprotector",
            "pronouns": "almightyProtector",
            "policyHolderWalletAddress": "0xe6B3e361c5C129B27210EE4Ccc71f7E8e3F4b63B"
          },
          "nomineeShare": 25
        },
        {
          "nomineeDetails": {
            "name": "Deepak",
            "dateOfBirth": "15/12/1912",
            "gender": "Male",
            "homeAddress": "dragon raja land",
            "phoneNumber": "003456789",
            "email": "whitedragon@gmail.com",
            "occupation": "whitedragonkiller",
            "pronouns": "mighty/almighty",
            "policyHolderWalletAddress": "0xF2A1790753821528E7958Bdcb196Ab12949F93A7"
          },
          "nomineeShare": 75
        }
      ]
    },
    "0x326C977E6efc84E512bB9C30f76E30c160eD06FB",
    "0x0715A7794a1dc8e42615F059dD6e406A6594651A"
  ],
  "numDeployments": 2,
  "solcInputHash": "94376be2a8099c7cb645072864e5998e",
  "bytecode": "0x608060405260016004553480156200001657600080fd5b5060405162004fea38038062004fea833981016040819052620000399162000e02565b8382823380600081620000935760405162461bcd60e51b815260206004820152601860248201527f43616e6e6f7420736574206f776e657220746f207a65726f000000000000000060448201526064015b60405180910390fd5b600680546001600160a01b0319166001600160a01b0384811691909117909155811615620000c657620000c6816200078c565b505083518051859250600a919082908190620000e39082620010c8565b5060208201516001820190620000fa9082620010c8565b5060408201516002820190620001119082620010c8565b5060608201516003820190620001289082620010c8565b50608082015160048201906200013f9082620010c8565b5060a08201516005820190620001569082620010c8565b5060c082015160068201906200016d9082620010c8565b5060e08201516007820190620001849082620010c8565b506101009182015160089190910180546001600160a01b0319166001600160a01b0390921691909117905560208381015160408501516001600160801b03918216600160801b918316919091021760098501556060850151600a850180546001600160801b03199081169284169290921790556080860151600b86015560a0860151600c86015560c0860151600d86015560e0860151600e86018054888701516101208a01516101408b01516101608c015161ffff1990941695151561ff001916959095179115159098021763ffff00001916620100009715159790970263ff0000001916969096176301000000921515929092029190911760ff60201b191664010000000095151595909502949094179093556101808501518051600f86018054909516921691909117909255015160108201556101a08201516011820190620002d09082620010c8565b506101c082015160128201805460ff191660018381811115620002f757620002f762001194565b02179055506101e08201516012820180546001600160a01b0390921661010002610100600160a81b031990921691909117905561020082015180516200034891601384019160209091019062000838565b5061022082015180516200036791601484019160209091019062000838565b5090505060005b601d5460ff82161015620003ea576022600a6013018260ff16815481106200039a576200039a620011aa565b60009182526020808320909101548354600181018555938352912090910180546001600160a01b0319166001600160a01b0390921691909117905580620003e181620011d6565b9150506200036e565b50601254602280546001818101835560008381527f61035b26e3e9eee00e0d72fd1ee8ddca6894550dca6916ea2ac6baa90d11e51092830180546001600160a01b03199081166001600160a01b039097169690961790558354808301855583018054861630179055835491820190935501805490921633179091555b601e5460ff821610156200053b576023600a6014018260ff1681548110620004925762000492620011aa565b60009182526020808320909101548354600181018555938352912090910180546001600160a01b0319166001600160a01b03909216919091179055601e80546022919060ff8416908110620004eb57620004eb620011aa565b60009182526020808320909101548354600181018555938352912090910180546001600160a01b0319166001600160a01b03909216919091179055806200053281620011d6565b91505062000466565b50601c54602380546001808201835560008390527fd57b2b5166478fd4318d2acc6cc2c704584312bdd8781b32d5d06abda57f423091820180546101009095046001600160a01b039081166001600160a01b03199687161790915583548083018555830180543090871617905583549182019093550180543390841617905560098054831684831617905560028054909216908416179055600a620005ea670de0b6b3a76400006001620011f8565b620005f6919062001218565b600855505060006021819055602480546001600160a01b0319163317905590505b83515181101562000781578351805160259190839081106200063d576200063d620011aa565b602090810291909101810151825460018101845560009384529190922082518051600a9093029091019182908190620006779082620010c8565b50602082015160018201906200068e9082620010c8565b5060408201516002820190620006a59082620010c8565b5060608201516003820190620006bc9082620010c8565b5060808201516004820190620006d39082620010c8565b5060a08201516005820190620006ea9082620010c8565b5060c08201516006820190620007019082620010c8565b5060e08201516007820190620007189082620010c8565b506101009190910151600890910180546001600160a01b0319166001600160a01b0390921691909117905560209190910151600990910180546001600160801b0319166001600160801b039092169190911790558062000778816200123b565b91505062000617565b505050505062001257565b336001600160a01b03821603620007e65760405162461bcd60e51b815260206004820152601760248201527f43616e6e6f74207472616e7366657220746f2073656c6600000000000000000060448201526064016200008a565b600780546001600160a01b0319166001600160a01b03838116918217909255600654604051919216907fed8889f560326eb138920d842192f0eb3dd22b4f139c87a2c57538e05bae127890600090a350565b82805482825590600052602060002090810192821562000890579160200282015b828111156200089057825182546001600160a01b0319166001600160a01b0390911617825560209092019160019091019062000859565b506200089e929150620008a2565b5090565b5b808211156200089e5760008155600101620008a3565b634e487b7160e01b600052604160045260246000fd5b60405161012081016001600160401b0381118282101715620008f557620008f5620008b9565b60405290565b604080519081016001600160401b0381118282101715620008f557620008f5620008b9565b604051602081016001600160401b0381118282101715620008f557620008f5620008b9565b60405161024081016001600160401b0381118282101715620008f557620008f5620008b9565b604051601f8201601f191681016001600160401b0381118282101715620009965762000996620008b9565b604052919050565b600082601f830112620009b057600080fd5b81516001600160401b03811115620009cc57620009cc620008b9565b6020620009e2601f8301601f191682016200096b565b8281528582848701011115620009f757600080fd5b60005b8381101562000a17578581018301518282018401528201620009fa565b506000928101909101919091529392505050565b6001600160a01b038116811462000a4157600080fd5b50565b805162000a518162000a2b565b919050565b6000610120828403121562000a6a57600080fd5b62000a74620008cf565b82519091506001600160401b038082111562000a8f57600080fd5b62000a9d858386016200099e565b8352602084015191508082111562000ab457600080fd5b62000ac2858386016200099e565b6020840152604084015191508082111562000adc57600080fd5b62000aea858386016200099e565b6040840152606084015191508082111562000b0457600080fd5b62000b12858386016200099e565b6060840152608084015191508082111562000b2c57600080fd5b62000b3a858386016200099e565b608084015260a084015191508082111562000b5457600080fd5b62000b62858386016200099e565b60a084015260c084015191508082111562000b7c57600080fd5b62000b8a858386016200099e565b60c084015260e084015191508082111562000ba457600080fd5b5062000bb3848285016200099e565b60e08301525061010062000bc981840162000a44565b9082015292915050565b80516001600160801b038116811462000a5157600080fd5b8051801515811462000a5157600080fd5b60006040828403121562000c0f57600080fd5b62000c19620008fb565b905062000c268262000bd3565b81526020820151602082015292915050565b80516002811062000a5157600080fd5b60006001600160401b0382111562000c645762000c64620008b9565b5060051b60200190565b600082601f83011262000c8057600080fd5b8151602062000c9962000c938362000c48565b6200096b565b82815260059290921b8401810191818101908684111562000cb957600080fd5b8286015b8481101562000ce157805162000cd38162000a2b565b835291830191830162000cbd565b509695505050505050565b6000602080838503121562000d0057600080fd5b62000d0a62000920565b83519092506001600160401b038082111562000d2557600080fd5b818501915085601f83011262000d3a57600080fd5b815162000d4b62000c938262000c48565b81815260059190911b8301840190848101908883111562000d6b57600080fd5b8585015b8381101562000df35780518581111562000d895760008081fd5b86016040818c03601f190181131562000da25760008081fd5b62000dac620008fb565b898301518881111562000dbf5760008081fd5b62000dcf8e8c8387010162000a56565b82525062000ddf82840162000bd3565b818b01528552505091860191860162000d6f565b50865250939695505050505050565b6000806000806080858703121562000e1957600080fd5b84516001600160401b038082111562000e3157600080fd5b90860190610260828903121562000e4757600080fd5b62000e5162000945565b82518281111562000e6157600080fd5b62000e6f8a82860162000a56565b82525062000e806020840162000bd3565b602082015262000e936040840162000bd3565b604082015262000ea66060840162000bd3565b60608201526080830151608082015260a083015160a082015260c083015160c082015262000ed760e0840162000beb565b60e082015261010062000eec81850162000beb565b9082015261012062000f0084820162000beb565b9082015261014062000f1484820162000beb565b9082015261016062000f2884820162000beb565b9082015261018062000f3d8a85830162000bfc565b908201526101c0838101518381111562000f5657600080fd5b62000f648b8287016200099e565b6101a0840152506101e062000f7b81860162000c38565b82840152610200915062000f9182860162000a44565b90830152610220848101518481111562000faa57600080fd5b62000fb88c82880162000c6e565b838501525061024085015191508382111562000fd357600080fd5b62000fe18b83870162000c6e565b9083015250602088015190965091508082111562000ffe57600080fd5b506200100d8782880162000cec565b9350506200101e6040860162000a44565b91506200102e6060860162000a44565b905092959194509250565b600181811c908216806200104e57607f821691505b6020821081036200106f57634e487b7160e01b600052602260045260246000fd5b50919050565b601f821115620010c357600081815260208120601f850160051c810160208610156200109e5750805b601f850160051c820191505b81811015620010bf57828155600101620010aa565b5050505b505050565b81516001600160401b03811115620010e457620010e4620008b9565b620010fc81620010f5845462001039565b8462001075565b602080601f8311600181146200113457600084156200111b5750858301515b600019600386901b1c1916600185901b178555620010bf565b600085815260208120601f198616915b82811015620011655788860151825594840194600190910190840162001144565b5085821015620011845787850151600019600388901b60f8161c191681555b5050505050600190811b01905550565b634e487b7160e01b600052602160045260246000fd5b634e487b7160e01b600052603260045260246000fd5b634e487b7160e01b600052601160045260246000fd5b600060ff821660ff8103620011ef57620011ef620011c0565b60010192915050565b8082028115828204841417620012125762001212620011c0565b92915050565b6000826200123657634e487b7160e01b600052601260045260246000fd5b500490565b600060018201620012505762001250620011c0565b5060010190565b613d8380620012676000396000f3fe6080604052600436106101b85760003560e01c806285ce02146101ef57806301b01c861461021a5780630cef59671461023957806312704a42146102595780631c0bab141461028b5780631f354211146102ab578063248f0f97146102cd57806324f1c53e146102e257806329c08ba21461030f5780632b140f4f1461031757806331ae450b14610337578063378c93ad146103595780633ccfd60b146103795780633db96d5f146103815780634357855e146103aa5780634585e33b146103ca5780634f7d3829146103ea57806352e9c64c1461040a57806362ba912a1461042a5780636e04ff0d1461043257806372ef31511461046057806379ba50971461047e5780638da5cb5b146104935780639507b878146104c557806395dcc90a146104e45780639636f67c14610538578063a60496501461055a578063adb5174714610578578063b0141ed414610597578063bd097e21146105af578063cc9ba6fa146105b7578063d48d6229146105d9578063d53f5659146105ee578063dbd1838814610603578063e934bba214610628578063ec21858f14610648578063f2fde38b14610666578063f5aa02001461068657600080fd5b366101ea576018546301000000900460ff16156101e85760405163c60d361f60e01b815260040160405180910390fd5b005b600080fd5b3480156101fb57600080fd5b5061020461069b565b60405161021191906135d5565b60405180910390f35b34801561022657600080fd5b506016545b604051908152602001610211565b34801561024557600080fd5b506101e86102543660046135f6565b610b5a565b34801561026557600080fd5b506014546001600160801b03165b6040516001600160801b039091168152602001610211565b34801561029757600080fd5b506101e86102a63660046135f6565b610bf5565b3480156102b757600080fd5b506102c0610c90565b604051610211919061364c565b3480156102d957600080fd5b5060175461022b565b3480156102ee57600080fd5b506103026102fd3660046136b8565b6111cc565b60405161021191906136e1565b6101e86116dc565b34801561032357600080fd5b50601c5460ff1660405161021191906136f4565b34801561034357600080fd5b5061034c611862565b604051610211919061371c565b34801561036557600080fd5b506101e86103743660046135f6565b6118c4565b6101e861195d565b34801561038d57600080fd5b50601854610100900460ff165b6040519015158152602001610211565b3480156103b657600080fd5b506101e86103c5366004613769565b611b29565b3480156103d657600080fd5b506101e86103e536600461378b565b611bef565b3480156103f657600080fd5b506101e86104053660046135f6565b611ce5565b34801561041657600080fd5b506101e86104253660046135f6565b611d75565b6101e8611e0c565b34801561043e57600080fd5b5061045261044d36600461378b565b611fe9565b6040516102119291906137fc565b34801561046c57600080fd5b506013546001600160801b0316610273565b34801561048a57600080fd5b506101e86120f9565b34801561049f57600080fd5b506006546001600160a01b03165b6040516001600160a01b039091168152602001610211565b3480156104d157600080fd5b506018546301000000900460ff1661039a565b3480156104f057600080fd5b506040805180820182526000808252602091820152815180830183526019546001600160801b0316808252601a54918301918252835190815290519181019190915201610211565b34801561054457600080fd5b5061054d6121a7565b6040516102119190613817565b34801561056657600080fd5b5060185462010000900460ff1661039a565b34801561058457600080fd5b50601854600160201b900460ff1661039a565b3480156105a357600080fd5b5060185460ff1661039a565b6101e86126cf565b3480156105c357600080fd5b506105cc6126fc565b604051610211919061386c565b3480156105e557600080fd5b506101e8612788565b3480156105fa57600080fd5b5061022b6128b3565b34801561060f57600080fd5b50601354600160801b90046001600160801b0316610273565b34801561063457600080fd5b5061022b61064336600461393d565b612963565b34801561065457600080fd5b506012546001600160a01b03166104ad565b34801561067257600080fd5b506101e86106813660046139d5565b612a34565b34801561069257600080fd5b5061039a612a48565b6106a36133d7565b604080516101208101909152600a8054829082906106c0906139f0565b80601f01602080910402602001604051908101604052809291908181526020018280546106ec906139f0565b80156107395780601f1061070e57610100808354040283529160200191610739565b820191906000526020600020905b81548152906001019060200180831161071c57829003601f168201915b50505050508152602001600182018054610752906139f0565b80601f016020809104026020016040519081016040528092919081815260200182805461077e906139f0565b80156107cb5780601f106107a0576101008083540402835291602001916107cb565b820191906000526020600020905b8154815290600101906020018083116107ae57829003601f168201915b505050505081526020016002820180546107e4906139f0565b80601f0160208091040260200160405190810160405280929190818152602001828054610810906139f0565b801561085d5780601f106108325761010080835404028352916020019161085d565b820191906000526020600020905b81548152906001019060200180831161084057829003601f168201915b50505050508152602001600382018054610876906139f0565b80601f01602080910402602001604051908101604052809291908181526020018280546108a2906139f0565b80156108ef5780601f106108c4576101008083540402835291602001916108ef565b820191906000526020600020905b8154815290600101906020018083116108d257829003601f168201915b50505050508152602001600482018054610908906139f0565b80601f0160208091040260200160405190810160405280929190818152602001828054610934906139f0565b80156109815780601f1061095657610100808354040283529160200191610981565b820191906000526020600020905b81548152906001019060200180831161096457829003601f168201915b5050505050815260200160058201805461099a906139f0565b80601f01602080910402602001604051908101604052809291908181526020018280546109c6906139f0565b8015610a135780601f106109e857610100808354040283529160200191610a13565b820191906000526020600020905b8154815290600101906020018083116109f657829003601f168201915b50505050508152602001600682018054610a2c906139f0565b80601f0160208091040260200160405190810160405280929190818152602001828054610a58906139f0565b8015610aa55780601f10610a7a57610100808354040283529160200191610aa5565b820191906000526020600020905b815481529060010190602001808311610a8857829003601f168201915b50505050508152602001600782018054610abe906139f0565b80601f0160208091040260200160405190810160405280929190818152602001828054610aea906139f0565b8015610b375780601f10610b0c57610100808354040283529160200191610b37565b820191906000526020600020905b815481529060010190602001808311610b1a57829003601f168201915b5050509183525050600891909101546001600160a01b0316602090910152919050565b6000805b60235460ff82161015610bb75760238160ff1681548110610b8157610b81613a24565b6000918252602090912001546001600160a01b03163303610ba55760019150610bb7565b80610baf81613a50565b915050610b5e565b5080610bd6576040516303156b6760e31b815260040160405180910390fd5b5060188054911515600160201b0260ff60201b19909216919091179055565b6000805b60235460ff82161015610c525760238160ff1681548110610c1c57610c1c613a24565b6000918252602090912001546001600160a01b03163303610c405760019150610c52565b80610c4a81613a50565b915050610bf9565b5080610c71576040516303156b6760e31b815260040160405180910390fd5b506018805491151563010000000263ff00000019909216919091179055565b6040805160208101909152606081526040805160258054602081810284018501855283018181529293919284929091849160009085015b828210156111bf576000848152602090206040805161016081018252600a850290920180549091839190820190839082908290610d03906139f0565b80601f0160208091040260200160405190810160405280929190818152602001828054610d2f906139f0565b8015610d7c5780601f10610d5157610100808354040283529160200191610d7c565b820191906000526020600020905b815481529060010190602001808311610d5f57829003601f168201915b50505050508152602001600182018054610d95906139f0565b80601f0160208091040260200160405190810160405280929190818152602001828054610dc1906139f0565b8015610e0e5780601f10610de357610100808354040283529160200191610e0e565b820191906000526020600020905b815481529060010190602001808311610df157829003601f168201915b50505050508152602001600282018054610e27906139f0565b80601f0160208091040260200160405190810160405280929190818152602001828054610e53906139f0565b8015610ea05780601f10610e7557610100808354040283529160200191610ea0565b820191906000526020600020905b815481529060010190602001808311610e8357829003601f168201915b50505050508152602001600382018054610eb9906139f0565b80601f0160208091040260200160405190810160405280929190818152602001828054610ee5906139f0565b8015610f325780601f10610f0757610100808354040283529160200191610f32565b820191906000526020600020905b815481529060010190602001808311610f1557829003601f168201915b50505050508152602001600482018054610f4b906139f0565b80601f0160208091040260200160405190810160405280929190818152602001828054610f77906139f0565b8015610fc45780601f10610f9957610100808354040283529160200191610fc4565b820191906000526020600020905b815481529060010190602001808311610fa757829003601f168201915b50505050508152602001600582018054610fdd906139f0565b80601f0160208091040260200160405190810160405280929190818152602001828054611009906139f0565b80156110565780601f1061102b57610100808354040283529160200191611056565b820191906000526020600020905b81548152906001019060200180831161103957829003601f168201915b5050505050815260200160068201805461106f906139f0565b80601f016020809104026020016040519081016040528092919081815260200182805461109b906139f0565b80156110e85780601f106110bd576101008083540402835291602001916110e8565b820191906000526020600020905b8154815290600101906020018083116110cb57829003601f168201915b50505050508152602001600782018054611101906139f0565b80601f016020809104026020016040519081016040528092919081815260200182805461112d906139f0565b801561117a5780601f1061114f5761010080835404028352916020019161117a565b820191906000526020600020905b81548152906001019060200180831161115d57829003601f168201915b5050509183525050600891909101546001600160a01b0316602091820152908252600992909201546001600160801b0316908201529082526001929092019101610cc7565b5050505081525050905090565b6111d461342c565b602580546001600160801b0384169081106111f1576111f1613a24565b90600052602060002090600a0201604051806040016040529081600082016040518061012001604052908160008201805461122b906139f0565b80601f0160208091040260200160405190810160405280929190818152602001828054611257906139f0565b80156112a45780601f10611279576101008083540402835291602001916112a4565b820191906000526020600020905b81548152906001019060200180831161128757829003601f168201915b505050505081526020016001820180546112bd906139f0565b80601f01602080910402602001604051908101604052809291908181526020018280546112e9906139f0565b80156113365780601f1061130b57610100808354040283529160200191611336565b820191906000526020600020905b81548152906001019060200180831161131957829003601f168201915b5050505050815260200160028201805461134f906139f0565b80601f016020809104026020016040519081016040528092919081815260200182805461137b906139f0565b80156113c85780601f1061139d576101008083540402835291602001916113c8565b820191906000526020600020905b8154815290600101906020018083116113ab57829003601f168201915b505050505081526020016003820180546113e1906139f0565b80601f016020809104026020016040519081016040528092919081815260200182805461140d906139f0565b801561145a5780601f1061142f5761010080835404028352916020019161145a565b820191906000526020600020905b81548152906001019060200180831161143d57829003601f168201915b50505050508152602001600482018054611473906139f0565b80601f016020809104026020016040519081016040528092919081815260200182805461149f906139f0565b80156114ec5780601f106114c1576101008083540402835291602001916114ec565b820191906000526020600020905b8154815290600101906020018083116114cf57829003601f168201915b50505050508152602001600582018054611505906139f0565b80601f0160208091040260200160405190810160405280929190818152602001828054611531906139f0565b801561157e5780601f106115535761010080835404028352916020019161157e565b820191906000526020600020905b81548152906001019060200180831161156157829003601f168201915b50505050508152602001600682018054611597906139f0565b80601f01602080910402602001604051908101604052809291908181526020018280546115c3906139f0565b80156116105780601f106115e557610100808354040283529160200191611610565b820191906000526020600020905b8154815290600101906020018083116115f357829003601f168201915b50505050508152602001600782018054611629906139f0565b80601f0160208091040260200160405190810160405280929190818152602001828054611655906139f0565b80156116a25780601f10611677576101008083540402835291602001916116a2565b820191906000526020600020905b81548152906001019060200180831161168557829003601f168201915b5050509183525050600891909101546001600160a01b0316602091820152908252600992909201546001600160801b031691015292915050565b6018546301000000900460ff16156117075760405163c60d361f60e01b815260040160405180910390fd5b601854600160201b900460ff1615611732576040516340f6157f60e01b815260040160405180910390fd5b601854610100900460ff166117fc57601354601954611764916001600160801b03600160801b90910481169116613a6f565b6001600160801b0316601f544261177b9190613a96565b111561179a57604051631932f4cb60e21b815260040160405180910390fd5b6127106117b0670de0b6b3a76400006001613aa9565b6117ba9190613ad6565b601a546117c8903490613a96565b11156117e757604051631b44afc760e31b815260040160405180910390fd5b42601f556018805461ff001916610100179055565b612710611812670de0b6b3a76400006001613aa9565b61181c9190613ad6565b60165461182a903490613a96565b111561184957604051631da12e3160e21b815260040160405180910390fd5b42601f556018805460ff60201b1916600160201b179055565b606060228054806020026020016040519081016040528092919081815260200182805480156118ba57602002820191906000526020600020905b81546001600160a01b0316815260019091019060200180831161189c575b5050505050905090565b6000805b60235460ff821610156119215760238160ff16815481106118eb576118eb613a24565b6000918252602090912001546001600160a01b0316330361190f5760019150611921565b8061191981613a50565b9150506118c8565b5080611940576040516303156b6760e31b815260040160405180910390fd5b5060188054911515620100000262ff000019909216919091179055565b6018546301000000900460ff16156119885760405163c60d361f60e01b815260040160405180910390fd5b6000805b6025548110156119e85760258054829081106119aa576119aa613a24565b600091825260209091206008600a9092020101546001600160a01b031633036119d657600191506119e8565b806119e081613aea565b91505061198c565b5080611a0757604051630473f6c160e01b815260040160405180910390fd5b60185462010000900460ff16611a305760405163608bc83960e11b815260040160405180910390fd5b601754600090471015611a44575047611a49565b506017545b60005b602554811015611b11576025805482908110611a6a57611a6a613a24565b600091825260209091206008600a909202010154602580546001600160a01b03909216916108fc9160649185908110611aa557611aa5613a24565b600091825260209091206009600a909202010154611acc906001600160801b031686613aa9565b611ad69190613ad6565b6040518115909202916000818181858888f19350505050158015611afe573d6000803e3d6000fd5b5080611b0981613aea565b915050611a4c565b50506018805463ff0000001916630100000017905550565b60008281526005602052604090205482906001600160a01b03163314611ba75760405162461bcd60e51b815260206004820152602860248201527f536f75726365206d75737420626520746865206f7261636c65206f6620746865604482015267081c995c5d595cdd60c21b60648201526084015b60405180910390fd5b60008181526005602052604080822080546001600160a01b03191690555182917f7cc135e0cebb02c3480ae5d74d377283180a2601f8f644edf7987b009316c63a91a2505050565b6018805460ff60201b1916905560155460218054600090611c11908490613b03565b90915550506013546021546001600160801b0390911611611c6557611c34612788565b604051429030907f5cdfd10fd88b4f60699cde1324e455ad923aa4a2b812b17a75312f4d92f31e8590600090a35050565b601354601f54600160801b9091046001600160801b031690611c879042613a96565b1115611c99576018805461ff00191690555b601954601354611cbc916001600160801b0390811691600160801b900416613a6f565b6001600160801b0316601f5442611cd39190613a96565b1115611ce157611ce1612788565b5050565b6000805b60235460ff82161015611d425760238160ff1681548110611d0c57611d0c613a24565b6000918252602090912001546001600160a01b03163303611d305760019150611d42565b80611d3a81613a50565b915050611ce9565b5080611d61576040516303156b6760e31b815260040160405180910390fd5b506018805460ff1916911515919091179055565b6000805b60235460ff82161015611dd25760238160ff1681548110611d9c57611d9c613a24565b6000918252602090912001546001600160a01b03163303611dc05760019150611dd2565b80611dca81613a50565b915050611d79565b5080611df1576040516303156b6760e31b815260040160405180910390fd5b50601880549115156101000261ff0019909216919091179055565b6000805b60225460ff82161015611e695760228160ff1681548110611e3357611e33613a24565b6000918252602090912001546001600160a01b03163303611e575760019150611e69565b80611e6181613a50565b915050611e10565b5080611e8857604051634777b53760e11b815260040160405180910390fd5b6018546301000000900460ff1615611eb35760405163c60d361f60e01b815260040160405180910390fd5b601854610100900460ff1615611edc57604051638d8d689b60e01b815260040160405180910390fd5b60185460ff1615611f0057604051631a4c0efb60e21b815260040160405180910390fd5b601354601954611f23916001600160801b03600160801b90910481169116613a6f565b6001600160801b0316601f5442611f3a9190613a96565b1115611f5957604051631932f4cb60e21b815260040160405180910390fd5b612710611f6f670de0b6b3a76400006001613aa9565b611f799190613ad6565b601a54611f87903490613a96565b1015611fa657604051631b44afc760e31b815260040160405180910390fd5b42601f8190556018805461ff00191661010017905560405130907fae58e176bc576df1b357b7bf578b1a6de09b152728d689a12df8abed009003ca90600090a350565b6018546000906060906301000000900460ff1615612032575050604080518082019091526014815273141bdb1a58de481a5cc81d195c9b5a5b985d195960621b60208201526000905b601854610100900460ff166120b457601954601354612064916001600160801b0390811691600160801b900416613a6f565b6001600160801b0316601f544261207b9190613a96565b11156120b45750506040805180820190915260168152752932bb34bb30b6103832b934b7b21034b99037bb32b960511b60208201526000905b601554601f546120c49042613a96565b1191506040518060400160405280601081526020016f155c1ad9595c081a5cc81b995959195960821b81525090509250929050565b6007546001600160a01b0316331461214c5760405162461bcd60e51b815260206004820152601660248201527526bab9ba10313290383937b837b9b2b21037bbb732b960511b6044820152606401611b9e565b600680546001600160a01b0319808216339081179093556007805490911690556040516001600160a01b03909116919082907f8be0079c531659141344cd1fd0a4f28419497f9722a3daafe3b4186f6b6457e090600090a350565b60606025600001805480602002602001604051908101604052809291908181526020016000905b828210156126c6576000848152602090206040805161016081018252600a85029092018054909183919082019083908290829061220a906139f0565b80601f0160208091040260200160405190810160405280929190818152602001828054612236906139f0565b80156122835780601f1061225857610100808354040283529160200191612283565b820191906000526020600020905b81548152906001019060200180831161226657829003601f168201915b5050505050815260200160018201805461229c906139f0565b80601f01602080910402602001604051908101604052809291908181526020018280546122c8906139f0565b80156123155780601f106122ea57610100808354040283529160200191612315565b820191906000526020600020905b8154815290600101906020018083116122f857829003601f168201915b5050505050815260200160028201805461232e906139f0565b80601f016020809104026020016040519081016040528092919081815260200182805461235a906139f0565b80156123a75780601f1061237c576101008083540402835291602001916123a7565b820191906000526020600020905b81548152906001019060200180831161238a57829003601f168201915b505050505081526020016003820180546123c0906139f0565b80601f01602080910402602001604051908101604052809291908181526020018280546123ec906139f0565b80156124395780601f1061240e57610100808354040283529160200191612439565b820191906000526020600020905b81548152906001019060200180831161241c57829003601f168201915b50505050508152602001600482018054612452906139f0565b80601f016020809104026020016040519081016040528092919081815260200182805461247e906139f0565b80156124cb5780601f106124a0576101008083540402835291602001916124cb565b820191906000526020600020905b8154815290600101906020018083116124ae57829003601f168201915b505050505081526020016005820180546124e4906139f0565b80601f0160208091040260200160405190810160405280929190818152602001828054612510906139f0565b801561255d5780601f106125325761010080835404028352916020019161255d565b820191906000526020600020905b81548152906001019060200180831161254057829003601f168201915b50505050508152602001600682018054612576906139f0565b80601f01602080910402602001604051908101604052809291908181526020018280546125a2906139f0565b80156125ef5780601f106125c4576101008083540402835291602001916125ef565b820191906000526020600020905b8154815290600101906020018083116125d257829003601f168201915b50505050508152602001600782018054612608906139f0565b80601f0160208091040260200160405190810160405280929190818152602001828054612634906139f0565b80156126815780601f1061265657610100808354040283529160200191612681565b820191906000526020600020905b81548152906001019060200180831161266457829003601f168201915b5050509183525050600891909101546001600160a01b0316602091820152908252600992909201546001600160801b03169082015290825260019290920191016121ce565b50505050905090565b6018546301000000900460ff16156126fa5760405163c60d361f60e01b815260040160405180910390fd5b565b6060600a601101805461270e906139f0565b80601f016020809104026020016040519081016040528092919081815260200182805461273a906139f0565b80156118ba5780601f1061275c576101008083540402835291602001916118ba565b820191906000526020600020905b81548152906001019060200180831161276a57509395945050505050565b6000805b60225460ff821610156127e55760228160ff16815481106127af576127af613a24565b6000918252602090912001546001600160a01b031633036127d357600191506127e5565b806127dd81613a50565b91505061278c565b508061280457604051634777b53760e11b815260040160405180910390fd5b6018546301000000900460ff161561282f5760405163c60d361f60e01b815260040160405180910390fd5b6018805463ff00000019166301000000179055601c546040516001600160a01b0361010090920491909116904780156108fc02916000818181858888f19350505050158015612882573d6000803e3d6000fd5b50604051429030907f93ab168dc98bbf682a895391ada0c32617e8f5a4140cc8048dc22e90664d620e90600090a350565b600080600960009054906101000a90046001600160a01b03166001600160a01b031663feaf968c6040518163ffffffff1660e01b815260040160a060405180830381865afa158015612909573d6000803e3d6000fd5b505050506040513d601f19601f8201168201806040525081019061292d9190613b2d565b5050601654919350839250600091670de0b6b3a76400009150612951908490613aa9565b61295b9190613ad6565b949350505050565b600380546001600160a01b0319166001600160a01b03831617905560008061299b61298d85612bab565b306321abc2af60e11b612bca565b60408051808201909152600381526219d95d60ea1b60208201529091506129c490829088612bef565b6040805180820190915260048152630e0c2e8d60e31b60208201526129eb90829087612bef565b60408051808201909152600581526474696d657360d81b6020820152670de0b6b3a764000090612a1d90839083612c12565b612a2982600854612c30565b979650505050505050565b612a3c612c53565b612a4581612ca6565b50565b600080805b60225460ff82161015612aa65760228160ff1681548110612a7057612a70613a24565b6000918252602090912001546001600160a01b03163303612a945760019150612aa6565b80612a9e81613a50565b915050612a4d565b5080612ac557604051634777b53760e11b815260040160405180910390fd5b6018546301000000900460ff1615612af05760405163c60d361f60e01b815260040160405180910390fd5b601854610100900460ff16612b1857604051638966b51f60e01b815260040160405180910390fd5b60185462010000900460ff1615612b425760405163229cd7c560e11b815260040160405180910390fd5b60185460ff1615612b6657604051631a4c0efb60e21b815260040160405180910390fd5b6018805460ff19166001908117909155604051429030907f9807d4727ae6308b32cd43219b52031088c7bad64a9936c1afaf6df0c6ce723d90600090a4600191505090565b805160009082908203612bc15750600092915050565b50506020015190565b612bd261344c565b612bda61344c565b612be681868686612d4a565b95945050505050565b6080830151612bfe9083612d87565b6080830151612c0d9082612d87565b505050565b6080830151612c219083612d87565b6080830151612c0d9082612d9e565b600354600090612c4a906001600160a01b03168484612dfc565b90505b92915050565b6006546001600160a01b031633146126fa5760405162461bcd60e51b815260206004820152601660248201527527b7363c9031b0b63630b1363290313c9037bbb732b960511b6044820152606401611b9e565b336001600160a01b03821603612cf85760405162461bcd60e51b815260206004820152601760248201527621b0b73737ba103a3930b739b332b9103a379039b2b63360491b6044820152606401611b9e565b600780546001600160a01b0319166001600160a01b03838116918217909255600654604051919216907fed8889f560326eb138920d842192f0eb3dd22b4f139c87a2c57538e05bae127890600090a350565b612d5261344c565b612d628560800151610100612e8f565b50509183526001600160a01b031660208301526001600160e01b031916604082015290565b612d948260038351612ee7565b612c0d8282612ff4565b6001600160401b0319811215612db857611ce1828261300e565b6001600160401b03811315612dd157611ce18282613050565b60008112612de557611ce182600083612ee7565b611ce1826001612df784600019613b7d565b612ee7565b600454600090612e0d816001613b03565b600455835160408086015160808701515191516000936320214ca360e11b93612e459386938493923092918a91600191602401613b9d565b60408051601f198184030181529190526020810180516001600160e01b03166001600160e01b0319909316929092179091529050612e8586838684613073565b9695505050505050565b612e97613481565b612ea2602083613c05565b15612eca57612eb2602083613c05565b612ebd906020613a96565b612ec79083613b03565b91505b506020828101829052604080518085526000815290920101905290565b6017816001600160401b031611612f1157612f0b8360e0600585901b1683176131cc565b50505050565b60ff816001600160401b031611612f4d57612f37836018611fe0600586901b16176131cc565b50612f0b836001600160401b03831660016131e4565b61ffff816001600160401b031611612f8a57612f74836019611fe0600586901b16176131cc565b50612f0b836001600160401b03831660026131e4565b63ffffffff816001600160401b031611612fc957612fb383601a611fe0600586901b16176131cc565b50612f0b836001600160401b03831660046131e4565b612fde83601b611fe0600586901b16176131cc565b50612f0b836001600160401b03831660086131e4565b612ffc613481565b612c4a838460000151518485516131fd565b6130198260c36131cc565b50611ce18261302a83600019613b7d565b60405160200161303c91815260200190565b6040516020818303038152906040526132da565b61305b8260c26131cc565b50611ce1828260405160200161303c91815260200190565b6040516001600160601b03193060601b1660208201526034810184905260009060540160408051808303601f1901815282825280516020918201206000818152600590925291812080546001600160a01b0319166001600160a01b038a1617905590925082917fb5e6e01e79f91267dc17b4e6314d5d4d03593d2ceee0fbb452b750bd70ea5af99190a2600254604051630200057560e51b81526001600160a01b0390911690634000aea09061313190889087908790600401613c19565b6020604051808303816000875af1158015613150573d6000803e3d6000fd5b505050506040513d601f19601f820116820180604052508101906131749190613c40565b61295b5760405162461bcd60e51b815260206004820152602360248201527f756e61626c6520746f207472616e73666572416e6443616c6c20746f206f7261604482015262636c6560e81b6064820152608401611b9e565b6131d4613481565b612c4a83846000015151846132e7565b6131ec613481565b61295b848560000151518585613335565b613205613481565b825182111561321357600080fd5b60208501516132228386613b03565b11156132555761325585613245876020015187866132409190613b03565b6133a9565b613250906002613aa9565b6133c0565b6000808651805187602083010193508088870111156132745787860182525b505050602084015b602084106132b45780518252613293602083613b03565b91506132a0602082613b03565b90506132ad602085613a96565b935061327c565b51815160001960208690036101000a019081169019919091161790525083949350505050565b612d948260028351612ee7565b6132ef613481565b8360200151831061330f5761330f84856020015160026132509190613aa9565b835180516020858301018481535080850361332b576001810182525b5093949350505050565b61333d613481565b602085015161334c8584613b03565b111561336057613360856132458685613b03565b6000600161337084610100613d41565b61337a9190613a96565b905085518386820101858319825116178152508051848701111561339e5783860181525b509495945050505050565b6000818311156133ba575081612c4d565b50919050565b81516133cc8383612e8f565b50612f0b8382612ff4565b604051806101200160405280606081526020016060815260200160608152602001606081526020016060815260200160608152602001606081526020016060815260200160006001600160a01b031681525090565b604051806040016040528061343f6133d7565b8152600060209091015290565b6040805160a08101825260008082526020820181905291810182905260608101919091526080810161347c613481565b905290565b604051806040016040528060608152602001600081525090565b6000815180845260005b818110156134c1576020818501810151868301820152016134a5565b506000602082860101526020601f19601f83011685010191505092915050565b600061012082518185526134f78286018261349b565b91505060208301518482036020860152613511828261349b565b9150506040830151848203604086015261352b828261349b565b91505060608301518482036060860152613545828261349b565b9150506080830151848203608086015261355f828261349b565b91505060a083015184820360a0860152613579828261349b565b91505060c083015184820360c0860152613593828261349b565b91505060e083015184820360e08601526135ad828261349b565b915050610100808401516135cb828701826001600160a01b03169052565b5090949350505050565b602081526000612c4a60208301846134e1565b8015158114612a4557600080fd5b60006020828403121561360857600080fd5b8135613613816135e8565b9392505050565b600081516040845261362f60408501826134e1565b6020938401516001600160801b0316949093019390935250919050565b60006020808352604083018451828386015281815180845260608701915060608160051b8801019350848301925060005b818110156136ab57605f1988860301835261369985855161361a565b9450928501929185019160010161367d565b5092979650505050505050565b6000602082840312156136ca57600080fd5b81356001600160801b038116811461361357600080fd5b602081526000612c4a602083018461361a565b602081016002831061371657634e487b7160e01b600052602160045260246000fd5b91905290565b6020808252825182820181905260009190848201906040850190845b8181101561375d5783516001600160a01b031683529284019291840191600101613738565b50909695505050505050565b6000806040838503121561377c57600080fd5b50508035926020909101359150565b6000806020838503121561379e57600080fd5b82356001600160401b03808211156137b557600080fd5b818501915085601f8301126137c957600080fd5b8135818111156137d857600080fd5b8660208285010111156137ea57600080fd5b60209290920196919550909350505050565b821515815260406020820152600061295b604083018461349b565b6000602080830181845280855180835260408601915060408160051b870101925083870160005b828110156136ab57603f1988860301845261385a85835161361a565b9450928501929085019060010161383e565b602081526000612c4a602083018461349b565b634e487b7160e01b600052604160045260246000fd5b600082601f8301126138a657600080fd5b81356001600160401b03808211156138c0576138c061387f565b604051601f8301601f19908116603f011681019082821181831017156138e8576138e861387f565b8160405283815286602085880101111561390157600080fd5b836020870160208301376000602085830101528094505050505092915050565b80356001600160a01b038116811461393857600080fd5b919050565b6000806000806080858703121561395357600080fd5b84356001600160401b038082111561396a57600080fd5b61397688838901613895565b9550602087013591508082111561398c57600080fd5b61399888838901613895565b945060408701359150808211156139ae57600080fd5b506139bb87828801613895565b9250506139ca60608601613921565b905092959194509250565b6000602082840312156139e757600080fd5b612c4a82613921565b600181811c90821680613a0457607f821691505b6020821081036133ba57634e487b7160e01b600052602260045260246000fd5b634e487b7160e01b600052603260045260246000fd5b634e487b7160e01b600052601160045260246000fd5b600060ff821660ff8103613a6657613a66613a3a565b60010192915050565b6001600160801b03818116838216019080821115613a8f57613a8f613a3a565b5092915050565b81810381811115612c4d57612c4d613a3a565b8082028115828204841417612c4d57612c4d613a3a565b634e487b7160e01b600052601260045260246000fd5b600082613ae557613ae5613ac0565b500490565b600060018201613afc57613afc613a3a565b5060010190565b80820180821115612c4d57612c4d613a3a565b80516001600160501b038116811461393857600080fd5b600080600080600060a08688031215613b4557600080fd5b613b4e86613b16565b9450602086015193506040860151925060608601519150613b7160808701613b16565b90509295509295909350565b8181036000831280158383131683831282161715613a8f57613a8f613a3a565b6001600160a01b0389811682526020820189905260408201889052861660608201526001600160e01b03198516608082015260a0810184905260c0810183905261010060e08201819052600090613bf68382018561349b565b9b9a5050505050505050505050565b600082613c1457613c14613ac0565b500690565b60018060a01b0384168152826020820152606060408201526000612be6606083018461349b565b600060208284031215613c5257600080fd5b8151613613816135e8565b600181815b80851115613c98578160001904821115613c7e57613c7e613a3a565b80851615613c8b57918102915b93841c9390800290613c62565b509250929050565b600082613caf57506001612c4d565b81613cbc57506000612c4d565b8160018114613cd25760028114613cdc57613cf8565b6001915050612c4d565b60ff841115613ced57613ced613a3a565b50506001821b612c4d565b5060208310610133831016604e8410600b8410161715613d1b575081810a612c4d565b613d258383613c5d565b8060001904821115613d3957613d39613a3a565b029392505050565b6000612c4a8383613ca056fea264697066735822122099b2a857cb53b42db5aa58de7ac1ae83d08e80c551ad980d4e69d6df740b084664736f6c63430008120033",
  "devdoc": {
    "details": "LifeInsurancePolicy note This is an example policy which shows the usage of BaseInsurance Policy",
    "kind": "dev",
    "methods": {
      "checkUpkeep(bytes)": {
        "details": "Chainlink Keepers Implementation note Chainlink Keepers is used to automatically check the policy activity.  It checks if the policy has been funded and takes decision based on the status of  the funding. The policy also gets automatically termainted when the timePassedSinceCreation surpasses the policyTenure note The function can be overidden to adjust according to the needs"
      },
      "constructor": {
        "details": "Constructor",
        "params": {
          "_link": "chainlink link token address",
          "lifePolicyParams": "life policy param object, this is the custom struct defined for the life insurance policy",
          "policy": "policy object, base insurance policy param object",
          "priceFeed": "chainlink price feed address"
        }
      },
      "getPremiuminUSD()": {
        "details": "Chainlink PriceFeed Implementation note This function gets the premium to be paid in USD using Chainlink PriceFeed"
      },
      "makeClaim()": {
        "details": "function makeClaim note this function is used to make a claim on the policy, once the policy is claimed  now user can proceed to verify the details of claim by implementing methods like  DAO or Using API calls to validate data "
      },
      "performUpkeep(bytes)": {
        "details": "The input to this method should not be trusted, and the caller of the method should not even be restricted to any single registry. Anyone should be able call it, and the input should be validated, there is no guarantee that the data passed in is the performData returned from checkUpkeep. This could happen due to malicious keepers, racing keepers, or simply a state change while the performUpkeep transaction is waiting for confirmation. Always validate the data passed in.",
        "params": {
          "performData": "is the data which was passed back from the checkData simulation. If it is encoded, it can easily be decoded into other types by calling `abi.decode`. This data should not be trusted, and should be validated against the contract's current state."
        }
      },
      "requestVolumeData(string,string,string,address)": {
        "details": "Chainlink Any API Implementation",
        "params": {
          "jobId": "the jobId of the Chainlink node depending on the type of data you want to get",
          "oracle": "the associated oracle address to the API that you want to use note  The requestVolumeData function can be used to call any API and get the response note The function can be overidden to adjust according to the needs,  for example if you want to get multiple variables data",
          "path": "the path to the field that you want to retrieve in the JSON body of the response",
          "url": "the url of the API"
        }
      },
      "revivePolicy()": {
        "details": "function revivePolicy note this function is used to revive an inActive policy"
      },
      "terminatePolicy()": {
        "details": "function terminatePolicy note this function is used to terminate the policy and can only be called by the admins"
      },
      "withdraw()": {
        "details": "withdraw function note here, the base withdraw function is overidden to implement custom logic in withdraw according to the policy"
      }
    },
    "version": 1
  },
  "userdoc": {
    "errors": {
      "OnlyAdminAllowed()": [
        {
          "notice": "note Errors and Warnings related to BaseInsurancePolicy contract"
        }
      ]
    },
    "events": {
      "TerminatePolicy(address,uint256)": {
        "notice": "note Events related to BaseInsurancePolicy contract"
      }
    },
    "kind": "user",
    "methods": {
      "acceptOwnership()": {
        "notice": "Allows an ownership transfer to be completed by the recipient."
      },
      "fulfill(bytes32,uint256)": {
        "notice": "Receive the response in the form of uint256"
      },
      "owner()": {
        "notice": "Get the current owner"
      },
      "performUpkeep(bytes)": {
        "notice": "method that is actually executed by the keepers, via the registry. The data returned by the checkUpkeep simulation will be passed into this method to actually be executed."
      },
      "transferOwnership(address)": {
        "notice": "Allows an owner to begin transferring ownership to a new address, pending."
      }
    },
    "version": 1
  },
  "storageLayout": {
    "storage": [
      {
        "astId": 358,
        "contract": "contracts/v08/examples/LifeInsurancePolicy.sol:LifeInsurancePolicy",
        "label": "s_ens",
        "offset": 0,
        "slot": "0",
        "type": "t_contract(ENSInterface)1260"
      },
      {
        "astId": 360,
        "contract": "contracts/v08/examples/LifeInsurancePolicy.sol:LifeInsurancePolicy",
        "label": "s_ensNode",
        "offset": 0,
        "slot": "1",
        "type": "t_bytes32"
      },
      {
        "astId": 363,
        "contract": "contracts/v08/examples/LifeInsurancePolicy.sol:LifeInsurancePolicy",
        "label": "s_link",
        "offset": 0,
        "slot": "2",
        "type": "t_contract(LinkTokenInterface)1355"
      },
      {
        "astId": 366,
        "contract": "contracts/v08/examples/LifeInsurancePolicy.sol:LifeInsurancePolicy",
        "label": "s_oracle",
        "offset": 0,
        "slot": "3",
        "type": "t_contract(OperatorInterface)1435"
      },
      {
        "astId": 369,
        "contract": "contracts/v08/examples/LifeInsurancePolicy.sol:LifeInsurancePolicy",
        "label": "s_requestCount",
        "offset": 0,
        "slot": "4",
        "type": "t_uint256"
      },
      {
        "astId": 373,
        "contract": "contracts/v08/examples/LifeInsurancePolicy.sol:LifeInsurancePolicy",
        "label": "s_pendingRequests",
        "offset": 0,
        "slot": "5",
        "type": "t_mapping(t_bytes32,t_address)"
      },
      {
        "astId": 928,
        "contract": "contracts/v08/examples/LifeInsurancePolicy.sol:LifeInsurancePolicy",
        "label": "s_owner",
        "offset": 0,
        "slot": "6",
        "type": "t_address"
      },
      {
        "astId": 930,
        "contract": "contracts/v08/examples/LifeInsurancePolicy.sol:LifeInsurancePolicy",
        "label": "s_pendingOwner",
        "offset": 0,
        "slot": "7",
        "type": "t_address"
      },
      {
        "astId": 2538,
        "contract": "contracts/v08/examples/LifeInsurancePolicy.sol:LifeInsurancePolicy",
        "label": "fee",
        "offset": 0,
        "slot": "8",
        "type": "t_uint256"
      },
      {
        "astId": 2541,
        "contract": "contracts/v08/examples/LifeInsurancePolicy.sol:LifeInsurancePolicy",
        "label": "s_priceFeed",
        "offset": 0,
        "slot": "9",
        "type": "t_contract(AggregatorV3Interface)1128"
      },
      {
        "astId": 2544,
        "contract": "contracts/v08/examples/LifeInsurancePolicy.sol:LifeInsurancePolicy",
        "label": "s_policy",
        "offset": 0,
        "slot": "10",
        "type": "t_struct(Policy)4119_storage"
      },
      {
        "astId": 2546,
        "contract": "contracts/v08/examples/LifeInsurancePolicy.sol:LifeInsurancePolicy",
        "label": "s_lastPaymentTimestamp",
        "offset": 0,
        "slot": "31",
        "type": "t_uint256"
      },
      {
        "astId": 2548,
        "contract": "contracts/v08/examples/LifeInsurancePolicy.sol:LifeInsurancePolicy",
        "label": "s_startTimestamp",
        "offset": 0,
        "slot": "32",
        "type": "t_uint256"
      },
      {
        "astId": 2550,
        "contract": "contracts/v08/examples/LifeInsurancePolicy.sol:LifeInsurancePolicy",
        "label": "s_timePassedSinceCreation",
        "offset": 0,
        "slot": "33",
        "type": "t_uint256"
      },
      {
        "astId": 2553,
        "contract": "contracts/v08/examples/LifeInsurancePolicy.sol:LifeInsurancePolicy",
        "label": "s_admins",
        "offset": 0,
        "slot": "34",
        "type": "t_array(t_address)dyn_storage"
      },
      {
        "astId": 2556,
        "contract": "contracts/v08/examples/LifeInsurancePolicy.sol:LifeInsurancePolicy",
        "label": "s_managers",
        "offset": 0,
        "slot": "35",
        "type": "t_array(t_address)dyn_storage"
      },
      {
        "astId": 2558,
        "contract": "contracts/v08/examples/LifeInsurancePolicy.sol:LifeInsurancePolicy",
        "label": "s_owner",
        "offset": 0,
        "slot": "36",
        "type": "t_address"
      },
      {
        "astId": 4133,
        "contract": "contracts/v08/examples/LifeInsurancePolicy.sol:LifeInsurancePolicy",
        "label": "s_lifePolicyParams",
        "offset": 0,
        "slot": "37",
        "type": "t_struct(LifePolicyParams)4050_storage"
      }
    ],
    "types": {
      "t_address": {
        "encoding": "inplace",
        "label": "address",
        "numberOfBytes": "20"
      },
      "t_address_payable": {
        "encoding": "inplace",
        "label": "address payable",
        "numberOfBytes": "20"
      },
      "t_array(t_address)dyn_storage": {
        "base": "t_address",
        "encoding": "dynamic_array",
        "label": "address[]",
        "numberOfBytes": "32"
      },
      "t_array(t_struct(Nominee)4045_storage)dyn_storage": {
        "base": "t_struct(Nominee)4045_storage",
        "encoding": "dynamic_array",
        "label": "struct SharedData.Nominee[]",
        "numberOfBytes": "32"
      },
      "t_bool": {
        "encoding": "inplace",
        "label": "bool",
        "numberOfBytes": "1"
      },
      "t_bytes32": {
        "encoding": "inplace",
        "label": "bytes32",
        "numberOfBytes": "32"
      },
      "t_contract(AggregatorV3Interface)1128": {
        "encoding": "inplace",
        "label": "contract AggregatorV3Interface",
        "numberOfBytes": "20"
      },
      "t_contract(ENSInterface)1260": {
        "encoding": "inplace",
        "label": "contract ENSInterface",
        "numberOfBytes": "20"
      },
      "t_contract(LinkTokenInterface)1355": {
        "encoding": "inplace",
        "label": "contract LinkTokenInterface",
        "numberOfBytes": "20"
      },
      "t_contract(OperatorInterface)1435": {
        "encoding": "inplace",
        "label": "contract OperatorInterface",
        "numberOfBytes": "20"
      },
      "t_enum(PolicyType)4039": {
        "encoding": "inplace",
        "label": "enum SharedData.PolicyType",
        "numberOfBytes": "1"
      },
      "t_mapping(t_bytes32,t_address)": {
        "encoding": "mapping",
        "key": "t_bytes32",
        "label": "mapping(bytes32 => address)",
        "numberOfBytes": "32",
        "value": "t_address"
      },
      "t_string_storage": {
        "encoding": "bytes",
        "label": "string",
        "numberOfBytes": "32"
      },
      "t_struct(HumanDetails)4072_storage": {
        "encoding": "inplace",
        "label": "struct SharedData.HumanDetails",
        "members": [
          {
            "astId": 4055,
            "contract": "contracts/v08/examples/LifeInsurancePolicy.sol:LifeInsurancePolicy",
            "label": "name",
            "offset": 0,
            "slot": "0",
            "type": "t_string_storage"
          },
          {
            "astId": 4057,
            "contract": "contracts/v08/examples/LifeInsurancePolicy.sol:LifeInsurancePolicy",
            "label": "dateOfBirth",
            "offset": 0,
            "slot": "1",
            "type": "t_string_storage"
          },
          {
            "astId": 4059,
            "contract": "contracts/v08/examples/LifeInsurancePolicy.sol:LifeInsurancePolicy",
            "label": "gender",
            "offset": 0,
            "slot": "2",
            "type": "t_string_storage"
          },
          {
            "astId": 4061,
            "contract": "contracts/v08/examples/LifeInsurancePolicy.sol:LifeInsurancePolicy",
            "label": "homeAddress",
            "offset": 0,
            "slot": "3",
            "type": "t_string_storage"
          },
          {
            "astId": 4063,
            "contract": "contracts/v08/examples/LifeInsurancePolicy.sol:LifeInsurancePolicy",
            "label": "phoneNumber",
            "offset": 0,
            "slot": "4",
            "type": "t_string_storage"
          },
          {
            "astId": 4065,
            "contract": "contracts/v08/examples/LifeInsurancePolicy.sol:LifeInsurancePolicy",
            "label": "pronouns",
            "offset": 0,
            "slot": "5",
            "type": "t_string_storage"
          },
          {
            "astId": 4067,
            "contract": "contracts/v08/examples/LifeInsurancePolicy.sol:LifeInsurancePolicy",
            "label": "email",
            "offset": 0,
            "slot": "6",
            "type": "t_string_storage"
          },
          {
            "astId": 4069,
            "contract": "contracts/v08/examples/LifeInsurancePolicy.sol:LifeInsurancePolicy",
            "label": "occupation",
            "offset": 0,
            "slot": "7",
            "type": "t_string_storage"
          },
          {
            "astId": 4071,
            "contract": "contracts/v08/examples/LifeInsurancePolicy.sol:LifeInsurancePolicy",
            "label": "policyHolderWalletAddress",
            "offset": 0,
            "slot": "8",
            "type": "t_address_payable"
          }
        ],
        "numberOfBytes": "288"
      },
      "t_struct(LifePolicyParams)4050_storage": {
        "encoding": "inplace",
        "label": "struct SharedData.LifePolicyParams",
        "members": [
          {
            "astId": 4049,
            "contract": "contracts/v08/examples/LifeInsurancePolicy.sol:LifeInsurancePolicy",
            "label": "nominees",
            "offset": 0,
            "slot": "0",
            "type": "t_array(t_struct(Nominee)4045_storage)dyn_storage"
          }
        ],
        "numberOfBytes": "32"
      },
      "t_struct(Nominee)4045_storage": {
        "encoding": "inplace",
        "label": "struct SharedData.Nominee",
        "members": [
          {
            "astId": 4042,
            "contract": "contracts/v08/examples/LifeInsurancePolicy.sol:LifeInsurancePolicy",
            "label": "nomineeDetails",
            "offset": 0,
            "slot": "0",
            "type": "t_struct(HumanDetails)4072_storage"
          },
          {
            "astId": 4044,
            "contract": "contracts/v08/examples/LifeInsurancePolicy.sol:LifeInsurancePolicy",
            "label": "nomineeShare",
            "offset": 0,
            "slot": "9",
            "type": "t_uint128"
          }
        ],
        "numberOfBytes": "320"
      },
      "t_struct(Policy)4119_storage": {
        "encoding": "inplace",
        "label": "struct SharedData.Policy",
        "members": [
          {
            "astId": 4080,
            "contract": "contracts/v08/examples/LifeInsurancePolicy.sol:LifeInsurancePolicy",
            "label": "policyHolder",
            "offset": 0,
            "slot": "0",
            "type": "t_struct(HumanDetails)4072_storage"
          },
          {
            "astId": 4082,
            "contract": "contracts/v08/examples/LifeInsurancePolicy.sol:LifeInsurancePolicy",
            "label": "policyTenure",
            "offset": 0,
            "slot": "9",
            "type": "t_uint128"
          },
          {
            "astId": 4084,
            "contract": "contracts/v08/examples/LifeInsurancePolicy.sol:LifeInsurancePolicy",
            "label": "gracePeriod",
            "offset": 16,
            "slot": "9",
            "type": "t_uint128"
          },
          {
            "astId": 4086,
            "contract": "contracts/v08/examples/LifeInsurancePolicy.sol:LifeInsurancePolicy",
            "label": "timeBeforeCommencement",
            "offset": 0,
            "slot": "10",
            "type": "t_uint128"
          },
          {
            "astId": 4088,
            "contract": "contracts/v08/examples/LifeInsurancePolicy.sol:LifeInsurancePolicy",
            "label": "timeInterval",
            "offset": 0,
            "slot": "11",
            "type": "t_uint256"
          },
          {
            "astId": 4090,
            "contract": "contracts/v08/examples/LifeInsurancePolicy.sol:LifeInsurancePolicy",
            "label": "premiumToBePaid",
            "offset": 0,
            "slot": "12",
            "type": "t_uint256"
          },
          {
            "astId": 4092,
            "contract": "contracts/v08/examples/LifeInsurancePolicy.sol:LifeInsurancePolicy",
            "label": "totalCoverageByPolicy",
            "offset": 0,
            "slot": "13",
            "type": "t_uint256"
          },
          {
            "astId": 4094,
            "contract": "contracts/v08/examples/LifeInsurancePolicy.sol:LifeInsurancePolicy",
            "label": "hasClaimed",
            "offset": 0,
            "slot": "14",
            "type": "t_bool"
          },
          {
            "astId": 4096,
            "contract": "contracts/v08/examples/LifeInsurancePolicy.sol:LifeInsurancePolicy",
            "label": "isPolicyActive",
            "offset": 1,
            "slot": "14",
            "type": "t_bool"
          },
          {
            "astId": 4098,
            "contract": "contracts/v08/examples/LifeInsurancePolicy.sol:LifeInsurancePolicy",
            "label": "isClaimable",
            "offset": 2,
            "slot": "14",
            "type": "t_bool"
          },
          {
            "astId": 4100,
            "contract": "contracts/v08/examples/LifeInsurancePolicy.sol:LifeInsurancePolicy",
            "label": "isTerminated",
            "offset": 3,
            "slot": "14",
            "type": "t_bool"
          },
          {
            "astId": 4102,
            "contract": "contracts/v08/examples/LifeInsurancePolicy.sol:LifeInsurancePolicy",
            "label": "hasFundedForCurrentInterval",
            "offset": 4,
            "slot": "14",
            "type": "t_bool"
          },
          {
            "astId": 4105,
            "contract": "contracts/v08/examples/LifeInsurancePolicy.sol:LifeInsurancePolicy",
            "label": "revivalRule",
            "offset": 0,
            "slot": "15",
            "type": "t_struct(RevivalRule)4077_storage"
          },
          {
            "astId": 4107,
            "contract": "contracts/v08/examples/LifeInsurancePolicy.sol:LifeInsurancePolicy",
            "label": "policyDetails",
            "offset": 0,
            "slot": "17",
            "type": "t_string_storage"
          },
          {
            "astId": 4110,
            "contract": "contracts/v08/examples/LifeInsurancePolicy.sol:LifeInsurancePolicy",
            "label": "policyType",
            "offset": 0,
            "slot": "18",
            "type": "t_enum(PolicyType)4039"
          },
          {
            "astId": 4112,
            "contract": "contracts/v08/examples/LifeInsurancePolicy.sol:LifeInsurancePolicy",
            "label": "policyManagerAddress",
            "offset": 1,
            "slot": "18",
            "type": "t_address_payable"
          },
          {
            "astId": 4115,
            "contract": "contracts/v08/examples/LifeInsurancePolicy.sol:LifeInsurancePolicy",
            "label": "admins",
            "offset": 0,
            "slot": "19",
            "type": "t_array(t_address)dyn_storage"
          },
          {
            "astId": 4118,
            "contract": "contracts/v08/examples/LifeInsurancePolicy.sol:LifeInsurancePolicy",
            "label": "collaborators",
            "offset": 0,
            "slot": "20",
            "type": "t_array(t_address)dyn_storage"
          }
        ],
        "numberOfBytes": "672"
      },
      "t_struct(RevivalRule)4077_storage": {
        "encoding": "inplace",
        "label": "struct SharedData.RevivalRule",
        "members": [
          {
            "astId": 4074,
            "contract": "contracts/v08/examples/LifeInsurancePolicy.sol:LifeInsurancePolicy",
            "label": "revivalPeriod",
            "offset": 0,
            "slot": "0",
            "type": "t_uint128"
          },
          {
            "astId": 4076,
            "contract": "contracts/v08/examples/LifeInsurancePolicy.sol:LifeInsurancePolicy",
            "label": "revivalAmount",
            "offset": 0,
            "slot": "1",
            "type": "t_uint256"
          }
        ],
        "numberOfBytes": "64"
      },
      "t_uint128": {
        "encoding": "inplace",
        "label": "uint128",
        "numberOfBytes": "16"
      },
      "t_uint256": {
        "encoding": "inplace",
        "label": "uint256",
        "numberOfBytes": "32"
      }
    }
  }
}