{
  "address": "0xC91D36376438B50b51919d72b7001B05850675B6",
  "abi": [
    {
      "inputs": [],
      "stateMutability": "nonpayable",
      "type": "constructor"
    },
    {
      "inputs": [],
      "name": "ContractTerminatedOrCancelled",
      "type": "error"
    },
    {
      "inputs": [],
      "name": "FundingError",
      "type": "error"
    },
    {
      "inputs": [],
      "name": "IncorrectAmountSent",
      "type": "error"
    },
    {
      "inputs": [],
      "name": "InvalidContractAddress",
      "type": "error"
    },
    {
      "anonymous": false,
      "inputs": [
        {
          "indexed": true,
          "internalType": "address",
          "name": "policyAddress",
          "type": "address"
        },
        {
          "indexed": true,
          "internalType": "uint256",
          "name": "amountFunded",
          "type": "uint256"
        }
      ],
      "name": "PolicyFunded",
      "type": "event"
    },
    {
      "anonymous": false,
      "inputs": [
        {
          "indexed": true,
          "internalType": "address",
          "name": "policyAddress",
          "type": "address"
        }
      ],
      "name": "Terminated",
      "type": "event"
    },
    {
      "anonymous": false,
      "inputs": [
        {
          "indexed": true,
          "internalType": "address",
          "name": "policyAddress",
          "type": "address"
        },
        {
          "indexed": true,
          "internalType": "address",
          "name": "policyHolderAddress",
          "type": "address"
        },
        {
          "indexed": true,
          "internalType": "uint256",
          "name": "amountWithdrawn",
          "type": "uint256"
        }
      ],
      "name": "Withdrawn",
      "type": "event"
    },
    {
      "inputs": [
        {
          "internalType": "address payable",
          "name": "contractAddress",
          "type": "address"
        }
      ],
      "name": "addFundToContract",
      "outputs": [],
      "stateMutability": "payable",
      "type": "function"
    },
    {
      "inputs": [
        {
          "internalType": "address payable",
          "name": "contractAddress",
          "type": "address"
        }
      ],
      "name": "fundPremiumToContract",
      "outputs": [],
      "stateMutability": "payable",
      "type": "function"
    },
    {
      "inputs": [],
      "name": "getOwner",
      "outputs": [
        {
          "internalType": "address payable",
          "name": "owner",
          "type": "address"
        }
      ],
      "stateMutability": "view",
      "type": "function"
    },
    {
      "inputs": [
        {
          "internalType": "address payable",
          "name": "contractAddress",
          "type": "address"
        }
      ],
      "name": "terminatePolicy",
      "outputs": [],
      "stateMutability": "payable",
      "type": "function"
    },
    {
      "inputs": [
        {
          "internalType": "address payable",
          "name": "contractAddress",
          "type": "address"
        }
      ],
      "name": "withdrawFundFromContract",
      "outputs": [],
      "stateMutability": "payable",
      "type": "function"
    }
  ],
  "transactionHash": "0xaa2ec99526bd029338497fd31aaa69409ed4ecf264cdf6420cb65490530fac83",
  "args": [],
  "numDeployments": 1,
  "solcInputHash": "e2cd8142514581c866e24bf4599f630b",
  "bytecode": "0x608060405234801561001057600080fd5b50600080546001600160a01b03191633179055610909806100326000396000f3fe60806040526004361061004a5760003560e01c80632a1101101461004f578063446259cc146100645780636528505e14610077578063893d20e81461008a578063e982ab0d146100b6575b600080fd5b61006261005d366004610837565b6100c9565b005b610062610072366004610837565b61026d565b610062610085366004610837565b6104e0565b34801561009657600080fd5b50600054604080516001600160a01b039092168252519081900360200190f35b6100626100c4366004610837565b6105a5565b6000819050806001600160a01b0316639507b8786040518163ffffffff1660e01b8152600401602060405180830381865afa15801561010c573d6000803e3d6000fd5b505050506040513d601f19601f82011682018060405250810190610130919061085b565b15801561019c5750806001600160a01b0316633db96d5f6040518163ffffffff1660e01b8152600401602060405180830381865afa158015610176573d6000803e3d6000fd5b505050506040513d601f19601f8201168201806040525081019061019a919061085b565b155b156101ba576040516301954cf360e31b815260040160405180910390fd5b6001600160a01b038216156101e25760405163a710429d60e01b815260040160405180910390fd5b806001600160a01b031663d48d62296040518163ffffffff1660e01b8152600401600060405180830381600087803b15801561021d57600080fd5b505af1158015610231573d6000803e3d6000fd5b50506040516001600160a01b03851692507f98cd97fc1a1cc958cbd729b1bb531d4f3ea4925470bf23ea9af386640cbd07be9150600090a25050565b6000819050806001600160a01b0316639507b8786040518163ffffffff1660e01b8152600401602060405180830381865afa1580156102b0573d6000803e3d6000fd5b505050506040513d601f19601f820116820180604052508101906102d4919061085b565b1580156103405750806001600160a01b0316633db96d5f6040518163ffffffff1660e01b8152600401602060405180830381865afa15801561031a573d6000803e3d6000fd5b505050506040513d601f19601f8201168201806040525081019061033e919061085b565b155b1561035e576040516301954cf360e31b815260040160405180910390fd5b6001600160a01b038216156103865760405163a710429d60e01b815260040160405180910390fd5b806001600160a01b0316633ccfd60b6040518163ffffffff1660e01b8152600401600060405180830381600087803b1580156103c157600080fd5b505af11580156103d5573d6000803e3d6000fd5b50505050806001600160a01b031663248f0f976040518163ffffffff1660e01b8152600401602060405180830381865afa158015610417573d6000803e3d6000fd5b505050506040513d601f19601f8201168201806040525081019061043b919061087d565b816001600160a01b031663ec21858f6040518163ffffffff1660e01b8152600401602060405180830381865afa158015610479573d6000803e3d6000fd5b505050506040513d601f19601f8201168201806040525081019061049d9190610896565b6001600160a01b0316836001600160a01b03167fd1c19fbcd4551a5edfb66d43d2e337c04837afda3482b42bdf569a8fccdae5fb60405160405180910390a45050565b6001600160a01b038116156105085760405163a710429d60e01b815260040160405180910390fd5b6000816001600160a01b03163460405160006040518083038185875af1925050503d8060008114610555576040519150601f19603f3d011682016040523d82523d6000602084013e61055a565b606091505b50509050801561058c5760405134906001600160a01b038416906000805160206108b483398151915290600090a35050565b6040516340356c9360e11b815260040160405180910390fd5b6000819050806001600160a01b0316639507b8786040518163ffffffff1660e01b8152600401602060405180830381865afa1580156105e8573d6000803e3d6000fd5b505050506040513d601f19601f8201168201806040525081019061060c919061085b565b1580156106785750806001600160a01b0316633db96d5f6040518163ffffffff1660e01b8152600401602060405180830381865afa158015610652573d6000803e3d6000fd5b505050506040513d601f19601f82011682018060405250810190610676919061085b565b155b15610696576040516301954cf360e31b815260040160405180910390fd5b6001600160a01b038216156106be5760405163a710429d60e01b815260040160405180910390fd5b806001600160a01b03166301b01c866040518163ffffffff1660e01b8152600401602060405180830381865afa1580156106fc573d6000803e3d6000fd5b505050506040513d601f19601f82011682018060405250810190610720919061087d565b341115610740576040516319a6bd0f60e01b815260040160405180910390fd5b6000826001600160a01b03163460405160006040518083038185875af1925050503d806000811461078d576040519150601f19603f3d011682016040523d82523d6000602084013e610792565b606091505b50509050801561058c57604051630cef596760e01b8152600160048201526001600160a01b03831690630cef596790602401600060405180830381600087803b1580156107de57600080fd5b505af11580156107f2573d6000803e3d6000fd5b50506040513492506001600160a01b03861691506000805160206108b483398151915290600090a3505050565b6001600160a01b038116811461083457600080fd5b50565b60006020828403121561084957600080fd5b81356108548161081f565b9392505050565b60006020828403121561086d57600080fd5b8151801515811461085457600080fd5b60006020828403121561088f57600080fd5b5051919050565b6000602082840312156108a857600080fd5b81516108548161081f56fed356f7331c13531adfd8e4a94db0798ee057f63b5f809e28e98d373e611b8cf0a26469706673582212209f354619d9b9437f261c669f1cc2ea149998c357bb6974ba4fd6d153c58a974964736f6c63430008120033",
  "devdoc": {
    "details": "PolicyManager Contract note This contract can be used as a middleware to manage multiple policy contracts,  do functionalities like withdrawing or funding the policies ",
    "kind": "dev",
    "methods": {
      "addFundToContract(address)": {
        "details": "function addFundToContract",
        "params": {
          "contractAddress": "the contractAddress which we need to fund note this functions is used to fund the contract in any case"
        }
      },
      "fundPremiumToContract(address)": {
        "details": "function fundPremiumToContract",
        "params": {
          "contractAddress": "the contractAddress which we need to fund note this function is used to fund the premium to the contract"
        }
      },
      "terminatePolicy(address)": {
        "details": "function terminatePolicy",
        "params": {
          "contractAddress": "address of the contract to be terminated note after termination, the stored eth amount in policy will  get transferred to the policyManager address of that policy "
        }
      },
      "withdrawFundFromContract(address)": {
        "details": "function withdrawFundFromContract note This function is used to withdraw the coverageAmount from the contract The function must be overidden if the withdraw functionality needs to be made different"
      }
    },
    "version": 1
  },
  "userdoc": {
    "kind": "user",
    "methods": {},
    "version": 1
  },
  "storageLayout": {
    "storage": [
      {
        "astId": 6411,
        "contract": "contracts/v08/PolicyManager.sol:PolicyManager",
        "label": "s_owner",
        "offset": 0,
        "slot": "0",
        "type": "t_address_payable"
      }
    ],
    "types": {
      "t_address_payable": {
        "encoding": "inplace",
        "label": "address payable",
        "numberOfBytes": "20"
      }
    }
  }
}