{
  "address": "0x5e9A52D056980106cb8e5A5704cE2170B74387D1",
  "abi": [
    {
      "inputs": [],
      "stateMutability": "nonpayable",
      "type": "constructor"
    },
    {
      "anonymous": false,
      "inputs": [
        {
          "indexed": true,
          "internalType": "address",
          "name": "policyAddress",
          "type": "address"
        },
        {
          "indexed": true,
          "internalType": "address",
          "name": "policyHolderAddress",
          "type": "address"
        },
        {
          "indexed": true,
          "internalType": "enum SharedData.PolicyType",
          "name": "policyType",
          "type": "uint8"
        }
      ],
      "name": "PolicyCreated",
      "type": "event"
    },
    {
      "inputs": [
        {
          "components": [
            {
              "components": [
                {
                  "internalType": "string",
                  "name": "name",
                  "type": "string"
                },
                {
                  "internalType": "string",
                  "name": "dateOfBirth",
                  "type": "string"
                },
                {
                  "internalType": "string",
                  "name": "gender",
                  "type": "string"
                },
                {
                  "internalType": "string",
                  "name": "homeAddress",
                  "type": "string"
                },
                {
                  "internalType": "string",
                  "name": "phoneNumber",
                  "type": "string"
                },
                {
                  "internalType": "string",
                  "name": "pronouns",
                  "type": "string"
                },
                {
                  "internalType": "string",
                  "name": "email",
                  "type": "string"
                },
                {
                  "internalType": "string",
                  "name": "occupation",
                  "type": "string"
                },
                {
                  "internalType": "address payable",
                  "name": "policyHolderWalletAddress",
                  "type": "address"
                }
              ],
              "internalType": "struct SharedData.HumanDetails",
              "name": "policyHolder",
              "type": "tuple"
            },
            {
              "internalType": "uint128",
              "name": "policyTenure",
              "type": "uint128"
            },
            {
              "internalType": "uint128",
              "name": "gracePeriod",
              "type": "uint128"
            },
            {
              "internalType": "uint128",
              "name": "timeBeforeCommencement",
              "type": "uint128"
            },
            {
              "internalType": "uint256",
              "name": "timeInterval",
              "type": "uint256"
            },
            {
              "internalType": "uint256",
              "name": "premiumToBePaid",
              "type": "uint256"
            },
            {
              "internalType": "uint256",
              "name": "totalCoverageByPolicy",
              "type": "uint256"
            },
            {
              "internalType": "bool",
              "name": "hasClaimed",
              "type": "bool"
            },
            {
              "internalType": "bool",
              "name": "isPolicyActive",
              "type": "bool"
            },
            {
              "internalType": "bool",
              "name": "isClaimable",
              "type": "bool"
            },
            {
              "internalType": "bool",
              "name": "isTerminated",
              "type": "bool"
            },
            {
              "internalType": "bool",
              "name": "hasFundedForCurrentInterval",
              "type": "bool"
            },
            {
              "components": [
                {
                  "internalType": "uint128",
                  "name": "revivalPeriod",
                  "type": "uint128"
                },
                {
                  "internalType": "uint256",
                  "name": "revivalAmount",
                  "type": "uint256"
                }
              ],
              "internalType": "struct SharedData.RevivalRule",
              "name": "revivalRule",
              "type": "tuple"
            },
            {
              "internalType": "string",
              "name": "policyDetails",
              "type": "string"
            },
            {
              "internalType": "enum SharedData.PolicyType",
              "name": "policyType",
              "type": "uint8"
            },
            {
              "internalType": "address payable",
              "name": "policyManagerAddress",
              "type": "address"
            },
            {
              "internalType": "address[]",
              "name": "admins",
              "type": "address[]"
            },
            {
              "internalType": "address[]",
              "name": "collaborators",
              "type": "address[]"
            }
          ],
          "internalType": "struct SharedData.Policy",
          "name": "policy",
          "type": "tuple"
        },
        {
          "components": [
            {
              "components": [
                {
                  "components": [
                    {
                      "internalType": "string",
                      "name": "name",
                      "type": "string"
                    },
                    {
                      "internalType": "string",
                      "name": "dateOfBirth",
                      "type": "string"
                    },
                    {
                      "internalType": "string",
                      "name": "gender",
                      "type": "string"
                    },
                    {
                      "internalType": "string",
                      "name": "homeAddress",
                      "type": "string"
                    },
                    {
                      "internalType": "string",
                      "name": "phoneNumber",
                      "type": "string"
                    },
                    {
                      "internalType": "string",
                      "name": "pronouns",
                      "type": "string"
                    },
                    {
                      "internalType": "string",
                      "name": "email",
                      "type": "string"
                    },
                    {
                      "internalType": "string",
                      "name": "occupation",
                      "type": "string"
                    },
                    {
                      "internalType": "address payable",
                      "name": "policyHolderWalletAddress",
                      "type": "address"
                    }
                  ],
                  "internalType": "struct SharedData.HumanDetails",
                  "name": "nomineeDetails",
                  "type": "tuple"
                },
                {
                  "internalType": "uint128",
                  "name": "nomineeShare",
                  "type": "uint128"
                }
              ],
              "internalType": "struct SharedData.Nominee[]",
              "name": "nominees",
              "type": "tuple[]"
            }
          ],
          "internalType": "struct SharedData.LifePolicyParams",
          "name": "lifePolicyParams",
          "type": "tuple"
        },
        {
          "internalType": "address",
          "name": "_link",
          "type": "address"
        },
        {
          "internalType": "address",
          "name": "priceFeed",
          "type": "address"
        }
      ],
      "name": "deployLifePolicy",
      "outputs": [
        {
          "internalType": "address",
          "name": "policyAddress",
          "type": "address"
        }
      ],
      "stateMutability": "nonpayable",
      "type": "function"
    }
  ],
  "transactionHash": "0x3c09aa6eaf2d5a6845cd7c71452bf689b199bb08e2cc6a0611dc00415662bc2e",
  "args": [],
  "numDeployments": 1,
  "solcInputHash": "e2cd8142514581c866e24bf4599f630b",
  "bytecode": "0x608060405234801561001057600080fd5b50615c90806100206000396000f3fe60806040523480156200001157600080fd5b50600436106200002e5760003560e01c80638e5329fb1462000033575b600080fd5b6200004a6200004436600462000638565b62000066565b6040516001600160a01b03909116815260200160405180910390f35b6000806000868686866040516200007d90620000fa565b6200008c949392919062000aba565b604051809103906000f080158015620000a9573d6000803e3d6000fd5b5091508190506000875161010001516040516001600160a01b03918216918516907fc63fd39026d1166b06ee260d4c63717da6e72d467b59c7e34262f26d6885000090600090a45095945050505050565b614fa28062000cb983390190565b634e487b7160e01b600052604160045260246000fd5b60405161012081016001600160401b038111828210171562000144576200014462000108565b60405290565b604080519081016001600160401b038111828210171562000144576200014462000108565b604051602081016001600160401b038111828210171562000144576200014462000108565b60405161024081016001600160401b038111828210171562000144576200014462000108565b604051601f8201601f191681016001600160401b0381118282101715620001e557620001e562000108565b604052919050565b600082601f830112620001ff57600080fd5b81356001600160401b038111156200021b576200021b62000108565b62000230601f8201601f1916602001620001ba565b8181528460208386010111156200024657600080fd5b816020850160208301376000918101602001919091529392505050565b6001600160a01b03811681146200027957600080fd5b50565b8035620002898162000263565b919050565b60006101208284031215620002a257600080fd5b620002ac6200011e565b905081356001600160401b0380821115620002c657600080fd5b620002d485838601620001ed565b83526020840135915080821115620002eb57600080fd5b620002f985838601620001ed565b602084015260408401359150808211156200031357600080fd5b6200032185838601620001ed565b604084015260608401359150808211156200033b57600080fd5b6200034985838601620001ed565b606084015260808401359150808211156200036357600080fd5b6200037185838601620001ed565b608084015260a08401359150808211156200038b57600080fd5b6200039985838601620001ed565b60a084015260c0840135915080821115620003b357600080fd5b620003c185838601620001ed565b60c084015260e0840135915080821115620003db57600080fd5b50620003ea84828501620001ed565b60e083015250610100620004008184016200027c565b9082015292915050565b80356001600160801b03811681146200028957600080fd5b803580151581146200028957600080fd5b6000604082840312156200044657600080fd5b620004506200014a565b90506200045d826200040a565b81526020820135602082015292915050565b8035600281106200028957600080fd5b60006001600160401b038211156200049b576200049b62000108565b5060051b60200190565b600082601f830112620004b757600080fd5b81356020620004d0620004ca836200047f565b620001ba565b82815260059290921b84018101918181019086841115620004f057600080fd5b8286015b84811015620005185780356200050a8162000263565b8352918301918301620004f4565b509695505050505050565b600060208083850312156200053757600080fd5b620005416200016f565b915082356001600160401b03808211156200055b57600080fd5b818501915085601f8301126200057057600080fd5b813562000581620004ca826200047f565b81815260059190911b83018401908481019088831115620005a157600080fd5b8585015b838110156200062957803585811115620005bf5760008081fd5b86016040818c03601f1901811315620005d85760008081fd5b620005e26200014a565b8983013588811115620005f55760008081fd5b620006058e8c838701016200028e565b825250620006158284016200040a565b818b015285525050918601918601620005a5565b50865250939695505050505050565b600080600080608085870312156200064f57600080fd5b84356001600160401b03808211156200066757600080fd5b9086019061026082890312156200067d57600080fd5b6200068762000194565b8235828111156200069757600080fd5b620006a58a8286016200028e565b825250620006b6602084016200040a565b6020820152620006c9604084016200040a565b6040820152620006dc606084016200040a565b60608201526080830135608082015260a083013560a082015260c083013560c08201526200070d60e0840162000422565b60e08201526101006200072281850162000422565b908201526101206200073684820162000422565b908201526101406200074a84820162000422565b908201526101606200075e84820162000422565b90820152610180620007738a85830162000433565b908201526101c083810135838111156200078c57600080fd5b6200079a8b828701620001ed565b6101a0840152506101e0620007b18186016200046f565b828401526102009150620007c78286016200027c565b908301526102208481013584811115620007e057600080fd5b620007ee8c828801620004a5565b83850152506102408501359150838211156200080957600080fd5b620008178b838701620004a5565b9083015250955060208701359150808211156200083357600080fd5b50620008428782880162000523565b93505062000853604086016200027c565b915062000863606086016200027c565b905092959194509250565b6001600160a01b03169052565b6000815180845260005b81811015620008a35760208185018101518683018201520162000885565b506000602082860101526020601f19601f83011685010191505092915050565b60006101208251818552620008db828601826200087b565b91505060208301518482036020860152620008f782826200087b565b915050604083015184820360408601526200091382826200087b565b915050606083015184820360608601526200092f82826200087b565b915050608083015184820360808601526200094b82826200087b565b91505060a083015184820360a08601526200096782826200087b565b91505060c083015184820360c08601526200098382826200087b565b91505060e083015184820360e08601526200099f82826200087b565b91505061010080840151620009b7828701826200086e565b5090949350505050565b6001600160801b03169052565b60028110620009ed57634e487b7160e01b600052602160045260246000fd5b9052565b600081518084526020808501945080840160005b8381101562000a2c5781516001600160a01b03168752958201959082019060010162000a05565b509495945050505050565b8051602080845281518482018190526000926040919083019082870190600581901b88018401865b8281101562000aad57898203603f190184528451805187845262000a8688850182620008c3565b918901516001600160801b0316938901939093529487019493870193915060010162000a5f565b5098975050505050505050565b608081526000855161026080608085015262000adb6102e0850183620008c3565b9150602088015162000af160a0860182620009c1565b50604088015162000b0660c0860182620009c1565b50606088015162000b1b60e0860182620009c1565b506080880151610100818187015260a08a01519150610120828188015260c08b01519250610140838189015260e08c0151935061016062000b5f818a018615159052565b928c015193506101809262000b778985018615159052565b918c015193506101a09162000b8f8984018615159052565b908c015193506101c09062000ba78983018615159052565b8c015193506101e062000bbd8982018615159052565b928c015193506102009262000be78985018680516001600160801b03168252602090810151910152565b828d01519450607f19925082898803016102408a015262000c0987866200087b565b9650818d0151945062000c1f868a0186620009ce565b8c0151945062000c3690506102808801856200086e565b818b0151935080878603016102a088015262000c538585620009f1565b94506102208b0151935080878603016102c088015250505062000c778282620009f1565b915050828103602084015262000c8e818762000a37565b91505062000ca060408301856200086e565b62000caf60608301846200086e565b9594505050505056fe608060405260016004553480156200001657600080fd5b5060405162004fa238038062004fa2833981016040819052620000399162000e02565b8382823380600081620000935760405162461bcd60e51b815260206004820152601860248201527f43616e6e6f7420736574206f776e657220746f207a65726f000000000000000060448201526064015b60405180910390fd5b600680546001600160a01b0319166001600160a01b0384811691909117909155811615620000c657620000c6816200078c565b505083518051859250600a919082908190620000e39082620010c8565b5060208201516001820190620000fa9082620010c8565b5060408201516002820190620001119082620010c8565b5060608201516003820190620001289082620010c8565b50608082015160048201906200013f9082620010c8565b5060a08201516005820190620001569082620010c8565b5060c082015160068201906200016d9082620010c8565b5060e08201516007820190620001849082620010c8565b506101009182015160089190910180546001600160a01b0319166001600160a01b0390921691909117905560208381015160408501516001600160801b03918216600160801b918316919091021760098501556060850151600a850180546001600160801b03199081169284169290921790556080860151600b86015560a0860151600c86015560c0860151600d86015560e0860151600e86018054888701516101208a01516101408b01516101608c015161ffff1990941695151561ff001916959095179115159098021763ffff00001916620100009715159790970263ff0000001916969096176301000000921515929092029190911760ff60201b191664010000000095151595909502949094179093556101808501518051600f86018054909516921691909117909255015160108201556101a08201516011820190620002d09082620010c8565b506101c082015160128201805460ff191660018381811115620002f757620002f762001194565b02179055506101e08201516012820180546001600160a01b0390921661010002610100600160a81b031990921691909117905561020082015180516200034891601384019160209091019062000838565b5061022082015180516200036791601484019160209091019062000838565b5090505060005b601d5460ff82161015620003ea576022600a6013018260ff16815481106200039a576200039a620011aa565b60009182526020808320909101548354600181018555938352912090910180546001600160a01b0319166001600160a01b0390921691909117905580620003e181620011d6565b9150506200036e565b50601254602280546001818101835560008381527f61035b26e3e9eee00e0d72fd1ee8ddca6894550dca6916ea2ac6baa90d11e51092830180546001600160a01b03199081166001600160a01b039097169690961790558354808301855583018054861630179055835491820190935501805490921633179091555b601e5460ff821610156200053b576023600a6014018260ff1681548110620004925762000492620011aa565b60009182526020808320909101548354600181018555938352912090910180546001600160a01b0319166001600160a01b03909216919091179055601e80546022919060ff8416908110620004eb57620004eb620011aa565b60009182526020808320909101548354600181018555938352912090910180546001600160a01b0319166001600160a01b03909216919091179055806200053281620011d6565b91505062000466565b50601c54602380546001808201835560008390527fd57b2b5166478fd4318d2acc6cc2c704584312bdd8781b32d5d06abda57f423091820180546101009095046001600160a01b039081166001600160a01b03199687161790915583548083018555830180543090871617905583549182019093550180543390841617905560098054831684831617905560028054909216908416179055600a620005ea670de0b6b3a76400006001620011f8565b620005f6919062001218565b600855505060006021819055602480546001600160a01b0319163317905590505b83515181101562000781578351805160259190839081106200063d576200063d620011aa565b602090810291909101810151825460018101845560009384529190922082518051600a9093029091019182908190620006779082620010c8565b50602082015160018201906200068e9082620010c8565b5060408201516002820190620006a59082620010c8565b5060608201516003820190620006bc9082620010c8565b5060808201516004820190620006d39082620010c8565b5060a08201516005820190620006ea9082620010c8565b5060c08201516006820190620007019082620010c8565b5060e08201516007820190620007189082620010c8565b506101009190910151600890910180546001600160a01b0319166001600160a01b0390921691909117905560209190910151600990910180546001600160801b0319166001600160801b039092169190911790558062000778816200123b565b91505062000617565b505050505062001257565b336001600160a01b03821603620007e65760405162461bcd60e51b815260206004820152601760248201527f43616e6e6f74207472616e7366657220746f2073656c6600000000000000000060448201526064016200008a565b600780546001600160a01b0319166001600160a01b03838116918217909255600654604051919216907fed8889f560326eb138920d842192f0eb3dd22b4f139c87a2c57538e05bae127890600090a350565b82805482825590600052602060002090810192821562000890579160200282015b828111156200089057825182546001600160a01b0319166001600160a01b0390911617825560209092019160019091019062000859565b506200089e929150620008a2565b5090565b5b808211156200089e5760008155600101620008a3565b634e487b7160e01b600052604160045260246000fd5b60405161012081016001600160401b0381118282101715620008f557620008f5620008b9565b60405290565b604080519081016001600160401b0381118282101715620008f557620008f5620008b9565b604051602081016001600160401b0381118282101715620008f557620008f5620008b9565b60405161024081016001600160401b0381118282101715620008f557620008f5620008b9565b604051601f8201601f191681016001600160401b0381118282101715620009965762000996620008b9565b604052919050565b600082601f830112620009b057600080fd5b81516001600160401b03811115620009cc57620009cc620008b9565b6020620009e2601f8301601f191682016200096b565b8281528582848701011115620009f757600080fd5b60005b8381101562000a17578581018301518282018401528201620009fa565b506000928101909101919091529392505050565b6001600160a01b038116811462000a4157600080fd5b50565b805162000a518162000a2b565b919050565b6000610120828403121562000a6a57600080fd5b62000a74620008cf565b82519091506001600160401b038082111562000a8f57600080fd5b62000a9d858386016200099e565b8352602084015191508082111562000ab457600080fd5b62000ac2858386016200099e565b6020840152604084015191508082111562000adc57600080fd5b62000aea858386016200099e565b6040840152606084015191508082111562000b0457600080fd5b62000b12858386016200099e565b6060840152608084015191508082111562000b2c57600080fd5b62000b3a858386016200099e565b608084015260a084015191508082111562000b5457600080fd5b62000b62858386016200099e565b60a084015260c084015191508082111562000b7c57600080fd5b62000b8a858386016200099e565b60c084015260e084015191508082111562000ba457600080fd5b5062000bb3848285016200099e565b60e08301525061010062000bc981840162000a44565b9082015292915050565b80516001600160801b038116811462000a5157600080fd5b8051801515811462000a5157600080fd5b60006040828403121562000c0f57600080fd5b62000c19620008fb565b905062000c268262000bd3565b81526020820151602082015292915050565b80516002811062000a5157600080fd5b60006001600160401b0382111562000c645762000c64620008b9565b5060051b60200190565b600082601f83011262000c8057600080fd5b8151602062000c9962000c938362000c48565b6200096b565b82815260059290921b8401810191818101908684111562000cb957600080fd5b8286015b8481101562000ce157805162000cd38162000a2b565b835291830191830162000cbd565b509695505050505050565b6000602080838503121562000d0057600080fd5b62000d0a62000920565b83519092506001600160401b038082111562000d2557600080fd5b818501915085601f83011262000d3a57600080fd5b815162000d4b62000c938262000c48565b81815260059190911b8301840190848101908883111562000d6b57600080fd5b8585015b8381101562000df35780518581111562000d895760008081fd5b86016040818c03601f190181131562000da25760008081fd5b62000dac620008fb565b898301518881111562000dbf5760008081fd5b62000dcf8e8c8387010162000a56565b82525062000ddf82840162000bd3565b818b01528552505091860191860162000d6f565b50865250939695505050505050565b6000806000806080858703121562000e1957600080fd5b84516001600160401b038082111562000e3157600080fd5b90860190610260828903121562000e4757600080fd5b62000e5162000945565b82518281111562000e6157600080fd5b62000e6f8a82860162000a56565b82525062000e806020840162000bd3565b602082015262000e936040840162000bd3565b604082015262000ea66060840162000bd3565b60608201526080830151608082015260a083015160a082015260c083015160c082015262000ed760e0840162000beb565b60e082015261010062000eec81850162000beb565b9082015261012062000f0084820162000beb565b9082015261014062000f1484820162000beb565b9082015261016062000f2884820162000beb565b9082015261018062000f3d8a85830162000bfc565b908201526101c0838101518381111562000f5657600080fd5b62000f648b8287016200099e565b6101a0840152506101e062000f7b81860162000c38565b82840152610200915062000f9182860162000a44565b90830152610220848101518481111562000faa57600080fd5b62000fb88c82880162000c6e565b838501525061024085015191508382111562000fd357600080fd5b62000fe18b83870162000c6e565b9083015250602088015190965091508082111562000ffe57600080fd5b506200100d8782880162000cec565b9350506200101e6040860162000a44565b91506200102e6060860162000a44565b905092959194509250565b600181811c908216806200104e57607f821691505b6020821081036200106f57634e487b7160e01b600052602260045260246000fd5b50919050565b601f821115620010c357600081815260208120601f850160051c810160208610156200109e5750805b601f850160051c820191505b81811015620010bf57828155600101620010aa565b5050505b505050565b81516001600160401b03811115620010e457620010e4620008b9565b620010fc81620010f5845462001039565b8462001075565b602080601f8311600181146200113457600084156200111b5750858301515b600019600386901b1c1916600185901b178555620010bf565b600085815260208120601f198616915b82811015620011655788860151825594840194600190910190840162001144565b5085821015620011845787850151600019600388901b60f8161c191681555b5050505050600190811b01905550565b634e487b7160e01b600052602160045260246000fd5b634e487b7160e01b600052603260045260246000fd5b634e487b7160e01b600052601160045260246000fd5b600060ff821660ff8103620011ef57620011ef620011c0565b60010192915050565b8082028115828204841417620012125762001212620011c0565b92915050565b6000826200123657634e487b7160e01b600052601260045260246000fd5b500490565b600060018201620012505762001250620011c0565b5060010190565b613d3b80620012676000396000f3fe6080604052600436106101b85760003560e01c806285ce02146101ef57806301b01c861461021a5780630cef59671461023957806312704a42146102595780631c0bab141461028b5780631f354211146102ab578063248f0f97146102cd57806324f1c53e146102e257806329c08ba21461030f5780632b140f4f1461031757806331ae450b14610337578063378c93ad146103595780633ccfd60b146103795780633db96d5f146103815780634357855e146103aa5780634585e33b146103ca5780634f7d3829146103ea57806352e9c64c1461040a57806360abc1761461042a57806362ba912a1461044a5780636e04ff0d1461045257806372ef31511461048057806379ba50971461049e5780638da5cb5b146104b35780639507b878146104e557806395dcc90a146105045780639636f67c14610558578063a60496501461057a578063adb5174714610598578063b0141ed4146105b7578063bd097e21146105cf578063cc9ba6fa146105d7578063d48d6229146105f9578063d53f56591461060e578063dbd1838814610623578063ec21858f14610648578063f2fde38b14610666578063f5aa02001461068657600080fd5b366101ea576018546301000000900460ff16156101e85760405163c60d361f60e01b815260040160405180910390fd5b005b600080fd5b3480156101fb57600080fd5b5061020461069b565b60405161021191906135a8565b60405180910390f35b34801561022657600080fd5b506016545b604051908152602001610211565b34801561024557600080fd5b506101e86102543660046135c9565b610b5a565b34801561026557600080fd5b506014546001600160801b03165b6040516001600160801b039091168152602001610211565b34801561029757600080fd5b506101e86102a63660046135c9565b610bf5565b3480156102b757600080fd5b506102c0610c90565b604051610211919061361f565b3480156102d957600080fd5b5060175461022b565b3480156102ee57600080fd5b506103026102fd36600461368b565b6111cc565b60405161021191906136b4565b6101e86116dc565b34801561032357600080fd5b50601c5460ff1660405161021191906136c7565b34801561034357600080fd5b5061034c611862565b60405161021191906136ef565b34801561036557600080fd5b506101e86103743660046135c9565b6118c4565b6101e861195d565b34801561038d57600080fd5b50601854610100900460ff165b6040519015158152602001610211565b3480156103b657600080fd5b506101e86103c536600461373c565b611b29565b3480156103d657600080fd5b506101e86103e536600461375e565b611bef565b3480156103f657600080fd5b506101e86104053660046135c9565b611ce5565b34801561041657600080fd5b506101e86104253660046135c9565b611d75565b34801561043657600080fd5b5061022b61044536600461388d565b611e0c565b6101e8611ed7565b34801561045e57600080fd5b5061047261046d36600461375e565b6120b4565b60405161021192919061390a565b34801561048c57600080fd5b506013546001600160801b0316610273565b3480156104aa57600080fd5b506101e86121c4565b3480156104bf57600080fd5b506006546001600160a01b03165b6040516001600160a01b039091168152602001610211565b3480156104f157600080fd5b506018546301000000900460ff1661039a565b34801561051057600080fd5b506040805180820182526000808252602091820152815180830183526019546001600160801b0316808252601a54918301918252835190815290519181019190915201610211565b34801561056457600080fd5b5061056d612272565b6040516102119190613925565b34801561058657600080fd5b5060185462010000900460ff1661039a565b3480156105a457600080fd5b50601854600160201b900460ff1661039a565b3480156105c357600080fd5b5060185460ff1661039a565b6101e861279a565b3480156105e357600080fd5b506105ec6127c7565b604051610211919061397a565b34801561060557600080fd5b506101e8612853565b34801561061a57600080fd5b5061022b61297e565b34801561062f57600080fd5b50601354600160801b90046001600160801b0316610273565b34801561065457600080fd5b506012546001600160a01b03166104cd565b34801561067257600080fd5b506101e861068136600461398d565b612a26565b34801561069257600080fd5b5061039a612a3a565b6106a36133aa565b604080516101208101909152600a8054829082906106c0906139a8565b80601f01602080910402602001604051908101604052809291908181526020018280546106ec906139a8565b80156107395780601f1061070e57610100808354040283529160200191610739565b820191906000526020600020905b81548152906001019060200180831161071c57829003601f168201915b50505050508152602001600182018054610752906139a8565b80601f016020809104026020016040519081016040528092919081815260200182805461077e906139a8565b80156107cb5780601f106107a0576101008083540402835291602001916107cb565b820191906000526020600020905b8154815290600101906020018083116107ae57829003601f168201915b505050505081526020016002820180546107e4906139a8565b80601f0160208091040260200160405190810160405280929190818152602001828054610810906139a8565b801561085d5780601f106108325761010080835404028352916020019161085d565b820191906000526020600020905b81548152906001019060200180831161084057829003601f168201915b50505050508152602001600382018054610876906139a8565b80601f01602080910402602001604051908101604052809291908181526020018280546108a2906139a8565b80156108ef5780601f106108c4576101008083540402835291602001916108ef565b820191906000526020600020905b8154815290600101906020018083116108d257829003601f168201915b50505050508152602001600482018054610908906139a8565b80601f0160208091040260200160405190810160405280929190818152602001828054610934906139a8565b80156109815780601f1061095657610100808354040283529160200191610981565b820191906000526020600020905b81548152906001019060200180831161096457829003601f168201915b5050505050815260200160058201805461099a906139a8565b80601f01602080910402602001604051908101604052809291908181526020018280546109c6906139a8565b8015610a135780601f106109e857610100808354040283529160200191610a13565b820191906000526020600020905b8154815290600101906020018083116109f657829003601f168201915b50505050508152602001600682018054610a2c906139a8565b80601f0160208091040260200160405190810160405280929190818152602001828054610a58906139a8565b8015610aa55780601f10610a7a57610100808354040283529160200191610aa5565b820191906000526020600020905b815481529060010190602001808311610a8857829003601f168201915b50505050508152602001600782018054610abe906139a8565b80601f0160208091040260200160405190810160405280929190818152602001828054610aea906139a8565b8015610b375780601f10610b0c57610100808354040283529160200191610b37565b820191906000526020600020905b815481529060010190602001808311610b1a57829003601f168201915b5050509183525050600891909101546001600160a01b0316602090910152919050565b6000805b60235460ff82161015610bb75760238160ff1681548110610b8157610b816139dc565b6000918252602090912001546001600160a01b03163303610ba55760019150610bb7565b80610baf81613a08565b915050610b5e565b5080610bd6576040516303156b6760e31b815260040160405180910390fd5b5060188054911515600160201b0260ff60201b19909216919091179055565b6000805b60235460ff82161015610c525760238160ff1681548110610c1c57610c1c6139dc565b6000918252602090912001546001600160a01b03163303610c405760019150610c52565b80610c4a81613a08565b915050610bf9565b5080610c71576040516303156b6760e31b815260040160405180910390fd5b506018805491151563010000000263ff00000019909216919091179055565b6040805160208101909152606081526040805160258054602081810284018501855283018181529293919284929091849160009085015b828210156111bf576000848152602090206040805161016081018252600a850290920180549091839190820190839082908290610d03906139a8565b80601f0160208091040260200160405190810160405280929190818152602001828054610d2f906139a8565b8015610d7c5780601f10610d5157610100808354040283529160200191610d7c565b820191906000526020600020905b815481529060010190602001808311610d5f57829003601f168201915b50505050508152602001600182018054610d95906139a8565b80601f0160208091040260200160405190810160405280929190818152602001828054610dc1906139a8565b8015610e0e5780601f10610de357610100808354040283529160200191610e0e565b820191906000526020600020905b815481529060010190602001808311610df157829003601f168201915b50505050508152602001600282018054610e27906139a8565b80601f0160208091040260200160405190810160405280929190818152602001828054610e53906139a8565b8015610ea05780601f10610e7557610100808354040283529160200191610ea0565b820191906000526020600020905b815481529060010190602001808311610e8357829003601f168201915b50505050508152602001600382018054610eb9906139a8565b80601f0160208091040260200160405190810160405280929190818152602001828054610ee5906139a8565b8015610f325780601f10610f0757610100808354040283529160200191610f32565b820191906000526020600020905b815481529060010190602001808311610f1557829003601f168201915b50505050508152602001600482018054610f4b906139a8565b80601f0160208091040260200160405190810160405280929190818152602001828054610f77906139a8565b8015610fc45780601f10610f9957610100808354040283529160200191610fc4565b820191906000526020600020905b815481529060010190602001808311610fa757829003601f168201915b50505050508152602001600582018054610fdd906139a8565b80601f0160208091040260200160405190810160405280929190818152602001828054611009906139a8565b80156110565780601f1061102b57610100808354040283529160200191611056565b820191906000526020600020905b81548152906001019060200180831161103957829003601f168201915b5050505050815260200160068201805461106f906139a8565b80601f016020809104026020016040519081016040528092919081815260200182805461109b906139a8565b80156110e85780601f106110bd576101008083540402835291602001916110e8565b820191906000526020600020905b8154815290600101906020018083116110cb57829003601f168201915b50505050508152602001600782018054611101906139a8565b80601f016020809104026020016040519081016040528092919081815260200182805461112d906139a8565b801561117a5780601f1061114f5761010080835404028352916020019161117a565b820191906000526020600020905b81548152906001019060200180831161115d57829003601f168201915b5050509183525050600891909101546001600160a01b0316602091820152908252600992909201546001600160801b0316908201529082526001929092019101610cc7565b5050505081525050905090565b6111d46133ff565b602580546001600160801b0384169081106111f1576111f16139dc565b90600052602060002090600a0201604051806040016040529081600082016040518061012001604052908160008201805461122b906139a8565b80601f0160208091040260200160405190810160405280929190818152602001828054611257906139a8565b80156112a45780601f10611279576101008083540402835291602001916112a4565b820191906000526020600020905b81548152906001019060200180831161128757829003601f168201915b505050505081526020016001820180546112bd906139a8565b80601f01602080910402602001604051908101604052809291908181526020018280546112e9906139a8565b80156113365780601f1061130b57610100808354040283529160200191611336565b820191906000526020600020905b81548152906001019060200180831161131957829003601f168201915b5050505050815260200160028201805461134f906139a8565b80601f016020809104026020016040519081016040528092919081815260200182805461137b906139a8565b80156113c85780601f1061139d576101008083540402835291602001916113c8565b820191906000526020600020905b8154815290600101906020018083116113ab57829003601f168201915b505050505081526020016003820180546113e1906139a8565b80601f016020809104026020016040519081016040528092919081815260200182805461140d906139a8565b801561145a5780601f1061142f5761010080835404028352916020019161145a565b820191906000526020600020905b81548152906001019060200180831161143d57829003601f168201915b50505050508152602001600482018054611473906139a8565b80601f016020809104026020016040519081016040528092919081815260200182805461149f906139a8565b80156114ec5780601f106114c1576101008083540402835291602001916114ec565b820191906000526020600020905b8154815290600101906020018083116114cf57829003601f168201915b50505050508152602001600582018054611505906139a8565b80601f0160208091040260200160405190810160405280929190818152602001828054611531906139a8565b801561157e5780601f106115535761010080835404028352916020019161157e565b820191906000526020600020905b81548152906001019060200180831161156157829003601f168201915b50505050508152602001600682018054611597906139a8565b80601f01602080910402602001604051908101604052809291908181526020018280546115c3906139a8565b80156116105780601f106115e557610100808354040283529160200191611610565b820191906000526020600020905b8154815290600101906020018083116115f357829003601f168201915b50505050508152602001600782018054611629906139a8565b80601f0160208091040260200160405190810160405280929190818152602001828054611655906139a8565b80156116a25780601f10611677576101008083540402835291602001916116a2565b820191906000526020600020905b81548152906001019060200180831161168557829003601f168201915b5050509183525050600891909101546001600160a01b0316602091820152908252600992909201546001600160801b031691015292915050565b6018546301000000900460ff16156117075760405163c60d361f60e01b815260040160405180910390fd5b601854600160201b900460ff1615611732576040516340f6157f60e01b815260040160405180910390fd5b601854610100900460ff166117fc57601354601954611764916001600160801b03600160801b90910481169116613a27565b6001600160801b0316601f544261177b9190613a4e565b111561179a57604051631932f4cb60e21b815260040160405180910390fd5b6127106117b0670de0b6b3a76400006001613a61565b6117ba9190613a8e565b601a546117c8903490613a4e565b11156117e757604051631b44afc760e31b815260040160405180910390fd5b42601f556018805461ff001916610100179055565b612710611812670de0b6b3a76400006001613a61565b61181c9190613a8e565b60165461182a903490613a4e565b111561184957604051631da12e3160e21b815260040160405180910390fd5b42601f556018805460ff60201b1916600160201b179055565b606060228054806020026020016040519081016040528092919081815260200182805480156118ba57602002820191906000526020600020905b81546001600160a01b0316815260019091019060200180831161189c575b5050505050905090565b6000805b60235460ff821610156119215760238160ff16815481106118eb576118eb6139dc565b6000918252602090912001546001600160a01b0316330361190f5760019150611921565b8061191981613a08565b9150506118c8565b5080611940576040516303156b6760e31b815260040160405180910390fd5b5060188054911515620100000262ff000019909216919091179055565b6018546301000000900460ff16156119885760405163c60d361f60e01b815260040160405180910390fd5b6000805b6025548110156119e85760258054829081106119aa576119aa6139dc565b600091825260209091206008600a9092020101546001600160a01b031633036119d657600191506119e8565b806119e081613aa2565b91505061198c565b5080611a0757604051630473f6c160e01b815260040160405180910390fd5b60185462010000900460ff16611a305760405163608bc83960e11b815260040160405180910390fd5b601754600090471015611a44575047611a49565b506017545b60005b602554811015611b11576025805482908110611a6a57611a6a6139dc565b600091825260209091206008600a909202010154602580546001600160a01b03909216916108fc9160649185908110611aa557611aa56139dc565b600091825260209091206009600a909202010154611acc906001600160801b031686613a61565b611ad69190613a8e565b6040518115909202916000818181858888f19350505050158015611afe573d6000803e3d6000fd5b5080611b0981613aa2565b915050611a4c565b50506018805463ff0000001916630100000017905550565b60008281526005602052604090205482906001600160a01b03163314611ba75760405162461bcd60e51b815260206004820152602860248201527f536f75726365206d75737420626520746865206f7261636c65206f6620746865604482015267081c995c5d595cdd60c21b60648201526084015b60405180910390fd5b60008181526005602052604080822080546001600160a01b03191690555182917f7cc135e0cebb02c3480ae5d74d377283180a2601f8f644edf7987b009316c63a91a2505050565b6018805460ff60201b1916905560155460218054600090611c11908490613abb565b90915550506013546021546001600160801b0390911611611c6557611c34612853565b604051429030907f5cdfd10fd88b4f60699cde1324e455ad923aa4a2b812b17a75312f4d92f31e8590600090a35050565b601354601f54600160801b9091046001600160801b031690611c879042613a4e565b1115611c99576018805461ff00191690555b601954601354611cbc916001600160801b0390811691600160801b900416613a27565b6001600160801b0316601f5442611cd39190613a4e565b1115611ce157611ce1612853565b5050565b6000805b60235460ff82161015611d425760238160ff1681548110611d0c57611d0c6139dc565b6000918252602090912001546001600160a01b03163303611d305760019150611d42565b80611d3a81613a08565b915050611ce9565b5080611d61576040516303156b6760e31b815260040160405180910390fd5b506018805460ff1916911515919091179055565b6000805b60235460ff82161015611dd25760238160ff1681548110611d9c57611d9c6139dc565b6000918252602090912001546001600160a01b03163303611dc05760019150611dd2565b80611dca81613a08565b915050611d79565b5080611df1576040516303156b6760e31b815260040160405180910390fd5b50601880549115156101000261ff0019909216919091179055565b600380546001600160a01b0319166001600160a01b038316179055600080611e3c84306321abc2af60e11b612b9d565b60408051808201909152600381526219d95d60ea1b6020820152909150611e6590829088612bc2565b6040805180820190915260048152630e0c2e8d60e31b6020820152611e8c90829087612bc2565b60408051808201909152600581526474696d657360d81b6020820152670de0b6b3a764000090611ebe90839083612be5565b611eca82600854612c03565b925050505b949350505050565b6000805b60225460ff82161015611f345760228160ff1681548110611efe57611efe6139dc565b6000918252602090912001546001600160a01b03163303611f225760019150611f34565b80611f2c81613a08565b915050611edb565b5080611f5357604051634777b53760e11b815260040160405180910390fd5b6018546301000000900460ff1615611f7e5760405163c60d361f60e01b815260040160405180910390fd5b601854610100900460ff1615611fa757604051638d8d689b60e01b815260040160405180910390fd5b60185460ff1615611fcb57604051631a4c0efb60e21b815260040160405180910390fd5b601354601954611fee916001600160801b03600160801b90910481169116613a27565b6001600160801b0316601f54426120059190613a4e565b111561202457604051631932f4cb60e21b815260040160405180910390fd5b61271061203a670de0b6b3a76400006001613a61565b6120449190613a8e565b601a54612052903490613a4e565b101561207157604051631b44afc760e31b815260040160405180910390fd5b42601f8190556018805461ff00191661010017905560405130907fae58e176bc576df1b357b7bf578b1a6de09b152728d689a12df8abed009003ca90600090a350565b6018546000906060906301000000900460ff16156120fd575050604080518082019091526014815273141bdb1a58de481a5cc81d195c9b5a5b985d195960621b60208201526000905b601854610100900460ff1661217f5760195460135461212f916001600160801b0390811691600160801b900416613a27565b6001600160801b0316601f54426121469190613a4e565b111561217f5750506040805180820190915260168152752932bb34bb30b6103832b934b7b21034b99037bb32b960511b60208201526000905b601554601f5461218f9042613a4e565b1191506040518060400160405280601081526020016f155c1ad9595c081a5cc81b995959195960821b81525090509250929050565b6007546001600160a01b031633146122175760405162461bcd60e51b815260206004820152601660248201527526bab9ba10313290383937b837b9b2b21037bbb732b960511b6044820152606401611b9e565b600680546001600160a01b0319808216339081179093556007805490911690556040516001600160a01b03909116919082907f8be0079c531659141344cd1fd0a4f28419497f9722a3daafe3b4186f6b6457e090600090a350565b60606025600001805480602002602001604051908101604052809291908181526020016000905b82821015612791576000848152602090206040805161016081018252600a8502909201805490918391908201908390829082906122d5906139a8565b80601f0160208091040260200160405190810160405280929190818152602001828054612301906139a8565b801561234e5780601f106123235761010080835404028352916020019161234e565b820191906000526020600020905b81548152906001019060200180831161233157829003601f168201915b50505050508152602001600182018054612367906139a8565b80601f0160208091040260200160405190810160405280929190818152602001828054612393906139a8565b80156123e05780601f106123b5576101008083540402835291602001916123e0565b820191906000526020600020905b8154815290600101906020018083116123c357829003601f168201915b505050505081526020016002820180546123f9906139a8565b80601f0160208091040260200160405190810160405280929190818152602001828054612425906139a8565b80156124725780601f1061244757610100808354040283529160200191612472565b820191906000526020600020905b81548152906001019060200180831161245557829003601f168201915b5050505050815260200160038201805461248b906139a8565b80601f01602080910402602001604051908101604052809291908181526020018280546124b7906139a8565b80156125045780601f106124d957610100808354040283529160200191612504565b820191906000526020600020905b8154815290600101906020018083116124e757829003601f168201915b5050505050815260200160048201805461251d906139a8565b80601f0160208091040260200160405190810160405280929190818152602001828054612549906139a8565b80156125965780601f1061256b57610100808354040283529160200191612596565b820191906000526020600020905b81548152906001019060200180831161257957829003601f168201915b505050505081526020016005820180546125af906139a8565b80601f01602080910402602001604051908101604052809291908181526020018280546125db906139a8565b80156126285780601f106125fd57610100808354040283529160200191612628565b820191906000526020600020905b81548152906001019060200180831161260b57829003601f168201915b50505050508152602001600682018054612641906139a8565b80601f016020809104026020016040519081016040528092919081815260200182805461266d906139a8565b80156126ba5780601f1061268f576101008083540402835291602001916126ba565b820191906000526020600020905b81548152906001019060200180831161269d57829003601f168201915b505050505081526020016007820180546126d3906139a8565b80601f01602080910402602001604051908101604052809291908181526020018280546126ff906139a8565b801561274c5780601f106127215761010080835404028352916020019161274c565b820191906000526020600020905b81548152906001019060200180831161272f57829003601f168201915b5050509183525050600891909101546001600160a01b0316602091820152908252600992909201546001600160801b0316908201529082526001929092019101612299565b50505050905090565b6018546301000000900460ff16156127c55760405163c60d361f60e01b815260040160405180910390fd5b565b6060600a60110180546127d9906139a8565b80601f0160208091040260200160405190810160405280929190818152602001828054612805906139a8565b80156118ba5780601f10612827576101008083540402835291602001916118ba565b820191906000526020600020905b81548152906001019060200180831161283557509395945050505050565b6000805b60225460ff821610156128b05760228160ff168154811061287a5761287a6139dc565b6000918252602090912001546001600160a01b0316330361289e57600191506128b0565b806128a881613a08565b915050612857565b50806128cf57604051634777b53760e11b815260040160405180910390fd5b6018546301000000900460ff16156128fa5760405163c60d361f60e01b815260040160405180910390fd5b6018805463ff00000019166301000000179055601c546040516001600160a01b0361010090920491909116904780156108fc02916000818181858888f1935050505015801561294d573d6000803e3d6000fd5b50604051429030907f93ab168dc98bbf682a895391ada0c32617e8f5a4140cc8048dc22e90664d620e90600090a350565b600080600960009054906101000a90046001600160a01b03166001600160a01b031663feaf968c6040518163ffffffff1660e01b815260040160a060405180830381865afa1580156129d4573d6000803e3d6000fd5b505050506040513d601f19601f820116820180604052508101906129f89190613ae5565b5050601654919350839250600091670de0b6b3a76400009150612a1c908490613a61565b611ecf9190613a8e565b612a2e612c26565b612a3781612c79565b50565b600080805b60225460ff82161015612a985760228160ff1681548110612a6257612a626139dc565b6000918252602090912001546001600160a01b03163303612a865760019150612a98565b80612a9081613a08565b915050612a3f565b5080612ab757604051634777b53760e11b815260040160405180910390fd5b6018546301000000900460ff1615612ae25760405163c60d361f60e01b815260040160405180910390fd5b601854610100900460ff16612b0a57604051638966b51f60e01b815260040160405180910390fd5b60185462010000900460ff1615612b345760405163229cd7c560e11b815260040160405180910390fd5b60185460ff1615612b5857604051631a4c0efb60e21b815260040160405180910390fd5b6018805460ff19166001908117909155604051429030907f9807d4727ae6308b32cd43219b52031088c7bad64a9936c1afaf6df0c6ce723d90600090a4600191505090565b612ba561341f565b612bad61341f565b612bb981868686612d1d565b95945050505050565b6080830151612bd19083612d5a565b6080830151612be09082612d5a565b505050565b6080830151612bf49083612d5a565b6080830151612be09082612d71565b600354600090612c1d906001600160a01b03168484612dcf565b90505b92915050565b6006546001600160a01b031633146127c55760405162461bcd60e51b815260206004820152601660248201527527b7363c9031b0b63630b1363290313c9037bbb732b960511b6044820152606401611b9e565b336001600160a01b03821603612ccb5760405162461bcd60e51b815260206004820152601760248201527621b0b73737ba103a3930b739b332b9103a379039b2b63360491b6044820152606401611b9e565b600780546001600160a01b0319166001600160a01b03838116918217909255600654604051919216907fed8889f560326eb138920d842192f0eb3dd22b4f139c87a2c57538e05bae127890600090a350565b612d2561341f565b612d358560800151610100612e62565b50509183526001600160a01b031660208301526001600160e01b031916604082015290565b612d678260038351612eba565b612be08282612fc7565b6001600160401b0319811215612d8b57611ce18282612fe1565b6001600160401b03811315612da457611ce18282613023565b60008112612db857611ce182600083612eba565b611ce1826001612dca84600019613b35565b612eba565b600454600090612de0816001613abb565b600455835160408086015160808701515191516000936320214ca360e11b93612e189386938493923092918a91600191602401613b55565b60408051601f198184030181529190526020810180516001600160e01b03166001600160e01b0319909316929092179091529050612e5886838684613046565b9695505050505050565b612e6a613454565b612e75602083613bbd565b15612e9d57612e85602083613bbd565b612e90906020613a4e565b612e9a9083613abb565b91505b506020828101829052604080518085526000815290920101905290565b6017816001600160401b031611612ee457612ede8360e0600585901b16831761319f565b50505050565b60ff816001600160401b031611612f2057612f0a836018611fe0600586901b161761319f565b50612ede836001600160401b03831660016131b7565b61ffff816001600160401b031611612f5d57612f47836019611fe0600586901b161761319f565b50612ede836001600160401b03831660026131b7565b63ffffffff816001600160401b031611612f9c57612f8683601a611fe0600586901b161761319f565b50612ede836001600160401b03831660046131b7565b612fb183601b611fe0600586901b161761319f565b50612ede836001600160401b03831660086131b7565b612fcf613454565b612c1d838460000151518485516131d0565b612fec8260c361319f565b50611ce182612ffd83600019613b35565b60405160200161300f91815260200190565b6040516020818303038152906040526132ad565b61302e8260c261319f565b50611ce1828260405160200161300f91815260200190565b6040516001600160601b03193060601b1660208201526034810184905260009060540160408051808303601f1901815282825280516020918201206000818152600590925291812080546001600160a01b0319166001600160a01b038a1617905590925082917fb5e6e01e79f91267dc17b4e6314d5d4d03593d2ceee0fbb452b750bd70ea5af99190a2600254604051630200057560e51b81526001600160a01b0390911690634000aea09061310490889087908790600401613bd1565b6020604051808303816000875af1158015613123573d6000803e3d6000fd5b505050506040513d601f19601f820116820180604052508101906131479190613bf8565b611ecf5760405162461bcd60e51b815260206004820152602360248201527f756e61626c6520746f207472616e73666572416e6443616c6c20746f206f7261604482015262636c6560e81b6064820152608401611b9e565b6131a7613454565b612c1d83846000015151846132ba565b6131bf613454565b611ecf848560000151518585613308565b6131d8613454565b82518211156131e657600080fd5b60208501516131f58386613abb565b11156132285761322885613218876020015187866132139190613abb565b61337c565b613223906002613a61565b613393565b6000808651805187602083010193508088870111156132475787860182525b505050602084015b602084106132875780518252613266602083613abb565b9150613273602082613abb565b9050613280602085613a4e565b935061324f565b51815160001960208690036101000a019081169019919091161790525083949350505050565b612d678260028351612eba565b6132c2613454565b836020015183106132e2576132e284856020015160026132239190613a61565b83518051602085830101848153508085036132fe576001810182525b5093949350505050565b613310613454565b602085015161331f8584613abb565b111561333357613333856132188685613abb565b6000600161334384610100613cf9565b61334d9190613a4e565b90508551838682010185831982511617815250805184870111156133715783860181525b509495945050505050565b60008183111561338d575081612c20565b50919050565b815161339f8383612e62565b50612ede8382612fc7565b604051806101200160405280606081526020016060815260200160608152602001606081526020016060815260200160608152602001606081526020016060815260200160006001600160a01b031681525090565b60405180604001604052806134126133aa565b8152600060209091015290565b6040805160a08101825260008082526020820181905291810182905260608101919091526080810161344f613454565b905290565b604051806040016040528060608152602001600081525090565b6000815180845260005b8181101561349457602081850181015186830182015201613478565b506000602082860101526020601f19601f83011685010191505092915050565b600061012082518185526134ca8286018261346e565b915050602083015184820360208601526134e4828261346e565b915050604083015184820360408601526134fe828261346e565b91505060608301518482036060860152613518828261346e565b91505060808301518482036080860152613532828261346e565b91505060a083015184820360a086015261354c828261346e565b91505060c083015184820360c0860152613566828261346e565b91505060e083015184820360e0860152613580828261346e565b9150506101008084015161359e828701826001600160a01b03169052565b5090949350505050565b602081526000612c1d60208301846134b4565b8015158114612a3757600080fd5b6000602082840312156135db57600080fd5b81356135e6816135bb565b9392505050565b600081516040845261360260408501826134b4565b6020938401516001600160801b0316949093019390935250919050565b60006020808352604083018451828386015281815180845260608701915060608160051b8801019350848301925060005b8181101561367e57605f1988860301835261366c8585516135ed565b94509285019291850191600101613650565b5092979650505050505050565b60006020828403121561369d57600080fd5b81356001600160801b03811681146135e657600080fd5b602081526000612c1d60208301846135ed565b60208101600283106136e957634e487b7160e01b600052602160045260246000fd5b91905290565b6020808252825182820181905260009190848201906040850190845b818110156137305783516001600160a01b03168352928401929184019160010161370b565b50909695505050505050565b6000806040838503121561374f57600080fd5b50508035926020909101359150565b6000806020838503121561377157600080fd5b82356001600160401b038082111561378857600080fd5b818501915085601f83011261379c57600080fd5b8135818111156137ab57600080fd5b8660208285010111156137bd57600080fd5b60209290920196919550909350505050565b634e487b7160e01b600052604160045260246000fd5b600082601f8301126137f657600080fd5b81356001600160401b0380821115613810576138106137cf565b604051601f8301601f19908116603f01168101908282118183101715613838576138386137cf565b8160405283815286602085880101111561385157600080fd5b836020870160208301376000602085830101528094505050505092915050565b80356001600160a01b038116811461388857600080fd5b919050565b600080600080608085870312156138a357600080fd5b84356001600160401b03808211156138ba57600080fd5b6138c6888389016137e5565b955060208701359150808211156138dc57600080fd5b506138e9878288016137e5565b935050604085013591506138ff60608601613871565b905092959194509250565b8215158152604060208201526000611ecf604083018461346e565b6000602080830181845280855180835260408601915060408160051b870101925083870160005b8281101561367e57603f198886030184526139688583516135ed565b9450928501929085019060010161394c565b602081526000612c1d602083018461346e565b60006020828403121561399f57600080fd5b612c1d82613871565b600181811c908216806139bc57607f821691505b60208210810361338d57634e487b7160e01b600052602260045260246000fd5b634e487b7160e01b600052603260045260246000fd5b634e487b7160e01b600052601160045260246000fd5b600060ff821660ff8103613a1e57613a1e6139f2565b60010192915050565b6001600160801b03818116838216019080821115613a4757613a476139f2565b5092915050565b81810381811115612c2057612c206139f2565b8082028115828204841417612c2057612c206139f2565b634e487b7160e01b600052601260045260246000fd5b600082613a9d57613a9d613a78565b500490565b600060018201613ab457613ab46139f2565b5060010190565b80820180821115612c2057612c206139f2565b80516001600160501b038116811461388857600080fd5b600080600080600060a08688031215613afd57600080fd5b613b0686613ace565b9450602086015193506040860151925060608601519150613b2960808701613ace565b90509295509295909350565b8181036000831280158383131683831282161715613a4757613a476139f2565b6001600160a01b0389811682526020820189905260408201889052861660608201526001600160e01b03198516608082015260a0810184905260c0810183905261010060e08201819052600090613bae8382018561346e565b9b9a5050505050505050505050565b600082613bcc57613bcc613a78565b500690565b60018060a01b0384168152826020820152606060408201526000612bb9606083018461346e565b600060208284031215613c0a57600080fd5b81516135e6816135bb565b600181815b80851115613c50578160001904821115613c3657613c366139f2565b80851615613c4357918102915b93841c9390800290613c1a565b509250929050565b600082613c6757506001612c20565b81613c7457506000612c20565b8160018114613c8a5760028114613c9457613cb0565b6001915050612c20565b60ff841115613ca557613ca56139f2565b50506001821b612c20565b5060208310610133831016604e8410600b8410161715613cd3575081810a612c20565b613cdd8383613c15565b8060001904821115613cf157613cf16139f2565b029392505050565b6000612c1d8383613c5856fea2646970667358221220f7b8a382616a6c96f4b145c34e776903a3484f9e238e99dc9de2a2ece4f24c2e64736f6c63430008120033a2646970667358221220517dcfa29f437bc3fa9c3b5ed006a660982a42cd598d94c3fd593460c988fd6d64736f6c63430008120033",
  "devdoc": {
    "details": "PolicyGenerator Contract note This contract can be used to generate the child contracts  derived from BaseInsurancePolicy contract.  note Add the deployCustomPolicy function to deploy the custom policy contracts ",
    "kind": "dev",
    "methods": {
      "deployLifePolicy(((string,string,string,string,string,string,string,string,address),uint128,uint128,uint128,uint256,uint256,uint256,bool,bool,bool,bool,bool,(uint128,uint256),string,uint8,address,address[],address[]),(((string,string,string,string,string,string,string,string,address),uint128)[]),address,address)": {
        "details": "deployLifePolicy Function note this is an example deploy function to deploy the LifeInsurancePolicy contract  using the policy generator"
      }
    },
    "version": 1
  },
  "userdoc": {
    "kind": "user",
    "methods": {},
    "version": 1
  },
  "storageLayout": {
    "storage": [],
    "types": null
  }
}